:020000022000DC
:1060000000000120756302005D6302005F6302000F
:106010006163020063630200656302000000000028
:1060200000000000000000000000000067630200A4
:1060300069630200000000006B6302006D630200F0
:10604000618202006F63020099860200698B020080
:106050006F6302006F630200218502006F6302001C
:1060600039910200499102006F6302006F630200E0
:106070006F6302006F6302006F6302006F630200D0
:106080006F630200357002006F6302006F630200ED
:10609000D17002006F63020095B302006F630200CB
:1060A0006F6302006F6302006F6302006F630200A0
:1060B0006F6302006F630200000000000000000038
:1060C0006F6302006F6302006F6302006F63020080
:1060D0006F6302006F6302006F6302000000000044
:1060E00000000000000000000000000000000000B0
:1060F00000000000000000000000000000000000A0
:10610000000000000000000000000000000000008F
:10611000000000000000000000000000000000007F
:10612000000000000000000000000000000000006F
:10613000000000000000000000000000000000005F
:10614000000000000000000000000000000000004F
:10615000000000000000000000000000000000003F
:10616000000000000000000000000000000000002F
:10617000000000000000000000000000000000001F
:10618000000000000000000000000000000000000F
:1061900000000000000000000000000000000000FF
:1061A00000000000000000000000000000000000EF
:1061B00000000000000000000000000000000000DF
:1061C00000000000000000000000000000000000CF
:1061D00000000000000000000000000000000000BF
:1061E00000000000000000000000000000000000AF
:1061F000000000000000000000000000000000009F
:10620000354936480A1A02D0072291438D4634494F
:1062100034480A1A06D00722914381F309880222E2
:1062200082F3148830483149314A00F044F831484B
:106230003149324A00F03FF831483249324A00F0E1
:106240003AF832483249334A00F035F83248334997
:10625000334A00F030F833483349344A00F02BF821
:1062600033483449344A00F026F83448344900228F
:1062700000F02CF833483449002200F027F8334866
:106280003349091A082902DB002202604160314AC1
:1062900090471F481F49884205D00268043003B464
:1062A000904703BCF7E700208646EC46002000211B
:1062B000294A9047FEE7884207D0521A05D0037852
:1062C00001300B700131013AF9D17047884202D098
:1062D00002700130FAE770470000012000E0002062
:1062E0000000012000000120A8F60200982A0020EA
:1062F000042B0020D4630200D463020080E6020075
:10630000A8F60200982A0020982A002084E70200BC
:1063100084E7020084E7020084E7020084E70200C9
:1063200084E7020084E7020084E70200A8F6020086
:1063300014F70200042B0020042B0020042B002063
:10634000B8370020B8370020BC370020BC37002009
:10635000BC5700209D630200259B0200FEE7FEE77C
:10636000FEE7FEE7FEE7FEE7FEE7FEE7FEE7FEE705
:10637000704700BF1048804710484FF0070188431E
:1063800085460F4880470F48016841F4700101605D
:10639000BFF34F8FBFF36F8FFFF732BF0A480B4930
:1063A0000B4A884207D0521A05D0037801300B708F
:1063B0000131013AF9D170477163020000000120F8
:1063C000497D020088ED00E084E70200982A002061
:0463D000982A0020E7
:1063D40000487047B03700207047000007B5044BF1
:1063E4000093044A402300F030F803B05DF804FB46
:1063F400FD630200052B00202DE9F843884614466E
:10640400B2B10F4B0F4E0325002743F0010922467A
:1064140008EB0701002003F0BBFC0744241A48B929
:1064240033782BB14FF47A40C847013D02D135701F
:10643400BDE8F88301233370002CE8D1F8E700BFEE
:1064440090E70200042B00207047F0B595B01D467C
:10645400164608460C4601F0A1FB1A9B0D93CDE9A4
:10646400086500252B46082205A920460A958DF8C3
:106474002C500C9501F0AEFB079B0293069B0393F3
:106484009DF814308DF8115003F00302012A1DD138
:10649400BDF81420059DC3F3C203C2F383168DF81F
:1064A4001030B20008230EA9204601F093FBC5F377
:1064B400952508AB0093324602AB0EA9284600F09E
:1064C4000BFB204601F06EFB15B0F0BD022AF8D19B
:1064D400BDF81650C3F3C203C5F389158DF8103007
:1064E4000827082D2E4628BF08263B4632460EA90B
:1064F400204601F06FFBAD1B08AB02AA31460EA883
:10650400374400F04DFB002DEBD1DAE7037813F0AC
:10651400040216D003F00303012B03D0022B09D08D
:10652400012070470A6800880232C0F383100244D5
:106534000A60F5E70B684288023303EB92130B60A1
:10654400EEE71046704700002DE9F04FDFF830A168
:1065540087B00F4600230446861C0DF1070015463C
:106564008DF8073000F0E4FFDAF800103960DAE95A
:106574000132134401335B1A0AF21C470AF583699A
:106584000AF21448B3421CD30020002D73D004F047
:106594000F039B0143F0050363F30F00DAF80020B7
:1065A400DAF808301340033332444AF823009DF8E4
:1065B4000700CAF8002000F0DFFF012007B0BDE8A3
:1065C400F08F0121384601F038F8484601F04DF8C3
:1065D400404601F04AF8DAF80400DAF808B002900C
:1065E40000EA0B0003300AEB800002A9FFF78EFFDC
:1065F400029B50BB0BEA03020AEB820203F1020C7A
:10660400D2680392013303EA0B0B0AEB8B0B02F003
:106614000302012ADBF80C10CDF808C023D0022AAB
:1066240016D08346404601F023F810B1029BCAF805
:1066340004305946384601F000F8DAE901231344DE
:10664400DAF8002001339B1A9CE70BEA0300C9E740
:10665400BDF80E30C3F3891303334FEA114B0CEB2F
:1066640093030293DEE7BDF80C30C3F383134FEAC0
:10667400114B6344F5E7A40544F006008EE700BF20
:10668400182C002030B50A4C71B10A4A0A49121B71
:10669400D20800239A4201D1002030BD31F82350A2
:1066A400854202D00133F5E7034654F83300F4E79A
:1066B400FCE6020074E70200982A0020094B013925
:1066C40003EBC000032909D8DFE801F00A0204063D
:1066D4000420704700797047407970470020704764
:1066E40002207047FCE60200034BD3E90030C31AD2
:1066F40058425841704700BF182C00202DE9F04340
:1067040087B0FFF7F1FF0646002840F0FE80804C7A
:10671400C4F81804BFF34F8F6368A56802932B4035
:10672400033304EB830002A9FFF7F0FE029B18B1C8
:10673400D4F81824002A62D005EA0302991C013314
:1067440004EB82022B4004EB8303D268DB680493DE
:1067540002F00303022B0392029163D1BDF80E30C1
:106764006C48C3F38917502FB84628BF4FF0500820
:1067740008F1080168F38F13C1F30901ADF80E3075
:1067840001F0DDF90646002800F0AA8001F006FABF
:106794000023082203A9304601F012FA029925EADF
:1067A40001020132B8EB820F4FEA820333D95FFA58
:1067B40088F863B32940DDB2A8EB050803315FFA1A
:1067C40088F9A846544D04EB81010823424630461B
:1067D40001F0F6F93DB108F10803DBB24A46294657
:1067E400304601F0EDF9029B033703EB970702975C
:1067F400D4F81834002B4BD1D4F810545BE0226841
:1068040093428CD36260304607B0BDE8F0834249BE
:106814001D469946D9E7294003310823424604EB33
:106824008101DDE7012B5BD1BDF80C303948C3F39E
:106834008311062928BF062161F38913023101F06F
:106844000F018900ADF80C3001F079F906460028F3
:1068540046D001F0A3F90023082203A9304601F031
:10686400AFF90027BDF80C20C2F38312BB00974296
:1068740003F10803BCD202994A1C29400331029255
:1068840004EB81010422304601F09AF90137E9E76B
:10689400304601F087F9FFF727FF80F00100C6B208
:1068A400B1E7EB685B7923B12B6831461B68284656
:1068B4009847EB681D68002DF3D1304601F072F95A
:1068C4000DF107008DF8075000F032FED4F81834AB
:1068D4000BB9029B63609DF8070000F04DFEDAE7F8
:1068E400D4F8104454B90D4B0D480E49C01AC008D1
:1068F400000440F0020000F063F8CCE7236820466F
:106904009B689847E3681C68ECE700267BE700BFB8
:10691400182C0020E8E60200242C0020FCE60200EB
:1069240034E70200B4E702002DE9F74F224E044693
:106934000F46924601A901221846D6F808909B46B4
:10694400FFF702FE20B3019D4FF00008AA1CD845B2
:1069540008EB020126D11948002100F03FFE80F324
:106964001000000440EA1440E4006B1C04F03804F6
:1069740003EA090305EA090544F0010406EB83036D
:10698400033544EA881444EA8724D86046F825404D
:1069940096F820341BB1FFF7B1FE0028FBD103B0F9
:1069A400BDE8F08F09EA010106EB81015AF82830AD
:1069B400CB6008F10108CAE7182C0020343000200D
:1069C40000231A46FFF7B0BF07B50123019201AABD
:1069D400FFF7AAFF03B05DF804FB07B5CDE9002378
:1069E40002236A46FFF7A0FF03B05DF804FB000032
:1069F40038B5084B0125D3F8104483F8205404B962
:106A040038BDE3685D71236820465B689847E36896
:106A14001C68F4E7182C002030B5C38885B0044600
:106A24000D4633B1144A00921449154A284600F021
:106A34006BFE217A05291DD0637A4BB1A088FFF73C
:106A44003DFE104B104953F82020284600F05CFE10
:106A5400227A0E4BA08853F8222003920021FFF7DC
:106A640011FE039A0A490346284605B0BDE83040A2
:106A740000F04ABE05B030BDE9E70200D1E70200EC
:106A8400C9E7020058E80200EEE702007CE80200D1
:106A9400F1E7020007B503460846197A052911D023
:106AA4005B7A2BB1094A0A49019000F02DFE019846
:106AB4000849019000F028FE019803B05DF804EB4A
:106AC40000F017BE002AF8D0F2E700BFE9E70200A1
:106AD400EEE7020046EE02002DE9F04385B01F46C2
:106AE4000C9D002395F80C902B7306460C4690469B
:106AF40029463846FFF790FFB8F1060F09D8DFE8BA
:106B040008F00412181F283340003146284600F0CC
:106B1400FBFD002229463846FFF7BCFF85F80C90A0
:106B240005B0BDE8F08322683146284600F0ECFD4C
:106B3400EFE7D4E900233146284600F0E5FDE8E715
:106B4400A36800933146D4E90023284600F0DCFD15
:106B5400DFE7E3680193A36800933146D4E9002397
:106B6400284600F0D1FDD4E723690293E36801933A
:106B7400A36800933146D4E90023284600F0C4FDFD
:106B8400C7E76369039323690293E3680193A368E6
:106B940000933146D4E90023284600F0B5FDB8E758
:106BA40008292DE9F74F80460E4617461C4639D86A
:106BB400002593F80C901D7319461046FFF72CFF1F
:106BC400DFF880A0DFF880B0AE422ED918F8052097
:106BD4005946204600F098FD0135082DF4D1184996
:106BE400DFF868A0DFF868B0204600F08DFD0025CE
:106BF400AE421FD918F805200192104606F0F4FBA6
:106C04000028019A594608BF2E22204600F07CFD38
:106C14000135082DECD1012221463846FFF73AFF11
:106C240084F80C9003B0BDE8F08F5146204600F084
:106C34006BFDD1E75146204600F066FDE8E700BF52
:106C440005E8020001E80200FBE7020003E8020095
:106C540007E802002DE9F84F2F4F304E4FF000089F
:106C64002F4B1B785FFA88F5AB4201D8BDE8F88F4B
:106C7400D7F8009019F835000124A0F12002C0F1E2
:106C8400200304FA02F224FA03F31343D6E90012B0
:106C940004FA00FC01EA0C0B02EA030E5BEA0E0E96
:106CA40009EBC50A35D021EA0C0122EA0303C6E93F
:106CB400001301F029FC024619F83500194DA0F122
:106CC4002003C0F1200124FA01F104FA03F30B4379
:106CD400D5E900C1C0F120050B40A0F1200122FA42
:106CE40005F5844002FA01F1294304EA0C0402FA8E
:106CF40000F58B4208BFAC420BD1DAF8043043B143
:106D04009AF801104C1E614261418D1A6942694131
:106D1400984708F10108A3E778300020703000207C
:106D24003C30002068300020F8B507461E4800F0CB
:106D3400B3FBB8BB01251D4EA7F12004C7F1200306
:106D440025FA03F305FA04F41C43D6E90023BD40F5
:106D540002EA050003EA040101431DD1384601F0AB
:106D6400D3FB134BD3E9001288B129432243C3E96F
:106D74000012D6E900232A432343C6E900230D4B1E
:106D8400094819680022BDE8F84000F03DBB21EA3B
:106D9400050122EA0402EAE722EA050223EA0403DF
:106DA400C6E90023F8BD00BF443000207030002045
:106DB4006830002040300020042A2DE9F3410546C4
:106DC4000C4616463BD901F0D7FAE8B11D4B1E49D3
:106DD4001D601E4BDFF888801C701D4B00221E6056
:106DE4000023C1E900231B49C1E90023013CE4B2AB
:106DF40000260327FF2C0ED1174A1848002102B0A1
:106E0400BDE8F04100F0EEBA01F084FA0028DDD0CC
:106E140002B0BDE8F08105EBC40315F834009B789B
:106E24008DF80660424601A98DF804708DF805308E
:106E340001F0ACFA013CE4B20028DBD0E8E707201B
:106E4400E6E700BF78300020683000203C300020A6
:106E54004030002070300020596C020090E802009D
:106E64002D6D020070B5084D084E00242B789C420D
:106E740001D3002070BD3368012113F8340001F000
:106E8400FDFA0134F2E700BF3C30002078300020E6
:106E94001FB50021039001AA44F20100CDE90111BC
:106EA40000F004F805B05DF804FB000038B572B6D4
:106EB400FFF79EFDFFF722FC0028FBD1104B114C7D
:106EC400114D1249E41AE408240444F00100FFF7C8
:106ED40077FDD5F8F030DB0700D500BE0C4944F04F
:106EE4000200FFF76DFDBFF34F8FEA68094B02F410
:106EF400E0621343EB60BFF34F8F00BFFDE700BFB9
:106F0400FCE6020034E7020000ED00E094E8020031
:106F1400A0E802000400FA0510B58468C2688388FA
:106F2400121B934208D3C26813400268D154C36849
:106F34000133C360002010BD0420FCE78268C368ED
:106F44009A420AD08268838813400268D35C0B702B
:106F54008368013383600020704705207047000078
:106F6400094B5A7899780132D2B2914208BF002273
:106F7400197891421FBF02705878182202FB003022
:106F840014BF0430002070477C30002073B50546E0
:106F940000240DF107000E468DF8074000F0C8FAF2
:106FA4000DF10600FFF7DCFF90B10670094B9DF868
:106FB400062045605A709DF8070000F0DDFA24B9F8
:106FC400054B4FF48012C3F80021204602B070BD77
:106FD4000424F0E77C30002000E100E0024B4FF491
:106FE4003C6043F001031847B0E8020038B50C4B8D
:106FF4000C4C4FF40032C3F8802001254FF4803349
:10700400C4F84833C4F808336560FFF7E7FF064B5C
:10701400A56000241C60FFF7E1FF044B1C7038BD21
:1070240000E100E000100140983100208931002087
:10703400F8B51F4B1F491B680025C1F84051C1F822
:107044004451C1F84851C1F84C51C1F80051C1F83C
:1070540004514BB3D1F8044517490968641A24F064
:107064007F442F461A68A24209D8A41A15441A7CF0
:10707400DE691AB1D3E905201F749047AEB90F4AEF
:107084000F4B11781B788B4205D10133DBB2022BF5
:1070940008BF0023137012780A4B43F822500A4B9E
:1070A4004FF48012C3F80021F8BD3346DAE700BF7D
:1070B4009C310020001001409831002095310020BF
:1070C400943100208C31002000E100E02DE9F04FE4
:1070D400A14AA24913780978A14D994285B03CD0C0
:1070E4000133DBB2022B08BF002313709D491278D1
:1070F4009D4B0F6853F822003B1823F07F43002276
:107104000B602B6816461446944613B942B12B60A3
:1071140006E0196881420ED902B12B60091A196080
:1071240001272B68DFF848A201934FF00008BEB98D
:10713400DFF844B260E0401A0C44D968D3F81CE08C
:10714400C3F800C031B13A1922F07F42C3E90121EA
:10715400DE611E4673460122D7E700263746E0E784
:107164003446F6697F4B60681B68DFF810C2A1687B
:10717400C21A22F07F42624500F2A6800A442260CD
:10718400012222742A680023C4E90133E361002A3E
:1071940040F0A3802C60CAE79BF802105A1CD2B2BC
:1071A40091428BF8002004BF00228BF800201822A3
:1071B40002FB03B32A6819799C68022975D0032954
:1071C4007FD0012918D1207CB0B9D3E90312A26081
:1071D4005A69E2609A69654BA2611A78002A18BF5D
:1071E40001466160BEE78C4200F094808946C9691B
:1071F4000029F8D1002323749BF800309BF8012068
:107204009A42C9D12B68B8F1000F04D1019A9A426D
:1072140001D1002F43D0002B79D0D3F800A0544DD6
:10722400504BD5F804751C68DFF854813E1B98F860
:10723400003026F07F4603369BB94FF48033C5F8FF
:107244004433C5F804334B4B4FF400324FF001097B
:10725400C3F880211A60C5F80090FFF7BFFE88F8D4
:107264000090B2452CBF5444A41924F07F44C5F8BF
:107274004045D5F80435DB1B23F07F43E41B03337F
:1072840024F07F44A3420AD9D5F80435C5F8403523
:10729400FFF7A4FE374B4FF40032C3F80021334B01
:1072A40000221A7005B0BDE8F08F114691469FE7A1
:1072B4001174D2690123002AFAD1002B9CD02A60D0
:1072C4009AE700231946F6E71B1A23F07F438B4203
:1072D40034BFCB1A0023236052E721681368994214
:1072E40013D85B1A1360E26154E7091AD8691A4685
:1072F40038B1034618688842F7D3401A1860184614
:1073040013462160E061DC6111E71346F2E7FFF701
:107314006DFEC4E74C4511D1D3692B6073B9DFF816
:1073240044E00120CDE90212CAF80800CEF800308A
:107334000E4B1870FFF752FEDDE902120B68C969A3
:10734400C9F81C1011B1086803440B602B68934200
:1073540018BF4FF001084DE794310020953100200B
:107364009C310020983100208C310020883100208D
:107374000010014000E100E07C300020FEFF7F00AF
:107384008931002008B5FFF731FE104B00200B2295
:1073940018809A700E4B18600E4B18700E4B1870B4
:1073A4000E4B4FF48012C021C3F8802183F81413CC
:1073B4001A6002F18042A2F56F22C2F8080583F830
:1073C4001113074BD2F804251A6008BD7C30002045
:1073D4009C310020943100209531002000E100E030
:1073E40098310020074B9B784BB132B128B1036828
:1073F400187C20B959745A617047072070470820D7
:10740400704700BF7C3000202DE9F743DFF884800B
:1074140098F8023005460E461746ABB3A0B30429CC
:1074240030D9436983B3437C0024012B0DF1070059
:107434000CBF8946A1468DF8074000F079F80DF19C
:107444000600FFF78DFDD8B1012303700F4B456093
:10745400D3F80435C0E90497C0E902369DF8063034
:1074640088F801309DF8070000F086F824B9084B2D
:107474004FF48012C3F80021204603B0BDE8F08326
:107484000424EFE70724F7E70824F5E70010014098
:1074940000E100E07C300020064A92783AB130B135
:1074A400426922B1002202740221FFF76FBD082055
:1074B400704700BF7C3000200648074A037807491C
:1074C400D35C012213B1043001F092B90C3001F005
:1074D4002DB900BFA02A0020E4310020B0310020E3
:1074E40010B501460E48FFF717FD0446A8B90D482C
:1074F4000D4A0378D35C63B1043001F06DF960B9CF
:107504000A490748FFF71AFD38B9BDE81040FFF7EC
:10751400D3BF0C3001F0FEF8F1E7204610BD00BFE8
:10752400A0310020A02A0020E4310020B031002046
:1075340070B5EFF3108672B60C4A946801239CB9B7
:1075440093600B4B0B4DD3F8801029401160C3F8A6
:107554008050D3F8841051604FF0FF32C3F8842078
:10756400047006B962B670BD0370FAE7B431002046
:1075740000E100E0FC06FFBD084B9A6810B55AB163
:1075840050B9EFF3108172B6054A1C6814605C6848
:107594005460986001B962B610BD00BFB4310020D8
:1075A40000E100E001F01F024B090121914000EBD2
:1075B400830000F01EB801F01F0301229A404B091A
:1075C40000EB8300D14300F02CB84B0901F01F01FC
:1075D40050F82300C84000F00100704710B503467E
:1075E40053E8000F0A4643E8002494F0000FF7D153
:1075F40010BD10B5034653E8002F42EA010043E8EA
:10760400000494F0000FF6D110BD10B5034653E802
:10761400000F00EA010243E8002494F0000FF6D1C1
:1076240010BD10B5034653E8002F02EA010043E8F9
:10763400000494F0000FF6D110BD10B5034653E8D2
:10764400002F02EB010043E8000494F0000FF6D190
:1076540010BD10B5034653E8002FA2EB010043E828
:10766400000494F0000FF6D110BD0121FFF7C1BF53
:107674000021FFF7CABF37B5054600240DF1070006
:107684008DF80740FFF754FF2A686B681168994228
:107694000ED9481E106011F8013CEC68298A01FBE0
:1076A4000344AB6811791B1ADBB2994238BF1371DA
:1076B4009DF80700FFF760FF204603B030BD37B5E3
:1076C400054600230DF107000C468DF80730FFF73F
:1076D4002FFF2A681368591C1160E968641A298A03
:1076E400B4FBF1F41C709DF80700FFF745FF03B0ED
:1076F40030BD826810B504462AB143690168006947
:1077040098470023A36010BD0EB403B5039921B1BB
:1077140004AB01AA019300F06FF802B05DF804EB2A
:1077240003B07047826830B40468551C8560A15466
:10773400D0E901329A4202D330BCFFF7DABF30BC41
:10774400704700002DE9F84F9846DDE90A431546D5
:1077540082460F460A464FF00109AA420FD2C1459C
:1077640038BFC14613F0010B01D16CB900240126C6
:10777400B8F1010F1BD908F1FF386E43F8E709F19E
:107784000109B2FBF5F2E8E79B070ED5B8F1000F4B
:107794000CBF30262026A145E9D2013C3146504693
:1077A400FFF7C0FF002CF6D1E0E72026F3E7B7FB94
:1077B400F6F39D42E1D9DFF83C80B7FBF6F350467F
:1077C40018F8031006FB1377FFF7ACFF3346AB4200
:1077D400B6FBF5F6F1D2BBF1000F02D00CB1A14516
:1077E40001D3BDE8F88F20215046013CFFF79AFFF2
:1077F400F4E700BFB6E802002DE9F74F0546174647
:107804008846002900F03E8118F8011B49B92B7BFA
:10781400002B00F03781284603B0BDE8F04FFFF796
:1078240068BF252940F0B780002698F800302D2B3A
:10783400424608F1010823D0302B24D02B2B25D02D
:1078440000242A2B02F1010123D13B681A1D1B6875
:107854003A601C440A4613782E2B26D101324FF08D
:10786400000A104610F8011BA1F1300CBCF1090FFD
:107874001DD80A2303FB0A13A3F1300A0246F0E7DA
:1078840046F00106D1E746F00206CEE746F00406CC
:10789400CBE711F8013CA3F130000928DBD80A2218
:1078A40002FB0434303C0A46CBE74FF0000A12F8DE
:1078B400011B01F0FB0068289046F8D0782909D80C
:1078C4006F290CD8632962D022D8252963D058297E
:1078D40000F0888098F80030002B95D197E7703934
:1078E4000829F7D801A353F821F000BF637A0200F6
:1078F400D9780200D9780200F9790200D978020017
:10790400D7790200D9780200D9780200E979020017
:10791400642901D06929DDD13A68D2F80090111D9B
:1079240089EAE9723960A2EBE9724FF0010B092A86
:1079340035DCD34538BFD3462CB1B9F1000F01DB98
:10794400720700D5013CB30702D5BAF1000F03D08A
:10795400F00701D44CBB0024B9F1000F2DDAC9F1B2
:1079640000092D212846FFF7DDFE06F00302022A56
:1079740004D1BAF1000F01D11CBB0024CDE90046AB
:1079840053460A2249462846FFF7DCFEA2E73B6835
:107994001A1D19783A602846FFF7C4FE9AE70A23AD
:1079A4000BF1010BB2FBF3F2C1E7A345D4D22021C2
:1079B4002846013CFFF7B6FECCE77107D5D52B214D
:1079C400D0E7A345DAD230212846013CFFF7AAFECE
:1079D400D2E73968CDE900460A1D3A6053460A22C7
:1079E4000968D0E739680A1D3A60CDE90046534674
:1079F4001022F5E73B681A1D3A6016F00106D3F829
:107A0400009024D1B9F1000F03D0484605F084FD5D
:107A14000646B4421DD809F1FF3919F8011F00299F
:107A24003FF458AF2846FFF77DFEF6E728460136B7
:107A3400FFF778FE19F806100029F7D1A642BFF423
:107A440049AF20212846013CFFF76CFEF6E70026EB
:107A5400F0E720212846013CFFF764FED9E73B68A4
:107A64001A1D3A60302128461C68FFF75BFE782116
:107A74002846FFF757FE00220823CDE900322146AD
:107A8400102280E703B0BDE8F08F00BF2DE9F84F66
:107A9400B0F806A04579D2F800B09DF828900AFB0A
:107AA40005F5043D88460BEB0301A94203F10404E8
:107AB40088BFA5EB030BB4FBFAF607460AFB164492
:107AC400C2F800B04EB9AAEB04055D4528BF5D4677
:107AD400BBF1000F04D1BDE8F88F3F68013EF1E728
:107AE400043408EB06003C442A46B9F1000F0DD0DB
:107AF4002146ABEB050B05F0B3FCDA452E443F6899
:107B040055464FF0000428BF5D46E1E70146204694
:107B1400EFE7F8B546790146721E05460023934205
:107B24002D6803D30024A64202D8F8BD0133F6E73A
:107B34000F682846FFF7C3FD01343946F3E72DE902
:107B4400F843068ACD1C0746FFF795FD043E3544ED
:107B54000446B5FBF6F5F0B14FF48073EDB28380C3
:107B6400C680013D076081464FF00008A84512D247
:107B74003846FFF780FD064648B1637901336371E7
:107B840008F10108C9F8000007608146EEE72046C5
:107B9400FFF7BFFF34462046BDE8F88301210430D7
:107BA400FFF74BBD10B5012104460430FFF751FD2A
:107BB400C0B220B92046BDE81040FFF7AABF10BDEF
:107BC4001FB503920022009203AAFFF75FFF05B0DE
:107BD4005DF804FB1FB503920122009203AAFFF78C
:107BE40055FF05B05DF804FB41DF7047064B10B547
:107BF40000241C70054B1C60BFF35F8F04490548CB
:107C040000F032F8204610BDC8310020CC310020ED
:107C1400D0E80200C031002007B500230DF10700B1
:107C24008DF80730FFF784FCF1EE103A23F09F0340
:107C3400E1EE103ABFF35F8F0A4B4022C3F8842170
:107C44009DF80700FFF798FC03F088FB20B103B010
:107C54005DF804EBFFF7C8BF20BF40BF20BF03B0EF
:107C64005DF804FB00E100E00B684A68436093425E
:107C740008BF0023016008BF43607047436843B1F5
:107C84000268916852680B449342436004BF002326
:107C94004360704710B50D49A1F59472914201D823
:107CA40000200FE08C1AE30F03EBE4035B1002EBFC
:107CB400C30452F83330834205D802D204F10802D7
:107CC400ECE7606810BD2146E8E700BFD4ED020090
:107CD40008B5FFF7DFFF024B002808BF184608BDB0
:107CE40096EC02004FF0704393F8E02F062A10D16F
:107CF400D3F8E42F12070CD1D3F8E80F00F0F00307
:107D0400302B08D000F0E000A0F140035842584165
:107D1400704700207047012070474FF0704393F87C
:107D2400E02F062A0CD1D3F8E42F120708D1D3F898
:107D3400E80F00F0F000A0F13003584258417047BA
:107D44000020704708B5FFF7CDFF40B14FF08053D6
:107D5400884AD3F82433C3F30423C2F84035FFF729
:107D6400DCFF10B1844B854A5A67FFF7BBFF48B16B
:107D74004FF080534FF08042D3F84432C3F3423380
:107D8400C2F83C35FFF7C9FF30B17D4AD2F8FC3068
:107D940023F08073C2F8FC30FFF7A4FF40B14FF02A
:107DA40080430022C3F80C21C3F81021C3F83825FE
:107DB400FFF7B3FF20B14FF080430322C3F8A0259F
:107DC400FFF7ABFF60B16F4B0522C3F81026012209
:107DD400C3F888260022C3F818263F22C3F81426C5
:107DE4004FF0704393F8E02F062A50D1D3F8E42FD4
:107DF40011074CD1D3F8E83F03F0F003502B46D1E0
:107E04004FF08052604BD2F80414C3F82015D2F816
:107E14000814C3F82415D2F80C14C3F82815D2F8A2
:107E24001014C3F82C15D2F81414C3F83015D2F872
:107E34001814C3F83415D2F81C14C3F84015D2F83A
:107E44002014C3F84415D2F82414C3F84815D2F802
:107E54002814C3F84C15D2F82C14C3F85015D2F8D2
:107E64003014C3F85415D2F83414C3F86015D2F89A
:107E74003814C3F86415D2F83C14C3F86815D2F862
:107E84004014C3F86C15D2F84424C3F87025FFF7E6
:107E940029FF48B14FF080534FF08042D3F8583255
:107EA40003F04F03C2F8E43EFFF71CFF48B14FF064
:107EB4008043D3F80024D20744BF6FF00102C3F813
:107EC40000244FF08053D3F83021062A0AD1D3F886
:107ED4003431062B01BF2D4AD2F83C3743F480637A
:107EE400C2F83C37264AD2F8883043F47003C2F80B
:107EF4008830BFF34F8FBFF36F8F4FF01023D3F849
:107F04000022002A03DBD3F80432002B2EDA204BA4
:107F14000122C3F80425D3F80024002AFBD04FF033
:107F240010221521C2F80012D3F80024002AFBD035
:107F34004FF010231522C3F80422154BD3F8002464
:107F4400002AFBD00022C3F80425D3F80024002A19
:107F5400FBD0BFF34F8F0A490E4BCA6802F4E062AC
:107F64001343CB60BFF34F8F00BFFDE70A4B0B4AAF
:107F74001A6008BD0030014000C007400DF0ADBAE2
:107F840000ED00E00050004000C000400010004040
:107F940000E001400400FA05B42A00200090D00358
:107FA400054A4FF0A043105CD3F8043523FA00F0DF
:107FB400C04300F001007047D8ED0200044B1A5C86
:107FC400012393404FF0A042C2F80C35704700BF24
:107FD400D8ED0200044B1A5C012393404FF0A042F9
:107FE400C2F80835704700BFD8ED020008B500207C
:107FF400FFF7F0FF0120FFF7EDFF0220FFF7EAFF94
:10800400BDE808400320FFF7E5BF08B50020FFF7EF
:10801400D5FF0120FFF7D2FF0220FFF7CFFFBDE815
:1080240008400320FFF7CABF074A4FF0A041105C85
:10803400D1F804350122824022EA03001340C1F83A
:108044000805C1F80C357047D8ED0200054A4FF019
:10805400A043105CD3F8103523FA00F0C04300F0BD
:1080640001007047D4ED02000D2809D00E2809D074
:108074000F2809D010280CBF03204FF0FF307047A1
:10808400002070470120704702207047014B185CA4
:10809400704700BFD4ED0200C20708B501460CD5F5
:1080A4004FF0A0430322C3F84427C3F84827C3F87A
:1080B4004C27C3F85027FFF799FF8B070AD54FF0D9
:1080C400A0430C22C3F83427C3F83827C3F83C274D
:1080D400C3F8402708BD000038B5074C051E04F15D
:1080E400080318BF1C4623682BB11A6822605B681A
:1080F40028469847F7E738BDD831002020B9054B0A
:1081040001225A70FFF7E8BF012802D1014A90709A
:10811400F8E77047D031002020B9034B01225A7090
:10812400FFF7DABF704700BFD031002038B50B4CE1
:10813400237883B90A486360A3602361E36000F095
:1081440063F8054603F00AF908B900F069F8012359
:108154002370284638BD8525FBE700BFD0310020B9
:108164000181020037B50B4C00230DF107008DF897
:108174000730FFF7DDF9E368013BE360E56815B913
:1081840000F062F8A5709DF80700FFF7F5F903B059
:1081940030BD00BFD0310020012813B508D003281A
:1081A4001CD018B9114B0122C3F8802002B010BDB5
:1081B4000F4C00230DF107008DF80730FFF7B8F9D5
:1081C40023780BB9FFF7B2FFE3689DF8070001338A
:1081D400E3600123A370FFF7CFF9E7E700F020F88D
:1081E40002B0BDE81040FFF7BDBF00BF00E100E0F2
:1081F400D031002000F18040002382B00360036886
:108204000193019B02B07047044A137923B90121F9
:10821400106091801846704785207047E83100202F
:10822400084B1A68D20706D4C02283F8002301221F
:10823400C3F880211A604FF080430122C3F8182547
:10824400704700BF00E100E04FF080430122DA6094
:10825400D3F81824D203FBD4704700004FF08041B8
:1082640010B5D1F8003163B14FF48070FFF7C2FF4D
:108274000D4B58790122C1F8082310B95A711B68B3
:1082840098474FF08042D2F8043163B14FF48270C2
:10829400FFF7B0FF0223C2F80833034BBDE81040D8
:1082A4001B680120184710BDE831002000F1804010
:1082B40000F5C040002382B0036003680193019B72
:1082C40002B07047800000F1A040D0F8002722F4EB
:1082D4004032C0F80027D0F8003743EA0141C0F823
:1082E40000177047C208012300F0070003FA00F0EA
:1082F4008B5C184388547047054B4FF0FF320728B6
:1083040043F8202084BFC01880F84820704700BF7D
:10831400F031002038B5154D95F858401CBB20228B
:10832400FF2105F1300005F0C4F8E0B20134FFF795
:10833400E3FF0C2CF9D10E4B0022C0216A6583F8AF
:1083440006134021C3F880114FF4BE701960FFF783
:10835400ADFF084B4FF00041C3F80413012385F827
:108364005830104638BD0820FCE700BFF03100202B
:1083740000E100E000600040034B93F8580000382F
:1083840018BF0120704700BFF03100202DE9F041F3
:10839400DFF8E48008EB0003054693F93030002B46
:1083A4000F4664DA8B78C3F34003002B0BBF082419
:1083B40000240C2108218C4202D10420BDE8F08164
:1083C40058F8240001303DD108EB050166B248F8A5
:1083D400242081F830601BB908EB040383F848506B
:1083E400BB785A070ED4D9072ED5AB0003F1A043AE
:1083F400D3F8002722F00202C3F800271D492846BB
:10840400FFF770FFBB783A7813F0020325D0A4007D
:1084140004F1804404F5C0442D02D4F8103523F44B
:10842400473323F44073C4F810351204D4F81035DC
:1084340005F4F85502F4403215431D43C4F81055B1
:108444000020BBE70134B6E77A7805F5E0734FF016
:10845400A041920041F82320D0E7083E48FA86F66E
:1084640096F8505045EA821286F85020E8E7082032
:10847400A4E700BF44320020F031002038B5204C7E
:10848400251895F93020072A18DD083A44FA82F4B1
:1084940094F850309B09032B0BD14FF0A043D3F831
:1084A4001015C14001F001010231BDE83840FFF769
:1084B40009BF012B0CBF02210321F6E7D3B2072B1E
:1084C4001DD8930003F1804303F5C043D3F810058E
:1084D40040F00100C3F8100502F1400040B28000F2
:1084E40080B2FFF7E3FE51B195F9303054F82330F0
:1084F4002BB1012303FA02F2024BC3F8042338BD63
:10850400F0310020006000404FF0A043D3F8103554
:1085140023FA00F000F00100704700002DE9F04F4D
:1085240087B00024584D03944FF48072012102F166
:10853400804303F5C04390B21B68012B06D1D5F8E4
:1085440004330B4202D0FFF7B1FE0C430432B2F500
:10855400907F4FEA4101EAD14B4BD3F87C31012B98
:108564000AD14FF4BE70FFF7A1FE4FF0A04344F0D0
:108574000044D3F810350393E3B2D3B1434F00253D
:108584000126344210D0AB0003F1804303F5C0430D
:10859400D3F81005D3F8101557F8253023B1C1F3DB
:1085A4000141C0F3042098470135082D4FEA4606DF
:1085B400E7D1002C61DA00224FF0FF33CDE9042328
:1085C400DFF8C880DFF8C89000273E464FF0A04B84
:1085D40019F9014B631C45D0C4F3C20318336B442F
:1085E4000122E5B204F03F0004F0070402FA04F4A7
:1085F40013F8042C224235D008EB0002AD0992F99D
:10860400302058F822A0BAF1000F09D1032D29D146
:1086140004A901930090FFF765FEDDE9000301E082
:10862400032DF5D000F5E07113F80C3C5BF8211034
:108634002342C1F3014105D0022913D1032D0CD1EA
:10864400294604E003290DD1032D06D1022100900F
:108654000136FFF737FE0098F6B2BAF1000F01D0E9
:108664002946D0470137042FB2D136B14FF0A04389
:10867400039AD3F81035934202D107B0BDE8F08FC6
:108684000393049B05939DE700600040F0310020B4
:1086940040320020014B1B68184700BF4C320020B9
:1086A4000E4B984237B50C4602D0002003B030BDC3
:1086B40000230DF107008DF80730FEF739FF084B52
:1086C4001D7915B901221C601A719DF80700FEF787
:1086D40053FF002DE9D01120E8E700BF002000403F
:1086E4004C3200200023435082B043580193019B35
:1086F40002B070470A4610B54FF48E71FFF7F2FFCF
:10870400136A9168C95C136A01331362C0F81C15BB
:1087140010BD00000279044B2C2101FB023358697F
:10872400003818BF01207047543200202DE9F84F5B
:10873400064689469246FFF7EDFF044600283DD1E0
:1087440096F804801F4F2C2508FB057B4FF48E718F
:10875400CBF82000CBF814A08BF82800CBF80890B5
:108764003068FFF7BFFF3068012383605946FFF785
:10877400C1FFDBF804305D4613BB30682A6A6B69BD
:108784009A4211D33368D3F81C21002AFBD001226A
:10879400DA6000202C2303FB087700237B61BDE80B
:1087A400F88F95F828303BB9D0F81C31002BF8D05D
:1087B4005946FFF79FFFE1E70F20EBE71120EEE7B3
:1087C4002046ECE7543200200023435082B0435843
:1087D4000193019B02B070470279044B242101FBF1
:1087E40002335869003818BF0120704780320020D6
:1087F4002DE9F84301F06043B3F1005F0646884673
:10880400914634D1FFF7E8FF044690BB32791B4F01
:108814003068242505FB02754FF49071C5F8149057
:10882400C5F80880FFF7D0FF30684FF4AC71FFF74C
:10883400CBFF33686969A868C3F84405C3F84815D1
:10884400012199606968B1B9D3F82011D3F85801AE
:1088540049B90028F8D00F20242303FB0277002312
:108864007B61BDE8F883002818BF0F20F4E71020CF
:10887400F7E71120F5E72046F3E700BF8032002038
:108884000023435082B043580193019B02B07047C8
:108894002DE9F0470E78089F9DF824A004460D4664
:1088A4009846002E5BD1D0F82431D2F800903BB129
:1088B4004FF49271FFF7E4FF012363612B7014E01E
:1088C400D0F81C313BB34FF48E71FFF7D9FFD0F8C9
:1088D4002431002BECD113689F4212D918F80330CD
:1088E400C0F81C35136801331360B94535D1D4F889
:1088F400043193B34FF482712046FFF7C1FF002681
:1089040004E00123BAF1000F03D0C3613046BDE88F
:10891400F0874361E9E7D0F80831002BE5D04FF444
:108924008471FFF7ADFFD0F82431002BC0D1136858
:108934009F42DAD9D0F8181508F8031013680133E8
:1089440013607A1E934205D10223C0F8003201233A
:108954002362CAE79F42FAD1C7E70126D6E74FF45C
:108964009271FFF78DFF4FF48E71FFF789FF4FF47B
:108974008471FFF785FFBAE72DE9FF470C460546EA
:108984001F4620463B4B03934FF482719DF8308081
:10899400FFF776FF4FF49271FFF772FF4FF48E7179
:1089A400FFF76EFF4FF48471FFF76AFF0023C4F8EA
:1089B40000326B6385F82E3001232362A3601646D0
:1089C4006A6B97421DD9B35CC4F81C356B6B0133D9
:1089D4006B632B68E3B905F1340A05F12E09039B97
:1089E400002B1FDC95F82E3053BB0020039B002B7B
:1089F40015DC0023C4F800350523C4F80035032032
:108A04000DE0B8F1000F01D0E361E2E76361E0E754
:108A140040F28623AB60AB68C4F80433002004B092
:108A2400BDE8F087CDE900783346524649462046F2
:108A3400FFF72EFF0028D5D0039B013B0393CEE71D
:108A4400D4F8C434C4F8C434002BCED013F0010FCE
:108A540014BF4FF40240032048F2012213F0020F26
:108A640018BF104613F0040F48F2022318BF18462B
:108A7400BCE700BFA08601002DE9FF470C46054670
:108A84001E462046364B03934FF48271FFF7F8FEDF
:108A94004FF49271FFF7F4FE4FF48E71FFF7F0FE7E
:108AA4004FF48471FFF7ECFE0023012ED5F800800B
:108AB4006B6385F82E3017464FF0010306BF022280
:108AC400C4F80022C4F8003223622360B8F1000F16
:108AD40015D105F1340A05F12E09039B002B18DC8E
:108AE40095F82E301BBB0020039B002B0EDC0023CB
:108AF400C4F800350523C4F80035032006E040F22D
:108B04008623AB60AB68C4F80433002004B0BDE82E
:108B1400F087CDE900683B46524649462046FFF7B8
:108B2400B7FE0028DCD0039B013B0393D5E7D4F8C0
:108B3400C434C4F8C434002BD5D013F0010F14BFCF
:108B44004FF40240032048F2012213F0020F18BF31
:108B5400104613F0040F48F2022318BF1846C3E767
:108B6400A0860100F0B52D4C2D4894F82C3089B026
:108B740004F134020193A36A009304F12E01636AA1
:108B8400FFF786FEE0B994F82EC0276ABCF1000F07
:108B94001FD1217B8B1E012B1BD8626AA3699A42C9
:108BA40017D1E26963696262C7F340170329A362BC
:108BB40084F82C7006D11A4900972046FFF7DCFE92
:108BC40009B0F0BD1649204609B0BDE8F040FFF7F2
:108BD40053BF144E0FCE03AD0FC533682B60BCF1E9
:108BE400000F17D00E4AD2F8C434C2F8C43499071F
:108BF4000CD501238DF80830002384F82F307B072F
:108C0400DED4D4E9003102A89847D9E75A07F3D54E
:108C14000223EFE78DF808C0EEE700BFA43200207E
:108C240000300040B03200202DE9F84F0679374D6E
:108C34004FF03C0A0AFB06FA05EB0A049B4694F83B
:108C44002D3080460F469146002B5AD1304900689A
:108C5400FFF726FD002856D13A687B7B84F838302C
:108C64004FF0A04102F5E073A060C4F804B084F8AA
:108C74002F0084F8300040F20C6445F80A9041F863
:108C840023407B6803F5E07C41F82C40D8F8004091
:108C9400C4F80825C4F80C35BB68C4F82435B9F108
:108CA400000F26D044F30733002B3A7BB4BF194995
:108CB40003F16041C4F307344FEA5313B8BF04F01F
:108CC4000F074FEA4212A8BF01F561414FEA83033F
:108CD400D2B203F16043B4BFCA5581F8002303F54F
:108CE400614304F01F04012202FA04F4C3F8804132
:108CF4001C603C2303FB0655012385F82D30BDE899
:108D0400F88F0820FBE71120F9E700BFA432002008
:108D1400698B020014ED00E0036802790521C3F8B1
:108D24000015044B3C2101FB0233022283F82D2061
:108D3400704700BFA43200202DE9F74F2D4F06796C
:108D4400D0F800902C4BC9F808333C2505FB067578
:108D5400C6EB061C95F82F308E46144607EB8C0C98
:108D640003F0FF0B33B1AB68C9F80433112003B02F
:108D7400BDE8F08F82F00403C3F3800385F82F303D
:108D84002A628A46BAE80F0005F10C08A8E80F0029
:108D9400DAF80030C8F80030DEF80430AB62DEF8F0
:108DA4000C206A629EF80110C9F888159EF800101C
:108DB400012917D0A1B9C4F340143C2101FB067169
:108DC400604681F82C4000944946FFF7D5FD3C23CA
:108DD4005E43BA19BB59002BC9D182F82F30C6E7BC
:108DE4000124EAE785F82CB049466046FFF744FEC3
:108DF400EDE700BFA432002086420400F0B587B03E
:108E040004460F4615460021142201A81E4604F00C
:108E140050FB9DF830308DF80570002B14BF2022D4
:108E2400002201A9204602960495FFF785FF07B0AA
:108E3400F0BDF0B587B004460F4615460021142254
:108E440001A81E4604F035FB0123002201A9204697
:108E54008DF804308DF8057002960495FFF76CFFC9
:108E640007B0F0BD1FB503788DF800308388ADF8E6
:108E7400043083688DF80630C3688DF807300369C1
:108E840002934369054A0393054B684653F821301E
:108E940052F82110984705B05DF804FBE032002039
:108EA400E8320020024B4FF4807043F0010318476E
:108EB40000EE02002DE9F047154690F80090324A82
:108EC40042F82950314A42F829304B7B07460C4678
:108ED4006BB30868496882008B0002F1A04203F179
:108EE400A04340F20C66C2F800674FF0010AC3F8D1
:108EF40000674FF0A0460AFA00F00AFA01F1C6F83A
:108F04000805C6F8081540F20D61C2F80017C3F849
:108F14000017FFF7C7FF4FF00008D6F81025636865
:108F240022FA03F3DB070DD5B8F1000F1DD1002D94
:108F3400174A4B4608BF2A462146381DBDE8F0476C
:108F4400FFF772BE23680AFA03F3C6F80C35FFF77D
:108F5400A9FF23680AFA03F3C6F8083508F10108E3
:108F6400FFF7A0FFB8F1090FD7D1636801264FF0CE
:108F7400A04806FA03F3C8F80C35FFF793FF6368BB
:108F84009E40C8F80865D2E7E8320020E0320020AD
:108F9400698E02002DE9F743002406460F4600F5CA
:108FA400A0754FF48038A146A30003F5A07398B2CE
:108FB4002B686BB1D6F8043308FA04F21A4207D0CE
:108FC400C5F800902B680193019BD7E900319847BD
:108FD4000134042C05F10405E6D103B0BDE8F083A7
:108FE400F7B50679334D0C2474432F193B7A002BC3
:108FF4005ED12A514A687A60447902681F46D8B221
:1090040084424CD842F30733CC78002BA8BF03F139
:109014006047C2F307304FEA5313BCBF00F00F0C94
:10902400254F4FEA4414A8BF07F561474FEA83036D
:10903400E4B203F16043B4BF07F80C4087F800437F
:1090440003F56143012400F01F0004FA00F0C3F8A3
:1090540080011860D2F804054B7820F0030003F077
:1090640003030343C2F804358B78D2F8080503F0F0
:10907400030320F003000343C2F808350B78D2F849
:10908400100503F00F0320F00F010B43C2F8103555
:109094000C2303FB065500202C7203B0F0BD98008E
:1090A40000F5A07001331750105801900198A6E7FD
:1090B4000820F2E7F032002014ED00E003680122FA
:1090C4001A600279034B0C2101FB023302221A724B
:1090D400704700BFF032002037B54FF48034006889
:1090E4008C407BB101F150039B000025C550C3584F
:1090F4000193019BC0F8044301F5A87140F82120B5
:1091040003B030BDC0F80843F6E770B4046840F219
:109114000116D4F800528E4025EA0605C4F8005220
:10912400D4F800522B43C4F800329DF80C3070BCC4
:10913400FFF7D2BF01490248FFF72CBFF0320020ED
:109144000080004001490248FFF724BFFC320020A0
:10915400009000400220FEF767BF00002DE9F047B1
:1091640080460D46FEF780FF0328044610D8012DE3
:1091740010D0022D30D05DB91A48FEF78DF91A4B84
:1091840004EB440213449D78184B1B5DAB4219D089
:10919400BDE8F087144E00EB4003F218F55C5378F9
:1091A400470053B1DFF84C900E484A464FF4004153
:1091B400FEF72AF908B989F8008027443E440B4B8E
:1091C400B2781A55002DE3D0094B1B68002BDFD071
:1091D4002846BDE8F047184700EB40040248044421
:1091E4006578EFE72C3300206C33002085330020B2
:1091F400803300200833002000780221FFF7AEBF3F
:1092040008B5094B1B7853B10020FEF7E3FE01209B
:10921400FEF7E0FEBDE808400320FEF7DBBEBDE834
:109224000840FEF7E3BE00BF09330020F8B57A4CCE
:10923400237805461BB100232370FFF7E1FF172DA8
:1092440000F28780DFE805F00C1717425364757F3E
:10925400878C878C949999999999C3C8D0D8E3E35A
:10926400FFF7CEFF6D48FEF717F96D4B0022044659
:109274001A702046F8BD0020FEF792FEF0B10020DF
:10928400FEF7A8FE022D0CBF4FF4E1644FF47A649C
:10929400634B1D7000254FF400464FF4FA702946C5
:1092A4004FF47A720023E4FB060103F041FF2A46DF
:1092B4000146BDE8F8405948FEF7A6B8FEF77EFE21
:1092C400022D0CBFC8244FF4C874E1E70020FEF758
:1092D40067FE40B10020FEF77DFE4FF44874504B0A
:1092E40003221A70D6E7FEF769FEC824F7E70020C8
:1092F400FEF756FE38B10020FEF76CFE4FF47A6498
:10930400474B0422EDE7FEF759FE4FF4C874F7E724
:109314000020FEF745FE48B10020FEF75BFE404BFF
:1093240005221A7041F69A110022C2E7FEF746FEA2
:10933400F5E70020FEF778FE394B06221A7000226A
:1093440040F6CD41B5E70020FEF738FE344B072246
:109354001A7000248DE701202070FEF765FEEEE709
:1093640001202070FEF760FE00224FF48041A0E748
:10937400FEF74BFE2A4B0C22EAE72A482A4EFEF758
:109384008BF8D5F1110504461CD0D8B9012D13D0A2
:10939400C820454321464FF400474FF4FA704FF478
:1093A4007A720023C5FB070103F0C2FE2246014680
:1093B4001C48FEF729F804460220FEF7FFFD0123AE
:1093C400337056E70220FEF705FE0023F8E7FFF7A7
:1093D40017FF134B1222BBE7FFF712FF0020FEF723
:1093E400EDFD0F4B1322B3E7FFF70AFF0120FEF751
:1093F400E5FD0B4B1422ABE7FFF702FF0020FEF75D
:10940400DDFD0120FEF7DAFD054B1522A0E7FEF78E
:10941400FCFD034B1D709CE77C3300204C33002083
:10942400843300200C33002009330020044B1B68D4
:10943400DB0703D5034B1878FFF7F8BE704700BF6E
:10944400783300208433002010B5002914BF03248E
:109454000024FEF71BFE800000F1A040D0F8002796
:1094640022F44032C0F80027D0F8003743EA04431E
:10947400C0F80037002010BD032801D8FEF7E6BD70
:1094840000207047044B1B6813F0010301D0FFF761
:10949400CDBE1846704700BF7833002038B51C4B4A
:1094A40018601C4B10F00204054619601AD01A4BC0
:1094B4001A480E221A700F22DA7010229A711122A1
:1094C4005A72042140F26662FDF776FC044648B9FC
:1094D400FDF7C8FC044628B90146114A1148FDF7B6
:1094E40081FF0446EB0711D50120FEF7D5FD6CB9C9
:1094F40021460D4A0D48FDF775FF044630B9BDE815
:1095040038400B4A0B480121FDF76CBF204638BD9B
:1095140078330020803300206C3300200CEE0200EE
:10952400FD91020030EE02003194020034EE02009C
:10953400599102002CEE0200032811D8012A0AD105
:1095440001290FD100F10E02D2B20D4B00EB400005
:109554001A54002070470129F7D0022904D049B1D8
:10956400072070470022F8E7054B00EB4000184441
:109574004270EEE7024B00EB400018448270E8E7CB
:109584006C330020032802D80121FFF75DBF0620B9
:10959400704708B5012202210020FFF7CDFF08B172
:1095A400072810D1072202210120FFF7C5FF08B1C7
:1095B400072808D100210A220846FFF7BDFF10B191
:1095C400072808BF002008BD0388102B10B502D05F
:1095D400112B1ED010BD1A4C2168B1B901220846C6
:1095E400FFF7AAFF08B1072824D10722022101208E
:1095F400FFF7A2FF08B107281CD104220221002092
:10960400FFF79AFF08B1072814D1236801332360B8
:10961400E0E70B4A1368013B1360002BDAD1FFF734
:10962400B8FF0028D6D0074B1B68002BD2D0BDE86A
:1096340010401847034B1B68002BE6D09847E4E71B
:10964400903300208C33002008B50020FFF79AFFE8
:1096540008B1062806D10120FFF794FF10B10628AF
:1096640008BF002008BD00000D4B10B518600C4663
:1096740029B10120FFF700FF40B102232370094BF9
:109684001B6853B9BDE81040FFF783BFFFF7F4FE32
:1096940008B10B23F2E72070F1E7002010BD00BFF2
:1096A4008C3300209033002076DF70477ADF7047D8
:1096B4007CDF70477FDF70478FDF7047B1DF704713
:1096C40033DF7047FDF7E4BB08B50020FFF7DAFE8F
:1096D40008B1FDF7DDFBFFF7B7FF08B1FDF7D8FBD5
:1096E400FFF7EEFF18B1BDE80840FDF7D1BB08BD98
:1096F40030B5B3B000210446102225A8CDE91111DC
:10970400CDE91311CDE91511CDE91711CDE91911E1
:10971400CDE91B11CDE91D111F91ADF84210249123
:1097240003F0C7FEB4F5A27F67D111A802F0D4FB01
:1097340014A802F005FC14A802F08EFADDED111A4B
:109744009DED161ADDED150ADDED132A9DED122AA5
:109754009DED140A17A801F099FF14A8CDED210A74
:109764008DED221ACDED231A8DED200A06AC02F000
:109774005BFA20A906A802F0FDF90FCC29AD0FC5AC
:109784000FCC0FC51AAA23682B6029A911A802F0CF
:10979400CBFA1A9802F0FAFF02460B461C98CDE960
:1097A400042302F0F3FFCDE902011B9802F0EEFF5F
:1097B400DDE90423CDE90001114924A803F026FEC4
:1097C400104BADF842001B880F480DF1420224A94A
:1097D40001F00AFD1DA91AA802F056FA0B489DEDE6
:1097E4001D0A02F07FFA0A489DED1E0A02F07AFA79
:1097F40008489DED1F0A02F075FA33B030BD00BF72
:1098040038EE0200BE2A0020C02A00209433002033
:10981400A4330020B43300200388212B13B504465D
:109824003FD007D8112B2DD0132B48D0102B0CD0A0
:1098340002B010BD522B4AD0562B01D03B2BF7D18E
:10984400A0881321FFF730FF15E0254B2548264952
:10985400C01AC008000440F00300FDF7B1F8072067
:10986400FFF710FE08B1FDF713FB204BA188204839
:10987400198001F04DFB0028DAD002B0BDE8104099
:10988400FDF706BB164B17481A49C01AC008000456
:1098940040F00300FDF794F8144B4FF6FF721A8062
:1098A400C6E7002380888DF8043001A98DF80530BF
:1098B400FFF702FF0028BBD0FDF7EAFAB8E70B4830
:1098C40000231A4685210088FFF7F4FED3E70748F2
:1098D40000231A4619460088FFF7F0FECBE700BFC5
:1098E400FCE6020034E7020049EE0200BE2A002032
:1098F4003436002053EE020008B503784BB9054B0B
:109904003B211888FFF7D0FE18B1BDE80840FDF7E9
:10991400BFBA08BDBE2A0020072808B513D00A28FC
:109924000DD0042819D10D4B13211888FFF7BCFE64
:1099340030F0080311D0BDE80840FDF7A9BABDE82E
:109944000840FFF7C1BE054B1A884FF6FF739A42D1
:1099540003D1034800F09AFEEAE708BDBE2A0020BE
:10996400C433002008B548B103280BD10220FFF707
:1099740089FD38B1BDE80840FDF78ABABDE8084062
:10998400FFF7A2BE08BD00002DE9F04105780646A8
:1099940045BB154C154BDFF85880E41AE408240441
:1099A40044F00104B28A95420AD33369134413F88C
:1099B400013C0D2B16D10A20FDF792FD1128F9E781
:1099C4003369585DFDF78CFD074648B11128F7D07F
:1099D400024641462046FCF7F7FF3846FDF758FAA1
:1099E4000135DFE7BDE8F08134E70200FCE6020060
:1099F40060EE02000D4B4A881B889A4214D10A88F3
:109A040040F677239A420FD18B88094A09480A49BC
:109A1400033B9BB21380094A801AC00800041A460B
:109A240040F00300FCF7D9BF704700BFBE2A0020F6
:109A3400BC2A002034E702008BEE0200FCE60200A0
:109A4400FDF726BA08B50849084801F041F908B1FC
:109A5400FDF71EFA0548F72101F04EF918B1BDE8EB
:109A64000840FDF715BA08BDF99902001C3600201C
:109A74007FB541F61B03ADF8043041F61C03ADF885
:109A8400083040F21943ADF80C3040F26B13ADF8D6
:109A9400103004A96C236920ADF8143002F0ACF93D
:109AA40005A9692002F0A8F903A9692002F0A4F924
:109AB40001A9692002F0A0F902A9692002F09CF929
:109AC40007B05DF804FB00001FB5104A92E80300DC
:109AD40002AB83E803000E4A0E481946FFF780FAEA
:109AE40008B1FDF7D5F90C4B0C48D3F8102501212A
:109AF400D2B220FA02F2009102230648FFF705FBD6
:109B04000448FFF7DBFA05B05DF804FBB8EE020089
:109B1400F5960200C0EE020000900040803801007B
:109B2400F0B54FF0A0440323664EC4F81037102359
:109B3400ADB0C4F80C350B2546F00106D4F8043555
:109B4400DA4302F0100203F01003C4F808253227A8
:109B5400C4F80C354FF47A40B047013FFAD1013DC7
:109B6400ECD11C211B2002F029F9FFF781FF02F040
:109B74001BFAFFF7A9FFFDF705FC08B1FDF788F90B
:109B840051490320FFF78AFC08B1FDF781F901A9C7
:109B94000020FFF769FD08B1FDF77AF9FEF726F812
:109BA40008B1FDF775F901F09BFB08B1FDF770F9F9
:109BB400002301A90120019301F024FC08B1FDF761
:109BC40067F901A801F0DEFC08B1FDF761F9112382
:109BD4003E498DF800300E226846FFF769FD08B152
:109BE400FDF756F90023ADF808300823ADF804302A
:109BF4001823ADF8063001A84FF4C873ADF80A3045
:109C0400FFF754FD08B1FDF743F9FFF71BFF304B95
:109C14003048019301A901F069F908B1FDF738F959
:109C24002D4B2E480093694601F064FA08B1FDF704
:109C34002FF9AC22002101A803F03BFC02238DF88C
:109C4400043005238DF8073001234021ADF850304E
:109C54008DF8803044F25063CDE92313204A214B20
:109C64002148159201A92A9300F051FB08B1FDF790
:109C74000FF91D48012100F047FB1422002101A81F
:109C840003F017FC4FF470234FF42032CDE9022384
:109C940003238DF81030154B069301A8144B07933A
:109CA40000F012FE08B1FDF7F3F80F48032100F0AD
:109CB400ABFB08B1FDF7ECF8FCF720FDFDF7ACFFBA
:109CC400FAE700BFD0EE02001D990200A7EE0200E1
:109CD400C9960200343600208D990200C02A002063
:109CE400B82A002069990200C4330020FD980200BC
:109CF400459A02000369C26893429CBF80681B189E
:109D0400013B981A70472DE9F843D0E902940546BF
:109D1400A9EB04084068904520440F46144404D934
:109D240003F09EFBEC60BDE8F8834246A4EB090413
:109D340003F096FB6868224607EB0801F0E72DE97B
:109D4400F843C5680646894617464FF0000834694B
:109D5400B3687068A54228BFE418013C621B5C1B11
:109D6400BC4228BF3C46944228BF14464946284476
:109D7400224603F075FBB3682544AB4208BF0025B7
:109D84003F1BA044A144F560E1D14046BDE8F883FF
:109D940070B5164B182400FB04451D4404FB003326
:109DA4001646DC6A012C0ED0022C18D0E4B92846E1
:109DB400FFF7A0FF864204D832462846FFF7A3FFE8
:109DC4003446204670BD2846FFF794FF8642344649
:109DD40028BF044622462846FFF795FFF1E72846A8
:109DE400BDE87040FFF7ABBF0024EAE7403600202F
:109DF4006DDF704779DF70477DDF704764DF704740
:109E04002DE9F04F85B000250E9CBDF83CB0B4F8A8
:109E140000A00191074690461E46A9463A884A4545
:109E24000DDC45B12388013BA3EB0A039BB2FF2B56
:109E34003AD806F80A30002005B0BDE8F08F7A68F9
:109E440052F82900039000220DF10B0103A8FFF73B
:109E5400D5FF0028F0D19DF80B20424521D122885E
:109E6400002D14BF0020022002EB080101445945D3
:109E74001ADC3DB9013292B2019B2280B35422888C
:109E84000132228022880DF10B01324403A8FFF72E
:109E9400B5FF0028D0D121889DF80B200A442280E8
:109EA400012509F10109B9E70C20C5E72DE9F341C2
:109EB400089FBDF824801546CDE9007802220446A7
:109EC4001E46FFF79DFF50B933461022294620460F
:109ED400CDE9087802B0BDE8F041FFF791BF02B0C8
:109EE400BDE8F0812DE9F04F00231788138090F826
:109EF4002D3085B006460D4614465BB3082F01D8B5
:109F04000C2028E102A8FFF773FF002840F023810A
:109F14002388DDF809100822EA54238801339BB210
:109F24001B222380EA54238801339BB2EA1823803E
:109F3400E950BDF80D30938023889DF8082006333E
:109F44009BB212F0FE0218BF01222380EA54238838
:109F540001332380B378FBB123880433BB42CFD8C9
:109F640002A8FFF747FF002840F0F580238803226A
:109F7400EA54238801339BB219222380EA542388AC
:109F8400BDF8082001339BB2E9182380EA54120A71
:109F94004A70238802332380F2789AB12388D91C2B
:109FA400B942ADD80221E954238801339BB201217F
:109FB4002380E95423880B449BB22380EA542388EA
:109FC4000B4423807268AAB12388D91CB94297D85C
:109FD400022192F90020E954238801339BB20A211B
:109FE4002380E954238801339BB22380EA542388D5
:109FF400013323803389002B40F0A180338A5BB185
:10A00400CDE900472B460722032106F11000FFF794
:10A014004DFF002840F09F80338B5BB1CDE90047B2
:10A024002B461522142106F11800FFF73FFF0028E4
:10A0340040F09180326A002A40F09080D6F8248063
:10A04400B8F1000F30D0B8F804302188981C8A1C6D
:10A054000244BA423FF654AFFE283FF651AF0333F1
:10A064006B54238801339BB2FF222380EA54238854
:10A0740001339BB22380B8F80020EA54E918120A8D
:10A084004A702088023080B22080B8F804205AB187
:10A09400D8F8081000296BD0284403F0E1F923888C
:10A0A400B8F804201344238096F82C30002B40F099
:10A0B4009880307800284ED03388012B58D02288DD
:10A0C40002F1020CBC453FF61BAF012805D17378A1
:10A0D400023313449F42FFF413AF023FBF1ABFB2CF
:10A0E40002A905EB0C00ADF80870FFF785FE90BBE4
:10A0F4003178BDF80830022900F0B98072789A42AC
:10A1040002D39F4280F0B180012940F0B28097428F
:10A1140093B2C0F0AE80ADF808300821BDF8083025
:10A12400FE2B3FF6EDAE22880133AB542288013278
:10A1340092B22280A9542288134423800BE0CDE9F3
:10A1440000472B460622022106F10800FFF7AEFE67
:10A1540000283FF453AF05B0BDE8F08FB4F800C059
:10A164000CF10603BB423FF6CBAE1188052901D89A
:10A174000720F0E76FF4486E01EB0E039BB24FF239
:10A184007D3E7345F4D95388052BF1D96FF44860AB
:10A19400181880B27045EBD94FF6FF70814201D098
:10A1A4009942E5D8052305F80C30238801339BB286
:10A1B40012212380E954238801339BB22380118820
:10A1C400E954E818090A4170238802339BB22380BA
:10A1D4005288EA54E918120A4A7023880233238009
:10A1E4002CE7B36A002BC3D04FF000084FF00C0AE1
:10A1F4004FF0160BB16A5FFA88F20AFB02F201EB28
:10A204000209B9F80430981CFE283FF679AE20887C
:10A2140003332B54238801339BB2238005F803B006
:10A22400238801339BB223808A5AEA54E918120A1C
:10A234004A702088023080B22080B9F804205AB1D4
:10A24400D9F80810002993D0284403F009F9238889
:10A25400B9F804201344238096F82C2008F101084F
:10A264005FFA88F39A42C5D823E7092156E79F424B
:10A27400FBD2ADF8087050E770B5C0B14AB116888A
:10A284000024B44203D305196D789D4208D0A1423D
:10A2940001D800200BE0055D01352C44A4B2F0E7A1
:10A2A400A142F6D9A31C1380005D013880B270BDB1
:10A2B40013B513460022ADF806200DF1060204463C
:10A2C400FFF7DAFF10B1BDF80630E01802B010BD98
:10A2D40072DF704773DF704774DF704738B501224F
:10A2E40004460D46B0F83812D0F83402FFF7E0FF08
:10A2F40000B1057004F13C0204F50D7104F1540041
:10A30400BDE83840FFF7E4BF80F830107047F8B577
:10A3140004460F46002973D0002871D091F87A3092
:10A324001BB191F89830002B6CD1D7F8A030042BD6
:10A3340068D0D7F89C30042B64D04FF0000C84F81C
:10A3440002C007F178060FCE251D0FC50FCE0FC52D
:10A3540096E8070085E8070084F830C0D7F8A430F1
:10A364006363D7F8A830A36304F50D724FF6FF7347
:10A37400C4F84AC2A4F84832C4F84422C4F84DC20E
:10A3840022780AB984F8543094F82430002B14BF8E
:10A39400EE231F2304F15501C4F83412A4F8383213
:10A3A40004F50E723846FFF79DFD40BB94F8243047
:10A3B400002B14BFEE231F2304F24311C4F83C12F4
:10A3C400A4F8403204F5107207F13C00FFF78AFD4F
:10A3D400A8B9A369A4F848304FF480730125A4F800
:10A3E400503063692064014684F83C50636404F18E
:10A3F4003C0204F15400FFF76BFF00B92570F8BD6F
:10A404000E20FCE70720FAE7F8B5067804460D4667
:10A41400002E00F003810023C0F84A32C0F84D3208
:10A42400C388817000F24A270BB1012903D0E37974
:10A4340043B1022D06D1636BA3B1012284F85122EA
:10A444000820984704F24B2204F2512112F8013BF0
:10A454005BB99142FAD16A1E032A4FD8DFE802F0B1
:10A46400070D111484F85132ECE73346F3E7A2796F
:10A474001AB194F8242002B95BB9E2790AB1002B2D
:10A484003ED1237A002B3DD1637A002B0CBF0025EB
:10A494000425636BA570002B36D0033D012D33D802
:10A4A40062798AB394F8522272BB84F8542201224E
:10A4B40084F853220720984704F13C051822002110
:10A4C400284602F0F6FFE26A0123511E994284F8FD
:10A4D4003C3098BFD3B284F8513094F8243088BF0C
:10A4E40000261BB1A6B1A26A84F85220A278042ADD
:10A4F4001ED8DFE802F07A0F25385C000025C8E793
:10A504000225C6E70325C4E7002384F85332D3E7C2
:10A514000122E9E7012384F831300023C4E91073F0
:10A52400C4F84432022384F83C308023A4F8483031
:10A53400A378002B5DD1636B002B6BD1002068E006
:10A54400002B14BF0723032384F83C302369A4F8A9
:10A55400483000230222C4F84432E36884F83120EE
:10A5640027646364E4E762696264A269A4F848202A
:10A5740013B1062384F83C306379B3B194F85232B2
:10A584009BB994F8543283B1022384F850300421E7
:10A594002046FFF7A3FE0028CAD1052384F83130F2
:10A5A40004F50D73C4F84432C2E70323F6E7E26905
:10A5B4006264226AA4F8482013B1062384F83C306C
:10A5C400637983B194F852326BB994F8543253B12D
:10A5D400022384F8503004212046FFF77FFE002830
:10A5E400A6D10623DAE70423D8E7002384F8313020
:10A5F4009EE7D4F844122A4604F15400FFF768FE9B
:10A6040038B994F8301094F85400FFF763FE00282A
:10A6140091D0F8BD94F8310098478FE70820F8E707
:10A624000388112B10B50C460AD0262B1FD0102BF3
:10A6340005D1C37B012B02D18388A1F8483210BD18
:10A644000022838881F85222B1F848229A42F6D136
:10A654000B79002BF3D101212046FFF7D5FE00280A
:10A66400EDD0A36B002BEAD0BDE810401847037A65
:10A67400013B012BE3D8897805230131B1FBF3F3C6
:10A6840003EB8303C91AC9B2E6E7704738B5044639
:10A6940090F85400FFF720FE012384F8523200237F
:10A6A40084F8543284F8503006212046FFF716FE11
:10A6B400054638B9A1782046FFF7A6FE10B1A36B72
:10A6C40003B19847284638BD75DF704776DF704779
:10A6D4007ADF70477BDF7047034B1A8882420CBFD6
:10A6E40018460020704700BFD4360020024B9B69F7
:10A6F40003B11847704700BFB836002073B585B260
:10A704002846FFF7E9FF044638B3174E027A337B35
:10A714009A420CD200F10A012846FFF7D5FFF0B1A6
:10A7240011281AD002B0BDE87040FFF7DFBF002344
:10A734000372337C43B13B212846FFF7C7FF30F057
:10A74400080301D0FFF7D2FF736933B100228DF8FB
:10A754000420ADF8065001A8984702B070BD237AD2
:10A7640001332372F9E700BFB836002037B50B4632
:10A77400497A0F4A79B9D2E901141D7A0246002DAB
:10A7840018BF21465868FCF73FFE78B103B0BDE816
:10A794003040FFF7ABBF00211972536933B1012276
:10A7A400ADF806008DF8042001A8984703B030BD29
:10A7B400B83600204B8802889A4212D842889A42BE
:10A7C4000FD380888B8840F2F311884294BF021A19
:10A7D400421A9A4205D80844984234BF0020012006
:10A7E40070470020704700000388122B70B50146A3
:10A7F40059D004D8102B1ED0112B44D070BD502B2F
:10A80400FCD12F4BC288DB899A42F7D1038A022BF1
:10A81400F4D186883046FFF75FFF05460028EDD067
:10A8240001F1120000F063F938BB6868FCF734FEEC
:10A834000028E3D009E0C37B012BDFD14FF6FF7082
:10A84400FFF74AFF054620B90420BDE87040FFF732
:10A854004DBF1C4A8E880680002303721368C0F81B
:10A864000A305368C0F80E3010310A30FFF7A2FFE7
:10A87400134B6872DB89002BC0D129463046BDE8F2
:10A884007040FFF773BF8088FFF726FF0446002857
:10A89400B4D04068FCF700FE08B1FFF727FF4FF67D
:10A8A400FF732380AAE786883046FFF715FF054625
:10A8B4000028A3D008310A30FFF77CFF6872DCE778
:10A8C400B8360020E8360020F8B5064648B30546F9
:10A8D4000FCD154F3C460FC495E8070084E80700E8
:10A8E4003068124C3C60B0B1FFF7F2FEC0B9326878
:10A8F40013682360536863600D480E4A4FF6FF7374
:10A9040003800D4B40F8043F0021FCF76BFD002849
:10A9140018BF032004E02046FFF7DCFE0028EBD03C
:10A92400F8BD0E20FCE700BFB8360020E836002052
:10A93400D436002001A70200F036002073B501913F
:10A94400019C06466CB100252C46294601A8FCF75B
:10A954003CFE18B106EB440301349D800135142DEF
:10A96400F3D13046346002B070BD00002DE9F047E9
:10A9740003888488112B8CB005463DD01A2B42D015
:10A98400102B19D1DFF8C080D8F80830DB430093CE
:10A99400D8F804106846FCF744FE009901A8FFF7B4
:10A9A400CDFF0DF108090027019B9F4207D3132C0B
:10A9B40012D90420FCF76CFA0CB0BDE8F08739F822
:10A9C40002AB00260136514608EB8600FCF7F3FD86
:10A9D4001D2EF7D10137E7E716482146FCF7E2FDC3
:10A9E40015482146FCF7DEFDEB7B012BE4D0134830
:10A9F4002146FCF7D7FDDFE70E4821460CB0BDE841
:10AA0400F047FCF7D8BD037A0D481F2B4FEA131506
:10AA140021460AD9FCF7C6FD022D0A482146EDD08D
:10AA24000CB0BDE8F047FCF7BDBDFCF7C4FD05481C
:10AA34002146E3E718370020143700201C37002094
:10AA44002037002024370020103700201328014627
:10AA540002D80248FCF7B9BD002070471437002023
:10AA640010B50446FFF7F2FF002814BF2046142057
:10AA740010BD70B50546164608460AB90E2070BDCD
:10AA840000231360002DF9D02B68002BF6D0EB883F
:10AA940013F003040ED1FFF7E3FFC0B214280BD068
:10AAA4002B7983420AD9EA882B6800FB0230306094
:10AAB4002046E4E70720E2E70520E0E70420DEE79C
:10AAC400AADF7047002301380B70042806D8DFE89A
:10AAD40000F00306080A0C0011230B7070472123B1
:10AAE400FBE73123F9E71223F7E72223F5E7008890
:10AAF40000F001007047F0B58B7891B00C46012B43
:10AB040038BF012300278DF80E3005460B88607C82
:10AB1400ADF80C306946ADF800708DF80270FFF79F
:10AB2400D1FFA07C0DF10101FFF7CCFF1646237B7A
:10AB3400E27B217D43EAC203227C43EA02139DF8AF
:10AB44000220B94222F0190203F0190314BF0221B2
:10AB54000121134361F342031C22394609A88DF8ED
:10AB6400023002F0A6FC637B13F0300F14D00DF119
:10AB74000901E07CADF808708DF80A70FFF7A2FFB8
:10AB840011238DF808309DF80A30012102AA61F3DF
:10AB940042038DF80A300E92637B8DF82430A37B38
:10ABA4008DF825300023CDE90633089303AB0493D5
:10ABB400A388ADF81C30A368CDF814D01BB1E2888B
:10ABC400ADF818200893A36973B301A90022ADF866
:10ABD40004208A701A88ADF82C205A88ADF82E20EB
:10ABE4005A680D91187B0A92FFF76CFFA3690DF167
:10ABF4000501587BFFF766FFA3699A7A197A41EA3F
:10AC0400C201DA7A9B7B41EA02119DF80620002BEF
:10AC140001F0190122F0190214BF02230123114388
:10AC240063F342018DF80610E36903B10C933346D4
:10AC340004AA09A92846FFF743FF11B0F0BD90DF2D
:10AC44007047A5DF7047B5DF704700007FB500236C
:10AC5400ADF80810ADF80A106A4602A90646ADF828
:10AC64000C30ADF80E300093ADF80430FFF7E7FF79
:10AC7400054600B3114B124CE41AE408FDF728F81A
:10AC8400240444F0010403460E4932462046FBF7EF
:10AC9400A4FEBDF80020BDF8023052EA030103D03F
:10ACA40009492046FBF799FEBDF804201AB107496B
:10ACB4002046FBF789FE284604B070BDFCE602007E
:10ACC4004CE70200D6EE020020EF02005FEF020024
:10ACD40080B14FF0F7130360FB230371F723C380A4
:10ACE4001723038141F6FB320023016143818281F2
:10ACF400184670470E20704730B1A1F11703E02BBE
:10AD040004D80180002070470E2070470720704748
:10AD140013B5034680880C46B8B91A88242A00F073
:10AD24009C8014D8112A74D0232A00F0A780102AFA
:10AD34003ED0A37A4BB1E1880020FFF782FF0028C0
:10AD440040F0A2804FF48073638102B010BD3A2AB0
:10AD540068D0552AEDD1DB88C988A072172B38BF7B
:10AD640017238B4228BF0B462381FFF76CFF60B18A
:10AD7400FCF7AEFF4E4B4F4902464F481B1ADB0807
:10AD84001B0443F00100FBF71FFEE27A002AD0D136
:10AD94002369002BCDD040F67721ADF8022022891B
:10ADA400ADF80010ADF80420694620469847C0E786
:10ADB400DB7B0A790A73012B13D0022B14D0E188B0
:10ADC40023898B4205D20020FFF73BFF70B9012392
:10ADD400E372217B637B8B42ABD20020FFF736FF0B
:10ADE400A7E70B88E380EAE74B88FBE7112802D149
:10ADF4000123A372EDE7FCF76BFF2D4B2F490246AD
:10AE04002D481B1ADB081B0443F00100FBF7DCFD93
:10AE1400DFE7F723CB8017230B8141F6FB3348810F
:10AE24008B8186E75B89CA88934228BF1346172B18
:10AE34000A6938BF17230B8162B1C97A51B140F650
:10AE44007721ADF80010ADF80200ADF80430694682
:10AE540020469047002363816BE71A7A0B694A7393
:10AE6400002B3FF466AF4DF67A218DF80500ADF85E
:10AE74000010ADF802008DF8042095E7197A237BC1
:10AE8400994228BF1946A9E711283FF45EAFFCF7A1
:10AE94001FFF074B0949024607481B1ADB081B041E
:10AEA40043F0010002B0BDE81040FBF78DBD00BFC8
:10AEB4004CE70200E6EF0200FCE60200B5EF0200F8
:10AEC400B0DF704766DF704710B500210446408844
:10AED400FFF7F8FF034608B9237210BD112801D10A
:10AEE4000123F9E76368BDE81040184760B159B120
:10AEF4000378DE2B0AD00B684360DE2303704FF621
:10AF0400FF734380002070470E207047082070476D
:10AF140028B10378DE2B04D14180002070470E2035
:10AF2400704708207047F0B5054685B00C460029E7
:10AF340042D0002840D00B78DE2B3DD182884B884C
:10AF44009A4204D10B7A13B10846FFF7BDFF2B8850
:10AF5400112B33D0512B0FD0012B2DD12B7A012B58
:10AF64002AD1A9886288914226D12046237205B04D
:10AF7400BDE8F040FFF7A8BFAE886388B3421BD199
:10AF8400AF79022F18D1AD7B2B1F022B14D80021CF
:10AF94001022684602F08DFA052D18BF4FF4C073D5
:10AFA4006946304618BFADF804308DF80070FFF7DD
:10AFB40087FF08B16368984705B0F0BD6388AA8825
:10AFC4009A4204BF4FF6FF736380F5E7A8DF70472A
:10AFD400ADDF7047AEDF704762DF704770B505467E
:10AFE4008AB00C4600295ED000285CD00388502B20
:10AFF40033D0572B6BD0102B55D181886069002634
:10B0040001AA0196FFF735FD0223218AA888ADF82D
:10B014000A6002AACDF80CD0ADF80830FFF7D8FFCB
:10B02400002840D1A369002B3DD00398FFF75FFDB2
:10B03400002838D0019E0EB101233370182200215C
:10B0440004A802F036FA02238DF81030AB88ADF86C
:10B0540018300594A369079623E08188606902AAE1
:10B06400FFF707FD1822002104A802F022FAAB889A
:10B074002189ADF81830EB88029A05949942079219
:10B0840018D12E8A022E15D16AB105F11200FFF7EC
:10B094002EFD029B48B101221A708DF81060A3693D
:10B0A4000BB104A898470AB070BD187003238DF83B
:10B0B4001030F4E7A2899A42F5D1A369002BF2D0AB
:10B0C40005F1120208922A8AADF82420E9E7818862
:10B0D400606902AAFFF7CDFC01460028E3D1029E75
:10B0E4003378002BDFD0182204A802F0E2F9012300
:10B0F400AAE70000F0B53A4B8FB002AD04460A4609
:10B1040003F1100C2F46186859682E4603C60833FD
:10B1140063453546F7D1002C5FD0002A5DD0136813
:10B12400A36121463846FFF757FF002853D1224632
:10B13400012512F8023B8DF8063001A92846ADF826
:10B144000450FFF743FF002845D10146202206A8FA
:10B1540002F0AFF922460223ADF8183012F80C3B86
:10B164008DF81A30BDF824301E4E6088079623F4FB
:10B174004F6323F00F0343F440632B4306A9ADF858
:10B1840024308DF829508DF82A50FFF7B4FC10BBF9
:10B194000146202206A802F08CF922460323ADF8CA
:10B1A400183012F8043B8DF81A30BDF8243060884A
:10B1B400079623F4875323F01F0343F480532B4350
:10B1C400ADF8243006A940F201138DF82950ADF8EA
:10B1D4002A30FFF790FC0FB0F0BD0E20FBE700BF54
:10B1E4002AF00200F4000100F0B50F4687B01646BD
:10B1F4001C46054610B3406901AA1946FFF739FCFD
:10B20400D0B94FF6FF739C421AD0019BC3B11B788F
:10B21400C3B13388F42B17D8AB88CDF80B008DF865
:10B224000F00ADF8083002A901232046CDE90467D8
:10B234008DF80A30FFF7CEFE07B0F0BD0E20FBE715
:10B244000520F9E70820F7E70720F5E710DF704746
:10B2540013B5044609496846FCF706FD019808B988
:10B2640002B010BDD0E900212046904718B16846CD
:10B27400FCF704FDF2E71120F2E700BF48F00200FA
:10B2840013B5044607496846FCF7EEFC019B0BB96D
:10B2940002B010BD2046D3E9002190476846FCF770
:10B2A400EDFCF3E760F002000B4991F816335A09FC
:10B2B400EC231341DB0706D5084B9A683AB94FF4DF
:10B2C40080030B60704742F20200FBF7E1BD1A688D
:10B2D40042F480021A60704700E100E0B4310020BB
:10B2E400F7B5194F3C7864BB184E012520463570DC
:10B2F400FFF7AEFF112821D02046FFF7C1FF144B02
:10B304008DF80340186801900DF10300FCF710F963
:10B31400104901A8FFF79AFF0446B0FA80F04009EB
:10B3240038709DF80300FCF727F93CB90A4B3470D8
:10B334001C70FFF7B9FF2846FFF7A2FF204603B0B1
:10B34400F0BD0824FAE700BF8937002088370020C1
:10B3540042F00200B16E02008A370020014B1878D7
:10B36400704700BF8937002007B508496846FCF7D5
:10B374007BFC019B13B903B05DF804FBD3E9002007
:10B3840090476846FCF77AFCF3E700BF54F00200EC
:10B39400FFF7EABF60DF704769DF704761DF70471E
:10B3A40030B5134DADF5017D4FF4FA740DF1020182
:10B3B40003A8ADF80240FFF7F1FF70B9294601A8D0
:10B3C400FCF752FC029B002BF0D003A8D3E9002128
:10B3D400904701A8FCF752FCF4E7052805D00DF5C9
:10B3E400017DBDE83040FBF753BD0DF5017D30BD57
:10B3F400E8F20200024B1B780BB1FFF7D1BF704794
:10B404008B37002030B5054685B00C46002900F086
:10B41400A4800023CDE90133514A039301230A6038
:10B424008DF804008DF8063001A906232020ADF81C
:10B434000830FFF7B1FF60B1FCF74AFC494B4A49B9
:10B4440002464A481B1ADB081B0443F00100FBF7C1
:10B45400BBFA0023CDE9013303932268012301A938
:10B4640040208DF80530FFF797FF60B1FCF730FC02
:10B474003C4B3F4902463D481B1ADB081B0443F082
:10B484000100FBF7A1FA0023CDE9013303932268FD
:10B494008DF80450F72301A92320ADF80630FFF7F7
:10B4A4007BFF60B1FCF714FC2E4B324902462F4857
:10B4B4001B1ADB081B0443F00100FBF785FA002389
:10B4C40001202268039301A9CDE901338DF804001A
:10B4D400FFF762FF60B1FCF7FBFB224B26490246F3
:10B4E40022481B1ADB081B0443F00100FBF76CFA2B
:10B4F4000023CDE9023322684FF4B06301A9A120EF
:10B504000193FFF749FF60B1FCF7E2FB154B1B49C0
:10B51400024616481B1ADB081B0443F00100FBF724
:10B5240053FA00252268039501A9A020CDE901550D
:10B53400FFF732FF034668B1FCF7CAFB094B104919
:10B5440002460A481B1ADB081B0443F00100FBF700
:10B554003BFA2B46184605B030BD0E23FAE700BF70
:10B56400982A00205CE702006CF00200FCE602006E
:10B57400B2F00200FEF0020045F1020091F1020077
:10B58400E2F1020073B505460668FFF703FF2B6876
:10B59400B34204461DD91A481A4B1B491B1ADB082F
:10B5A4001B0443F002000190FBF70AFA2B681749C9
:10B5B40001983246FBF711FA4FF080532A68D3F80A
:10B5C4000C31134901989B0203F100539A1AFBF7BB
:10B5D400FBF92CB90F4B01221A70204602B070BD42
:10B5E4002046FCF775FB074B0B49024604481B1A1F
:10B5F400DB081B0443F00100FBF7E6F9EDE700BFAD
:10B60400FCE602005CE7020035F2020064F202008C
:10B6140095F202008B370020BFF202004BDF704727
:10B624001FB50E4C01A8FFF7F9FF70B9214602A817
:10B63400FCF71AFB039B002BF4D00198D3E90021FB
:10B64400904702A8FCF71AFBF4E7052804D004B0DD
:10B65400BDE81040FBF71CBC04B010BD00F30200B1
:10B6640010EE102A084BF6EE007AA3EB620307EE05
:10B67400103A60EE277AB7EE080A67EE877AA7EEEB
:10B68400670A27EE000A7047DF59375F2DE9F04F4C
:10B694002DED0A8B8DB0B0EE61CA019011EE900AC7
:10B6A400F0EE42AAB0EE62AAB0EE40BAB0EE608A02
:10B6B400F0EE41BA01F06AF802460B461AEE900A1F
:10B6C400CDE9022301F062F880461AEE100A894699
:10B6D40001F05CF8DDE9022304460D4610461946E4
:10B6E40000F0F6FD424606460F464B4640464946A4
:10B6F40000F0EEFD02460B463046394600F0C2FC2F
:10B70400224606460F462B462046294600F0E0FD19
:10B7140002460B463046394600F0B4FC41EC100BAF
:10B7240001F044FBB5EE40CAF1EE10FAF14CF24ED2
:10B734000AD1F5EE40AAF1EE10FA05D1B5EE40AA11
:10B74400F1EE10FA00F090802AEEAA0AF7EE009AC1
:10B75400ACEE0C0AE948EA49AAEE0A0AFFF780FFB0
:10B76400E84BE94A94ED007AD2ED007AD6ED006A0E
:10B7740093ED009A29EE669A2AEE00AAA7EE279A7C
:10B78400002596ED007AD4ED007AD3ED008AD2ED4F
:10B79400006ADE4A68EEA68AD4ED006AE7EE278ADC
:10B7A40094ED007AD3ED007A93ED006AD84B67EEFE
:10B7B400867A78EEA88AE6EE877AB0EE007AE7EE2B
:10B7C400C79A2CEE00CA2AEE802A39EE099A28EE8E
:10B7D400CA7AD0ED006AA2EE297A69EECC7A29EE13
:10B7E400422AF5EEC06AF1EE10FAEAEE097AACEEFE
:10B7F400282A40F3B781D0ED005A9FEDC66AD1EDF7
:10B80400006A65EE875AE5EE866AC1ED006AD0EDFE
:10B81400005AD2ED006A65EEA75AE5EE866AC2EDDB
:10B82400006AD0ED005AD3ED006A65EE825AE5EE67
:10B83400866AC3ED006AD1ED006A3BEE26BAD2ED0A
:10B84400006A38EE268AD3ED006A7BEEA6BAB24BC4
:10B85400D3ED006AA6EE87BA93ED007AA7EE278AA5
:10B86400D3ED007AE7EE82BAA64FA74D9FEDAB1A4F
:10B87400D6ED006AD4ED000A97ED007A95ED006AE2
:10B8840028EE018A2BEE01BA67EE487A2BEE811A74
:10B89400E0EECB7A19EE100AE6EE417A96ED006AF4
:10B8A40076EE277AC6ED007A61EE077A95ED006AA6
:10B8B400EBEE267AE6EE487A94ED006A76EE277A85
:10B8C400C4ED007A60EEC17A95ED006AE8EE267A5E
:10B8D40028EE208AE6EE0B7AA1EE268A97ED006A1E
:10B8E40076EE277AABEE478AC7ED007AD5ED007A7B
:10B8F40038EE278A85ED008A96ED007AD6ED007A37
:10B9040094ED000AD4ED006A20EE260AA7EE270A79
:10B9140097ED007AD7ED007AA7EE270A95ED007A25
:10B92400D5ED007AA7EE270AFFF79AFED6ED007A46
:10B9340067EE807AC6ED007AD4ED007A67EE807AFD
:10B94400C4ED007AD7ED007A67EE807AC7ED007A0D
:10B95400D5ED007A27EE800A85ED000A00F016FF87
:10B96400824618EE900A8B4600F010FF41EC180B4B
:10B9740019EE900A00F00AFF02460B4600F0A8FCFC
:10B9840053EC182B8046894618EE100A194600F02D
:10B994009FFC42464B46D6ED00BA94ED00BAD7ED73
:10B9A40000AA95ED00AA00F06DFB41EC100B01F02C
:10B9B400FDF9504653EC102B594600F025FD41EC9F
:10B9C400100B00F053FF52465B46504659468DED2E
:10B9D400020B00F07DFC42464B4600F053FB41EC69
:10B9E400100B01F0E3F994ED007AD7ED007A96EDAF
:10B9F400008AD5ED006A28EE268AD6ED006AA7EE05
:10BA0400278A96ED007AD4ED007A94ED006A67EE09
:10BA1400867AE6EE877AD7ED006A97ED007AE6EE4D
:10BA2400C77AD5ED006A95ED007AE6EEC77A17EE8F
:10BA3400900A00F0ABFE78EE087A41EC190B17EE91
:10BA4400900A00F0A3FEB0EE491AF0EE691A41EC38
:10BA5400100B01F053F897ED007AD5ED007A96EDCE
:10BA6400008AD4ED006A28EE268AD6ED006AA7EE95
:10BA7400278A96ED007A94ED006AD4ED007A67EE99
:10BA8400C67A59EC108BE6EE877AD7ED006A97ED0B
:10BA9400007AE6EEC77AD5ED006A95ED007AE6EE17
:10BAA400877A17EE900A00F071FE78EE087A41EC7E
:10BAB400190B17EE900A00F069FEB0EE491AF0EE89
:10BAC400691A41EC100B01F019F808A3D3E900231B
