:020000022000DC
:1060000000000120756302005D6302005F6302000F
:106010006163020063630200656302000000000028
:1060200000000000000000000000000067630200A4
:1060300069630200000000006B6302006D630200F0
:10604000859602006F630200999802006F63020058
:106050006F6302006F630200219702006F6302000A
:106060006F6302006F6302006F6302006F630200E0
:106070006F6302006F6302006F6302006F630200D0
:106080006F630200BD7102006F6302006F63020064
:10609000597202006F630200C9ED02006F630200D3
:1060A0006F6302006F6302006F6302006F630200A0
:1060B0006F6302006F630200000000000000000038
:1060C0006F6302006F6302006F6302006F63020080
:1060D0006F6302006F6302006F6302000000000044
:1060E00000000000000000000000000000000000B0
:1060F00000000000000000000000000000000000A0
:10610000000000000000000000000000000000008F
:10611000000000000000000000000000000000007F
:10612000000000000000000000000000000000006F
:10613000000000000000000000000000000000005F
:10614000000000000000000000000000000000004F
:10615000000000000000000000000000000000003F
:10616000000000000000000000000000000000002F
:10617000000000000000000000000000000000001F
:10618000000000000000000000000000000000000F
:1061900000000000000000000000000000000000FF
:1061A00000000000000000000000000000000000EF
:1061B00000000000000000000000000000000000DF
:1061C00000000000000000000000000000000000CF
:1061D00000000000000000000000000000000000BF
:1061E00000000000000000000000000000000000AF
:1061F000000000000000000000000000000000009F
:10620000354936480A1A02D0072291438D4634494F
:1062100034480A1A06D00722914381F309880222E2
:1062200082F3148830483149314A00F044F831484B
:106230003149324A00F03FF831483249324A00F0E1
:106240003AF832483249334A00F035F83248334997
:10625000334A00F030F833483349344A00F02BF821
:1062600033483449344A00F026F83448344900228F
:1062700000F02CF833483449002200F027F8334866
:106280003349091A082902DB002202604160314AC1
:1062900090471F481F49884205D00268043003B464
:1062A000904703BCF7E700208646EC46002000211B
:1062B000294A9047FEE7884207D0521A05D0037852
:1062C00001300B700131013AF9D17047884202D098
:1062D00002700130FAE770470000012000E0002062
:1062E0000000012000000120541903003C2200207E
:1062F00090220020D4630200D46302008CF20200DA
:10630000541903003C2200203C22002010F402001B
:1063100010F4020010F4020010F4020010F4020065
:1063200010F4020010F4020010F4020052190300ED
:10633000A819030090220020902200209022002023
:1063400044330020443300204433002044330020F1
:10635000445300209D630200C9A40200FEE7FEE74B
:10636000FEE7FEE7FEE7FEE7FEE7FEE7FEE7FEE705
:10637000704700BF1048804710484FF0070188431E
:1063800085460F4880470F48016841F4700101605D
:10639000BFF34F8FBFF36F8FFFF732BF0A480B4930
:1063A0000B4A884207D0521A05D0037801300B708F
:1063B0000131013AF9D170477163020000000120F8
:1063C000096E020088ED00E0FCF3020028220020A4
:0463D0003C2200204B
:1063D400F0B595B01D46164608460C4602F0F8FE88
:1063E4001A9B0D93CDE9086500252B46082205A9C3
:1063F40020460A958DF82C500C9502F005FF079B5A
:106404000293069B03939DF814308DF8115003F00A
:106414000302012A1DD1BDF81420059DC3F3C20354
:10642400C2F383168DF81030B20008230EA920465B
:1064340002F0EAFEC5F3952508AB0093324602ABA1
:106444000EA9284600F0F0FB204602F0C5FE15B068
:10645400F0BD022AF8D1BDF81650C3F3C203C5F348
:1064640089158DF810300827082D2E4628BF0826D8
:106474003B4632460EA9204602F0C6FEAD1B08ABD1
:1064840002AA31460EA8374400F032FC002DEBD1AD
:10649400DAE70000014B01221A707047D122002074
:1064A4007047000070B50E4D06460FCD88B06C469F
:1064B4000FC495E80F00002E84E80F00094A0A482B
:1064C4004FF0060308BF00226946009303F066F804
:1064D40008B100F0C5FD054B1E7008B070BD00BFCB
:1064E40010F40200996402003C2200209022002053
:1064F40007B5044B0093044A4023FFF769FF03B038
:106504005DF804FB116502009122002038B50D48A6
:106514000D4C0E4D002323700378EB5CD2B263B1B3
:10652400043003F005FE08B100F09AFD084B1A7818
:1065340012B12378002BFBD038BD0C3003F0E8FBFC
:10654400F1E700BF3C220020D1220020B82B00201C
:106554009022002008B50848084A0378D35C3BB170
:10656400043003F077FDBDE808400020FFF79ABF30
:106574000C3003F05FFBF6E73C220020B82B002030
:106584000120FFF78FBF000008B5FFF7F9FF0448AB
:10659400042100F0B3FA034B01225A7108BD00BF75
:1065A400D8F3020050220020037813F0040216D01E
:1065B40003F00303012B03D0022B09D00120704701
:1065C4000A6800880232C0F3831002440A60F5E7C7
:1065D4000B684288023303EB92130B60EEE710461C
:1065E400704700002DE9F04FDFF830A187B00F4667
:1065F40000230446861C0DF1070015468DF807306C
:1066040001F01EF8DAF800103960DAE901321344B7
:1066140001335B1A0AF21C470AF583690AF214482B
:10662400B3421CD30020002D73D004F00F039B0150
:1066340043F0050363F30F00DAF80020DAF80830BA
:106644001340033332444AF823009DF80700CAF884
:10665400002001F019F8012007B0BDE8F08F0121F6
:10666400384602F028F8484602F040F8404602F066
:106674003DF8DAF80400DAF808B0029000EA0B00FA
:1066840003300AEB800002A9FFF78EFF029B50BB88
:106694000BEA03020AEB820203F1020CD2680392B2
:1066A400013303EA0B0B0AEB8B0B02F00302012A02
:1066B400DBF80C10CDF808C023D0022A16D083468C
:1066C400404602F016F810B1029BCAF8043059464D
:1066D400384601F0F0FFDAE901231344DAF8002028
:1066E40001339B1A9CE70BEA0300C9E7BDF80E309F
:1066F400C3F3891303334FEA114B0CEB9303029357
:10670400DEE7BDF80C30C3F383134FEA114B634447
:10671400F5E7A40544F006008EE700BFA42300209B
:106724000B4B0C48FF2210B59A600022C3F81824C2
:10673400C3E90022C3F8142483F8202402F001FDE5
:10674400044610B9044802F01FFE204610BD00BFE5
:10675400A4230020E8F3020064F4020030B50A4CDC
:1067640071B10A4A0A49121BD20800239A4201D184
:10677400002030BD31F82350854202D00133F5E7C3
:10678400034654F83300F4E7F8F20200A8F30200D9
:1067940028220020094B013903EBC000032909D842
:1067A400DFE801F00A02040604207047007970470C
:1067B400407970470020704702207047F8F20200C9
:1067C400034BD3E90030C31A58425841704700BF05
:1067D400A42300202DE9F04387B0FFF7F1FF06461C
:1067E400002840F0FE80804CC4F81804BFF34F8F9B
:1067F4006368A56802932B40033304EB830002A96A
:10680400FFF7D2FE029B18B1D4F81824002A62D0F4
:1068140005EA0302991C013304EB82022B4004EBCA
:106824008303D268DB68049302F00303022B039210
:10683400029163D1BDF80E306C48C3F38917502F11
:10684400B84628BF4FF0500808F1080168F38F13C9
:10685400C1F30901ADF80E3002F08BFC06460028A6
:1068640000F0AA8002F0B4FC0023082203A93046F9
:1068740002F0C0FC029925EA01020132B8EB820F52
:106884004FEA820333D95FFA88F863B32940DDB253
:10689400A8EB050803315FFA88F9A846544D04EBC8
:1068A400810108234246304602F0A4FC3DB108F1C0
:1068B4000803DBB24A462946304602F09BFC029BA1
:1068C400033703EB97070297D4F81834002B4BD106
:1068D400D4F810545BE0226893428CD36260304653
:1068E40007B0BDE8F08342491D469946D9E72940DF
:1068F40003310823424604EB8101DDE7012B5BD120
:10690400BDF80C303948C3F38311062928BF06218A
:1069140061F38913023101F00F018900ADF80C30E5
:1069240002F027FC0646002846D002F051FC002362
:10693400082203A9304602F05DFC0027BDF80C20B4
:10694400C2F38312BB00974203F10803BCD202993D
:106954004A1C29400331029204EB8101042230468F
:1069640002F048FC0137E9E7304602F035FCFFF756
:1069740027FF80F00100C6B2B1E7EB685B7923B171
:106984002B6831461B6828469847EB681D68002D24
:10699400F3D1304602F020FC0DF107008DF80750CA
:1069A40000F04EFED4F818340BB9029B63609DF8D6
:1069B400070000F069FEDAE7D4F8104454B90D4B2F
:1069C4000D480E49C01AC008000440F0020000F04F
:1069D40063F8CCE7236820469B689847E3681C6803
:1069E400ECE700267BE700BFA4230020E8F30200C5
:1069F400B0230020F8F2020020F302004DF402005C
:106A04002DE9F74F224E04460F46924601A9012272
:106A14001846D6F808909B46FFF7E4FD20B3019D85
:106A24004FF00008AA1CD84508EB020126D11948EA
:106A3400002101F0F9FD80F31000000440EA144045
:106A4400E4006B1C04F0380403EA090305EA0905B1
:106A540044F0010406EB8303033544EA881444EA52
:106A64008724D86046F8254096F820341BB1FFF7F8
:106A7400B1FE0028FBD103B0BDE8F08F09EA0101A3
:106A840006EB81015AF82830CB6008F10108CAE707
:106A9400A4230020C027002000231A46FFF7B0BF1C
:106AA40007B50123019201AAFFF7AAFF03B05DF81D
:106AB40004FB07B5CDE9002302236A46FFF7A0FFD4
:106AC40003B05DF804FB1FB5CDE90123069B0393D6
:106AD40001AA0323FFF794FF05B05DF804FB1FB57B
:106AE400CDE90023069B0293079B03936A46042384
:106AF400FFF786FF05B05DF804FB000030B50F4CCE
:106B0400D4F8102403460020114631B9D96808711D
:106B14004AB9C4F810340A6030BDC9680D79854299
:106B240006D00968F1E7D26814680C601360F3E7D3
:106B340001300A28E8D14FF0FF30EDE7A42300200C
:106B440038B5084B0125D3F8104483F8205404B910
:106B540038BDE3685D71236820465B689847E36845
:106B64001C68F4E7A423002030B5C38885B004462C
:106B74000D4633B1144A00921449154A284601F0CF
:106B84001BFE217A05291DD0637A4BB1A088FFF73B
:106B940001FE104B104953F82020284601F00CFE4A
:106BA400227A0E4BA08853F8222003920021FFF78B
:106BB400D5FD039A0A490346284605B0BDE830408E
:106BC40001F0FABD05B030BD90F4020078F4020083
:106BD40070F40200FCF402003B0C030020F50200F8
:106BE40095F4020007B503460846197A052911D021
:106BF4005B7A2BB1094A0A49019001F0DDFD019845
:106C04000849019001F0D8FD019803B05DF804EB48
:106C140001F0C7BD002AF8D0F2E700BF90F40200EB
:106C24003B0C03008DF402002DE9F04385B01F46B0
:106C34000C9D002395F80C902B7306460C46904649
:106C440029463846FFF790FFB8F1060F09D8DFE868
:106C540008F00412181F283340003146284601F07A
:106C6400ABFD002229463846FFF7BCFF85F80C909F
:106C740005B0BDE8F08322683146284601F09CFD4A
:106C8400EFE7D4E900233146284601F095FDE8E713
:106C9400A36800933146D4E90023284601F08CFD13
:106CA400DFE7E3680193A36800933146D4E9002346
:106CB400284601F081FDD4E723690293E368019338
:106CC400A36800933146D4E90023284601F074FDFB
:106CD400C7E76369039323690293E3680193A36895
:106CE40000933146D4E90023284601F065FDB8E756
:106CF40008292DE9F74F80460E4617461C4639D819
:106D0400002593F80C901D7319461046FFF72CFFCD
:106D1400DFF880A0DFF880B0AE422ED918F8052045
:106D24005946204601F048FD0135082DF4D1184993
:106D3400DFF868A0DFF868B0204601F03DFD0025CB
:106D4400AE421FD918F805200192104608F0CEF97A
:106D54000028019A594608BF2E22204601F02CFD36
:106D64000135082DECD1012221463846FFF73AFFC0
:106D740084F80C9003B0BDE8F08F5146204601F032
:106D84001BFDD1E75146204601F016FDE8E700BFA0
:106D9400A9F40200A5F402009FF40200A7F4020083
:106DA400ABF402004FF0704393F8E02F062A10D1A1
:106DB400D3F8E42F12070CD1D3F8E80F00F0F00356
:106DC400302B08D000F0E000A0F1400358425841B5
:106DD400704700207047012070474FF0704393F8CC
:106DE400E02F062A0CD1D3F8E42F120708D1D3F8E8
:106DF400E80F00F0F000A0F130035842584170470A
:106E04000020704708B5FFF7CDFF40B14FF0805325
:106E1400884AD3F82433C3F30423C2F84035FFF778
:106E2400DCFF10B1844B854A5A67FFF7BBFF48B1BA
:106E34004FF080534FF08042D3F84432C3F34233CF
:106E4400C2F83C35FFF7C9FF30B17D4AD2F8FC30B7
:106E540023F08073C2F8FC30FFF7A4FF40B14FF079
:106E640080430022C3F80C21C3F81021C3F838254D
:106E7400FFF7B3FF20B14FF080430322C3F8A025EE
:106E8400FFF7ABFF60B16F4B0522C3F81026012258
:106E9400C3F888260022C3F818263F22C3F8142614
:106EA4004FF0704393F8E02F062A50D1D3F8E42F23
:106EB40011074CD1D3F8E83F03F0F003502B46D12F
:106EC4004FF08052604BD2F80414C3F82015D2F866
:106ED4000814C3F82415D2F80C14C3F82815D2F8F2
:106EE4001014C3F82C15D2F81414C3F83015D2F8C2
:106EF4001814C3F83415D2F81C14C3F84015D2F88A
:106F04002014C3F84415D2F82414C3F84815D2F851
:106F14002814C3F84C15D2F82C14C3F85015D2F821
:106F24003014C3F85415D2F83414C3F86015D2F8E9
:106F34003814C3F86415D2F83C14C3F86815D2F8B1
:106F44004014C3F86C15D2F84424C3F87025FFF735
:106F540029FF48B14FF080534FF08042D3F85832A4
:106F640003F04F03C2F8E43EFFF71CFF48B14FF0B3
:106F74008043D3F80024D20744BF6FF00102C3F862
:106F840000244FF08053D3F83021062A0AD1D3F8D5
:106F94003431062B01BF2D4AD2F83C3743F48063C9
:106FA400C2F83C37264AD2F8883043F47003C2F85A
:106FB4008830BFF34F8FBFF36F8F4FF01023D3F898
:106FC4000022002A03DBD3F80432002B2EDA204BF4
:106FD4000122C3F80425D3F80024002AFBD04FF083
:106FE40010221521C2F80012D3F80024002AFBD085
:106FF4004FF010231522C3F80422154BD3F80024B4
:10700400002AFBD00022C3F80425D3F80024002A68
:10701400FBD0BFF34F8F0A490E4BCA6802F4E062FB
:107024001343CB60BFF34F8F00BFFDE70A4B0B4AFE
:107034001A6008BD0030014000C007400DF0ADBA31
:1070440000ED00E00050004000C00040001000408F
:1070540000E001400400FA05582200200090D0030B
:107064001FB50021039001AA44F20100CDE90111EA
:1070740000F004F805B05DF804FB000038B572B602
:10708400FFF75EFDFFF7A6FB0028FBD1104B114C68
:10709400114D1249E41AE408240444F00100FFF7F6
:1070A400FBFCD5F8F030DB0700D500BE0C4944F0FA
:1070B4000200FFF7F1FCBFF34F8FEA68094B02F4BB
:1070C400E0621343EB60BFF34F8F00BFFDE700BFE7
:1070D400F8F2020020F3020000ED00E034F50200B3
:1070E40040F502000400FA05094B5A7899780132F8
:1070F400D2B2914208BF0022197891421FBF027098
:107104005878182202FB003014BF04300020704766
:107114006028002073B5054600240DF107000E46D3
:107124008DF8074000F08CFA0DF10600FFF7DCFF44
:1071340090B10670094B9DF8062045605A709DF881
:10714400070000F0A1FA24B9054B4FF48012C3F8EC
:107154000021204602B070BD0424F0E7602800201E
:1071640000E100E0024B4FF43C6043F00103184798
:1071740050F5020038B50C4B0C4C4FF40032C3F8F8
:10718400802001254FF48033C4F84833C4F8083311
:107194006560FFF7E7FF064BA56000241C60FFF75E
:1071A400E1FF044B1C7038BD00E100E00010014019
:1071B4007C2900206D290020F8B51F4B1F491B684E
:1071C4000025C1F84051C1F84451C1F84851C1F8F3
:1071D4004C51C1F80051C1F804514BB3D1F80445E6
:1071E40017490968641A24F07F442F461A68A2429A
:1071F40009D8A41A15441A7CDE691AB1D3E905200A
:107204001F749047AEB90F4A0F4B11781B788B420D
:1072140005D10133DBB2022B08BF002313701278AF
:107224000A4B43F822500A4B4FF48012C3F8002152
:10723400F8BD3346DAE700BF802900200010014082
:107244007C29002079290020782900207029002039
:1072540000E100E02DE9F04FA14AA2491378097832
:10726400A14D994285B03CD00133DBB2022B08BF5B
:10727400002313709D4912789D4B0F6853F8220028
:107284003B1823F07F4300220B602B6816461446FC
:10729400944613B942B12B6006E0196881420ED9B5
:1072A40002B12B60091A196001272B68DFF848A284
:1072B40001934FF00008BEB9DFF844B260E0401A11
:1072C4000C44D968D3F81CE0C3F800C031B13A19B2
:1072D40022F07F42C3E90121DE611E46734601228A
:1072E400D7E700263746E0E73446F6697F4B606807
:1072F4001B68DFF810C2A168C21A22F07F426245FF
:1073040000F2A6800A442260012222742A68002323
:10731400C4E90133E361002A40F0A3802C60CAE78A
:107324009BF802105A1CD2B291428BF8002004BF81
:1073340000228BF80020182202FB03B32A68197973
:107344009C68022975D003297FD0012918D1207C9B
:10735400B0B9D3E90312A2605A69E2609A69654B35
:10736400A2611A78002A18BF01466160BEE78C4208
:1073740000F094808946C9690029F8D10023237458
:107384009BF800309BF801209A42C9D12B68B8F1D0
:10739400000F04D1019A9A4201D1002F43D0002B4F
:1073A40079D0D3F800A0544D504BD5F804751C681F
:1073B400DFF854813E1B98F8003026F07F460336F0
:1073C4009BB94FF48033C5F84433C5F804334B4BB1
:1073D4004FF400324FF00109C3F880211A60C5F858
:1073E4000090FFF7BFFE88F80090B2452CBF5444CC
:1073F400A41924F07F44C5F84045D5F80435DB1BB7
:1074040023F07F43E41B033324F07F44A3420AD9CF
:10741400D5F80435C5F84035FFF7A4FE374B4FF4D3
:107424000032C3F80021334B00221A7005B0BDE8C6
:10743400F08F114691469FE71174D2690123002A07
:10744400FAD1002B9CD02A609AE700231946F6E76C
:107454001B1A23F07F438B4234BFCB1A00232360D3
:1074640052E721681368994213D85B1A1360E261EA
:1074740054E7091AD8691A4638B10346186888428D
:10748400F7D3401A1860184613462160E061DC61A6
:1074940011E71346F2E7FFF76DFEC4E74C4511D13F
:1074A400D3692B6073B9DFF844E00120CDE90212FF
:1074B400CAF80800CEF800300E4B1870FFF752FEE1
:1074C400DDE902120B68C969C9F81C1011B108681A
:1074D40003440B602B68934218BF4FF001084DE73B
:1074E4007829002079290020802900207C29002087
:1074F400702900206C2900200010014000E100E008
:1075040060280020FEFF7F006D29002008B5FFF7EA
:1075140031FE104B00200B2218809A700E4B18601D
:107524000E4B18700E4B18700E4B4FF48012C02186
:10753400C3F8802183F814131A6002F18042A2F583
:107544006F22C2F8080583F81113074BD2F80425FB
:107554001A6008BD602800208029002078290020B6
:107564007929002000E100E07C290020074B9B786A
:107574004BB132B128B10368187C20B959745A61EF
:107584007047072070470820704700BF602800201C
:107594002DE9F743DFF8848098F8023005460E465B
:1075A4001746ABB3A0B3042930D9436983B3437CF2
:1075B4000024012B0DF107000CBF8946A1468DF86C
:1075C400074000F03DF80DF10600FFF78DFDD8B13E
:1075D400012303700F4B4560D3F80435C0E90497C9
:1075E400C0E902369DF8063088F801309DF807009E
:1075F40000F04AF824B9084B4FF48012C3F8002174
:10760400204603B0BDE8F0830424EFE70724F7E73E
:107614000824F5E70010014000E100E060280020A4
:10762400064A92783AB130B1426922B1002202741A
:107634000221FFF76FBD0820704700BF60280020BB
:1076440070B5EFF3108672B60C4A946801239CB9A6
:1076540093600B4B0B4DD3F8801029401160C3F895
:107664008050D3F8841051604FF0FF32C3F8842067
:10767400047006B962B670BD0370FAE7842900206D
:1076840000E100E0FC06FFBD084B9A6810B55AB152
:1076940050B9EFF3108172B6054A1C6814605C6837
:1076A4005460986001B962B610BD00BF84290020FF
:1076B40000E100E070B5064D0646002455F8043B91
:1076C4000BB1304698470134042CF7D170BD00BF8C
:1076D4009C2900204388033300EB8303994209D398
:1076E40082884FF6FF739A4206D00088B0FA80F081
:1076F400400970470220704701207047033080B270
:1077040040F2FD33984230B51FD8124B1A783AB97B
:107714001C895D892C440444A4B2B4F5806F0AD357
:107724001A7DA2B99A8BDC8B2244024492B2B2F540
:10773400806F0CD201220A801446142202FB043307
:107744005A8910445881002030BD0920FCE70720E5
:10775400FAE700BFD02900200B4A0C4953881420B3
:1077640000FB0311CB6833B904204968107001226F
:10777400074801F0AFBA07490523137002238B8031
:10778400012209680023F3E7B4290020D02900204E
:1077940028220020982A002007B5002305490093D9
:1077A400054A09680548082301F0FAF903B05DF8B1
:1077B40004FB00BF982A002064F502002822002060
:1077C40007B5002301460093034A0448082301F047
:1077D400E7F903B05DF804FB5CF502002822002001
:1077E40013B500230C4600930146084A08480423B5
:1077F40001F0D6F938B9074B142101FB04310123F8
:107804000B7402B010BD0E20FBE700BF58F5020058
:1078140028220020D029002037B50A480A4B4268A4
:107824009C88196853880325033305709BB2002094
:1078340000909B0001EB8401044801F0B1F903B00E
:1078440030BD00BFB4290020982A0020282200203F
:1078540010B50146044800F01BFE1C22044600211A
:1078640007F0AFFC204610BD842A002068B10268EE
:10787400084B9A4209D14068074B984207D001331C
:10788400984214BF03200120704703207047002052
:10789400704700BFDEC0ADDEFE011EF12DE9F041F0
:1078A4000D460223154F2B80164600F5805100F13A
:1078B40008044FF001088C420ED2236801330BD028
:1078C4002046FFF707FF48B10EB186F80080022872
:1078D40009D14FF480632B80BDE8F081A3683A6836
:1078E400934200D93B602B886288033313442B8076
:1078F4006388033304EB8304DDE700BFC829002059
:1079040038B5144B14220D4602FB00302B68446832
:1079140004F58051A3B15C88033403EB84048C42E6
:1079240015D22368013312D02046FFF7D3FE012875
:1079340008D002280BD00028F1D12C60012038BDDA
:107944000834ECE76388033304EB8304E7E700209F
:10795400F5E700BFD0290020426873B504460D4600
:1079640062B3234BD9688A4228D31B699A4225D82B
:1079740012F0030322D11F490089098988421DD1CD
:1079840020689168884219D11B4841688A4203D90A
:1079940001F580518A420DD381698A420CD901F5DF
:1079A40080518A4208D201222A80B3FA83F0400926
:1079B40002B070BD1A46F7E70A23F6E700262E80C8
:1079C4000196288801A9FFF79BFF30B92B88013362
:1079D4009BB2012B2B80F3D9EAE7019B22689968BB
:1079E4009142EED16360034B1B892381E0E700BF22
:1079F40028220020B4290020D02900202DE9F843B2
:107A04001C461C4B1B7806460F4615466BB372B3D7
:107A14006CB3DFF868804FF01409A388012B01D9F7
:107A24000A2020E009FB03F318F803302BB9A088DF
:107A34002146FFF765FF20B92060A3880133A380A6
:107A4400EBE723681EB1998832889142EFD11FB1C8
:107A540019883A889142EAD19A68C5E90023064B0D
:107A64001B892B810020BDE8F8830220FBE7052059
:107A7400F9E700BFAC290020B4290020D029002058
:107A840008B5074B5888191DFFF73AFF18B1BDE830
:107A94000840FFF7C1BEBDE80840FFF75DBE00BF68
:107AA400B42900202DE9F0479F4FDFF8A08288B069
:107AB40006463B6823B99D48414600F023FD3860E3
:107AC4003D6829784B1E052B07D8DFE813F01F000B
:107AD40077007700070107015B010F2414220021BE
:107AE40003A807F06EFB41F61D539C4208BF002417
:107AF4003B6804941A78023A042A00F2F981DFE818
:107B040012F0DA01E60108021002170226B1884BCE
:107B140000225A600124E1E72B79032B1CD8DFE80B
:107B240003F014022934834A1378022B19D0137DED
:107B3400022B4FF0010316D114214B43D11800201E
:107B4400D0544868FFF73CFE03E001232B71FFF794
:107B540023FE002800F0BD80754B00225A600E24DD
:107B6400BCE70023E8E7724A13700023536041F630
:107B74001D54B3E770497148002302222B718A8097
:107B84000968012201F0A6F8E3E76B4C00262E7188
:107B94002068FFF715FE6A4BDFF898C15B882568FB
:107BA400142253430CEB03020CF803605168556034
:107BB400A588158102222160A280CAE7B5F814A025
:107BC400AA7DDFF87091AEB1022AEB8806D91421A0
:107BD40001FB0A91DA1C088902440A81142202FB7F
:107BE4000A99C3F57F43B9F80A20FD331344A9F871
:107BF4000A308FE7142303FB0A9318895C6804EBAB
:107C04008004062A68D8DFE802F0274D35431D5961
:107C1400040041F61D54AA7DEB88022A06D91421DA
:107C240001FB0A91DA1C088902440A81142202FB2E
:107C34000A99C3F57F43B9F80A20FD331344A9F820
:107C44000A304BE73F48404900234360AB69036077
:107C5400FFF782FE002859D00223AB75002300935E
:107C64000423EA182146354800F09AFF002830D052
:107C74000E24D0E72B69002B14BF03230123AB751B
:107C84000023009305F10C02042304F10801EAE740
:107C94000123AB750022EB8800922A699B0004F152
:107CA4000C01E0E703290CBF05230623AB75002371
:107CB4000093042305F10802E118D4E70623AB7509
:107CC400214B19881F4B5868FFF78AFD044600288A
:107CD400A1D108B0BDE8F0870F249CE7002E7FF403
:107CE40019AF2B79012B33D0022B3FF440AF002B7B
:107CF4007FF4F3AE02232B710DF10A01EB680393B9
:107D040003A8CDE90466FFF727FE08B90A24E5E6CF
:107D14000498BDF80A108388EB8003882B81FFF751
:107D24005FFD044627E000BFCC290020842A002000
:107D3400AC290020D0290020982A002028220020E5
:107D4400B429002090290020A42A0020C42900205E
:107D5400DFF8F89103AA4B463146A81DFFF74EFE03
:107D6400044660B9B9F804100498FFF739FD0446D5
:107D74000A2C3FF4FCAE002C7FF4B0AEA9E7C9E9AD
:107D84000066F5E7002E7FF4C5AE6B4B1A7BBAB1E3
:107D94001E731A78013A062A3FF69FAE01A151F8E4
:107DA40022F000BF4F7E0200757E0200937E020027
:107DB400997E0200DF7A02009F7E0200B17E0200FB
:107DC4001A78072AE5D801A151F822F0F17D0200C2
:107DD400977D0200977D0200177E02002B7E020031
:107DE4004B7E02004B7E0200137E02001A89534927
:107DF40001321A8100225A801A730A78B2FA82F286
:107E040052099A720A7DB2FA82F25209DA72012296
:107E140007E04B4958688A884088033202448A80C4
:107E240002221A70B5E75C88444A4549142505FBCB
:107E340004220868546850608888108102228A806D
:107E44000C600622EDE70722EBE79A7A32B9DA7A78
:107E54008AB900221A705A805A6088E6374900228B
:107E64009A72CA68002AF2D1097C0029EFD05A809C
:107E7400FFF706FE55E70022DA72304A116A00293C
:107E8400E7D192F82420002AE3D00122EFE7FFF79C
:107E9400C3FC46E7FFF760FC43E75A88274B1421ED
:107EA40001FB02335868FFF78BFC3AE700225A6063
:107EB400FFF772FC35E701228DF80C201A89ADF822
:107EC40018209A88DB68ADF81A20059310E0022286
:107ED4008DF80C201A89ADF818209A88ADF81A206C
:107EE400DA689B7D05929A1F534253418DF81C30EA
:107EF40003A8FFF7DFFB0026414612483E6000F06E
:107F04002CFB1148012100F0E2FB00287FF4D1ADE5
:107F1400DFE603228DF80C20DA88ADF818201A89E0
:107F2400D0E704228DF80C20DB88ADF81830DFE7A9
:107F340005238DF80C30DBE7B4290020D02900207C
:107F4400982A0020842A0020942A0020A82A0020AD
:107F54004068FFF7A7BD000008B50548012100F0FF
:107F64009EFB18B9BDE80840FFF79CBD08BD00BFE3
:107F7400942A00202DE9F3419846354B1B78064698
:107F84000D46002B5BD000295BD009884FF6FF73A8
:107F9400994258D06B88002B55D06B689B0754D1FD
:107FA4004AB92F890DF102013846FFF7A7FB30B11A
:107FB40002B0BDE8F08113885788ADF8023001A8FB
:107FC400FFF746FC044658B9BDF80220214B1421A2
:107FD40001FB023358890338C01B58810820E7E7A6
:107FE40080F8008000238375BDF8023083826B68BB
:107FF40003610121184800F05EFB2B882381B8F14E
:10800400030F6B88A38004BF0423A3754FF00005FE
:1080140008BF3368E06008BFA3611048E78065814A
:1080240001A900F05FFA36B1E36833600C4B756068
:108034001B89B5723381FFF78FFF0020B8E7022058
:10804400B6E70520B4E70420B2E70320B0E700BF99
:10805400AC290020D0290020C8290020842A00202F
:10806400B429002008B5034607480268042A08D04A
:108074000168064A42F82130012100F01CFB00206F
:1080840008BD0C20FCE700BFA02A00209C2900208A
:108094002DE9F04F89B01422002103A807F091F8CC
:1080A400724B1B7803F0FF0201923BB103A8FFF768
:1080B40001FB0026304609B0BDE8F08F6B4B181D5C
:1080C40000F011FB0028F4D14FF010234FF0805240
:1080D4005B6911695269DFF8ACB1581C08BF02FB37
:1080E40001F3CBF810306249A3F5405300225846FF
:1080F400CBF80C3000F022FD06460028DAD11C2310
:108104005C495D48DFF880A1DFF880818C2200F0B3
:108114008AF90323B146354600933446DBF80C70E4
:108124004F443846FFF7A2FB012839464AD00328BA
:1081340015D0002835D11421614308EB010208F859
:108144000100576001F110020831424441443846AD
:10815400FFF7A4FB45F002050134A4B221E007F5C2
:1081640080520868013074D104319142F9D1DAF8AF
:1081740000203AB902220123CAF80070AAF80420A8
:1081840001930CE014226243022008EB020108F878
:1081940002003A4A4F60548001340881A4B245F089
:1081A400010509F58059B9F5405FB7D1009B012B52
:1081B40098BF0025EDB2022D02D0062D20D045BB7C
:1081C4000B2677E7019B63B11422624308EB02019B
:1081D400022008F802000134DAF800204A6008811D
:1081E400A4B200222649CAF800703846FFF756FBAD
:1081F400BAF80420022A0CBF042208221543D0E74F
:108204001A4A0123137003A800235360FFF752FA9C
:1082140050E702A8FFF71CFBC8B10123013D03701E
:108224000A2D09D8DFE805F006080608070807083C
:108234000F110F000023037102A90F4800F052F937
:10824400FFF78AFE36E70323F5E70223F3E7082660
:1082540030E7009B5A1E93B21422624308EB0201DA
:1082640000934F60032108F8021075E7AC29002041
:1082740058F70200F8290020842A0020B42900209D
:108284009C2A002028220020982A0020D02900209F
:1082940073B50D460446C8B1C1B10DF10601FFF72F
:1082A4005BFBA8B1BDF806300A486668142202FBDD
:1082B400030001210C3000F0FEF963682E600C33DA
:1082C4006B600123A372002002B070BD0520FBE7A0
:1082D4000A20F9E7D029002013B50446A8B10DF10E
:1082E4000601FFF739FB90B1BDF806200A4B1421B3
:1082F40001FB0233DA6862B1A27A52B1DA68002073
:10830400013ADA60A07202B010BD0520FBE70A2032
:10831400F9E70620F7E700BFD02900200223002256
:10832400FFF728BE18B103230022FFF723BE052060
:1083340070470000104B1B7813B50446ABB14FF6E1
:10834400FF73984213D001A8FFF782FA88B105237E
:10835400037001230371C48001A9084800F0C2F826
:10836400FFF7FAFD002002B010BD0220FBE7042055
:10837400F9E70820F7E700BFAC290020842A002091
:108384000E4B1B7807B5A3B101A8FFF761FA90B1B2
:108394000623037001A90A4800F0A4F8094B1A78CF
:1083A4000AB101221A73FFF7D7FD002003B05DF86C
:1083B40004FB0220FAE70820F8E700BFAC290020FC
:1083C400842A0020B429002007B5ADF80600ADF8D2
:1083D40004100DF1060001A9FFF710FB03B05DF8CE
:1083E40004FB07B51346ADF806000A4600200DF15C
:1083F4000601FFF703FB03B05DF804FB07B5134662
:10840400ADF806000A460DF106000021FFF7F6FA62
:1084140003B05DF804FB20B119B103680B600020C0
:1084240070470520704710B561B1B2FBF3F403FB4C
:108434001424A4B244B9C0E9001484608281C381C5
:10844400204610BD0E20FCE70920FAE782B050E870
:10845400022FC188B2EB324F4FF0000317BF92B224
:1084640041EA014142EA014104E04268B2EB324F81
:1084740008BF012340E80212002AE8D18DF8073032
:108484009DF80730002B0CBF1120002002B070476C
:1084940037B550E8013F9DB2C48925448489A5427B
:1084A40028BF2D1B0489A54202BFBFF32F8F0022D2
:1084B40007E0C5EA030540E80154002CE9D14FF078
:1084C40001028DF803200193019A0A609DF80310BC
:1084D40001F0FF0321B1006810FA82F003B030BD4F
:1084E4001846FBE70A884B889A4209D150E8012FC5
:1084F400C2EA024240E80123002BF7D10120704771
:108504000020704737B550E8023F1FFAA3F5C4882E
:10851400A54202BFBFF32F8F00220DE0C48925447A
:108524008489A54228BF2D1BC3EA054540E80254AF
:10853400002CE8D14FF001028DF803200193019A39
:108544000A609DF8031001F0FF0321B1006800EBFD
:10855400124003B030BD1846FBE70A884B889A42A4
:1085640009D150E8022FC2EA224240E80223002B3C
:10857400F7D1012070470020704701F01F024B091A
:108584000121914000EB830000F065B84B0910B560
:1085940001F01F040121A14000EB830000F04FF81B
:1085A400E04000F0010010BD01F01F0301229A40D9
:1085B4004B0900EB8300D14300F065B84B0901F08F
:1085C4001F0150F82300C84000F0010070472DE956
:1085D400F0474F1E7F0980460E460137002558F8A4
:1085E400254008EB8509E44394FAA4F4B4FA84F42E
:1085F4004FEA451A202C06D10135AF42EFD8344654
:108604002046BDE8F0875444A642F5D921464046A9
:10861400FFF7BCFF0028F3D0D9F80040E44394FAF4
:10862400A4F4B4FA84F4E5E710B5034653E8000F64
:108634000A4643E8002494F0000FF7D110BD10B5AA
:10864400034653E8000F40EA010243E8002494F093
:10865400000FF6D110BD10B5034653E8002F42EACF
:10866400010043E8000494F0000FF6D110BD10B5EA
:10867400034653E8000F00EA010243E8002494F0A3
:10868400000FF6D110BD10B5034653E8002F02EADF
:10869400010043E8000494F0000FF6D110BD10B5BA
:1086A400034653E8000F00EB010243E8002494F072
:1086B400000FF6D110BD10B5034653E8002F02EBAE
:1086C400010043E8000494F0000FF6D110BD10B58A
:1086D400034653E8002FA2EB010043E8000494F0A2
:1086E400000FF6D110BD0121FFF7A9BF0121FFF74B
:1086F400B2BF0021FFF7BBBF10B590B1D0E9012391
:1087040001689B1ADBB20A60013BDBB2FF2B0268F3
:1087140002D10020107110BD11684C1C14600B7044
:10872400F2E70E20F7E737B5054600240DF1070000
:108734008DF80740FEF784FF2A686B681168994238
:108744000ED9481E106011F8013CEC68298A01FB1F
:108754000344AB6811791B1ADBB2994238BF137119
:108764009DF80700FEF790FF204603B030BD37B5F3
:10877400054600230DF107000C468DF80730FEF77F
:108784005FFF2A681368591C1160E968641A298A12
:10879400B4FBF1F41C709DF80700FEF775FF03B0FD
:1087A40030BD826810B504462AB143690168006986
:1087B40098470023A36010BD0EB403B5039921B1FB
:1087C40004AB01AA019300F06FF802B05DF804EB6A
:1087D40003B07047826830B40468551C8560A154A6
:1087E400D0E901329A4202D330BCFFF7DABF30BC81
:1087F400704700002DE9F84F9846DDE90A43154615
:1088040082460F460A464FF00109AA420FD2C145DB
:1088140038BFC14613F0010B01D16CB90024012605
:10882400B8F1010F1BD908F1FF386E43F8E709F1DD
:108834000109B2FBF5F2E8E79B070ED5B8F1000F8A
:108844000CBF30262026A145E9D2013C31465046D2
:10885400FFF7C0FF002CF6D1E0E72026F3E7B7FBD3
:10886400F6F39D42E1D9DFF83C80B7FBF6F35046BE
:1088740018F8031006FB1377FFF7ACFF3346AB423F
:10888400B6FBF5F6F1D2BBF1000F02D00CB1A14555
:1088940001D3BDE8F88F20215046013CFFF79AFF31
:1088A400F4E700BF6CF502002DE9F74F05461746C3
:1088B4008846002900F03E8118F8011B49B92B7B3A
:1088C400002B00F03781284603B0BDE8F04FFFF7D6
:1088D40068BF252940F0B780002698F800302D2B7A
:1088E400424608F1010823D0302B24D02B2B25D06D
:1088F40000242A2B02F1010123D13B681A1D1B68B5
:108904003A601C440A4613782E2B26D101324FF0CC
:10891400000A104610F8011BA1F1300CBCF1090F3C
:108924001DD80A2303FB0A13A3F1300A0246F0E719
:1089340046F00106D1E746F00206CEE746F004060B
:10894400CBE711F8013CA3F130000928DBD80A2257
:1089540002FB0434303C0A46CBE74FF0000A12F81D
:10896400011B01F0FB0068289046F8D0782909D84B
:108974006F290CD8632962D022D8252963D05829BD
:1089840000F0888098F80030002B95D197E7703973
:108994000829F7D801A353F821F000BF138B020074
:1089A4008989020089890200A98A02008989020052
:1089B400878A02008989020089890200998A020053
:1089C400642901D06929DDD13A68D2F80090111DDB
:1089D40089EAE9723960A2EBE9724FF0010B092AC6
:1089E40035DCD34538BFD3462CB1B9F1000F01DBD8
:1089F400720700D5013CB30702D5BAF1000F03D0CA
:108A0400F00701D44CBB0024B9F1000F2DDAC9F1F1
:108A140000092D212846FFF7DDFE06F00302022A95
:108A240004D1BAF1000F01D11CBB0024CDE90046EA
:108A340053460A2249462846FFF7DCFEA2E73B6874
:108A44001A1D19783A602846FFF7C4FE9AE70A23EC
:108A54000BF1010BB2FBF3F2C1E7A345D4D2202101
:108A64002846013CFFF7B6FECCE77107D5D52B218C
:108A7400D0E7A345DAD230212846013CFFF7AAFE0D
:108A8400D2E73968CDE900460A1D3A6053460A2206
:108A94000968D0E739680A1D3A60CDE900465346B3
:108AA4001022F5E73B681A1D3A6016F00106D3F868
:108AB400009024D1B9F1000F03D0484606F0B4FB6E
:108AC4000646B4421DD809F1FF3919F8011F0029DF
:108AD4003FF458AF2846FFF77DFEF6E728460136F7
:108AE400FFF778FE19F806100029F7D1A642BFF463
:108AF40049AF20212846013CFFF76CFEF6E700262B
:108B0400F0E720212846013CFFF764FED9E73B68E3
:108B14001A1D3A60302128461C68FFF75BFE782155
:108B24002846FFF757FE00220823CDE900322146EC
:108B3400102280E703B0BDE8F08F00BF13B50B46E9
:108B4400114680B9104B1148114AC01A0E23C008AF
:108B54000093104B0004104940F00100FDF7B3FFEF
:108B64000E2002B010BD4BB9074B08480B4AC01A7F
:108B7400C0080E2300930004064BECE703601B6857
:108B840002B0BDE810401847F8F2020038F30200C2
:108B94007CF5020038F7020081F50200B0F502000E
:108BA4002DE9F743DDF8288088B93E4B3E483F4A1B
:108BB400C01AC0080E243E4B009400043D4940F006
:108BC4000100FDF780FF204603B0BDE8F0834AB9F9
:108BD400344B3548384AC01AC0080E24344B00942C
:108BE4000004EBE7D0F800E0BEF1000F09D12D4BF3
:108BF4002D48324AC01AC00808242D4B00940004A2
:108C0400DCE74BB9274B28482D4AC01AC008092471
:108C1400274B00940004D1E74568D5F80490B3FBD2
:108C2400F9F509FB15354DB11E4B1F48254AC01AED
:108C3400C00809241E4B00940004BFE78D0709D027
:108C4400184B1948204AC01AC0081024184B009425
:108C54000004B3E712F0030F09D0124B12481B4A69
:108C6400C01AC0081024124B00940004A6E7C5687B
:108C7400A9420DD34D1EEC180569AC4208D8CDF8B5
:108C84002880DEF80C40A44603B0BDE8F0436047FA
:108C9400044B05480E4AC01AC0081024044B009423
:108CA40000048BE7F8F2020038F302007CF50200BE
:108CB40025F7020081F50200FEF50200AAF5020084
:108CC400BDF5020004F602002EF6020046F602008C
:108CD40069F60200F7B580B92A4B2B482B4AC01A13
:108CE400C0080E242A4B009400042A4940F00100D5
:108CF400FDF7E9FE204603B0F0BDD0F800C0BCF19A
:108D0400000F09D11F4B2048234AC01AC008082469
:108D14001F4B00940004E8E74AB91A4B1A481F4A4B
:108D2400C01AC00809241A4B00940004DDE7456802
:108D3400D5F800E00EF1FF350D4209D0114B124871
:108D4400174AC01AC0081024114B00940004CCE741
:108D5400C568A9420CD34D1E0EFB02540569AC42F2
:108D640006D8DCF81040A44603B0BDE8F0406047E4
:108D7400044B05480B4AC01AC0081024044B009445
:108D84000004B2E7F8F2020038F302007CF50200B6
:108D940012F7020081F50200AAF50200BDF50200F7
:108DA40090F60200B6F6020029DF704728DF70470C
:108DB40070B503689E6886B004460D466EB11422F1
:108DC4000021684606F0FDF9A3680593237901950F
:108DD4002BB1012B0DD06846B04706B070BD0123FE
:108DE4008DF8003023690293E36803936369049365
:108DF400F1E702238DF80030E3681B030293F5E7E3
:108E04000846704700207047024B187A003818BF94
:108E1400012070474C2B0020034B187A0122B0FA32
:108E240080F05A74400970474C2B002008B5104656
:108E34001A4606F09DF9002008BD000008B514226A
:108E44000021044806F0BDF90348FFF7FFFA0020AB
:108E540008BD00BF4C2B00203C2B002010B5094C52
:108E6400094B43602046FFF73EFC40B905F090FFF4
:108E7400064920741C2306488C22FFF7D4FA0020EC
:108E840010BD00BF4C2B00204CF70200B02A00207C
:108E94003C2B002038B5234D234C2B7A3BB9234976
:108EA4002348FFF72FFB206008B9686038BD022310
:108EB40024682B72237973B1012B24D0204603211B
:108EC400FFF776FF00232B726B6018491848BDE842
:108ED4003840FFF742BBD4E90523D21AB2F5805FCC
:108EE400D4E9031028BF4FF480529208012A38BFF6
:108EF400012219441844FFF757FF50B11128DDD15E
:108F040001232B72D2E7D4E903031844FFF74EFF81
:108F1400F3E72B7C002BC9D1BDE83840022000F0D8
:108F240009B800BF4C2B0020642B0020602B0020CC
:108F34003C2B002038B5234C237A002B41D0022B44
:108F440009D1032830D0204B00221B68E2601A7933
:108F54003AB1012A22D0637C7BBBBDE83840FFF7DD
:108F640099BFD3E905128D1AB5F5805F94BF5219E4
:108F740002F580529A619142EDD102284FF000032C
:108F840008BF19462372104B18BF0D211868FFF74C
:108F94000FFF0E490E48FFF7E0FADCE71A690132C9
:108FA4001A615B699A42E7E7E3680133082B01D849
:108FB400E360D0E70023E360DFE7BDE8384005F075
:108FC400D7BE38BD4C2B0020642B0020602B002022
:108FD4003C2B0020831E012B01D8FFF7ABBF704749
:108FE40000F0FD03012B08D1044B00225A74421EE9
:108FF400504250411874FFF74DBF70474C2B00206E
:1090040010B5064C201DFFF76EFB28B9637C1BB915
:10901400BDE81040FFF73EBF10BD00BF4C2B002041
:109024002DE9F34180460D46104801A916461F4616
:10903400FFF72EFA0446B0B118220021043006F0DE
:10904400C0F82D0B0123237101A90848C4F800803E
:10905400A760E5606661FFF745FAFFF7D1FF0020DE
:1090640002B0BDE8F0810420FAE700BF3C2B0020E9
:109074002DE9F34180460F460F4801A916461D46C7
:10908400FFF706FA0446A8B118220021043006F0BE
:1090940098F8089BA36001A9C4E903670648C4F8CB
:1090A40000806561FFF71EFAFFF7AAFF002002B0F7
:1090B400BDE8F0810420FAE73C2B00202DE9F84FAD
:1090C400B0F806A04579D2F800B09DF828900AFBC4
:1090D40005F5043D88460BEB0301A94203F10404A2
:1090E40088BFA5EB030BB4FBFAF607460AFB16444C
:1090F400C2F800B04EB9AAEB04055D4528BF5D4631
:10910400BBF1000F04D1BDE8F88F3F68013EF1E7E1
:10911400043408EB06003C442A46B9F1000F0DD094
:109124002146ABEB050B06F023F8DA452E443F68E5
:1091340055464FF0000428BF5D46E1E7014620464E
:10914400EFE7FFF7D9BAF8B546790146721E05462E
:10915400002393422D6803D30024A64202D8F8BD0D
:109164000133F6E70F682846FFF701FB013439465F
:10917400F3E72DE9F843068ACD1C0746FFF7D3FA37
:10918400043E35440446B5FBF6F5F0B14FF4807364
:10919400EDB28380C680013D076081464FF0000830
:1091A400A84512D23846FFF7BEFA064648B163799D
:1091B4000133637108F10108C9F8000007608146B2
:1091C400EEE72046FFF7BFFF34462046BDE8F883AC
:1091D40001210430FFF76FBA10B5012104460430B1
:1091E400FFF775FAC0B220B92046BDE81040FFF77A
:1091F400AABF10BD1FB503920022009203AAFFF775
:109204005DFF05B05DF804FB1FB5039201220092D7
:1092140003AAFFF753FF05B05DF804FB33DF704783
:1092240041DF70470D4A08B5002313700C4A1360E0
:10923400BFF35F8F0B490C4800F0AFF80B4A0C48A2
:109244000121FEF793F9024630B9BDE80840094808
:109254004FF40041FEF79CB908BD00BF942B0020D9
:10926400982B002088F70200682B002079930200D5
:1092740084F70200742B002007B500230DF10700CA
:109284008DF80730FEF7DCF9F1EE103A23F09F0376
:10929400E1EE103ABFF35F8F0A4B4022C3F88421FA
:1092A4009DF80700FEF7F0F905F072FD20B103B058
:1092B4005DF804EBFFF7B4BF20BF40BF20BF03B08D
:1092C4005DF804FB00E100E070B5244D0446012183
:1092D4002846FFF7A9F9BFF35F8F38B9042C0AD0E9
:1092E4001F4B1A781AB1BFF35F8F286070BD1D4AF7
:1092F400147001221A701C4C1A4E6368BBB9FDF736
:109304001FFCFDF767FA0028FBD1164B1B78023BC4
:10931400012B15D8BFF34F8F1449154BCA6802F4BB
:10932400E0621343CB60BFF34F8F00BFFDE71B68C0
:10933400307898470028D6D0204600F038F8DCE78B
:1093440005F026FD08B1FFF769FF4FF080430122C5
:10935400C3F80025BFF34F8F20BFFDE7982B0020F3
:10936400942B0020702B0020682B002000ED00E0DF
:109374000400FA05034B1B7813B10420FFF7A4BFC4
:10938400704700BF942B0020836800225A60C3E911
:1093940004229A60DA601A6070470B684A68436076
:1093A400934208BF0023016008BF436070474368CD
:1093B40043B10268916852680B449342436004BF0E
:1093C400002343607047000010B50D49A1F5947265
:1093D400914201D800200FE08C1AE30F03EBE40361
:1093E4005B1002EBC30452F83330834205D802D237
:1093F40004F10802ECE7606810BD2146E8E700BF0D
:109404008CFC020008B5FFF7DFFF024B002808BF01
:10941400184608BD4EFB020038B5074C051E04F182
:10942400080318BF1C4623682BB11A6822605B68C6
:1094340028469847F7E738BDA42B002020B9054BF0
:1094440001225A70FFF7E8BF012802D1014A907047
:10945400F8E770479C2B002020B9034B01225A7077
:10946400FFF7DABF704700BF9C2B002038B50B4CC8
:10947400237883B90A486360A3602361E36000F042
:10948400D5F8054605F084FC08B900F0DBF80123A3
:109494002370284638BD8525FBE700BF9C2B0020A0
:1094A4004194020037B50B4C00230DF107008DF8F1
:1094B4000730FEF7C5F8E368013BE360E56815B9DA
:1094C40000F0D4F8A5709DF80700FEF7DDF803B0AE
:1094D40030BD00BF9C2B0020012813B508D0032801
:1094E4001CD018B9114B0122C3F8802002B010BD62
:1094F4000F4C00230DF107008DF80730FEF7A0F89C
:1095040023780BB9FFF7B2FFE3689DF80700013336
:10951400E3600123A370FEF7B7F8E7E700F092F8E1
:1095240002B0BDE81040FFF7BDBF00BF00E100E09E
:109534009C2B00201FB503788DF8003043680193FD
:10954400037A8DF80830C368054A0393054B6846CF
:1095540053F8213052F82110984705B05DF804FB08
:10956400B02B0020B42B00201FB503788DF80030F9
:109574004368019383688DF80830C368054A0393F0
:10958400054B684653F8213052F82110984705B02E
:109594005DF804FBB02B0020B42B0020F0B5194B70
:1095A40090F800C091F81DE043F82C20164B1646A5
:1095B4000A6943F82C20154B03F80CE00C460746C7
:1095C4000FCC89B06D460FC594E80F0085E80F00F5
:1095D400CDF810C0BEF1000F09D0002E0C4A694628
:1095E40008BF3246381D00F06FFC09B0F0BD002EF4
:1095F400084A694608BF324607F10C0000F05CFADD
:10960400F3E700BFB42B0020B02B0020B82B0020C0
:10961400399502006D95020000F18040002382B06C
:10962400036003680193019B02B07047044A1379F5
:1096340023B9012110609180184670478520704736
:10964400BC2B0020084B1A68D20706D4C02283F82A
:1096540000230122C3F880211A604FF080430122C5
:10966400C3F81825704700BF00E100E04FF08043C5
:109674000122DA60D3F81824D203FBD47047000027
:109684004FF0804110B5D1F8003163B14FF48070D0
:10969400FFF7C2FF0D4B58790122C1F8082310B916
:1096A4005A711B6898474FF08042D2F8043163B175
:1096B4004FF48270FFF7B0FF0223C2F80833034B64
:1096C400BDE810401B680120184710BDBC2B0020CA
:1096D40000F1804000F5C040002382B003600368BD
:1096E4000193019B02B07047800000F1A040D0F8C4
:1096F400002722F44032C0F80027D0F8003743EAAC
:109704000141C0F800177047C208012300F00700A8
:1097140003FA00F08B5C1843885470472DE9F04F2E
:1097240087B00024584D03944FF48072012102F154
:10973400804303F5C04390B21B68012B06D1D5F8D2
:1097440004330B4202D0FFF7C3FF0C430432B2F5DB
:10975400907F4FEA4101EAD14B4BD3F87C31012B86
:109764000AD14FF4BE70FFF7B3FF4FF0A04344F0AB
:109774000044D3F810350393E3B2D3B1434F00252B
:109784000126344210D0AB0003F1804303F5C043FB
:10979400D3F81005D3F8101557F8253023B1C1F3C9
:1097A4000141C0F3042098470135082D4FEA4606CD
:1097B400E7D1002C61DA00224FF0FF33CDE9042316
:1097C400DFF8C880DFF8C89000273E464FF0A04B72
:1097D40019F9014B631C45D0C4F3C20318336B441D
:1097E4000122E5B204F03F0004F0070402FA04F495
:1097F40013F8042C224235D008EB0002AD0992F98B
:10980400302058F822A0BAF1000F09D1032D29D134
:1098140004A901930090FFF777FFDDE9000301E05D
:10982400032DF5D000F5E07113F80C3C5BF8211022
:109834002342C1F3014105D0022913D1032D0CD1D8
:10984400294604E003290DD1032D06D102210090FD
:109854000136FFF749FF0098F6B2BAF1000F01D0C4
:109864002946D0470137042FB2D136B14FF0A04377
:10987400039AD3F81035934202D107B0BDE8F08FB4
:109884000393049B05939DE700600040C42B0020D4
:10989400142C0020014B1B68184700BF202C00200B
:1098A4000E4B984237B50C4602D0002003B030BDB1
:1098B40000230DF107008DF80730FDF7C1FE084BBA
:1098C4001D7915B901221C601A719DF80700FDF776
:1098D400DBFE002DE9D01120E8E700BF00200040A6
:1098E400202C0020034B984201BF034B00221A6036
:1098F4001A71704700200040202C002000234350A0
:1099040082B043580193019B02B070470A4610B5D8
:109914004FF48E71FFF7F2FF136A9168C95C136A02
:1099240001331362C0F81C1510BD8B690A4610B5CB
:109934004FF4847123B9FFF7E1FFD0F8183510BD57
:10994400FFF7DCFF536AD168D0F81805C854536A8E
:1099540001335362F3E700001FB501238DF8003093
:10996400044BCDE90110D3E900126846904705B0D5
:109974005DF804FB282C002030B54D4DD5F8043398
:109984009A0585B051D5D5F82431002B4DD04FF42C
:1099940092712846FFF7B2FF4FF40173C5F80833FC
:1099A400444B93F829200AB901226A6040490222F3
:1099B4008DF80020D1F88024C1F8802403929A699C
:1099C4000292DA6801920022C3E906226846D3E9CA
:1099D400001290473648D0F81C315BB1354A116A01
:1099E400536999424DD292F82830002B49D111463F
:1099F400FFF78CFF2E48D0F84431002B55D04FF49C
:109A0400A271FFF77BFF2B4B93F829200AB10122A7
:109A140002609A69002A48D0586AD96800229A617B
:109A240005B0BDE83040FFF797BFD5F804335B07B6
:109A3400D0D5D5F80831002BCCD01E4C1C4821467B
:109A4400FFF773FF636AA2699A42C3D1E369E168CD
:109A54004BB1A3612369E3600023606AE36163623D
:109A6400FFF77AFFB6E794F829300BB901236B604E
:109A74000F4B4FF40172C3F808230023606AA361FB
:109A8400EEE74FF48E710A48FFF738FF5169002959
:109A9400B0D00023029191688DF800300191536198
:109AA4006846D2E900139847A4E705B030BD00BF6B
:109AB40000200040282C00202DE9F843594D90F84F
:109AC40004802C2303FB0853064693F82A300C46E3
:109AD4009146002B40F0A28053490068FFF7E0FE56
:109AE4000746002840F09C8022683068511C0BD047
:109AF4004FF0A04101239340C1F8083502F5E0730B
:109B04004FF0030C41F823C061684B1C1FBF01F5E3
:109B1400E0734FF0A04C4FF0000E4CF823E0A36923
:109B2400C0F8243594F814C0637DBCF1010F4CEAED
:109B34000303C0F86C35C0F81415C0F80C251DD10A
:109B4400A268531C1FBF02F5E0734FF0A0414FF011
:109B5400000C41F823C0E368591C0BD04FF0A04C13
:109B640001219940CCF8081503F5E0714FF0030E7C
:109B74004CF821E0C0F80835C0F810252C2202FB6F
:109B840008F2AB18C3F804902369AB50B9F1000F85
:109B940031D04FF48E71227FFFF7B0FE30684FF45E
:109BA400A271FFF7ABFE33682049C3F80413190B05
:109BB40043F30733002BA8BF03F160404FEA53136C
:109BC400BCBF01F00F041A484FEA4212A8BF00F5C7
:109BD40061404FEA8303D2B203F16043B4BF02553C
:109BE40080F8002303F5614301F01F0101228A403C
:109BF400C3F880211A6033680422C3F800252C239B
:109C040003FB08530022C3E9062283F829205A6182
:109C1400012283F82A203846BDE8F8830827FAE7AA
:109C24001127F8E7282C00207D990200800002000B
:109C340014ED00E0F8B5057900682C4C0023C0F859
:109C440000352C2303FB05435B686BB1284BC0F83C
:109C5400083340F30733C0F304315B0901228A401F
:109C64002033244941F82320D0F80C65D0F814158A
:109C7400D0F80835D0F810254FF0FF37BE42C0F8B1
:109C8400147518BF06F5E076C0F80C75C0F80875B1
:109C9400C0F810751EBF4FF0A0474FF0020C47F8F4
:109CA40026C04E1C1FBF4FF0A04601F5E0710227ED
:109CB40046F82170511C1FBF4FF0A04102F5E0721D
:109CC400022641F822605A1C1FBF03F5E0734FF0CF
:109CD400A042022142F82310FFF704FE2C2303FBC9
:109CE4000544002384F82A306360F8BD282C002042
:109CF4008402020000E100E00279044B2C2101FB04
:109D040002335869003818BF01207047282C0020FE
:109D14002DE9F84F064689469246FFF7EDFF0446C3
:109D240000283DD196F804801F4F2C2508FB057BA5
:109D34004FF48E71CBF82000CBF814A08BF82800D8
:109D4400CBF808903068FFF7D9FD306801238360B1
:109D54005946FFF7DBFDDBF804305D4613BB306882
:109D64002A6A6B699A4211D33368D3F81C21002AFA
:109D7400FBD00122DA6000202C2303FB08770023A8
:109D84007B61BDE8F88F95F828303BB9D0F81C31D9
:109D9400002BF8D05946FFF7B9FDE1E70F20EBE7B8
:109DA4001120EEE72046ECE7282C00200023435046
:109DB40082B043580193019B02B070471FB5012341
:109DC4008DF80030054B8DF8080001916846D3E901
:109DD4000012904705B05DF804FB00BF542C00202E
:109DE4007FB5374AD2F82461002E47D010464FF48D
:109DF4009271FFF7DBFF02238DF80030D2F8803434
:109E0400C2F880340393D2F83C358DF808302D4BDA
:109E1400DA6801920022C3E906226846D3E90012F7
:109E240090472748D0F844316BB14FF4A271FFF743
:109E3400BDFF244B9A6932B100229A61D0F83C05E7
:109E4400D968FFF7BBFF1E48D0F82031A3B14FF407
:109E54009071FFF7ABFF1B4B5A696AB1D0F84C15F0
:109E64008DF80810002299688DF8002001915A613C
:109E74006846D3E90012904704B070BDD2F810319F
:109E8400002BCED04FF488711046FFF78FFF0D4B97
:109E9400D2F83C0599698842C3D1DC69D96864B1B8
:109EA400D2F8005225F02005C2F800521A699C61CC
:109EB400DA60DE61FFF782FFB3E79C61FAE700BF77
:109EC40000200040542C00202DE9F8435D4E90F80A
:109ED4000480242303FB0863054693F820300C46D2
:109EE4009146002B40F0AA8057490068FFF7D8FC40
:109EF4000746002840F0A48022682868511C0BD033
:109F04004FF0A04101239340C1F8083502F5E073F6
:109F14004FF0030C41F823C061684B1C1FBF01F5CF
:109F2400E0734FF0A04C4FF0000E4CF823E0A3690F
:109F3400C0F8243594F814C0637DBCF1010F4CEAD9
:109F44000303C0F86C35C0F80C25C0F814151DD1F6
:109F5400A268531C1FBF02F5E0734FF0A0414FF0FD
:109F6400000C41F823C0E368591C0BD04FF0A04CFF
:109F740001219940CCF8081503F5E0714FF0030E68
:109F84004CF821E0C0F80835C0F81025242202FB63
:109F940008F2B318C3F804902369B350B9F1000F61
:109FA4003BD04FF48871227FFFF700FF28684FF4FD
:109FB4009071FFF7FBFE28684FF49271FFF7F6FEED
:109FC40028684FF4A271FFF7F1FE2B681F49C3F80C
:109FD4000413190B43F30733002BA8BF03F16040AC
:109FE4004FEA5313BCBF01F00F0419484FEA421261
:109FF400A8BF00F561404FEA8303D2B203F1604386
:10A00400B4BF025580F8002303F5614301F01F013A
:10A0140001228A40C3F880211A602B680822C3F801
:10A024000025242303FB08660023C6E90633736175
:10A03400012386F820303846BDE8F8830827FAE77C
:10A044001127F8E7542C0020E59D020010030200BC
:10A0540014ED00E0F8B5057900682C4C0023C0F835
:10A064000035242303FB05435B686BB1284BC0F820
:10A07400083340F30733C0F304315B0901228A40FB
:10A084002033244941F82320D0F80C65D0F8141566
:10A09400D0F80835D0F810254FF0FF37BE42C0F88D
:10A0A4000C7518BF06F5E076C0F81475C0F808758D
:10A0B400C0F810751EBF4FF0A0474FF0020C47F8D0
:10A0C40026C04E1C1FBF4FF0A04601F5E0710227C9
:10A0D40046F82170511C1FBF4FF0A04102F5E072F9
:10A0E400022641F822605A1C1FBF03F5E0734FF0AB
:10A0F400A042022142F82310FFF7F4FB242303FBC0
:10A104000544002384F820306360F8BD542C0020FB
:10A114001003020000E100E00279044B242101FB5A
:10A1240002335869003818BF01207047542C0020AE
:10A134002DE9F84301F06043B3F1005F0646884619
:10A14400914634D1FFF7E8FF044690BB32791B4FA8
:10A154003068242505FB02754FF49071C5F81490FE
:10A16400C5F80880FFF722FE30684FF4AC71FFF7A2
:10A174001DFE33686969A868C3F84405C3F8481527
:10A18400012199606968B1B9D3F82011D3F8580155
:10A1940049B90028F8D00F20242303FB02770023B9
:10A1A4007B61BDE8F883002818BF0F20F4E7102076
:10A1B400F7E71120F5E72046F3E700BF542C002011
:10A1C400032811D8012A0AD101290FD100F10E0266
:10A1D400D2B20D4B00EB40001A5400207047012905
:10A1E400F7D0022904D049B1072070470022F8E7CC
:10A1F400054B00EB400018444270EEE7024B00EBC5
:10A20400400018448270E8E7782C002008B5012249
:10A2140002210020FFF7D4FF08B1072810D107223C
:10A2240002210120FFF7CCFF08B1072808D1002143
:10A234000A220846FFF7C4FF10B1072808BF002010
:10A2440008BD00000388102B10B502D0112B1ED0BE
:10A2540010BD1A4C2168B1B901220846FFF7B0FFBE
:10A2640008B1072824D1072202210120FFF7A8FF03
:10A2740008B107281CD1042202210020FFF7A0FF07
:10A2840008B1072814D1236801332360E0E70B4A9F
:10A294001368013B1360002BDAD1FFF7B7FF0028E6
:10A2A400D6D0074B1B68002BD2D0BDE8104018470E
:10A2B400034B1B68002BE6D09847E4E7882C00206A
:10A2C400842C002076DF70477ADF70477CDF70478C
:10A2D4008FDF7047FCF7C4BE03883B2B07B509D05A
:10A2E40006D8102B0BD0212B16D003B05DF804FB3D
:10A2F400562BFAD113218088FFF7E4FF05E00D4BBC
:10A3040081880D48198002F04BF90028EDD003B084
:10A314005DF804EBFCF7A4BE002380888DF80430BC
:10A3240001A98DF80530FFF7D3FF0028DDD0FCF735
:10A3340097FEDAE760220020F82E002010B50446CC
:10A3440003F0E8FB2046BDE8104003F0FFB908B570
:10A3540030B904F0DDFC18B1BDE80840FCF780BE5C
:10A3640008BD000010B5204B204A9B1ADB088CB0B6
:10A374001B04032836D8DFE800F002272F3343F00C
:10A38400030420461A49FCF787FB2C22002101A86C
:10A3940004F017FF44F250624FF496710123CDE9A3
:10A3A400051214488DF8083001A98DF8043000F026
:10A3B40015FE0021104801F08BF810490246204692
:10A3C400FCF76EFB0CB010BD0D4943F003000CB05C
:10A3D400BDE81040FCF760BB0A4943F00100F6E712
:10A3E4000949FAE70949F8E720F30200F8F2020004
:10A3F400AEFC02008C2C002015A40200DCFC020040
:10A40400F3FC020016FD02004FFD02007CFD020079
:10A4140013B513210190FFF755FF019A034660B16C
:10A424000748084C0849241AE408240444F00200AC
:10A4340002B0BDE81040FCF73CBB02B010BD00BF49
:10A44400F8F2020020F30200A3FD0200022807B57F
:10A454000ED1094B09480A49C01AC008000440F04B
:10A4640003000190FCF718FB06490198FCF714FB64
:10A47400012003B05DF804FBF8F2020020F30200AF
:10A48400E4FD020011FE0200032807D14FF08043CF
:10A49400A922C3F820250020FEF716BF704700004C
:10A4A40008B503784BB9054B3B211888FFF70AFF21
:10A4B40018B1BDE80840FCF7D3BD08BD60220020F8
:10A4C400FCF7CEBD10B54FF40041ACB00020FCF752
:10A4D40027F908B1FCF7C4FDFCF756F804F0DCFAE0
:10A4E40008B1FCF7BDFDFDF711F808B1FCF7B8FDA4
:10A4F400FEF798FE08B1FCF7B3FD04F0CBFB08B1FE
:10A50400FCF7AEFD002301A90120019304F08EFCA9
:10A5140008B1FCF7A5FD01A804F02CFD08B1FCF777
:10A524009FFD02F003FE08B1FCF79AFD31238DF87C
:10A53400043007238DF8053010238DF8063001A868
:10A5440003238DF807308DF8083002F089FE08B136
:10A55400FCF786FD464802F06BFE08B1FCF780FD6F
:10A56400112244498DF800206846FFF7AFFE08B178
:10A57400FCF776FD0023ADF808305023ADF8043025
:10A58400A023ADF8063001A84FF4C873ADF80A3023
:10A59400FFF79AFE08B1FCF763FD3748002101F08C
:10A5A400EDFE08B1FCF75CFDAC22002101A804F02B
:10A5B40008FE02238DF8043040F20163ADF8063042
:10A5C40001242E4B069300212C221FA8ADF8144021
:10A5D40004F0F7FD4FF4967144F25063CDE9231370
:10A5E4002748284B8DF8804001A92A9300F037FBB7
:10A5F40008B1FCF735FD2248012100F02DFB0023B2
:10A6040001932148214B0093694601F0B7FF08B13B
:10A61400FCF726FD1E4B019301A804F0C1F908B113
:10A62400FCF71EFD1422002101A804F0CAFD4FF41A
:10A6340070234FF42032CDE9022303238DF8103028
:10A64400144B069301A8144B079300F0D3FD08B1F3
:10A65400FCF706FD0A48032100F07EFB08B1FCF775
:10A66400FFFCFCF7B7F80028FBD1FEF705FEF8E77E
:10A6740041A3020040FE0200E42E00205C220020E0
:10A684008C2C002053A30200F82E0020D9A2020033
:10A6940069A30200A5A40200C5A4020013DF704749
:10A6A40038B54FF01025114C114A6B69A41AE4080F
:10A6B40001334FEA044411D06A690E4944F003009F
:10A6C400FCF7EEF96869FFF7E9FF054620B10A498E
:10A6D40044F00100FCF7E0F9284638BD074944F08E
:10A6E4000100FCF7D9F90425F6E700BF20F30200C6
:10A6F400F8F202005FFE02008AFE0200BDFE0200C4
:10A7040038B50B4B0B4C0C4A0C49E41AE4082404EE
:10A7140044F00300FCF7C4F90748FFF7BFFF054600
:10A7240020B1074944F00100FCF7B6F9284638BDCA
:10A73400F8F2020020F3020000600200D5FE0200DD
:10A744008AFE02006DDF704779DF70477DDF704756
:10A7540064DF70472DE9F04F85B000250E9CBDF8ED
:10A764003CB0B4F800A00191074690461E46A946A5
:10A774003A884A450DDC45B12388013BA3EB0A0323
:10A784009BB2FF2B3AD806F80A30002005B0BDE88A
:10A79400F08F7A6852F82900039000220DF10B0122
:10A7A40003A8FFF7D5FF0028F0D19DF80B20424500
:10A7B40021D12288002D14BF0020022002EB0801C1
:10A7C400014459451ADC3DB9013292B2019B228001
:10A7D400B35422880132228022880DF10B013244C5
:10A7E40003A8FFF7B5FF0028D0D121889DF80B20DE
:10A7F4000A442280012509F10109B9E70C20C5E7C3
:10A804002DE9F341089FBDF824801546CDE9007871
:10A81400022204461E46FFF79DFF50B9334610221C
:10A8240029462046CDE9087802B0BDE8F041FFF79B
:10A8340091BF02B0BDE8F0812DE9F04F00231788E5
:10A84400138090F82D3085B006460D4614465BB350
:10A85400082F01D80C2028E102A8FFF773FF002875
:10A8640040F023812388DDF809100822EA54238864
:10A8740001339BB21B222380EA54238801339BB209
:10A88400EA182380E950BDF80D30938023889DF8A1
:10A89400082006339BB212F0FE0218BF0122238067
:10A8A400EA54238801332380B378FBB1238804332B
:10A8B400BB42CFD802A8FFF747FF002840F0F5803D
:10A8C40023880322EA54238801339BB2192223806C
:10A8D400EA542388BDF8082001339BB2E918238089
:10A8E400EA54120A4A70238802332380F2789AB118
:10A8F4002388D91CB942ADD80221E95423880133F5
:10A904009BB201212380E95423880B449BB223800A
:10A91400EA5423880B4423807268AAB12388D91C83
:10A92400B94297D8022192F90020E95423880133CF
:10A934009BB20A212380E954238801339BB22380EC
:10A94400EA542388013323803389002B40F0A1800B
:10A95400338A5BB1CDE900472B460722032106F178
:10A964001000FFF74DFF002840F09F80338B5BB150
:10A97400CDE900472B461522142106F11800FFF7F4
:10A984003FFF002840F09180326A002A40F0908016
:10A99400D6F82480B8F1000F30D0B8F804302188FC
:10A9A400981C8A1C0244BA423FF654AFFE283FF674
:10A9B40051AF03336B54238801339BB2FF222380AE
:10A9C400EA54238801339BB22380B8F80020EA5468
:10A9D400E918120A4A702088023080B22080B8F840
:10A9E40004205AB1D8F8081000296BD0284404F088
:10A9F400BFFB2388B8F804201344238096F82C3036
:10AA0400002B40F09880307800284ED03388012BFA
:10AA140058D0228802F1020CBC453FF61BAF012836
:10AA240005D17378023313449F42FFF413AF023FFE
:10AA3400BF1ABFB202A905EB0C00ADF80870FFF70E
:10AA440085FE90BB3178BDF80830022900F0B9804A
:10AA540072789A4202D39F4280F0B180012940F07B
:10AA6400B280974293B2C0F0AE80ADF808300821AE
:10AA7400BDF80830FE2B3FF6EDAE22880133AB540F
:10AA84002288013292B22280A9542288134423805E
:10AA94000BE0CDE900472B460622022106F108000F
:10AAA400FFF7AEFE00283FF453AF05B0BDE8F08FCA
:10AAB400B4F800C00CF10603BB423FF6CBAE1188DC
:10AAC400052901D80720F0E76FF4486E01EB0E0367
:10AAD4009BB24FF27D3E7345F4D95388052BF1D9CF
:10AAE4006FF44860181880B27045EBD94FF6FF70C8
:10AAF400814201D09942E5D8052305F80C3023881A
:10AB040001339BB212212380E954238801339BB281
:10AB140023801188E954E818090A41702388023314
:10AB24009BB223805288EA54E918120A4A70238897
:10AB3400023323802CE7B36A002BC3D04FF0000804
:10AB44004FF00C0A4FF0160BB16A5FFA88F20AFB59
:10AB540002F201EB0209B9F80430981CFE283FF612
:10AB640079AE208803332B54238801339BB223808E
:10AB740005F803B0238801339BB223808A5AEA5430
:10AB8400E918120A4A702088023080B22080B9F88D
:10AB940004205AB1D9F80810002993D0284404F0AD
:10ABA400E7FA2388B9F804201344238096F82C206C
:10ABB40008F101085FFA88F39A42C5D823E709210E
:10ABC40056E79F42FBD2ADF8087050E770B5C0B1AC
:10ABD4004AB116880024B44203D305196D789D4206
:10ABE40008D0A14201D800200BE0055D01352C44BA
:10ABF400A4B2F0E7A142F6D9A31C1380005D01388A
:10AC040080B270BD13B513460022ADF806200DF1D5
:10AC140006020446FFF7DAFF10B1BDF80630E0186B
:10AC240002B010BD72DF704773DF704738B5012280
:10AC340004460D46B0F83812D0F83402FFF7E2FFAC
:10AC440000B1057004F13C0204F50D7104F15400E7
:10AC5400BDE83840FFF7E6BF80F830107047F8B51C
:10AC640004460F46002973D0002871D091F87A3039
:10AC74001BB191F89830002B6CD1D7F8A030042B7D
:10AC840068D0D7F89C30042B64D04FF0000C84F8C3
:10AC940002C007F178060FCE251D0FC50FCE0FC5D4
:10ACA40096E8070085E8070084F830C0D7F8A43098
:10ACB4006363D7F8A830A36304F50D724FF6FF73EE
:10ACC400C4F84AC2A4F84832C4F84422C4F84DC2B5
:10ACD40022780AB984F8543094F82430002B14BF35
:10ACE400EE231F2304F15501C4F83412A4F83832BA
:10ACF40004F50E723846FFF79FFD40BB94F82430EC
:10AD0400002B14BFEE231F2304F24311C4F83C129A
:10AD1400A4F8403204F5107207F13C00FFF78CFDF3
:10AD2400A8B9A369A4F848304FF480730125A4F8A6
:10AD3400503063692064014684F83C50636404F134
:10AD44003C0204F15400FFF76DFF00B92570F8BD13
:10AD54000E20FCE70720FAE7F8B5067804460D460E
:10AD6400002E00F003810023C0F84A32C0F84D32AF
:10AD7400C388817000F24A270BB1012903D0E3791B
:10AD840043B1022D06D1636BA3B1012284F8512291
:10AD94000820984704F24B2204F2512112F8013B97
:10ADA4005BB99142FAD16A1E032A4FD8DFE802F058
:10ADB400070D111484F85132ECE73346F3E7A27916
:10ADC4001AB194F8242002B95BB9E2790AB1002BD4
:10ADD4003ED1237A002B3DD1637A002B0CBF002592
:10ADE4000425636BA570002B36D0033D012D33D8A9
:10ADF40062798AB394F8522272BB84F854220122F5
:10AE040084F853220720984704F13C0518220021B6
:10AE1400284604F0D6F9E26A0123511E994284F8C7
:10AE24003C3098BFD3B284F8513094F8243088BFB2
:10AE340000261BB1A6B1A26A84F85220A278042A83
:10AE44001ED8DFE802F07A0F25385C000025C8E739
:10AE54000225C6E70325C4E7002384F85332D3E769
:10AE64000122E9E7012384F831300023C4E9107397
:10AE7400C4F84432022384F83C308023A4F84830D8
:10AE8400A378002B5DD1636B002B6BD1002068E0AD
:10AE9400002B14BF0723032384F83C302369A4F850
:10AEA400483000230222C4F84432E36884F8312095
:10AEB40027646364E4E762696264A269A4F84820D1
:10AEC40013B1062384F83C306379B3B194F8523259
:10AED4009BB994F8543283B1022384F8503004218E
:10AEE4002046FFF7A3FE0028CAD1052384F8313099
:10AEF40004F50D73C4F84432C2E70323F6E7E269AC
:10AF04006264226AA4F8482013B1062384F83C3012
:10AF1400637983B194F852326BB994F8543253B1D3
:10AF2400022384F8503004212046FFF77FFE0028D6
:10AF3400A6D10623DAE70423D8E7002384F83130C6
:10AF44009EE7D4F844122A4604F15400FFF76AFE3F
:10AF540038B994F8301094F85400FFF765FE0028CF
:10AF640091D0F8BD94F8310098478FE70820F8E7AE
:10AF74000388112B10B50C460AD0262B1FD0102B9A
:10AF840005D1C37B012B02D18388A1F8483210BDBF
:10AF94000022838881F85222B1F848229A42F6D1DD
:10AFA4000B79002BF3D101212046FFF7D5FE0028B1
:10AFB400EDD0A36B002BEAD0BDE810401847037A0C
:10AFC400013B012BE3D8897805230131B1FBF3F36D
:10AFD40003EB8303C91AC9B2E6E7704730B50D46DF
:10AFE400041D0FCD0FC40FCD0FC495E8070084E8EE
:10AFF400070030BD75DF704776DF70477ADF704732
:10B004007BDF7047034B1A8882420CBF184600202E
:10B01400704700BF202F0020024B9B6903B11847E3
:10B02400704700BF042F002073B585B22846FFF790
:10B03400E9FF044638B3174E027A337B9A420CD2A6
:10B0440000F10A012846FFF7D5FFF0B111281AD004
:10B0540002B0BDE87040FFF7DFBF00230372337C0A
:10B0640043B13B212846FFF7C7FF30F0080301D066
:10B07400FFF7D2FF736933B100228DF80420ADF8D5
:10B08400065001A8984702B070BD237A0133237299
:10B09400F9E700BF042F002037B50B46497A0F4A61
:10B0A40079B9D2E901141D7A0246002D18BF214650
:10B0B4005868FCF76DFA78B103B0BDE83040FFF78B
:10B0C400ABBF00211972536933B10122ADF80600F8
:10B0D4008DF8042001A8984703B030BD042F002048
:10B0E4004B8802889A4212D842889A420FD38088A9
:10B0F4008B8840F2F311884294BF021A421A9A4292
:10B1040005D80844984234BF00200120704700202D
:10B11400704700000388122B70B5014659D004D83B
:10B12400102B1ED0112B44D070BD502BFCD12F4BB3
:10B13400C288DB899A42F7D1038A022BF4D186882C
:10B144003046FFF75FFF05460028EDD001F11200FD
:10B1540000F0F9F938BB6868FCF762FA0028E3D01C
:10B1640009E0C37B012BDFD14FF6FF70FFF74AFFE5
:10B17400054620B90420BDE87040FFF74DBF1C4AC6
:10B184008E880680002303721368C0F80A3053685F
:10B19400C0F80E3010310A30FFF7A2FF134B68726B
:10B1A400DB89002BC0D129463046BDE87040FFF74B
:10B1B40073BF8088FFF726FF04460028B4D0406898
:10B1C400FCF72EFA08B1FFF727FF4FF6FF73238031
:10B1D400AAE786883046FFF715FF05460028A3D066
:10B1E40008310A30FFF77CFF6872DCE7042F002087
:10B1F400342F0020F8B5064648B305460FCD154F49
:10B204003C460FC495E8070084E807003068124CF8
:10B214003C60B0B1FFF7F2FEC0B932681368236036
:10B22400536863600D480E4A4FF6FF7303800D4B5D
:10B2340040F8043F0021FCF799F9002818BF0320C7
:10B2440004E02046FFF7DCFE0028EBD0F8BD0E201A
:10B25400FCE700BF042F0020342F0020202F002003
:10B264002DB002003C2F0020F7B5174601900E4682
:10B2740091B1019C6CB100252C46294601A8FDF72B
:10B284009DF918B13946A8B2B04701340135142DDF
:10B29400F3D1204603B0F0BD0C46FAE773B5019133
:10B2A400019C06466CB100252C46294601A8FDF7F1
:10B2B40085F918B106EB440301349D800135142D42
:10B2C400F3D13046346002B070BD00002DE9F04780
:10B2D40003888488112B8CB005463DD01A2B42D0AC
:10B2E400102B19D1DFF8C080D8F80830DB43009365
:10B2F400D8F804106846FDF7C6F9009901A8FFF7CD
:10B30400CDFF0DF108090027019B9F4207D3132CA1
:10B3140012D90420FBF7A4FE0CB0BDE8F08739F87D
:10B3240002AB00260136514608EB8600FDF73CF9D6
:10B334001D2EF7D10137E7E716482146FDF71DF921
:10B3440015482146FDF719F9EB7B012BE4D013488E
:10B354002146FDF712F9DFE70E4821460CB0BDE89F
:10B36400F047FDF721B9037A0D481F2B4FEA131557
:10B3740021460AD9FDF701F9022D0A482146EDD0EC
:10B384000CB0BDE8F047FDF7F8B8FDF70DF9054836
:10B394002146E3E7642F0020602F0020682F00205F
:10B3A4006C2F0020702F00205C2F002013280146F2
:10B3B40002D80248FDF702B900207047602F002030
:10B3C40007B50190FFF7F2FF019930B10448FDF78A
:10B3D400F5F8002814BF0220012003B05DF804FB37
:10B3E400682F002007B50190FFF7E0FF019930B105
:10B3F4000448FDF7E3F8002814BF0220012003B03D
:10B404005DF804FB642F002007B50190FFF7CEFF21
:10B41400019928B1044803B05DF804EBFDF7CEB8F8
:10B4240003B05DF804FB00BF6C2F002007B501904A
:10B43400FFF7BCFF019928B1044803B05DF804EBA1
:10B44400FDF7BCB803B05DF804FB00BF702F00200B
:10B4540008B518210248FDF7BAF8C0B208BD00BF0C
:10B464005C2F002070B50A4E054630460C46FDF7A9
:10B47400A5F858B12846FFF799FF38B10634294694
:10B4840006EB8400BDE87040FDF798B8002070BD5D
:10B494005C2F0020F8B50D4C054620460E46174695
:10B4A400FDF78CF880B12846FFF780FF60B1B01D2E
:10B4B40004EB800029461FB1BDE8F840FDF75DB8F4
:10B4C400BDE8F840FDF770B8F8BD00BF5C2F002060
:10B4D400034B9B680A4601461846FFF7C5BE00BFEA
:10B4E4005C2F002073B50B4D019204460E460146B5
:10B4F4002846FDF763F850B1043405EB8404019A3F
:10B50400A068314602B0BDE87040FFF7ADBE02B09E
:10B5140070BD00BF5C2F0020AADF704700230138F4
:10B524000B70042806D8DFE800F00306080A0C00B4
:10B5340011230B7070472123FBE73123F9E7122312
:10B54400F7E72223F5E7008800F001007047008840
:10B55400C0F340007047F0B58B7891B00C46012BD6
:10B5640038BF012300278DF80E3005460B88607C18
:10B57400ADF80C306946ADF800708DF80270FFF735
:10B58400CDFFA07C0DF10101FFF7C8FF1646237B18
:10B59400E27B217D43EAC203227C43EA02139DF845
:10B5A4000220B94222F0190203F0190314BF022148
:10B5B4000121134361F342031C22394609A88DF883
:10B5C400023003F0FEFD637B13F0300F14D00DF155
:10B5D4000901E07CADF808708DF80A70FFF79EFF52
:10B5E40011238DF808309DF80A30012102AA61F375
:10B5F40042038DF80A300E92637B8DF82430A37BCE
:10B604008DF825300023CDE90633089303AB04936A
:10B61400A388ADF81C30A368CDF814D01BB1E28820
:10B62400ADF818200893A36973B301A90022ADF8FB
:10B6340004208A701A88ADF82C205A88ADF82E2080
:10B644005A680D91187B0A92FFF768FFA3690DF100
:10B654000501587BFFF762FFA3699A7A197A41EAD8
:10B66400C201DA7A9B7B41EA02119DF80620002B85
:10B6740001F0190122F0190214BF0223012311431E
:10B6840063F342018DF80610E36903B10C9333466A
:10B6940004AA09A92846FFF73FFF11B0F0BDA0DFB7
:10B6A400704710B50446408800F0B8FCA0802046DE
:10B6B400BDE8104001F036BD30B587B005460C46F4
:10B6C40018220021684603F07CFD072368468DF8A4
:10B6D4000030ADF802500294FFF7E3FF07B030BD2D
:10B6E40070B586B0054618220021684603F069FD4E
:10B6F4004FF6FF739D42ADF802503FD0284600F04C
:10B704007FFB1128044633D016D8D8B10B2820D09B
:10B714002046FDF777FE1A4E1A4902461A48361A91
:10B72400F608360446F001002B46FBF7C2F9214621
:10B734002846FFF7C1FF03E043F202039842E7D132
:10B74400002216E00E238DF800306846FFF7A9FFAB
:10B75400F6E70F238DF8003009480B4B0B49C01A4C
:10B76400C00800042A4640F00200FBF799F9ECE710
:10B774000122074B28461978FFF78CFE06B070BDEE
:10B7840060F302007EFF0200F8F20200FEFE0200F7
:10B79400D92F0020FFF7A4BF024B034918780022D9
:10B7A400FFF7A0BEDB2F0020DDB7020007B542F68D
:10B7B400A622ADF800200122ADF80220054A034676
:10B7C4001068019001AA69461846FFF768FF03B0A4
:10B7D4005DF804FB0C0203002DE9F041DFF8C8809A
:10B7E40086B098F800100446FFF73CFE0646002891
:10B7F4004FD1204600F068FB1128054633D018D8F5
:10B80400062832D0082830D0F8B12846FDF7FAFDD2
:10B81400214F2249024622483F1AFF083F0447F0BD
:10B8240001002346FBF745F929462046FFF744FF6C
:10B8340019E043F20203984215D043F201439842BF
:10B84400E3D12046FFF74CFF0DE03146182268464D
:10B8540003F0B7FC102368468DF80030ADF80240C1
:10B86400FFF71FFF0126012205E0204600F0D6FB6A
:10B8740000F056FB00220B4B20461978FFF70AFE16
:10B8840098F800103246204606B0BDE8F041FFF7B4
:10B8940001BE06B0BDE8F08160F30200CFFF0200F4
:10B8A400F8F20200DB2F0020DC2F002013B5044641
:10B8B40000F0B4FB00236A46092101F007F80528CB
:10B8C40005D1044B012219782046FFF7E3FD02B0AD
:10B8D40010BD00BFD82F002008B5084B08491878C0
:10B8E4000022FFF7FFFD024630B9064B06491878DF
:10B8F400BDE80840FFF7F6BD08BD00BFDA2F002001
:10B9040011B90200D82F0020B1B7020070B501218F
:10B9140086B006462A48FCF787FE0446BFF35F8FCD
:10B92400002849D1304600F00FFA862805461ED07B
:10B9340017D8A8B3112841D02846FDF763FD214C40
:10B94400214902462148241AE408240444F0010051
:10B954003346FBF7AEF829463046FFF7ADFE002428
:10B9640003E043F202039842E6D122461AE021465C
:10B974001822684603F025FC06238DF80030114890
:10B98400124B1349ADF80260C01AC00800043246D5
:10B9940040F00200FBF784F86846FFF782FEE4E714
:10B9A400012402460B4B30461978FFF773FD1CB98E
:10B9B400BFF35F8F024B1C6006B070BD0122F1E73C
:10B9C400D42F002060F3020044000300F8F20200C8
:10B9D4000F000300DA2F002038B503780446A3B91A
:10B9E4004088FFF77DFE6588284600F05BFA28B1A1
:10B9F400064B012219782846FFF74CFD6088FFF7B3
:10BA040055FFBDE83840FFF767BF38BDDB2F002086
:10BA140037B50378082B044630D1427A72BB057AD5
:10BA2400072D1BD0082D2ED0012D27D180886A46E2
:10BA3400294601F0CBF908BB019B1B78F3B1A08820
:10BA440000F01AFB4FF6FF73984217D0124B2A46A8
:10BA54001978FFF71FFDFFF79FFE0FE0808800F0C5
:10BA64000BFB4FF6FF739842044607D00B4B0122A1
:10BA74001978FFF70FFD2046FFF718FF03B0BDE864
:10BA84003040FFF729BF064B19680129F6D1BFF3EF
:10BA94005F8F1A60F2E700BFDB2F0020DA2F00204F
:10BAA400D42F0020F8B5FFF7D3FC194F194E387086
:10BAB400FFF7CEFC3070FFF7CBFC174D174C287006
:10BAC400FFF7C6FC2070FFF7C3FC154B18703B78DA
