:020000022000DC
:1060000000000120756302005D6302005F6302000F
:106010006163020063630200656302000000000028
:1060200000000000000000000000000067630200A4
:1060300069630200000000006B6302006D630200F0
:106040001D8302006F630200318502006F6302004E
:106050006F6302006F630200B98302006F63020086
:106060006F6302006F6302006F6302006F630200E0
:106070006F6302006F6302006F6302006F630200D0
:106080006F630200B16E02006F6302006F63020073
:106090004D6F02006F630200C1B002006F63020027
:1060A0006F6302006F6302006F6302006F630200A0
:1060B0006F6302006F630200000000000000000038
:1060C0006F6302006F6302006F6302006F63020080
:1060D0006F6302006F6302006F6302000000000044
:1060E00000000000000000000000000000000000B0
:1060F00000000000000000000000000000000000A0
:10610000000000000000000000000000000000008F
:10611000000000000000000000000000000000007F
:10612000000000000000000000000000000000006F
:10613000000000000000000000000000000000005F
:10614000000000000000000000000000000000004F
:10615000000000000000000000000000000000003F
:10616000000000000000000000000000000000002F
:10617000000000000000000000000000000000001F
:10618000000000000000000000000000000000000F
:1061900000000000000000000000000000000000FF
:1061A00000000000000000000000000000000000EF
:1061B00000000000000000000000000000000000DF
:1061C00000000000000000000000000000000000CF
:1061D00000000000000000000000000000000000BF
:1061E00000000000000000000000000000000000AF
:1061F000000000000000000000000000000000009F
:10620000354936480A1A02D0072291438D4634494F
:1062100034480A1A06D00722914381F309880222E2
:1062200082F3148830483149314A00F044F831484B
:106230003149324A00F03FF831483249324A00F0E1
:106240003AF832483249334A00F035F83248334997
:10625000334A00F030F833483349344A00F02BF821
:1062600033483449344A00F026F83448344900228F
:1062700000F02CF833483449002200F027F8334866
:106280003349091A082902DB002202604160314AC1
:1062900090471F481F49884205D00268043003B464
:1062A000904703BCF7E700208646EC46002000211B
:1062B000294A9047FEE7884207D0521A05D0037852
:1062C00001300B700131013AF9D17047884202D098
:1062D00002700130FAE770470000012000E0002062
:1062E0000000012000000120F4CB0200003000205B
:1062F00060300020D4630200D463020020BA0200A0
:10630000F4CB0200003000200030002034BB02003B
:1063100034BB020034BB020034BB020034BB0200B9
:1063200034BB020034BB020034BB0200F2CB0200DB
:1063300054CC02006030002060300020603000202B
:1063400004420020044200200442002004420020B5
:10635000046200209D6302003D930200FEE7FEE719
:10636000FEE7FEE7FEE7FEE7FEE7FEE7FEE7FEE705
:10637000704700BF1048804710484FF0070188431E
:1063800085460F4880470F48016841F4700101605D
:10639000BFF34F8FBFF36F8FFFF732BF0A480B4930
:1063A0000B4A884207D0521A05D0037801300B708F
:1063B0000131013AF9D170477163020000000120F8
:1063C000597E020088ED00E034BB0200003000205E
:0463D0000030002079
:1063D4007047000007B5044B0093044A402300F0C3
:1063E40032F803B05DF804FBF5630200613000206D
:1063F4002DE9F84388461446B2B10F4B0F4E0325DE
:10640400002743F00109224608EB0701002003F0AE
:106414004BF90744241A48B933782BB14FF47A4026
:10642400C847013D02D13570BDE8F88301233370BC
:10643400002CE8D1F8E700BF40BB02006030002028
:10644400704703F061B9F0B595B01D46164608468D
:106454000C4601F0C9FB1A9B0D93CDE90865002594
:106464002B46082205A920460A958DF82C500C9538
:1064740001F0D6FB079B0293069B03939DF814300F
:106484008DF8115003F00302012A1DD1BDF8142028
:10649400059DC3F3C203C2F383168DF81030B20016
:1064A40008230EA9204601F0BBFBC5F3952508ABD4
:1064B4000093324602AB0EA9284600F05BFB20464F
:1064C40001F096FB15B0F0BD022AF8D1BDF81650C4
:1064D400C3F3C203C5F389158DF810300827082DBE
:1064E4002E4628BF08263B4632460EA9204601F018
:1064F40097FBAD1B08AB02AA31460EA8374400F047
:106504009DFB002DEBD1DAE708B5FFF79AFF0448AD
:10651400042100F099FA034B01225A7108BD00BF0F
:1065240024BB020000300020037813F0040216D0CC
:1065340003F00303012B03D0022B09D00120704781
:106544000A6800880232C0F3831002440A60F5E747
:106554000B684288023303EB92130B60EEE710469C
:10656400704700002DE9F04FDFF830A187B00F46E7
:1065740000230446861C0DF1070015468DF80730EC
:1065840000F0E4FFDAF800103960DAE9013213446C
:1065940001335B1A0AF21C470AF583690AF21448AC
:1065A400B3421CD30020002D73D004F00F039B01D1
:1065B40043F0050363F30F00DAF80020DAF808303B
:1065C4001340033332444AF823009DF80700CAF805
:1065D400002000F0DFFF012007B0BDE8F08F0121AB
:1065E400384601F038F8484601F04DF8404601F0CD
:1065F4004AF8DAF80400DAF808B0029000EA0B006E
:1066040003300AEB800002A9FFF78EFF029B50BB08
:106614000BEA03020AEB820203F1020CD268039232
:10662400013303EA0B0B0AEB8B0B02F00302012A82
:10663400DBF80C10CDF808C023D0022A16D083460C
:10664400404601F023F810B1029BCAF804305946C1
:10665400384601F000F8DAE901231344DAF800209F
:1066640001339B1A9CE70BEA0300C9E7BDF80E301F
:10667400C3F3891303334FEA114B0CEB93030293D7
:10668400DEE7BDF80C30C3F383134FEA114B6344C8
:10669400F5E7A40544F006008EE700BF743100203E
:1066A4000B4B0C48FF2210B59A600022C3F8182443
:1066B400C3E90022C3F8142483F8202401F04DFA1E
:1066C400044610B9044801F04DFB204610BD00BF3C
:1066D40074310020A0BA02007CBB020030B50A4C21
:1066E40071B10A4A0A49121BD20800239A4201D105
:1066F400002030BD31F82350854202D00133F5E744
:10670400034654F83300F4E7B4BA020024BB020091
:1067140000300020094B013903EBC000032909D8DC
:10672400DFE801F00A02040604207047007970478C
:10673400407970470020704702207047B4BA0200C5
:10674400034BD3E90030C31A58425841704700BF85
:10675400743100202DE9F04387B0FFF7F1FF0646BE
:10676400002840F0FE80804CC4F81804BFF34F8F1B
:106774006368A56802932B40033304EB830002A9EA
:10678400FFF7D2FE029B18B1D4F81824002A62D075
:1067940005EA0302991C013304EB82022B4004EB4B
:1067A4008303D268DB68049302F00303022B039291
:1067B400029163D1BDF80E306C48C3F38917502F92
:1067C400B84628BF4FF0500808F1080168F38F134A
:1067D400C1F30901ADF80E3001F0D7F906460028DF
:1067E40000F0AA8001F000FA0023082203A9304631
:1067F40001F00CFA029925EA01020132B8EB820F8A
:106804004FEA820333D95FFA88F863B32940DDB2D3
:10681400A8EB050803315FFA88F9A846544D04EB48
:10682400810108234246304601F0F0F93DB108F1F8
:106834000803DBB24A462946304601F0E7F9029BD9
:10684400033703EB97070297D4F81834002B4BD186
:10685400D4F810545BE0226893428CD362603046D3
:1068640007B0BDE8F08342491D469946D9E729405F
:1068740003310823424604EB8101DDE7012B5BD1A0
:10688400BDF80C303948C3F38311062928BF06210B
:1068940061F38913023101F00F018900ADF80C3066
:1068A40001F073F90646002846D001F09DF9002353
:1068B400082203A9304601F0A9F90027BDF80C20ED
:1068C400C2F38312BB00974203F10803BCD20299BE
:1068D4004A1C29400331029204EB81010422304610
:1068E40001F094F90137E9E7304601F081F9FFF747
:1068F40027FF80F00100C6B2B1E7EB685B7923B1F2
:106904002B6831461B6828469847EB681D68002DA4
:10691400F3D1304601F06CF90DF107008DF8075002
:1069240000F014FED4F818340BB9029B63609DF890
:10693400070000F02FFEDAE7D4F8104454B90D4BE9
:106944000D480E49C01AC008000440F0020000F0CF
:1069540063F8CCE7236820469B689847E3681C6883
:10696400ECE700267BE700BF74310020A0BA0200E8
:1069740080310020B4BA0200DCBA020064BB020019
:106984002DE9F74F224E04460F46924601A90122F3
:106994001846D6F808909B46FFF7E4FD20B3019D06
:1069A4004FF00008AA1CD84508EB020126D119486B
:1069B400002100F021FE80F31000000440EA14409E
:1069C400E4006B1C04F0380403EA090305EA090532
:1069D40044F0010406EB8303033544EA881444EAD3
:1069E4008724D86046F8254096F820341BB1FFF779
:1069F400B1FE0028FBD103B0BDE8F08F09EA010124
:106A040006EB81015AF82830CB6008F10108CAE787
:106A1400743100209035002000231A46FFF7B0BFE0
:106A240007B50123019201AAFFF7AAFF03B05DF89D
:106A340004FB07B5CDE9002302236A46FFF7A0FF54
:106A440003B05DF804FB000030B50F4CD4F81024FB
:106A540003460020114631B9D96808714AB9C4F80F
:106A640010340A6030BDC9680D79854206D00968C2
:106A7400F1E7D26814680C601360F3E701300A2868
:106A8400E8D14FF0FF30EDE77431002038B5084B02
:106A94000125D3F8104483F8205404B938BDE368C1
:106AA4005D71236820465B689847E3681C68F4E7D7
:106AB4007431002030B5C38885B004460D4633B127
:106AC400144A00921449154A284600F042FE217ADD
:106AD40005291DD0637A4BB1A088FFF71BFE104B2C
:106AE400104953F82020284600F033FE227A0E4B3A
:106AF400A08853F8222003920021FFF7EFFD039AA8
:106B04000A490346284605B0BDE8304000F021BEDE
:106B140005B030BDA8BB020090BB020088BB0200D8
:106B240014BC0200ADBB020038BC0200B0BB0200C2
:106B340007B503460846197A052911D05B7A2BB1AB
:106B4400094A0A49019000F004FE0198084901909D
:106B540000F0FFFD019803B05DF804EB00F0EEBD1A
:106B6400002AF8D0F2E700BFA8BB0200ADBB0200C8
:106B7400A5BB02002DE9F04385B01F460C9D002300
:106B840095F80C902B7306460C46904629463846D9
:106B9400FFF790FFB8F1060F09D8DFE808F00412F8
:106BA400181F283340003146284600F0D2FD002249
:106BB40029463846FFF7BCFF85F80C9005B0BDE8C0
:106BC400F08322683146284600F0C3FDEFE7D4E99C
:106BD40000233146284600F0BCFDE8E7A368009393
:106BE4003146D4E90023284600F0B3FDDFE7E3682B
:106BF4000193A36800933146D4E90023284600F0AA
:106C0400A8FDD4E723690293E3680193A368009382
:106C14003146D4E90023284600F09BFDC7E76369A9
:106C2400039323690293E3680193A36800933146B5
:106C3400D4E90023284600F08CFDB8E708292DE9A3
:106C4400F74F80460E4617461C4639D8002593F860
:106C54000C901D7319461046FFF72CFFDFF880A037
:106C6400DFF880B0AE422ED918F8052059462046E8
:106C740000F06FFD0135082DF4D11849DFF868A044
:106C8400DFF868B0204600F064FD0025AE421FD94D
:106C940018F805200192104604F00AFE0028019A13
:106CA400594608BF2E22204600F053FD0135082D19
:106CB400ECD1012221463846FFF73AFF84F80C90C4
:106CC40003B0BDE8F08F5146204600F042FDD1E705
:106CD4005146204600F03DFDE8E700BFC4BB02007A
:106CE400C0BB0200BABB0200C2BB0200C6BB0200AA
:106CF4001FB50021039001AA44F20100CDE901115E
:106D040000F004F805B05DF804FB000038B572B675
:106D1400FFF7BCFEFFF71EFD0028FBD1104B114C02
:106D2400114D1249E41AE408240444F00100FFF769
:106D340073FED5F8F030DB0700D500BE0C4944F0F3
:106D44000200FFF769FEBFF34F8FEA68094B02F4B4
:106D5400E0621343EB60BFF34F8F00BFFDE700BF5A
:106D6400B4BA0200DCBA020000ED00E04CBC020040
:106D740058BC02000400FA0549B152B1531E1A402E
:106D840007D1826001608380C260104670470E2084
:106D940070470920704710B58468C2688388121B45
:106DA400934208D3C26813400268D154C3680133C4
:106DB400C360002010BD0420FCE78268C3689A42C7
:106DC4000AD08268838813400268D35C0B7083689E
:106DD400013383600020704705207047094B5A78BF
:106DE40099780132D2B2914208BF002219789142B7
:106DF4001FBF02705878182202FB003014BF043001
:106E0400002070473036002073B5054600240DF18C
:106E140007000E468DF8074000F098FB0DF10600C0
:106E2400FFF7DCFF90B10670094B9DF80620456022
:106E34005A709DF8070000F0ADFB24B9054B4FF4E0
:106E44008012C3F80021204602B070BD0424F0E78C
:106E54003036002000E100E0024B4FF43C6043F088
:106E64000103184770BC020038B50C4B0C4C4FF4AE
:106E74000032C3F8802001254FF48033C4F848332E
:106E8400C4F808336560FFF7E7FF064BA5600024EC
:106E94001C60FFF7E1FF044B1C7038BD00E100E00B
:106EA400001001404C3700203D370020F8B51F4B3F
:106EB4001F491B680025C1F84051C1F84451C1F86D
:106EC4004851C1F84C51C1F80051C1F804514BB3B9
:106ED400D1F8044517490968641A24F07F442F4601
:106EE4001A68A24209D8A41A15441A7CDE691AB198
:106EF400D3E905201F749047AEB90F4A0F4B1178A0
:106F04001B788B4205D10133DBB2022B08BF00236F
:106F1400137012780A4B43F822500A4B4FF4801234
:106F2400C3F80021F8BD3346DAE700BF503700202C
:106F3400001001404C37002049370020483700201A
:106F44004037002000E100E02DE9F04FA14AA249BA
:106F540013780978A14D994285B03CD00133DBB256
:106F6400022B08BF002313709D4912789D4B0F68B4
:106F740053F822003B1823F07F4300220B602B6858
:106F840016461446944613B942B12B6006E01968BC
:106F940081420ED902B12B60091A196001272B68AE
:106FA400DFF848A201934FF00008BEB9DFF844B2FD
:106FB40060E0401A0C44D968D3F81CE0C3F800C060
:106FC40031B13A1922F07F42C3E90121DE611E4644
:106FD40073460122D7E700263746E0E73446F669D0
:106FE4007F4B60681B68DFF810C2A168C21A22F0E8
:106FF4007F42624500F2A6800A4422600122227484
:107004002A680023C4E90133E361002A40F0A38025
:107014002C60CAE79BF802105A1CD2B291428BF83A
:10702400002004BF00228BF80020182202FB03B3C7
:107034002A6819799C68022975D003297FD001290F
:1070440018D1207CB0B9D3E90312A2605A69E26076
:107054009A69654BA2611A78002A18BF01466160DB
:10706400BEE78C4200F094808946C9690029F8D1B2
:10707400002323749BF800309BF801209A42C9D165
:107084002B68B8F1000F04D1019A9A4201D1002F64
:1070940043D0002B79D0D3F800A0544D504BD5F8F1
:1070A40004751C68DFF854813E1B98F8003026F004
:1070B4007F4603369BB94FF48033C5F84433C5F893
:1070C40004334B4B4FF400324FF00109C3F88021D5
:1070D4001A60C5F80090FFF7BFFE88F80090B2452B
:1070E4002CBF5444A41924F07F44C5F84045D5F876
:1070F4000435DB1B23F07F43E41B033324F07F447C
:10710400A3420AD9D5F80435C5F84035FFF7A4FEE3
:10711400374B4FF40032C3F80021334B00221A706E
:1071240005B0BDE8F08F114691469FE71174D2690E
:107134000123002AFAD1002B9CD02A609AE700236D
:107144001946F6E71B1A23F07F438B4234BFCB1A50
:107154000023236052E721681368994213D85B1A0D
:107164001360E26154E7091AD8691A4638B1034634
:1071740018688842F7D3401A1860184613462160ED
:10718400E061DC6111E71346F2E7FFF76DFEC4E747
:107194004C4511D1D3692B6073B9DFF844E0012069
:1071A400CDE90212CAF80800CEF800300E4B187070
:1071B400FFF752FEDDE902120B68C969C9F81C1019
:1071C40011B1086803440B602B68934218BF4FF059
:1071D40001084DE748370020493700205037002088
:1071E4004C370020403700203C370020001001407D
:1071F40000E100E030360020FEFF7F003D37002034
:1072040008B5FFF731FE104B00200B2218809A704E
:107214000E4B18600E4B18700E4B18700E4B4FF43B
:107224008012C021C3F8802183F814131A6002F17C
:107234008042A2F56F22C2F8080583F81113074BA8
:10724400D2F804251A6008BD3036002050370020DB
:10725400483700204937002000E100E04C37002087
:10726400074B9B784BB132B128B10368187C20B925
:1072740059745A617047072070470820704700BF4F
:10728400303600202DE9F743DFF8848098F8023087
:1072940005460E461746ABB3A0B3042930D943695B
:1072A40083B3437C0024012B0DF107000CBF8946F6
:1072B400A1468DF8074000F049F90DF10600FFF7EB
:1072C4008DFDD8B1012303700F4B4560D3F804350D
:1072D400C0E90497C0E902369DF8063088F8013009
:1072E4009DF8070000F056F924B9084B4FF48012BA
:1072F400C3F80021204603B0BDE8F0830424EFE77F
:107304000724F7E70824F5E70010014000E100E056
:1073140030360020064A92783AB130B1426922B13F
:10732400002202740221FFF76FBD0820704700BFDE
:10733400303600200648074A03780749D35C012207
:1073440013B1043001F042BD0C3001F01DBB00BF8D
:1073540008300020B83700207C3700200648074A50
:1073640003780749D35C012213B1043001F0E6BC71
:107374000C3001F0BBBA00BF08300020B837002041
:107384007D37002037B50578012D0DD0022D2ED084
:1073940005BB1E491E48FFF710FD002832D103B07B
:1073A400BDE83040FFF7DABF43681A4C197820462D
:1073B400FFF7F1FC80B18DF800500190164B684640
:1073C4001B689847A168E368A2885B1A9A420AD3AB
:1073D400FFF7B0FF03B030BDA268E3689A42F1D072
:1073E4008DF80000EAE70D4B01221A70F2E7C3683A
:1073F4008DF800500193FFF79DFF074B68461B680B
:107404009847E7E703238DF80030F6E77D3700203F
:107414006C3700205837002054370020683700208C
:10742400F0B51F46234B89B004461A600D46002967
:107434003DD08A8820480968FFF79EFC002834D193
:10744400AA89A9681D48FFF797FC00282DD11C4E76
:107454000FCE6D460FC596E80F0085E80F006369EF
:107464000693237C174A18488DF81C70003B18BFFC
:1074740001238DF81430637C002B14BF0E230023EA
:107484008DF81530E3680293A3680393236801938E
:1074940069466368009300F0CDFE30B90B4B187059
:1074A4002368013301D0FFF745FF09B0F0BD072081
:1074B400FBE700BF54370020583700206C3700200A
:1074C40078BC02008973020008300020683700206D
:1074D40070B5084D014608482E78FFF76EFC044647
:1074E40036B100232B70FFF725FF08B1FFF700FC2E
:1074F400204670BD683700205837002010B501467B
:107504000E48FFF748FC0446A8B90D480D4A037815
:10751400D35C63B1043001F005FC60B90A49074843
:10752400FFF74BFC38B9BDE81040FFF717BF0C302C
:1075340001F0D0F9F1E7204610BD00BF6C37002000
:1075440008300020B83700207D37002070B5EFF3F5
:10755400108672B60C4A946801239CB993600B4B55
:107564000B4DD3F8801029401160C3F88050D3F834
:10757400841051604FF0FF32C3F88420047006B9C0
:1075840062B670BD0370FAE78037002000E100E0C6
:10759400FC06FFBD084B9A6810B55AB150B9EFF319
:1075A400108172B6054A1C6814605C685460986067
:1075B40001B962B610BD00BF8037002000E100E0D1
:1075C40001F01F024B090121914000EB830000F000
:1075D4001EB801F01F0301229A404B0900EB8300FF
:1075E400D14300F02CB84B0901F01F0150F82300DF
:1075F400C84000F00100704710B5034653E8000F7F
:107604000A4643E8002494F0000FF7D110BD10B5EA
:10761400034653E8002F42EA010043E8000494F0D3
:10762400000FF6D110BD10B5034653E8000F00EA71
:10763400010243E8002494F0000FF6D110BD10B508
:10764400034653E8002F02EA010043E8000494F0E3
:10765400000FF6D110BD10B5034653E8002F02EB1E
:10766400010043E8000494F0000FF6D110BD10B5FA
:10767400034653E8002FA2EB010043E8000494F012
:10768400000FF6D110BD0121FFF7C1BF0021FFF7A4
:10769400CABF10B590B1D0E9012301689B1ADBB2CF
:1076A4000A60013BDBB2FF2B026802D1002010719B
:1076B40010BD11684C1C14600B70F2E70E20F7E744
:1076C40037B5054600240DF107008DF80740FFF794
:1076D4003DFF2A686B68116899420ED9481E1060F4
:1076E40011F8013CEC68298A01FB0344AB68117969
:1076F4001B1ADBB2994238BF13719DF80700FFF7DC
:1077040049FF204603B030BD37B5054600230DF1CF
:1077140007000C468DF80730FFF718FF2A68136836
:10772400591C1160E968641A298AB4FBF1F41C70CD
:107734009DF80700FFF72EFF03B030BD826810B537
:1077440004462AB143690168006998470023A3608D
:1077540010BD0EB403B5039921B104AB01AA019382
:1077640000F06EF802B05DF804EB03B07047826875
:1077740030B40468551C8560A154D0E901329A42A2
:1077840002D330BCFFF7DABF30BC70472DE9F84FA5
:107794009846DDE90A43154682460F460A464FF0ED
:1077A4000109AA420FD2C14538BFC14613F0010BEB
:1077B40001D16CB900240126B8F1010F1BD908F1DD
:1077C400FF386E43F8E709F10109B2FBF5F2E8E787
:1077D4009B070ED5B8F1000F0CBF30262026A1451B
:1077E400E9D2013C31465046FFF7C1FF002CF6D1E7
:1077F400E0E72026F3E7B7FBF6F39D42E1D9DFF893
:107804003C80B7FBF6F3504618F8031006FB1377D9
:10781400FFF7ADFF3346AB42B6FBF5F6F1D2BBF151
:10782400000F02D00CB1A14501D3BDE8F88F20218F
:107834005046013CFFF79BFFF4E700BF98BC0200F1
:107844002DE9F74F054617468846002900F03E818A
:1078540018F8011B49B92B7B002B00F0378128460F
:1078640003B0BDE8F04FFFF769BF252940F0B780AA
:10787400002698F800302D2B424608F1010823D049
:10788400302B24D02B2B25D000242A2B02F10101EC
:1078940023D13B681A1D1B683A601C440A461378BE
:1078A4002E2B26D101324FF0000A104610F8011B8E
:1078B400A1F1300CBCF1090F1DD80A2303FB0A13F4
:1078C400A3F1300A0246F0E746F00106D1E746F09C
:1078D4000206CEE746F00406CBE711F8013CA3F11B
:1078E40030000928DBD80A2202FB0434303C0A4663
:1078F400CBE74FF0000A12F8011B01F0FB006828E7
:107904009046F8D0782909D86F290CD8632962D019
:1079140022D8252963D0582900F0888098F80030AF
:10792400002B95D197E770390829F7D801A353F8AC
:1079340021F000BFAB7A0200217902002179020014
:10794400417A0200217902001F7A020021790200A3
:1079540021790200317A0200642901D06929DDD13C
:107964003A68D2F80090111D89EAE9723960A2EBF5
:10797400E9724FF0010B092A35DCD34538BFD346F1
:107984002CB1B9F1000F01DB720700D5013CB3073C
:1079940002D5BAF1000F03D0F00701D44CBB002488
:1079A400B9F1000F2DDAC9F100092D212846FFF79E
:1079B400DEFE06F00302022A04D1BAF1000F01D15F
:1079C4001CBB0024CDE9004653460A2249462846FA
:1079D400FFF7DCFEA2E73B681A1D19783A602846D7
:1079E400FFF7C5FE9AE70A230BF1010BB2FBF3F292
:1079F400C1E7A345D4D220212846013CFFF7B7FEB6
:107A0400CCE77107D5D52B21D0E7A345DAD23021B5
:107A14002846013CFFF7ABFED2E73968CDE90046C2
:107A24000A1D3A6053460A220968D0E739680A1DDC
:107A34003A60CDE9004653461022F5E73B681A1D2B
:107A44003A6016F00106D3F8009024D1B9F1000F82
:107A540003D0484603F0B2FF0646B4421DD809F1EC
:107A6400FF3919F8011F00293FF458AF2846FFF7E2
:107A74007EFEF6E728460136FFF779FE19F8061070
:107A84000029F7D1A642BFF449AF20212846013C82
:107A9400FFF76DFEF6E70026F0E720212846013CBB
:107AA400FFF765FED9E73B681A1D3A603021284686
:107AB4001C68FFF75CFE78212846FFF758FE002279
:107AC4000823CDE900322146102280E703B0BDE847
:107AD400F08F00BF2DE9F84FB0F806A04579D2F831
:107AE40000B09DF828900AFB05F5043D88460BEB91
:107AF4000301A94203F1040488BFA5EB030BB4FB03
:107B0400FAF607460AFB1644C2F800B04EB9AAEBCF
:107B140004055D4528BF5D46BBF1000F04D1BDE8F7
:107B2400F88F3F68013EF1E7043408EB06003C445B
:107B34002A46B9F1000F0DD02146ABEB050B03F03B
:107B4400BFFEDA452E443F6855464FF0000428BF77
:107B54005D46E1E701462046EFE7FFF79ABDF8B539
:107B640046790146721E0546002393422D6803D3CD
:107B74000024A64202D8F8BD0133F6E70F68284670
:107B8400FFF7C2FD01343946F3E72DE9F843068ACD
:107B9400CD1C0746FFF794FD043E35440446B5FB6F
:107BA400F6F5F0B14FF48073EDB28380C680013DE9
:107BB400076081464FF00008A84512D23846FFF707
:107BC4007FFD064648B163790133637108F101080A
:107BD400C9F8000007608146EEE72046FFF7BFFFC3
:107BE40034462046BDE8F88301210430FFF733BD55
:107BF40010B5012104460430FFF739FDC0B220B9A5
:107C04002046BDE81040FFF7AABF10BD1FB5039280
:107C14000022009203AAFFF75DFF05B05DF804FBA4
:107C24001FB503920122009203AAFFF753FF05B088
:107C34005DF804FB33DF704741DF7047064B10B536
:107C440000241C70054B1C60BFF35F8F044905487A
:107C540000F091F8204610BD953700209837002099
:107C6400B4BC02008C37002007B500230DF10700D7
:107C74008DF80730FFF76AFCF1EE103A23F09F030A
:107C8400E1EE103ABFF35F8F0A4B4022C3F8842120
:107C94009DF80700FFF77EFC03F0F6F920B103B06E
:107CA4005DF804EBFFF7C8BF20BF40BF20BF03B09F
:107CB4005DF804FB00E100E070B5244D04460121A9
:107CC4002846FFF799FCBFF35F8F38B9042C0AD01C
:107CD4001F4B1A781AB1BFF35F8F286070BD1D4A1D
:107CE400147001221A701C4C1A4E6368BBB9FEF75B
:107CF400CDFEFEF72FFD0028FBD1164B1B78023B6F
:107D0400012B15D8BFF34F8F1449154BCA6802F4E1
:107D1400E0621343CB60BFF34F8F00BFFDE71B68E6
:107D2400307898470028D6D0204600F02EF8DCE7BB
:107D340003F0AAF908B1FFF77DFF4FF08043012259
:107D4400C3F80025BFF34F8F20BFFDE7983700200D
:107D540095370020943700208C37002000ED00E098
:107D64000400FA05836800225A60C3E904229A6079
:107D7400DA601A6070470B684A684360934208BF30
:107D84000023016008BF43607047436843B1026841
:107D9400916852680B449342436004BF00234360DC
:107DA4007047000010B50D49A1F59472914201D8B5
:107DB40000200FE08C1AE30F03EBE4035B1002EBEB
:107DC400C30452F83330834205D802D204F10802C6
:107DD400ECE7606810BD2146E8E700BFB8C10200C7
:107DE40008B5FFF7DFFF024B002808BF184608BD9F
:107DF4007AC002004FF0704393F8E02F062A10D1A6
:107E0400D3F8E42F12070CD1D3F8E80F00F0F003F5
:107E1400302B08D000F0E000A0F140035842584154
:107E2400704700207047012070474FF0704393F86B
:107E3400E02F062A0CD1D3F8E42F120708D1D3F887
:107E4400E80F00F0F000A0F13003584258417047A9
:107E54000020704708B5FFF7CDFF40B14FF08053C5
:107E6400884AD3F82433C3F30423C2F84035FFF718
:107E7400DCFF10B1844B854A5A67FFF7BBFF48B15A
:107E84004FF080534FF08042D3F84432C3F342336F
:107E9400C2F83C35FFF7C9FF30B17D4AD2F8FC3057
:107EA40023F08073C2F8FC30FFF7A4FF40B14FF019
:107EB40080430022C3F80C21C3F81021C3F83825ED
:107EC400FFF7B3FF20B14FF080430322C3F8A0258E
:107ED400FFF7ABFF60B16F4B0522C3F810260122F8
:107EE400C3F888260022C3F818263F22C3F81426B4
:107EF4004FF0704393F8E02F062A50D1D3F8E42FC3
:107F040011074CD1D3F8E83F03F0F003502B46D1CE
:107F14004FF08052604BD2F80414C3F82015D2F805
:107F24000814C3F82415D2F80C14C3F82815D2F891
:107F34001014C3F82C15D2F81414C3F83015D2F861
:107F44001814C3F83415D2F81C14C3F84015D2F829
:107F54002014C3F84415D2F82414C3F84815D2F8F1
:107F64002814C3F84C15D2F82C14C3F85015D2F8C1
:107F74003014C3F85415D2F83414C3F86015D2F889
:107F84003814C3F86415D2F83C14C3F86815D2F851
:107F94004014C3F86C15D2F84424C3F87025FFF7D5
:107FA40029FF48B14FF080534FF08042D3F8583244
:107FB40003F04F03C2F8E43EFFF71CFF48B14FF053
:107FC4008043D3F80024D20744BF6FF00102C3F802
:107FD40000244FF08053D3F83021062A0AD1D3F875
:107FE4003431062B01BF2D4AD2F83C3743F4806369
:107FF400C2F83C37264AD2F8883043F47003C2F8FA
:108004008830BFF34F8FBFF36F8F4FF01023D3F837
:108014000022002A03DBD3F80432002B2EDA204B93
:108024000122C3F80425D3F80024002AFBD04FF022
:1080340010221521C2F80012D3F80024002AFBD024
:108044004FF010231522C3F80422154BD3F8002453
:10805400002AFBD00022C3F80425D3F80024002A08
:10806400FBD0BFF34F8F0A490E4BCA6802F4E0629B
:108074001343CB60BFF34F8F00BFFDE70A4B0B4A9E
:108084001A6008BD0030014000C007400DF0ADBAD1
:1080940000ED00E00050004000C00040001000402F
:1080A40000E001400400FA051C3000200090D003D9
:1080B40038B5074C051E04F1080318BF1C46236895
:1080C4002BB11A6822605B6828469847F7E738BDE9
:1080D400A437002020B9054B01225A70FFF7E8BFEE
:1080E400012802D1014A9070F8E770479C370020BC
:1080F40020B9034B01225A70FFF7DABF704700BF63
:108104009C37002038B50B4C237883B90A48636048
:10811400A3602361E36000F0D5F8054602F0B4FFE4
:1081240008B900F0DBF801232370284638BD852503
:10813400FBE700BF9C370020D980020037B50B4C09
:1081440000230DF107008DF80730FFF7FFF9E3680E
:10815400013BE360E56815B900F0D4F8A5709DF81B
:108164000700FFF717FA03B030BD00BF9C370020AB
:10817400012813B508D003281CD018B9114B0122CB
:10818400C3F8802002B010BD0F4C00230DF107008E
:108194008DF80730FFF7DAF923780BB9FFF7B2FF50
:1081A400E3689DF807000133E3600123A370FFF740
:1081B400F1F9E7E700F092F802B0BDE81040FFF7EC
:1081C400BDBF00BF00E100E09C3700201FB503786D
:1081D4008DF8003043680193037A8DF80830C36842
:1081E400054A0393054B684653F8213052F8211091
:1081F400984705B05DF804FBB0370020B437002081
:108204001FB503788DF800304368019383688DF8B7
:108214000830C368054A0393054B684653F8213078
:1082240052F82110984705B05DF804FBB0370020E0
:10823400B4370020F0B5194B90F800C091F81DE058
:1082440043F82C20164B16460A6943F82C20154B8C
:1082540003F80CE00C4607460FCC89B06D460FC5F9
:1082640094E80F0085E80F00CDF810C0BEF1000FB0
:1082740009D0002E0C4A694608BF3246381D00F06A
:108284008BFC09B0F0BD002E084A694608BF32468F
:1082940007F10C0000F060FAF3E700BFB4370020E8
:1082A400B0370020B8370020D181020005820200D7
:1082B40000F18040002382B0036003680193019BB6
:1082C40002B07047044A137923B9012110609180E8
:1082D4001846704785207047BC370020084B1A6841
:1082E400D20706D4C02283F800230122C3F88021D8
:1082F4001A604FF080430122C3F81825704700BF6D
:1083040000E100E04FF080430122DA60D3F8182442
:10831400D203FBD4704700004FF0804110B5D1F870
:10832400003163B14FF48070FFF7C2FF0D4B5879F1
:108334000122C1F8082310B95A711B6898474FF0FD
:108344008042D2F8043163B14FF48270FFF7B0FF7A
:108354000223C2F80833034BBDE810401B68012018
:10836400184710BDBC37002000F1804000F5C04024
:10837400002382B0036003680193019B02B070473D
:10838400800000F1A040D0F8002722F44032C0F869
:108394000027D0F8003743EA0141C0F800177047BE
:1083A400C208012300F0070003FA00F08B5C1843B5
:1083B400885470472DE9F04F87B00024584D03943A
:1083C4004FF48072012102F1804303F5C04390B25F
:1083D4001B68012B06D1D5F804330B4202D0FFF7FA
:1083E400C3FF0C430432B2F5907F4FEA4101EAD156
:1083F4004B4BD3F87C31012B0AD14FF4BE70FFF7FD
:10840400B3FF4FF0A04344F00044D3F81035039376
:10841400E3B2D3B1434F00250126344210D0AB0060
:1084240003F1804303F5C043D3F81005D3F81015C6
:1084340057F8253023B1C1F30141C0F30420984714
:108444000135082D4FEA4606E7D1002C61DA0022F7
:108454004FF0FF33CDE90423DFF8C880DFF8C8907C
:1084640000273E464FF0A04B19F9014B631C45D041
:10847400C4F3C20318336B440122E5B204F03F0095
:1084840004F0070402FA04F413F8042C224235D051
:1084940008EB0002AD0992F9302058F822A0BAF195
:1084A400000F09D1032D29D104A901930090FFF7EE
:1084B40077FFDDE9000301E0032DF5D000F5E0715D
:1084C40013F80C3C5BF821102342C1F3014105D0A1
:1084D400022913D1032D0CD1294604E003290DD11F
:1084E400032D06D1022100900136FFF749FF0098C1
:1084F400F6B2BAF1000F01D02946D0470137042F54
:10850400B2D136B14FF0A043039AD3F81035934259
:1085140002D107B0BDE8F08F0393049B05939DE758
:1085240000600040C437002014380020014B1B6851
:10853400184700BF203800200E4B984237B50C4630
:1085440002D0002003B030BD00230DF107008DF8E8
:108554000730FEF7FBFF084B1D7915B901221C609B
:108564001A719DF80700FFF715F8002DE9D01120C6
:10857400E8E700BF002000402038002000234350DB
:1085840082B043580193019B02B070470A4610B56C
:108594004FF48E71FFF7F2FF136A9168C95C136A96
:1085A40001331362C0F81C1510BD024608B50068FB
:1085B4004FF49271FFF7E2FF10684FF48471FFF7F4
:1085C400DDFF136801221A6008BD8B690A4610B5E5
:1085D4004FF4847123B9FFF7D1FFD0F8183510BDDB
:1085E400FFF7CCFF536AD168D0F81805C854536A12
:1085F40001335362F3E700001FB501238DF8003007
:10860400044BCDE90110D3E900126846904705B048
:108614005DF804FB2838002030B54D4DD5F80433FF
:108624009A0585B051D5D5F82431002B4DD04FF49F
:1086340092712846FFF7A2FF4FF40173C5F808337F
:10864400444B93F829200AB901226A604049022266
:108654008DF80020D1F88024C1F8802403929A690F
:108664000292DA6801920022C3E906226846D3E93D
:10867400001290473648D0F81C315BB1354A116A74
:10868400536999424DD292F82830002B49D11146B2
:10869400FFF77CFF2E48D0F84431002B55D04FF41F
:1086A400A271FFF76BFF2B4B93F829200AB101222B
:1086B40002609A69002A48D0586AD96800229A61EF
:1086C40005B0BDE83040FFF797BFD5F804335B072A
:1086D400D0D5D5F80831002BCCD01E4C1C482146EF
:1086E400FFF773FF636AA2699A42C3D1E369E16841
:1086F4004BB1A3612369E3600023606AE3616362B1
:10870400FFF77AFFB6E794F829300BB901236B60C1
:108714000F4B4FF40172C3F808230023606AA3616E
:10872400EEE74FF48E710A48FFF728FF51690029DC
:10873400B0D00023029191688DF80030019153610B
:108744006846D2E900139847A4E705B030BD00BFDE
:1087540000200040283800202DE9F843594D90F8B6
:1087640004802C2303FB0853064693F82A300C4656
:108774009146002B40F0A28053490068FFF7DCFECD
:108784000746002840F09C8022683068511C0BD0BA
:108794004FF0A04101239340C1F8083502F5E0737E
:1087A4004FF0030C41F823C061684B1C1FBF01F557
:1087B400E0734FF0A04C4FF0000E4CF823E0A36997
:1087C400C0F8243594F814C0637DBCF1010F4CEA61
:1087D4000303C0F86C35C0F81415C0F80C251DD17E
:1087E400A268531C1FBF02F5E0734FF0A0414FF085
:1087F400000C41F823C0E368591C0BD04FF0A04C87
:1088040001219940CCF8081503F5E0714FF0030EEF
:108814004CF821E0C0F80835C0F810252C2202FBE2
:1088240008F2AB18C3F804902369AB50B9F1000FF8
:1088340031D04FF48E71227FFFF7A0FE30684FF4E1
:10884400A271FFF79BFE33682049C3F80413190B88
:1088540043F30733002BA8BF03F160404FEA5313DF
:10886400BCBF01F00F041A484FEA4212A8BF00F53A
:1088740061404FEA8303D2B203F16043B4BF0255AF
:1088840080F8002303F5614301F01F0101228A40AF
:10889400C3F880211A6033680422C3F800252C230E
:1088A40003FB08530022C3E9062283F829205A61F6
:1088B400012283F82A203846BDE8F8830827FAE71E
:1088C4001127F8E7283800201D86020080000200E6
:1088D40014ED00E00279044B2C2101FB02335869AA
:1088E400003818BF01207047283800202DE9F84FC0
:1088F400064689469246FFF7EDFF044600283DD11F
:1089040096F804801F4F2C2508FB057B4FF48E71CD
:10891400CBF82000CBF814A08BF82800CBF80890F3
:108924003068FFF72BFE3068012383605946FFF758
:108934002DFEDBF804305D4613BB30682A6A6B6990
:108944009A4211D33368D3F81C21002AFBD00122A8
:10895400DA6000202C2303FB087700237B61BDE849
:10896400F88F95F828303BB9D0F81C31002BF8D09B
:108974005946FFF70BFEE1E70F20EBE71120EEE786
:108984002046ECE7283800202DE9F0473A4D0779D6
:108994002C2303FB075306465C6824B103684FF499
:1089A4000170C3F808032C2303FB0753986950B1E3
:1089B400D869002841D024B133684FF40172C3F858
:1089C4000423112436E09A61D9605862D8612C23BB
:1089D40003FB075393F829301BB910B93046FFF74E
:1089E400E4FD4FF02C0808FB075A3068DAF804302D
:1089F400002B37D14FF4A271D046FFF7BFFD30688A
:108A0400D0F82491D0F80831D0F84441CBB914B946
:108A1400B9F1000FF3D02C2303FB07550023AB61FE
:108A2400B9F1000F24D12CBB95F829103368012229
:108A3400B1B11A602046BDE8F0871961DA610120FE
:108A4400C5E7B9F1000FE6D1002CE4D14146FFF7A8
:108A5400BCFDDAF82430DAF818209A42CFD8DAE7E5
:108A64005A60E7E74FF40173C0F804330024E1E7E8
:108A74000324DFE70F24DDE72838002000234350D8
:108A840082B043580193019B02B070471FB5012384
:108A94008DF80030054B8DF8080001916846D3E944
:108AA4000012904705B05DF804FB00BF5438002065
:108AB4007FB5374AD2F82461002E47D010464FF4D0
:108AC4009271FFF7DBFF02238DF80030D2F8803477
:108AD400C2F880340393D2F83C358DF808302D4B1E
:108AE400DA6801920022C3E906226846D3E900123B
:108AF40090472748D0F844316BB14FF4A271FFF787
:108B0400BDFF244B9A6932B100229A61D0F83C052A
:108B1400D968FFF7BBFF1E48D0F82031A3B14FF44A
:108B24009071FFF7ABFF1B4B5A696AB1D0F84C1533
:108B34008DF80810002299688DF8002001915A617F
:108B44006846D3E90012904704B070BDD2F81031E2
:108B5400002BCED04FF488711046FFF78FFF0D4BDA
:108B6400D2F83C0599698842C3D1DC69D96864B1FB
:108B7400D2F8005225F02005C2F800521A699C610F
:108B8400DA60DE61FFF782FFB3E79C61FAE700BFBA
:108B940000200040543800202DE9F8435D4E90F841
:108BA4000480242303FB0863054693F820300C4615
:108BB4009146002B40F0AA8057490068FFF7BCFC9F
:108BC4000746002840F0A48022682868511C0BD076
:108BD4004FF0A04101239340C1F8083502F5E0733A
:108BE4004FF0030C41F823C061684B1C1FBF01F513
:108BF400E0734FF0A04C4FF0000E4CF823E0A36953
:108C0400C0F8243594F814C0637DBCF1010F4CEA1C
:108C14000303C0F86C35C0F80C25C0F814151DD139
:108C2400A268531C1FBF02F5E0734FF0A0414FF040
:108C3400000C41F823C0E368591C0BD04FF0A04C42
:108C440001219940CCF8081503F5E0714FF0030EAB
:108C54004CF821E0C0F80835C0F81025242202FBA6
:108C640008F2B318C3F804902369B350B9F1000FA4
:108C74003BD04FF48871227FFFF700FF28684FF440
:108C84009071FFF7FBFE28684FF49271FFF7F6FE30
:108C940028684FF4A271FFF7F1FE2B681F49C3F84F
:108CA4000413190B43F30733002BA8BF03F16040EF
:108CB4004FEA5313BCBF01F00F0419484FEA4212A4
:108CC400A8BF00F561404FEA8303D2B203F16043C9
:108CD400B4BF025580F8002303F5614301F01F017E
:108CE40001228A40C3F880211A602B680822C3F845
:108CF4000025242303FB08660023C6E906337361B9
:108D0400012386F820303846BDE8F8830827FAE7BF
:108D14001127F8E754380020B58A02001003020036
:108D240014ED00E00279044B242101FB023358695D
:108D3400003818BF01207047543800202DE9F8434B
:108D440001F06043B3F1005F06468846914634D192
:108D5400FFF7E8FF044690BB32791B4F30682425A7
:108D640005FB02754FF49071C5F81490C5F808809E
:108D7400FFF784FE30684FF4AC71FFF77FFE336871
:108D84006969A868C3F84405C3F8481501219960C6
:108D94006968B1B9D3F82011D3F8580149B900284A
:108DA400F8D00F20242303FB027700237B61BDE866
:108DB400F883002818BF0F20F4E71020F7E71120EC
:108DC400F5E72046F3E700BF54380020F8B501F07A
:108DD4006043B3F1005F04460F465ED10379304D22
:108DE400242101FB0351496821B100684FF4047642
:108DF400C0F80863242000FB03539E6956B1D86968
:108E0400002839D021B123684FF40472C3F8042335
:108E1400112030E09A61DF60DE6120684FF48871D0
:108E2400FFF72CFE20684FF4A271FFF727FE23689A
:108E3400C3F83475C3F8382516BB01221A602479A7
:108E4400242202FB045252680ABBD3F81011D3F84F
:108E54004421D3F82401114302D10028F5D00A4655
:108E6400242303FB04550023984218BF03209A428D
:108E7400AB6118BF0F20F8BD1F61DA610126CCE792
:108E8400D3F8002242F02002C3F80022D7E74FF4BF
:108E94000472C3F804230020EDE71020EBE700BFC1
:108EA40054380020032811D8012A0AD101290FD1EE
:108EB40000F10E02D2B20D4B00EB40001A54002018
:108EC40070470129F7D0022904D049B1072070471F
:108ED4000022F8E7054B00EB400018444270EEE72F
:108EE400024B00EB400018448270E8E77838002019
:108EF40008B5012202210020FFF7D4FF08B107289A
:108F040010D1072202210120FFF7CCFF08B1072866
:108F140008D100210A220846FFF7C4FF10B1072830
:108F240008BF002008BD00000388102B10B502D034
:108F3400112B1ED010BD1A4C2168B1B9012208466C
:108F4400FFF7B0FF08B1072824D10722022101202E
:108F5400FFF7A8FF08B107281CD104220221002032
:108F6400FFF7A0FF08B1072814D123680133236059
:108F7400E0E70B4A1368013B1360002BDAD1FFF7DB
:108F8400B7FF0028D6D0074B1B68002BD2D0BDE812
:108F940010401847034B1B68002BE6D09847E4E7C2
:108FA400883800208438002076DF70477ADF7047E5
:108FB4007CDF70477FDF70478FDF7047B1DF70471A
:108FC40033DF704713B513210190FFF7EDFF019ACA
:108FD400034660B10748084C0849241AE4082404ED
:108FE40044F0020002B0BDE81040FDF722BD02B01B
:108FF40010BD00BFB4BA0200DCBA0200DAC102003C
:1090040008B5FFF7DDFF18B1BDE80840FDF770BEF5
:1090140008BD08B9FFF7F4BF7047FDF769BE00004B
:109024000388212B13B5044639D007D8112B27D038
:10903400132B42D0102B0CD002B010BD522B44D0B5
:10904400562B01D03B2BF7D1A0881321FFF7ACFF9F
:109054000FE0224B22482349C01AC008000440F004
:109064000300FDF7D9FC204BA1882048198001F0AA
:109074004DFC0028E0D002B0BDE81040FDF738BE3A
:10908400164B17481A49C01AC008000440F00300E0
:10909400FDF7C2FC144B4FF6FF721A80CCE7002395
:1090A40080888DF8043001A98DF80530FFF784FF1E
:1090B4000028C1D0FDF71CFEBEE70B4800231A466A
:1090C40085210088FFF776FFD3E7074800231A4677
:1090D40019460088FFF772FFCBE700BFB4BA02005D
:1090E400DCBA02001BC2020026300020083C00202B
:1090F40025C2020010B5204B204A9B1ADB088CB015
:109104001B04032835D8DFE800F002262E3243F092
:10911400030420461A49FDF77FFC2C22002101A8F4
:1091240002F0F7FB44F2506240210123CDE905121D
:1091340014488DF8083001A98DF8043000F032FF8E
:109144000021114801F02AF9104902462046FDF792
:1091540067FC0CB010BD0E4943F003000CB0BDE831
:109164001040FDF759BC0B4943F00100F6E70A49EA
:10917400FAE70A49F8E700BFDCBA0200B4BA020011
:1091840032C2020084390020C98F020060C202008A
:1091940077C202009AC20200D3C2020000C30200D6
:1091A40008B503784BB9054B3B211888FFF7FCFE43
:1091B40018B1BDE80840FDF79BBD08BD263000206E
:1091C400F7B50378012B33D0022B31D073BB1B4C82
:1091D4001B4D20782844FEF77BF923780133DBB25A
:1091E4001D44237015F8012C0A2A05D00D2A03D03A
:1091F400144A12889A4219D8012B15D9124D104ECF
:10920400124F2378ADF806300DF106022B88314653
:10921400384601F0E7FC082806D01328F1D00528C9
:1092240002D008B1FDF764FD0023237003B0F0BD44
:10923400406803B0BDE8F040FDF75ABD8039002016
:109244008C380020243000202630002028300020D4
:109254002DE9F0410578064645BB154C154BDFF862
:109264005880E41AE408240444F00104B28A9542C4
:109274000AD33369134413F8013C0D2B16D10A2089
:10928400FEF73CF91128F9E73369585DFEF736F922
:10929400074648B11128F7D0024641462046FDF75B
:1092A400BFFB3846FDF724FD0135DFE7BDE8F0815B
:1092B400DCBA0200B4BA020027C302000D4B4A888C
:1092C4001B889A4214D10A8840F677239A420FD118
:1092D4008B88094A09480A49033B9BB21380094A0F
:1092E400801AC00800041A4640F00300FDF7A1BB31
:1092F400704700BF2630002024300020DCBA020072
:1093040052C30200B4BA0200FDF7F2BC08B5084922
:10931400084801F0DBF908B1FDF7EAFC0548F7213C
:1093240001F0E8F918B1BDE80840FDF7E1BC08BD5B
:10933400C1920200F03B002030B54FF0A04303225D
:10934400884CC3F878274FF08042B3B0C3F808259F
:10935400322544F001044FF47A40A047013DFAD18C
:109364004FF400412846FDF79BF908B1FDF7C0FC16
:10937400FDF7CAF802F0AEF908B1FDF7B9FC3225E1
:109384004FF47A40A047013DFAD1774D0FCD07AC99
:109394000FC495E80300754B754A039384E80300F2
:1093A4004FF4807303ACCDE905230493714A07237A
:1093B400214607A8FEF734F808B1FDF799FCFDF73C
:1093C4001FFF08B1FDF794FCFEF738FC08B1FDF768
:1093D4008FFC01F01BFE08B1FDF78AFC002307A9EE
:1093E4000120079301F0A4FE08B1FDF781FC07A852
:1093F40001F05EFF08B1FDF77BFC11235E498DF897
:109404000C3013222046FFF7D3FD08B1FDF770FCA2
:109414001023ADF81C303C230025ADF81E3007A8FE
:109424004FF4C873ADF82050ADF82230FFF7BEFDFD
:1094340008B1FDF75DFCFFF769FF504B50480295FA
:1094440001A9019301F050FA08B1FDF751FC4D4B0D
:109454004D480093694601F04BFB08B1FDF748FC09
:109464004A4B029302A802F0B9F808B1FDF740FC98
:1094740002238DF80C3041F61513ADF80E3001259A
:109484004EF6EE634022002107A8ADF81030ADF887
:10949400125002F03EFA07A83D4900F0D7FF07A892
:1094A40015948DF8585001F0FBFB08B1FDF720FC32
:1094B4000023CDE90733099301238DF8203003F10C
:1094C4000233613333480A9307A901F0E0FC08B181
:1094D400FDF70EFCAC22002107A802F01AFA0223C1
:1094E4008DF81C3005238DF81F3001234021ADF881
:1094F40068308DF8983044F25063CDE92913264A38
:10950400264B27481B9207A9309300F08CFB08B127
:10951400FDF7EEFB2248012100F082FB142200211A
:1095240007A802F0F6F94FF470234FF42032CDE986
:10953400082303238DF828301A4B0C9307A81A4BE1
:109544000D9300F03BFE08B1FDF7D2FB1448032154
:1095540000F0E6FB08B1FDF7CBFBFDF7FBF8FEF7E7
:1095640083FBFAE7C0C30200A4C30200143C00203A
:10957400143D0020C59102006EC302001F9002003A
:10958400083C00205592020028300020F990020087
:1095940082C30200DC3B0020203000201790020030
:1095A40084390020A59102000D9302000369C2686A
:1095B40093429CBF80681B18013B981A70472DE9A1
:1095C400F843D0E902940546A9EB040840689045A5
:1095D40020440F46144404D902F072F9EC60BDE84B
:1095E400F8834246A4EB090402F06AF9686822464B
:1095F40007EB0801F0E72DE9F843C56806468946FC
:1096040017464FF000083469B3687068A54228BF54
:10961400E418013C621B5C1BBC4228BF3C469442DC
:1096240028BF144649462844224602F049F9B36843
:109634002544AB4208BF00253F1BA044A144F5606C
:10964400E1D14046BDE8F88310B5114C114AA2613E
:109654000223C4E90433104BE361A2644FF40073A2
:109664000E4A0F492362E26400231022E01DA36224
:109674006362E362A3656365E365226502F07CF9D6
:109684000849204602F078F92023A37110BD00BFD9
:10969400143E0020C6C302009C3E00208C3E0020E5
:1096A400CFC30200D3C3020070B5164B182400FBCD
:1096B40004451D4404FB00331646DC6A012C0ED01D
:1096C400022C18D0E4B92846FFF770FF864204D86C
:1096D40032462846FFF773FF3446204670BD2846BD
:1096E400FFF764FF8642344628BF044622462846D4
:1096F400FFF765FFF1E72846BDE87040FFF77BBF41
:109704000024EAE7143E0020FFF79EBF6DDF704798
:1097140079DF70477DDF704764DF70472DE9F04FD4
:1097240085B000250E9CBDF83CB0B4F800A00191B2
:10973400074690461E46A9463A884A450DDC45B17F
:109744002388013BA3EB0A039BB2FF2B3AD806F80C
:109754000A30002005B0BDE8F08F7A6852F829007D
:10976400039000220DF10B0103A8FFF7D5FF002899
:10977400F0D19DF80B20424521D12288002D14BF41
:109784000020022002EB0801014459451ADC3DB9CE
:10979400013292B2019B2280B3542288013222808A
:1097A40022880DF10B01324403A8FFF7B5FF00280E
:1097B400D0D121889DF80B200A442280012509F18B
:1097C4000109B9E70C20C5E72DE9F341089FBDF86D
:1097D40024801546CDE90078022204461E46FFF790
:1097E4009DFF50B93346102229462046CDE908781A
:1097F40002B0BDE8F041FFF791BF02B0BDE8F081CF
:109804002DE9F04F00231788138090F82D3085B090
:1098140006460D4614465BB3082F01D80C2028E1F8
:1098240002A8FFF773FF002840F023812388DDF8A6
:1098340009100822EA54238801339BB21B22238097
:10984400EA54238801339BB2EA182380E950BDF817
:109854000D30938023889DF8082006339BB212F0C4
:10986400FE0218BF01222380EA5423880133238097
:10987400B378FBB123880433BB42CFD802A8FFF7E7
:1098840047FF002840F0F58023880322EA54238808
:1098940001339BB219222380EA542388BDF808209F
:1098A40001339BB2E9182380EA54120A4A702388D0
:1098B40002332380F2789AB12388D91CB942ADD8F7
:1098C4000221E954238801339BB201212380E95406
:1098D40023880B449BB22380EA5423880B442380BF
:1098E4007268AAB12388D91CB94297D8022192F987
:1098F4000020E954238801339BB20A212380E954D0
:10990400238801339BB22380EA54238801332380C4
:109914003389002B40F0A180338A5BB1CDE9004745
:109924002B460722032106F11000FFF74DFF002804
:1099340040F09F80338B5BB1CDE900472B46152265
:10994400142106F11800FFF73FFF002840F0918032
:10995400326A002A40F09080D6F82480B8F1000FD3
:1099640030D0B8F804302188981C8A1C0244BA42CA
:109974003FF654AFFE283FF651AF03336B542388B0
:1099840001339BB2FF222380EA54238801339BB224
:109994002380B8F80020EA54E918120A4A70208893
:1099A400023080B22080B8F804205AB1D8F80810E8
:1099B40000296BD0284401F083FF2388B8F80420E1
:1099C4001344238096F82C30002B40F09880307894
:1099D40000284ED03388012B58D0228802F1020C83
:1099E400BC453FF61BAF012805D1737802331344FD
:1099F4009F42FFF413AF023FBF1ABFB202A905EBA7
:109A04000C00ADF80870FFF785FE90BB3178BDF807
:109A14000830022900F0B98072789A4202D39F423A
:109A240080F0B180012940F0B280974293B2C0F037
:109A3400AE80ADF808300821BDF80830FE2B3FF6A3
:109A4400EDAE22880133AB542288013292B22280D7
:109A5400A9542288134423800BE0CDE900472B4608
:109A64000622022106F10800FFF7AEFE00283FF4AB
:109A740053AF05B0BDE8F08FB4F800C00CF1060395
:109A8400BB423FF6CBAE1188052901D80720F0E789
:109A94006FF4486E01EB0E039BB24FF27D3E7345AB
:109AA400F4D95388052BF1D96FF44860181880B2A3
:109AB4007045EBD94FF6FF70814201D09942E5D849
:109AC400052305F80C30238801339BB2122123802F
:109AD400E954238801339BB223801188E954E818A0
:109AE400090A4170238802339BB223805288EA54C6
:109AF400E918120A4A702388023323802CE7B36AD8
:109B0400002BC3D04FF000084FF00C0A4FF0160B97
:109B1400B16A5FFA88F20AFB02F201EB0209B9F8B2
:109B24000430981CFE283FF679AE208803332B546A
:109B3400238801339BB2238005F803B023880133C3
:109B44009BB223808A5AEA54E918120A4A70208880
:109B5400023080B22080B9F804205AB1D9F8081034
:109B6400002993D0284401F0ABFE2388B9F80420DF
:109B74001344238096F82C2008F101085FFA88F337
:109B84009A42C5D823E7092156E79F42FBD2ADF894
:109B9400087050E770B5C0B14AB116880024B442C9
:109BA40003D305196D789D4208D0A14201D8002045
:109BB4000BE0055D01352C44A4B2F0E7A142F6D9CF
:109BC400A31C1380005D013880B270BD13B5134629
:109BD4000022ADF806200DF106020446FFF7DAFF75
:109BE40010B1BDF80630E01802B010BD72DF704746
:109BF40073DF704738B5012204460D46B0F83812B9
:109C0400D0F83402FFF7E2FF00B1057004F13C0222
:109C140004F50D7104F15400BDE83840FFF7E6BFC8
:109C240080F830107047F8B504460F46002973D009
:109C3400002871D091F87A301BB191F89830002B3C
:109C44006CD1D7F8A030042B68D0D7F89C30042B03
:109C540064D04FF0000C84F802C007F178060FCEF0
:109C6400251D0FC50FCE0FC596E8070085E8070030
:109C740084F830C0D7F8A4306363D7F8A830A3635E
:109C840004F50D724FF6FF73C4F84AC2A4F84832C3
:109C9400C4F84422C4F84DC222780AB984F8543076
:109CA40094F82430002B14BFEE231F2304F1550134
:109CB400C4F83412A4F8383204F50E723846FFF7AB
:109CC4009FFD40BB94F82430002B14BFEE231F23C8
:109CD40004F24311C4F83C12A4F8403204F51072A3
:109CE40007F13C00FFF78CFDA8B9A369A4F848303C
:109CF4004FF480730125A4F8503063692064014651
:109D040084F83C50636404F13C0204F15400FFF70E
:109D14006DFF00B92570F8BD0E20FCE70720FAE7B7
:109D2400F8B5067804460D46002E00F003810023A2
:109D3400C0F84A32C0F84D32C388817000F24A2715
:109D44000BB1012903D0E37943B1022D06D1636B32
:109D5400A3B1012284F851220820984704F24B222F
:109D640004F2512112F8013B5BB99142FAD16A1E07
:109D7400032A4FD8DFE802F0070D111484F851329A
:109D8400ECE73346F3E7A2791AB194F8242002B938
:109D94005BB9E2790AB1002B3ED1237A002B3DD185
:109DA400637A002B0CBF00250425636BA570002B80
:109DB40036D0033D012D33D862798AB394F8522208
:109DC40072BB84F85422012284F853220720984756
:109DD40004F13C0518220021284601F09AFDE26AAC
:109DE4000123511E994284F83C3098BFD3B284F8C1
:109DF400513094F8243088BF00261BB1A6B1A26A62
:109E040084F85220A278042A1ED8DFE802F07A0FE0
:109E140025385C000025C8E70225C6E70325C4E70A
:109E2400002384F85332D3E70122E9E7012384F8BD
:109E340031300023C4E91073C4F84432022384F897
:109E44003C308023A4F84830A378002B5DD1636BA9
:109E5400002B6BD1002068E0002B14BF07230323E1
:109E640084F83C302369A4F8483000230222C4F863
:109E74004432E36884F8312027646364E4E7626968
:109E84006264A269A4F8482013B1062384F83C3024
:109E94006379B3B194F852329BB994F8543283B1D4
:109EA400022384F8503004212046FFF7A3FE002843
:109EB400CAD1052384F8313004F50D73C4F8443253
:109EC400C2E70323F6E7E2696264226AA4F8482041
:109ED40013B1062384F83C30637983B194F8523289
:109EE4006BB994F8543253B1022384F850300421EE
:109EF4002046FFF77FFE0028A6D10623DAE70423D5
:109F0400D8E7002384F831309EE7D4F844122A4677
:109F140004F15400FFF76AFE38B994F8301094F84D
:109F24005400FFF765FE002891D0F8BD94F8310085
:109F340098478FE70820F8E70388112B10B50C46E3
:109F44000AD0262B1FD0102B05D1C37B012B02D1A5
:109F54008388A1F8483210BD0022838881F85222F8
:109F6400B1F848229A42F6D10B79002BF3D10121A2
:109F74002046FFF7D5FE0028EDD0A36B002BEAD0D6
:109F8400BDE810401847037A013B012BE3D88978D8
:109F940005230131B1FBF3F303EB8303C91AC9B2FF
:109FA400E6E7704730B50D46041D0FCD0FC40FCD45
:109FB4000FC495E8070084E8070030BD75DF7047DB
:109FC40076DF70477ADF70477BDF7047034B1A8870
:109FD40082420CBF18460020704700BFB8400020E2
:109FE400024B9B6903B11847704700BF9C40002097
:109FF40073B585B22846FFF7E9FF044638B3174E18
:10A00400027A337B9A420CD200F10A012846FFF708
:10A01400D5FFF0B111281AD002B0BDE87040FFF7A7
:10A02400DFBF00230372337C43B13B212846FFF793
:10A03400C7FF30F0080301D0FFF7D2FF736933B1D3
:10A0440000228DF80420ADF8065001A8984702B00C
:10A0540070BD237A01332372F9E700BF9C400020CE
:10A0640037B50B46497A0F4A79B9D2E901141D7AFA
:10A074000246002D18BF21465868FDF703F978B150
:10A0840003B0BDE83040FFF7ABBF0021197253693C
:10A0940033B10122ADF806008DF8042001A89847D9
:10A0A40003B030BD9C4000204B8802889A4212D8ED
:10A0B40042889A420FD380888B8840F2F3118842F9
:10A0C40094BF021A421A9A4205D80844984234BFEF
:10A0D4000020012070470020704700000388122BE5
:10A0E40070B5014659D004D8102B1ED0112B44D082
:10A0F40070BD502BFCD12F4BC288DB899A42F7D11B
:10A10400038A022BF4D186883046FFF75FFF0546A9
:10A114000028EDD001F1120000F08AF938BB68681C
:10A12400FDF7F8F80028E3D009E0C37B012BDFD169
:10A134004FF6FF70FFF74AFF054620B90420BDE83B
:10A144007040FFF74DBF1C4A8E88068000230372BF
:10A154001368C0F80A305368C0F80E3010310A3062
:10A16400FFF7A2FF134B6872DB89002BC0D129468D
:10A174003046BDE87040FFF773BF8088FFF726FFC5
:10A1840004460028B4D04068FDF7C4F808B1FFF7CE
:10A1940027FF4FF6FF732380AAE786883046FFF730
:10A1A40015FF05460028A3D008310A30FFF77CFFCD
:10A1B4006872DCE79C400020CC400020F8B50646DD
:10A1C40048B305460FCD154F3C460FC495E807002C
:10A1D40084E807003068124C3C60B0B1FFF7F2FE2F
:10A1E400C0B9326813682360536863600D480E4A2F
:10A1F4004FF6FF7303800D4B40F8043F0021FDF739
:10A204002FF8002818BF032004E02046FFF7DCFEE7
:10A214000028EBD0F8BD0E20FCE700BF9C400020D6
:10A22400CC400020B8400020F59F0200D44000201C
:10A23400F7B5174601900E4691B1019C6CB100250B
:10A244002C46294601A8FDF7CEF918B13946A8B223
:10A25400B04701340135142DF3D1204603B0F0BDCD
:10A264000C46FAE773B50191019C06466CB10025D2
:10A274002C46294601A8FDF7B6F918B106EB4403AC
:10A2840001349D800135142DF3D13046346002B081
:10A2940070BD00002DE9F04703888488112B8CB031
:10A2A40005463DD01A2B42D0102B19D1DFF8C080BF
:10A2B400D8F80830DB430093D8F804106846FDF75B
:10A2C400BEF9009901A8FFF7CDFF0DF10809002799
:10A2D400019B9F4207D3132C12D90420FCF708FDDD
:10A2E4000CB0BDE8F08739F802AB002601365146C0
:10A2F40008EB8600FDF76DF91D2EF7D10137E7E76E
:10A3040016482146FDF75CF915482146FDF758F932
:10A31400EB7B012BE4D013482146FDF751F9DFE72D
:10A324000E4821460CB0BDE8F047FDF752B9037A58
:10A334000D481F2B4FEA131521460AD9FDF740F9A2
:10A34400022D0A482146EDD00CB0BDE8F047FDF7D8
:10A3540037B9FDF73EF905482146E3E7FC40002004
:10A36400F840002000410020044100200841002062
:10A37400F44000201328014602D80248FDF733B9FF
:10A3840000207047F840002010B50446FFF7F2FFA4
:10A39400002814BF2046142010BD0000034B9B6806
:10A3A4000A4601461846FFF743BF00BFF4400020A9
:10A3B40070B50546164608460AB90E2070BD00233E
:10A3C4001360002DF9D02B68002BF6D0EB8813F026
:10A3D40003040ED1FFF7D8FFC0B214280BD02B7999
:10A3E40083420AD9EA882B6800FB02303060204699
:10A3F400E4E70720E2E70520E0E70420DEE7AADF40
:10A404007047ABDF7047002301380B70042806D86F
:10A41400DFE800F00306080A0C0011230B707047F4
:10A424002123FBE73123F9E71223F7E72223F5E79A
:10A43400008800F0010070470088C0F340007047B6
:10A444000B7803704B7843700220704738B504468C
:10A4540008460D4601F0B2FA6560208038BDF0B5BB
:10A464008B7891B00C46012B38BF012300278DF85F
:10A474000E3005460B88607CADF80C306946ADF8AB
:10A4840000708DF80270FFF7BEFFA07C0DF1010192
:10A49400FFF7B9FF1646237BE27B217D43EAC20323
:10A4A400227C43EA02139DF80220B94222F01902E9
:10A4B40003F0190314BF02210121134361F3420382
:10A4C4001C22394609A88DF8023001F022FA637B78
:10A4D40013F0300F14D00DF10901E07CADF80870D1
:10A4E4008DF80A70FFF78FFF11238DF808309DF85F
:10A4F4000A30012102AA61F342038DF80A300E9258
:10A50400637B8DF82430A37B8DF825300023CDE9BF
:10A514000633089303AB0493A388ADF81C30A368F7
:10A52400CDF814D01BB1E288ADF818200893A369C4
:10A5340073B301A90022ADF804208A701A88ADF81B
:10A544002C205A88ADF82E205A680D91187B0A9257
:10A55400FFF759FFA3690DF10501587BFFF753FF7E
:10A56400A3699A7A197A41EAC201DA7A9B7B41EAB1
:10A5740002119DF80620002B01F0190122F01902A6
:10A5840014BF02230123114363F342018DF8061023
:10A59400E36903B10C93334604AA09A92846FFF7DB
:10A5A4002EFF11B0F0BDF0B50C4689B0164610224E
:10A5B400054600210DEB020001F0ABF9A378A07968
:10A5C400012B38BF01238DF80A3001AF2388ADF881
:10A5D4000830394602AB0393FFF715FFE0790DF11C
:10A5E4000501FFF710FFE2786379217A049743EAC3
:10A5F400C203227943EA02139DF80620002922F0BF
:10A60400190203F0190314BF02210121134361F35A
:10A6140042038DF806306389ADF81430A389ADF890
:10A624001630E389ADF8183032462369079303A93D
:10A634002846FFF7E6FE09B0F0BD90DF7047A5DFBE
:10A644007047B5DF704700007FB50023ADF80810F0
:10A65400ADF80A106A4602A90646ADF80C30ADF80A
:10A664000E300093ADF80430FFF7E7FF054600B362
:10A67400114B124CE41AE408FDF7B2FB240444F035
:10A68400010403460E4932462046FCF7D2F9BDF8D0
:10A694000020BDF8023052EA030103D009492046E4
:10A6A400FCF7C7F9BDF804201AB107492046FCF7A6
:10A6B400B7F9284604B070BDB4BA0200FCBA02006F
:10A6C400DAC3020024C4020063C4020080B14FF064
:10A6D400F7130360FB230371F723C380172303815C
:10A6E40041F6FB32002301614381828118467047A1
:10A6F4000E20704730B1A1F11703E02B04D801807C
:10A70400002070470E2070470720704713B503469A
:10A7140080880C46B8B91A88242A00F09C8014D882
:10A72400112A74D0232A00F0A780102A3ED0A37ADD
:10A734004BB1E1880020FFF782FF002840F0A2809F
:10A744004FF48073638102B010BD3A2A68D0552A51
:10A75400EDD1DB88C988A072172B38BF17238B4231
:10A7640028BF0B462381FFF76CFF60B1FDF738FB70
:10A774004E4B4F4902464F481B1ADB081B0443F05B
:10A784000100FCF74DF9E27A002AD0D12369002BAD
:10A79400CDD040F67721ADF802202289ADF8001023
:10A7A400ADF80420694620469847C0E7DB7B0A7968
:10A7B4000A73012B13D0022B14D0E18823898B4216
:10A7C40005D20020FFF73BFF70B90123E372217B20
:10A7D400637B8B42ABD20020FFF736FFA7E70B88E1
:10A7E400E380EAE74B88FBE7112802D10123A37237
:10A7F400EDE7FDF7F5FA2D4B2F4902462D481B1ABC
:10A80400DB081B0443F00100FCF70AF9DFE7F72338
:10A81400CB8017230B8141F6FB3348818B8186E77C
:10A824005B89CA88934228BF1346172B0A6938BF2D
:10A8340017230B8162B1C97A51B140F67721ADF883
:10A844000010ADF80200ADF8043069462046904788
:10A85400002363816BE71A7A0B694A73002B3FF478
:10A8640066AF4DF67A218DF80500ADF80010ADF80D
:10A8740002008DF8042095E7197A237B994228BFBA
:10A884001946A9E711283FF45EAFFDF7A9FA074B73
:10A894000949024607481B1ADB081B0443F0010060
:10A8A40002B0BDE81040FCF7BBB800BFFCBA020020
:10A8B400EAC40200B4BA0200B9C40200B0DF7047AF
:10A8C40066DF704710B5002104464088FFF7F8FFA3
:10A8D400034608B9237210BD112801D10123F9E7F9
:10A8E4006368BDE81040184760B159B10378DE2BA6
:10A8F4000AD00B684360DE2303704FF6FF73438076
:10A90400002070470E2070470820704728B1037854
:10A91400DE2B04D14180002070470E2070470820B0
:10A924007047F0B5054685B00C46002942D0002892
:10A9340040D00B78DE2B3DD182884B889A4204D1DB
:10A944000B7A13B10846FFF7BDFF2B88112B33D0C8
:10A95400512B0FD0012B2DD12B7A012B2AD1A98871
:10A964006288914226D12046237205B0BDE8F040AA
:10A97400FFF7A8BFAE886388B3421BD1AF79022F1B
:10A9840018D1AD7B2B1F022B14D80021102268464E
:10A9940000F0BFFF052D18BF4FF4C0736946304661
:10A9A40018BFADF804308DF80070FFF787FF08B1C9
:10A9B4006368984705B0F0BD6388AA889A4204BFCB
:10A9C4004FF6FF736380F5E7A8DF7047ADDF70478C
:10A9D400AEDF704762DF704770B505468AB00C463B
:10A9E40000295ED000285CD00388502B33D0572B2D
:10A9F4006BD0102B55D181886069002601AA01967D
:10AA0400FFF7D6FC0223218AA888ADF80A6002AABF
:10AA1400CDF80CD0ADF80830FFF7D8FF002840D1AE
:10AA2400A369002B3DD00398FFF702FD002838D01E
:10AA3400019E0EB1012333701822002104A800F0F6
:10AA440068FF02238DF81030AB88ADF818300594F8
:10AA5400A369079623E08188606902AAFFF7A8FC2E
:10AA64001822002104A800F054FFAB882189ADF816
:10AA74001830EB88029A05949942079218D12E8ACD
:10AA8400022E15D16AB105F11200FFF7D1FC029B29
:10AA940048B101221A708DF81060A3690BB104A8A3
:10AAA40098470AB070BD187003238DF81030F4E78E
:10AAB400A2899A42F5D1A369002BF2D005F11202C2
:10AAC40008922A8AADF82420E9E78188606902AAFD
:10AAD400FFF76EFC01460028E3D1029E3378002B79
:10AAE400DFD0182204A800F014FF0123AAE7000015
:10AAF400F0B53A4B8FB002AD04460A4603F1100C90
:10AB04002F46186859682E4603C6083363453546F0
:10AB1400F7D1002C5FD0002A5DD01368A3612146D1
:10AB24003846FFF757FF002853D12246012512F873
:10AB3400023B8DF8063001A92846ADF80450FFF712
:10AB440043FF002845D10146202206A800F0E1FE7B
:10AB540022460223ADF8183012F80C3B8DF81A3057
:10AB6400BDF824301E4E6088079623F44F6323F00B
:10AB74000F0343F440632B4306A9ADF824308DF84A
:10AB840029508DF82A50FFF76AFC10BB0146202299
:10AB940006A800F0BEFE22460323ADF8183012F8D2
:10ABA400043B8DF81A30BDF824306088079623F4EE
:10ABB400875323F01F0343F480532B43ADF8243011
:10ABC40006A940F201138DF82950ADF82A30FFF799
:10ABD40046FC0FB0F0BD0E20FBE700BF2EC50200FF
:10ABE400F4000100F0B50F4687B016461C46054632
:10ABF40010B3406901AA1946FFF7DAFBD0B94FF642
:10AC0400FF739C421AD0019BC3B11B78C3B1338834
:10AC1400F42B17D8AB88CDF80B008DF80F00ADF8E6
:10AC2400083002A901232046CDE904678DF80A30D3
:10AC3400FFF7CEFE07B0F0BD0E20FBE70520F9E7D5
:10AC44000820F7E70720F5E7A8DF7047F0B50746C7
:10AC540089B014461E460D4611B90846FCF748F85B
:10AC640014B92046FCF744F820220021684600F07D
:10AC740050FE02238DF80D30084B0E9A1888ADF85B
:10AC840000706946ADF80440ADF8064002958DF8B1
:10AC94001160FFF7E4FB09B0F0BD00BFA441002040
:10ACA40030B587B041F60A035C4AADF80C3004466F
:10ACB40003A901208DF80E00FFF7C6FF0546002802
:10ACC40049D12288002A49D1228952B1544B009398
:10ACD400E16894F83C3042F62420FFF7B7FF0028DF
:10ACE40047D1228A52B14F4B0093616994F83C30AA
:10ACF40042F62520FFF7AAFF00283AD1228B52B151
:10AD0400494B0093E16994F83C3042F62720FFF761
:10AD14009DFF00282DD1228C4AB1444B0093616AD7
:10AD240094F83C3042F62620FFF790FF08BB228DB2
:10AD34004AB13F4B0093E16A94F83C3042F6282034
:10AD4400FFF784FFA8B9236BABB9616B002938D135
:10AD5400A36B002B42D1284607B030BD354B00937E
:10AD6400616894F83C3042F62920FFF76FFF002811
:10AD7400AAD00546EFE71A688DF810201A68120A5F
:10AD84008DF811205A888DF81220DA788DF8132066
:10AD94005A688DF814209B688DF815301A0A1B0C1C
:10ADA4008DF81730244B8DF816200093082294F860
:10ADB4003C3004A942F62320FFF748FF0028C4D002
:10ADC400D7E71E4B0A790093096894F83C3042F6A1
:10ADD4002A20FFF73BFF0028BAD0CAE71A788DF87B
:10ADE40010205A888DF81120120A8DF812209A88A2
:10ADF4008DF81320120A8DF81420DB888DF8153095
:10AE04001B0A8DF816300E4B0093072294F83C3041
:10AE140004A942F65020FFF719FFAAE7A441002035
:10AE2400844100209C410020744100206C4100209A
:10AE3400A64100207C410020AE4100209441002026
:10AE44008C410020A8DF704737B505460C46E1B1B8
:10AE5400D8B10388502B18D14B7CB3B1C2884B892D
:10AE64009A4212D1038A022B0FD10B686BB11230B4
:10AE7400FFF7DEFAAB88ADF8063080F001008DF8FC
:10AE84000400236801A92046984703B030BD2DE98A
:10AE9400F0410E4690B0054600286AD0002968D0DB
:10AEA4000B6803600B794374FF2303742A1D01208C
:10AEB40041F60F0302A98DF80A00ADF80830FFF738
:10AEC400C1FF044600284ED12022337B8DF8033085
:10AED40001460DEB020000F01CFD42F61923ADF80B
:10AEE40020304FF0011309930DF103030A936B7C97
:10AEF4009DF82D20A8881B0143F0020322F01202C2
:10AF040003F0120313438DF82D30B37B8DF83330E7
:10AF1400AA1D737B8DF8313008A9FFF7A0FA044607
:10AF240008BBB16819B30DF104084046FFF788FA6D
:10AF3400214607460E2203A800F0EBFCB8B242F605
:10AF44000813ADF80C30ADF81600F37BADF81A0019
:10AF540005F10E02E8888DF8123003A9CDF81C80A3
:10AF6400FFF721FB0446204610B0BDE8F081E881DC
:10AF7400F9E70E24F7E710DF7047000013B5044625
:10AF840009496846FCF7F7FE019808B902B010BDFC
:10AF9400D0E900212046904718B16846FCF7F5FE39
:10AFA400F2E71120F2E700BF54C5020013B50446CE
:10AFB40007496846FCF7DFFE019B0BB902B010BDE0
:10AFC4002046D3E9002190476846FCF7DEFEF3E70C
:10AFD4006CC502000B4991F816335A09EC2313414E
:10AFE400DB0706D5084B9A683AB94FF480030B6027
:10AFF400704742F20200FBF77BBE1A6842F48002FB
:10B004001A60704700E100E080370020F7B5194F5F
:10B014003C7864BB184E012520463570FFF7AEFF1F
:10B02400112821D02046FFF7C1FF144B8DF80340AF
:10B03400186801900DF10300FCF788FA104901A883
:10B04400FFF799FF0446B0FA80F0400938709DF884
:10B054000300FCF79FFA3CB90A4B34701C70FFF7ED
:10B06400B9FF2846FFF7A2FF204603B0F0BD08242D
:10B07400FAE700BFB7410020B64100204EC50200E8
:10B08400116D0200B8410020014B1878704700BFD1
:10B09400B741002007B508496846FCF76CFE019BE0
:10B0A40013B903B05DF804FBD3E900209047684668
:10B0B400FCF76BFEF3E700BF60C50200FFF7EABFD1
:10B0C40060DF704769DF704761DF704730B5134D4B
:10B0D400ADF5017D4FF4FA740DF1020103A8ADF84A
:10B0E4000240FFF7F1FF70B9294601A8FCF743FEBF
:10B0F400029B002BF0D003A8D3E90021904701A8BC
:10B10400FCF743FEF4E7052805D00DF5017DBDE805
:10B114003040FBF7EDBD0DF5017D30BDF4C70200F5
:10B12400024B1B780BB1FFF7D1BF7047B941002028
:10B1340030B5054685B00C46002900F0A5800023F3
:10B14400CDE90133514A039301230A608DF80400C9
:10B154008DF8063001A906232020ADF80830FFF74A
:10B16400B1FF60B1FCF73CFE494B4A4902464A48EC
:10B174001B1ADB081B0443F00100FBF751FC0023FE
:10B18400CDE9013303932268012301A940208DF8FE
:10B194000530FFF797FF60B1FCF722FE3C4B3F49B7
:10B1A40002463D481B1ADB081B0443F00100FBF771
:10B1B40037FC0023CDE90133039322688DF8045052
:10B1C400F72301A92320ADF80630FFF77BFF60B118
:10B1D400FCF706FE2E4B324902462F481B1ADB08A9
:10B1E4001B0443F00100FBF71BFC0023CDE90133F2
:10B1F40003932268022301A901208DF80430FFF78C
:10B2040061FF60B1FCF7ECFD214B26490246224860
:10B214001B1ADB081B0443F00100FBF701FC0023AD
:10B22400CDE9023322684FF4B06301A9A120019350
:10B23400FFF748FF60B1FCF7D3FD154B1A490246EE
:10B2440015481B1ADB081B0443F00100FBF7E8FB5D
:10B2540000252268039501A9A020CDE90155FFF737
:10B2640031FF034668B1FCF7BBFD094B0F490246A9
:10B2740009481B1ADB081B0443F00100FBF7D0FB51
:10B284002B46184605B030BD0E23FAE700300020E7
:10B294000CBB020078C50200B4BA0200BEC50200AD
:10B2A4000AC6020051C602009DC60200EEC6020094
:10B2B40073B505460668FFF703FF2B68B3420446DF
:10B2C4001DD91A481A4B1B491B1ADB081B0443F0EF
:10B2D40002000190FBF7A0FB2B6817490198324646
:10B2E400FBF7A7FB4FF080532A68D3F80C311349BE
:10B2F40001989B0203F100539A1AFBF791FB2CB9B6
:10B304000F4B01221A70204602B070BD2046FCF794
:10B3140067FD074B0B49024604481B1ADB081B0454
:10B3240043F00100FBF77CFBEDE700BFB4BA020079
:10B334000CBB020041C7020070C70200A1C7020093
:10B34400B9410020CBC702004BDF70471FB50E4C3C
:10B3540001A8FFF7F9FF70B9214602A8FCF70BFD1D
:10B36400039B002BF4D00198D3E90021904702A855
:10B37400FCF70BFDF4E7052804D004B0BDE8104049
:10B38400FBF7B6BC04B010BD0CC8020013DF704755
:10B3940038B54FF01025114C114A6B69A41AE40812
:10B3A40001334FEA044411D06A690E4944F00300A2
:10B3B400FBF736FB6869FFF7E9FF054620B10A4948
:10B3C40044F00100FBF728FB284638BD074944F048
:10B3D4000100FBF721FB0425F6E700BFDCBA0200FD
:10B3E400B4BA020018C8020043C8020076C80200BA
:10B3F40038B50B4B0B4C0C4A0C49E41AE4082404F2
:10B4040044F00300FBF70CFB0748FFF7BFFF0546BA
:10B4140020B1074944F00100FBF7FEFA284638BD85
:10B42400B4BA0200DCBA0200006002008EC8020056
:10B4340043C80200A8DF7047AEDF7047B0DF704733
:10B4440062DF70473CDF70473DDF704770470000A4
:10B454007FB5044638B10388502B5BD005D8102B38
:10B4640019D0112B1BD004B070BD512B1FD0532BFE
:10B47400F9D1354DC288EB889A42F4D16B7E002B0A
:10B48400F1D000F0BBF90028EDD06B69022004B0C4
:10B49400BDE87040184782882B4B9A80E3E72A4B1B
:10B4A40081889A889142DED14FF6FF72F5E7264DE6
:10B4B4008288AB889A42D6D18679022ED3D102896A
:10B4C400EB889A42CFD1837B043B022BCBD9102249
:10B4D4000021684600F01DFA2B7E8DF80060A3B1B0
:10B4E4009DF8063043F001038DF80630A8886946BC
:10B4F400FFF7A4FF1128F9D0BDF80430002BB2D116
:10B5040004F1080000F016F9ADE740F2FD13ADF8C0
:10B514000430EBE70C4DC2886B899A42A3D1038AAD
:10B52400022BA0D11230FEF787FF084A084B0949C5
:10B5340028769B1ADB081B04024643F0030004B080
:10B54400BDE87040FBF76CBABC410020B4BA0200FD
:10B55400DCBA0200B7C802007FB50023CDF80B3077
:10B564008DF80F300323ADF8023020238DF804301A
:10B574000D4B8DF80500DA88ADF8082002228DF80D
:10B584000A206A448DF806100492988801AA02A938
:10B594000592FFF751FF20B9BDF80230032B18BF05
:10B5A4000C2007B05DF804FBBC41002010B54FF03F
:10B5B400FF310020FFF748FF044658B9B121FFF7D7
:10B5C40041FF044630B9044B01205B6998470220CF
:10B5D400FCF772FB204610BDBC410020F0B51B4BAC
:10B5E40087B002AC024603F1100725461868596873
:10B5F400264603C60833BB423446F7D122B3144B64
:10B6040012685A614FF6FF719980002119830AB9B3
:10B61400104A5A610E4800F053F898B901204FF6C9
:10B6240059630D4A8DF8060001A9ADF80430FFF7FF
:10B6340001FF38B906492846FFF702FF10B904484C
:10B6440000F058F807B0F0BD0E20FBE7D4C80200A4
:10B65400BC41002051B40200BE4100204FF0030C55
:10B6640000DF704714490B6810B51BB34B680BB36C
:10B674000831984708281DD0104C236858B998768B
:10B6840001210220FFF768FFA0B123685B69032052
:10B69400BDE81040184700229A7606210220FFF7E1
:10B6A4005BFF18B1236803205B6998472368022075
:10B6B4005B69EDE710BD00BFF8410020F4410020B4
:10B6C40018B1034B1860002070470E20704700BF6C
:10B6D400F441002008B5FFF75BFE38B90448FFF7D2
:10B6E400BDFF18B9BDE80840FFF782BE08BD00BF22
:10B6F400F841002010B588B0044620220021684695
:10B7040000F007F922460323ADF8003012F8063B97
:10B714008DF8023042F60103ADF80C301723ADF872
:10B72400043060884FF0013369460493FEF797FEB6
:10B7340008B010BD70B50546007B2A4C01280ED018
:10B74400022824D00221287BFFF706FF18B12368C2
:10B7540003205B699847236802205B6909E023683A
:10B764009E7E4EB10621FFF7F7FE48B323685B695E
:10B774000320BDE87040184758760146FFF7ECFEF9
:10B78400F0B1236811285E7628D00421DBE76A7BB8
:10B79400531E132B24D8144E05F10E01301D00F056
:10B7A4008FF86B7BB36123689B7E002BEDD10F492F
:10B7B400304651F8083B984718B9236801229A7615
:10B7C40070BD0F28E1D10A4B0A480B49C01AC008C2
:10B7D400000440F00100FBF71FF9D6E70621B2E7A9
:10B7E4000521B0E7F4410020D8410020F8410020B1
:10B7F400B4BA0200DCBA0200E4C8020008B5044B83
:10B804001B6800205B699847BDE80840FFF7CEBE7F
:10B81400F44100207F2805D8034A044B105C5B5C8C
:10B824001840704700207047C0C9020040CA020097
:10B83400A0F16103192B98BF20387047A0F1410390
:10B84400192B98BF203070477F299ABF01700120BF
:10B854006FF02E00704700BF5AB10A787F2A0AD8C9
:10B8640000B102600021501AC3E9001118BF012081
:10B874007047104670476FF02E007047A0F16103C7
:10B88400192B98BF20387047A0F14103192B98BF9A
:10B89400203070477F2805D8034A044B105C5B5C5A
:10B8A4001840704700207047C0C9020040CA020017
:10B8B400024B5B689B6809211B6818474C300020C9
:10B8C400844640EA010313F0030F18D18446202A6A
:10B8D4000BD32DE9F007B1E8F807A0E8F807A2F1C7
:10B8E4002002202AF7D2BDE8F007042A07D351F832
:10B8F400043B40F8043BA2F10402042AF7D2002AD4
:10B9040005D011F8013B00F8013B013AF9D160463A
:10B9140070478446002A2DD010F0030F04D000F89D
:10B92400011B013A26D0F7E7C9B241EA012141EAF5
:10B934000141202A12D3A2F120022DE9F0030B4683
:10B944000C460D460E460F4688468946A0E8FA0383
:10B95400203AFBD2BDE8F00320320BD0042A05D3F1
:10B9640040F8041B043A05D0042AF9D200F8011B5C
:10B97400013AFBD160467047024610F0030F16D11E
:10B9840011F0030F13D12DE9F0004FF001374FF000
:10B99400803351F8044BA4EB070525EA04051D4048
:10B9A40002D142F8044BF4E7A1F10401F0BC11F810
:10B9B400013B02F8013B002BF9D1704700F1010172
:10B9C40010F0030F11D010F8012B002A23D010F02F
:10B9D400030F0AD010F8012B002A1CD010F0030F1B
:10B9E40003D010F8012B002A15D02DE970004FF078
:10B9F40001324FF0803350F8044BA4EB020525EAE2
:10BA040004051D4000D1F6E7A0F1040070BC10F855
:0CBA1400012B002AFBD1A0EB01007047C1
:10BA2000F580020000000000A79F0200843900207A
:08BA300069B6020000000000ED
:10BA380099A20200000000002D8F02000000000003
:10BA48003D9F02008439002011A70200F03B00202E
:10BA5800E1A002000000000027A90200083C002025
:10BA68004DAE0200DC3B0020DDA90200283000209A
:10BA780055B40200BC4100202590020000000000DF
:10BA880025B102000000000051B3020000000000D0
:08BA98007581020000000000AE
:10BAA000A43000206C31002074310020AC30002024
:04BAB000180000007A
:10BAB400BEC1020000000000C4C10200000000007A
:10BAC400CBC1020000000000CFC102000000000052
