:020000022000DC
:1060000000000120756302005D6302005F6302000F
:106010006163020063630200656302000000000028
:1060200000000000000000000000000067630200A4
:1060300069630200000000006B6302006D630200F0
:10604000E57E02006F630200F9800200C98502004C
:106050006F6302006F630200817F02006F630200C2
:10606000998B0200A98B02006F6302006F6302002C
:106070006F6302006F6302006F6302006F630200D0
:106080006F630200F16D02006F6302006F63020034
:106090008D6E02006F63020041AA02006F6302006E
:1060A0006F6302006F6302006F6302006F630200A0
:1060B0006F6302006F630200000000000000000038
:1060C0006F6302006F6302006F6302006F63020080
:1060D0006F6302006F6302006F6302000000000044
:1060E00000000000000000000000000000000000B0
:1060F00000000000000000000000000000000000A0
:10610000000000000000000000000000000000008F
:10611000000000000000000000000000000000007F
:10612000000000000000000000000000000000006F
:10613000000000000000000000000000000000005F
:10614000000000000000000000000000000000004F
:10615000000000000000000000000000000000003F
:10616000000000000000000000000000000000002F
:10617000000000000000000000000000000000001F
:10618000000000000000000000000000000000000F
:1061900000000000000000000000000000000000FF
:1061A00000000000000000000000000000000000EF
:1061B00000000000000000000000000000000000DF
:1061C00000000000000000000000000000000000CF
:1061D00000000000000000000000000000000000BF
:1061E00000000000000000000000000000000000AF
:1061F000000000000000000000000000000000009F
:10620000354936480A1A02D0072291438D4634494F
:1062100034480A1A06D00722914381F309880222E2
:1062200082F3148830483149314A00F044F831484B
:106230003149324A00F03FF831483249324A00F0E1
:106240003AF832483249334A00F035F83248334997
:10625000334A00F030F833483349344A00F02BF821
:1062600033483449344A00F026F83448344900228F
:1062700000F02CF833483449002200F027F8334866
:106280003349091A082902DB002202604160314AC1
:1062900090471F481F49884205D00268043003B464
:1062A000904703BCF7E700208646EC46002000211B
:1062B000294A9047FEE7884207D0521A05D0037852
:1062C00001300B700131013AF9D17047884202D098
:1062D00002700130FAE770470000012000E0002062
:1062E00000000120000001207CBD0200982A00204F
:1062F000F82A0020D4630200D4630200D4AE020066
:106300007CBD0200982A0020982A0020D8AF020005
:10631000D8AF0200D8AF0200D8AF0200D8AF020059
:10632000D8AF0200D8AF0200D8AF02007ABD020099
:10633000DCBD0200F82A0020F82A0020F82A0020FC
:106340001837002018370020183700201837002091
:10635000185700209D63020009920200FEE7FEE745
:10636000FEE7FEE7FEE7FEE7FEE7FEE7FEE7FEE705
:10637000704700BF1048804710484FF0070188431E
:1063800085460F4880470F48016841F4700101605D
:10639000BFF34F8FBFF36F8FFFF732BF0A480B4930
:1063A0000B4A884207D0521A05D0037801300B708F
:1063B0000131013AF9D170477163020000000120F8
:1063C000057B020088ED00E0D8AF0200982A00208B
:0463D000982A0020E7
:1063D4007047000007B5044B0093044A402300F0C3
:1063E40030F803B05DF804FBF5630200F92A0020DD
:1063F4002DE9F84388461446B2B10F4B0F4E0325DE
:10640400002743F00109224608EB0701002003F0AE
:1064140035F80744241A48B933782BB14FF47A403D
:10642400C847013D02D13570BDE8F88301233370BC
:10643400002CE8D1F8E700BFE0AF0200F82A002002
:106444007047F0B595B01D46164608460C4601F057
:1064540083FA1A9B0D93CDE9086500252B46082283
:1064640005A920460A958DF82C500C9501F090FA58
:10647400079B0293069B03939DF814308DF81150EB
:1064840003F00302012A1DD1BDF81420059DC3F3B6
:10649400C203C2F383168DF81030B20008230EA98C
:1064A400204601F075FAC5F3952508AB00933246F2
:1064B40002AB0EA9284600F00BFB204601F050FA6F
:1064C40015B0F0BD022AF8D1BDF81650C3F3C203CB
:1064D400C5F389158DF810300827082D2E4628BFDE
:1064E40008263B4632460EA9204601F051FAAD1B60
:1064F40008AB02AA31460EA8374400F04DFB002D2C
:10650400EBD1DAE7037813F0040216D003F00303A7
:10651400012B03D0022B09D0012070470A680088A0
:106524000232C0F3831002440A60F5E70B68428824
:10653400023303EB92130B60EEE710467047000042
:106544002DE9F04FDFF830A187B00F460023044651
:10655400861C0DF1070015468DF8073000F0C6FEC5
:10656400DAF800103960DAE90132134401335B1AB6
:106574000AF21C470AF583690AF21448B3421CD391
:106584000020002D73D004F00F039B0143F005039A
:1065940063F30F00DAF80020DAF80830134003330D
:1065A40032444AF823009DF80700CAF8002000F09E
:1065B400C1FE012007B0BDE8F08F0121384600F08C
:1065C4001AFF484600F02FFF404600F02CFFDAF88F
:1065D4000400DAF808B0029000EA0B0003300AEB7A
:1065E400800002A9FFF78EFF029B50BB0BEA030257
:1065F4000AEB820203F1020CD2680392013303EA2C
:106604000B0B0AEB8B0B02F00302012ADBF80C10D4
:10661400CDF808C023D0022A16D08346404600F0A5
:1066240005FF10B1029BCAF804305946384600F001
:10663400E2FEDAE901231344DAF8002001339B1A5D
:106644009CE70BEA0300C9E7BDF80E30C3F38913D6
:1066540003334FEA114B0CEB93030293DEE7BDF8CF
:106664000C30C3F383134FEA114B6344F5E7A405DD
:1066740044F006008EE700BF0C2C002030B50A4C15
:1066840071B10A4A0A49121BD20800239A4201D165
:10669400002030BD31F82350854202D00133F5E7A4
:1066A400034654F83300F4E750AF0200C8AF0200C9
:1066B400982A0020094B013903EBC000032909D8AB
:1066C400DFE801F00A0204060420704700797047ED
:1066D40040797047002070470220704750AF020095
:1066E400034BD3E90030C31A58425841704700BFE6
:1066F4000C2C00202DE9F04387B0FFF7F1FF06468C
:10670400002840F0FE80804CC4F81804BFF34F8F7B
:106714006368A56802932B40033304EB830002A94A
:10672400FFF7F0FE029B18B1D4F81824002A62D0B7
:1067340005EA0302991C013304EB82022B4004EBAB
:106744008303D268DB68049302F00303022B0392F1
:10675400029163D1BDF80E306C48C3F38917502FF2
:10676400B84628BF4FF0500808F1080168F38F13AA
:10677400C1F30901ADF80E3001F0BFF80646002858
:1067840000F0AA8001F0E8F80023082203A93046AB
:1067940001F0F4F8029925EA01020132B8EB820F04
:1067A4004FEA820333D95FFA88F863B32940DDB234
:1067B400A8EB050803315FFA88F9A846544D04EBA9
:1067C400810108234246304601F0D8F83DB108F172
:1067D4000803DBB24A462946304601F0CFF8029B53
:1067E400033703EB97070297D4F81834002B4BD1E7
:1067F400D4F810545BE0226893428CD36260304634
:1068040007B0BDE8F08342491D469946D9E72940BF
:1068140003310823424604EB8101DDE7012B5BD100
:10682400BDF80C303948C3F38311062928BF06216B
:1068340061F38913023101F00F018900ADF80C30C6
:1068440001F05BF80646002846D001F085F80023E5
:10685400082203A9304601F091F80027BDF80C2066
:10686400C2F38312BB00974203F10803BCD202991E
:106874004A1C29400331029204EB81010422304670
:1068840001F07CF80137E9E7304601F069F8FFF7D9
:1068940027FF80F00100C6B2B1E7EB685B7923B152
:1068A4002B6831461B6828469847EB681D68002D05
:1068B400F3D1304601F054F80DF107008DF807507C
:1068C40000F014FDD4F818340BB9029B63609DF8F2
:1068D400070000F02FFDDAE7D4F8104454B90D4B4B
:1068E4000D480E49C01AC008000440F0020000F030
:1068F40063F8CCE7236820469B689847E3681C68E4
:10690400ECE700267BE700BF0C2C00203CAF020024
:10691400182C002050AF020088AF020004B002001F
:106924002DE9F74F224E04460F46924601A9012253
:106934001846D6F808909B46FFF702FE20B3019D47
:106944004FF00008AA1CD84508EB020126D11948CB
:10695400002100F021FD80F31000000440EA1440FF
:10696400E4006B1C04F0380403EA090305EA090592
:1069740044F0010406EB8303033544EA881444EA33
:106984008724D86046F8254096F820341BB1FFF7D9
:10699400B1FE0028FBD103B0BDE8F08F09EA010184
:1069A40006EB81015AF82830CB6008F10108CAE7E8
:1069B4000C2C00202830002000231A46FFF7B0BF1B
:1069C40007B50123019201AAFFF7AAFF03B05DF8FE
:1069D40004FB07B5CDE9002302236A46FFF7A0FFB5
:1069E40003B05DF804FB000038B5084B0125D3F86B
:1069F400104483F8205404B938BDE3685D712368FA
:106A040020465B689847E3681C68F4E70C2C002078
:106A140030B5C38885B004460D4633B1144A00929C
:106A24001449154A284600F04DFD217A05291DD048
:106A3400637A4BB1A088FFF73DFE104B104953F821
:106A44002020284600F03EFD227A0E4BA08853F801
:106A5400222003920021FFF711FE039A0A490346FC
:106A6400284605B0BDE8304000F02CBD05B030BD6F
:106A740039B0020021B0020019B00200A8B002002F
:106A84003EB00200CCB0020041B0020007B503469C
:106A94000846197A052911D05B7A2BB1094A0A49AB
:106AA400019000F00FFD01980849019000F00AFDE3
:106AB400019803B05DF804EB00F0F9BC002AF8D0AB
:106AC400F2E700BF39B002003EB0020036B0020067
:106AD4002DE9F04385B01F460C9D002395F80C90DA
:106AE4002B7306460C46904629463846FFF790FF1E
:106AF400B8F1060F09D8DFE808F00412181F28338C
:106B040040003146284600F0DDFC00222946384684
:106B1400FFF7BCFF85F80C9005B0BDE8F083226850
:106B24003146284600F0CEFCEFE7D4E90023314695
:106B3400284600F0C7FCE8E7A36800933146D4E98F
:106B44000023284600F0BEFCDFE7E3680193A36856
:106B540000933146D4E90023284600F0B3FCD4E77F
:106B640023690293E3680193A36800933146D4E94F
:106B74000023284600F0A6FCC7E763690393236952
:106B84000293E3680193A36800933146D4E9002398
:106B9400284600F097FCB8E708292DE9F74F80460E
:106BA4000E4617461C4639D8002593F80C901D73E1
:106BB40019461046FFF72CFFDFF880A0DFF880B0FD
:106BC400AE422ED918F805205946204600F07AFC2A
:106BD4000135082DF4D11849DFF868A0DFF868B052
:106BE400204600F06FFC0025AE421FD918F805209E
:106BF4000192104604F0D8F80028019A594608BFBB
:106C04002E22204600F05EFC0135082DECD1012235
:106C140021463846FFF73AFF84F80C9003B0BDE8EC
:106C2400F08F5146204600F04DFCD1E751462046F6
:106C340000F048FCE8E700BF55B0020051B0020084
:106C44004BB0020053B0020057B002001FB5002140
:106C5400039001AA44F20100CDE9011100F004F807
:106C640005B05DF804FB000038B572B6FFF7BCFE52
:106C7400FFF740FD0028FBD1104B114C114D124978
:106C8400E41AE408240444F00100FFF795FED5F863
:106C9400F030DB0700D500BE0C4944F00200FFF7DA
:106CA4008BFEBFF34F8FEA68094B02F4E062134393
:106CB400EB60BFF34F8F00BFFDE700BF50AF020092
:106CC40088AF020000ED00E0E0B00200ECB002008A
:106CD4000400FA0510B58468C2688388121B9342C5
:106CE40008D3C26813400268D154C3680133C36037
:106CF400002010BD0420FCE78268C3689A420AD0D1
:106D04008268838813400268D35C0B708368013304
:106D1400836000207047052070470000094B5A78B3
:106D240099780132D2B2914208BF00221978914277
:106D34001FBF02705878182202FB003014BF0430C1
:106D4400002070473030002073B5054600240DF153
:106D540007000E468DF8074000F0C8FA0DF1060052
:106D6400FFF7DCFF90B10670094B9DF806204560E3
:106D74005A709DF8070000F0DDFA24B9054B4FF472
:106D84008012C3F80021204602B070BD0424F0E74D
:106D94003030002000E100E0024B4FF43C6043F04F
:106DA4000103184700B1020038B50C4B0C4C4FF4EA
:106DB4000032C3F8802001254FF48033C4F84833EF
:106DC400C4F808336560FFF7E7FF064BA5600024AD
:106DD4001C60FFF7E1FF044B1C7038BD00E100E0CC
:106DE400001001404C3100203D310020F8B51F4B0C
:106DF4001F491B680025C1F84051C1F84451C1F82E
:106E04004851C1F84C51C1F80051C1F804514BB379
:106E1400D1F8044517490968641A24F07F442F46C1
:106E24001A68A24209D8A41A15441A7CDE691AB158
:106E3400D3E905201F749047AEB90F4A0F4B117860
:106E44001B788B4205D10133DBB2022B08BF002330
:106E5400137012780A4B43F822500A4B4FF48012F5
:106E6400C3F80021F8BD3346DAE700BF50310020F3
:106E7400001001404C3100204931002048310020ED
:106E84004031002000E100E02DE9F04FA14AA24981
:106E940013780978A14D994285B03CD00133DBB217
:106EA400022B08BF002313709D4912789D4B0F6875
:106EB40053F822003B1823F07F4300220B602B6819
:106EC40016461446944613B942B12B6006E019687D
:106ED40081420ED902B12B60091A196001272B686F
:106EE400DFF848A201934FF00008BEB9DFF844B2BE
:106EF40060E0401A0C44D968D3F81CE0C3F800C021
:106F040031B13A1922F07F42C3E90121DE611E4604
:106F140073460122D7E700263746E0E73446F66990
:106F24007F4B60681B68DFF810C2A168C21A22F0A8
:106F34007F42624500F2A6800A4422600122227444
:106F44002A680023C4E90133E361002A40F0A380E6
:106F54002C60CAE79BF802105A1CD2B291428BF8FB
:106F6400002004BF00228BF80020182202FB03B388
:106F74002A6819799C68022975D003297FD00129D0
:106F840018D1207CB0B9D3E90312A2605A69E26037
:106F94009A69654BA2611A78002A18BF014661609C
:106FA400BEE78C4200F094808946C9690029F8D173
:106FB400002323749BF800309BF801209A42C9D126
:106FC4002B68B8F1000F04D1019A9A4201D1002F25
:106FD40043D0002B79D0D3F800A0544D504BD5F8B2
:106FE40004751C68DFF854813E1B98F8003026F0C5
:106FF4007F4603369BB94FF48033C5F84433C5F854
:1070040004334B4B4FF400324FF00109C3F8802195
:107014001A60C5F80090FFF7BFFE88F80090B245EB
:107024002CBF5444A41924F07F44C5F84045D5F836
:107034000435DB1B23F07F43E41B033324F07F443C
:10704400A3420AD9D5F80435C5F84035FFF7A4FEA4
:10705400374B4FF40032C3F80021334B00221A702F
:1070640005B0BDE8F08F114691469FE71174D269CF
:107074000123002AFAD1002B9CD02A609AE700232E
:107084001946F6E71B1A23F07F438B4234BFCB1A11
:107094000023236052E721681368994213D85B1ACE
:1070A4001360E26154E7091AD8691A4638B10346F5
:1070B40018688842F7D3401A1860184613462160AE
:1070C400E061DC6111E71346F2E7FFF76DFEC4E708
:1070D4004C4511D1D3692B6073B9DFF844E001202A
:1070E400CDE90212CAF80800CEF800300E4B187031
:1070F400FFF752FEDDE902120B68C969C9F81C10DA
:1071040011B1086803440B602B68934218BF4FF019
:1071140001084DE74831002049310020503100205A
:107124004C310020403100203C310020001001404F
:1071340000E100E030300020FEFF7F003D31002000
:1071440008B5FFF731FE104B00200B2218809A700F
:107154000E4B18600E4B18700E4B18700E4B4FF4FC
:107164008012C021C3F8802183F814131A6002F13D
:107174008042A2F56F22C2F8080583F81113074B69
:10718400D2F804251A6008BD3030002050310020A8
:10719400483100204931002000E100E04C3100205A
:1071A400074B9B784BB132B128B10368187C20B9E6
:1071B40059745A617047072070470820704700BF10
:1071C400303000202DE9F743DFF8848098F802304E
:1071D40005460E461746ABB3A0B3042930D943691C
:1071E40083B3437C0024012B0DF107000CBF8946B7
:1071F400A1468DF8074000F079F80DF10600FFF77D
:107204008DFDD8B1012303700F4B4560D3F80435CD
:10721400C0E90497C0E902369DF8063088F80130C9
:107224009DF8070000F086F824B9084B4FF480124B
:10723400C3F80021204603B0BDE8F0830424EFE73F
:107244000724F7E70824F5E70010014000E100E017
:1072540030300020064A92783AB130B1426922B106
:10726400002202740221FFF76FBD0820704700BF9F
:10727400303000200648074A03780749D35C0122CE
:1072840013B1043000F0E4BF0C3000F07FBF00BF46
:10729400A02A0020983100206431002010B5014656
:1072A4000E48FFF717FD0446A8B90D480D4A0378A8
:1072B400D35C63B1043000F0BFFF60B90A490748EA
:1072C400FFF71AFD38B9BDE81040FFF7D3BF0C3003
:1072D40000F050FFF1E7204610BD00BF54310020FC
:1072E400A02A0020983100206431002070B5EFF30B
:1072F400108672B60C4A946801239CB993600B4BB8
:107304000B4DD3F8801029401160C3F88050D3F896
:10731400841051604FF0FF32C3F88420047006B922
:1073240062B670BD0370FAE76831002000E100E046
:10733400FC06FFBD084B9A6810B55AB150B9EFF37B
:10734400108172B6054A1C6814605C6854609860C9
:1073540001B962B610BD00BF6831002000E100E051
:1073640001F01F024B090121914000EB830000F062
:107374001EB801F01F0301229A404B0900EB830061
:10738400D14300F02CB84B0901F01F0150F8230041
:10739400C84000F00100704710B5034653E8000FE1
:1073A4000A4643E8002494F0000FF7D110BD10B54D
:1073B400034653E8002F42EA010043E8000494F036
:1073C400000FF6D110BD10B5034653E8000F00EAD4
:1073D400010243E8002494F0000FF6D110BD10B56B
:1073E400034653E8002F02EA010043E8000494F046
:1073F400000FF6D110BD10B5034653E8002F02EB81
:10740400010043E8000494F0000FF6D110BD10B55C
:10741400034653E8002FA2EB010043E8000494F074
:10742400000FF6D110BD0121FFF7C1BF0021FFF706
:10743400CABF37B5054600240DF107008DF8074093
:10744400FFF754FF2A686B68116899420ED9481EE9
:10745400106011F8013CEC68298A01FB0344AB6815
:1074640011791B1ADBB2994238BF13719DF80700DA
:10747400FFF760FF204603B030BD37B50546002353
:107484000DF107000C468DF80730FFF72FFF2A682F
:107494001368591C1160E968641A298AB4FBF1F471
:1074A4001C709DF80700FFF745FF03B030BD8268EC
:1074B40010B504462AB1436901680069984700235E
:1074C400A36010BD0EB403B5039921B104AB01AAA6
:1074D400019300F06FF802B05DF804EB03B070475D
:1074E400826830B40468551C8560A154D0E9013227
:1074F4009A4202D330BCFFF7DABF30BC70470000B9
:107504002DE9F84F9846DDE90A43154682460F46B1
:107514000A464FF00109AA420FD2C14538BFC146FD
:1075240013F0010B01D16CB900240126B8F1010F4D
:107534001BD908F1FF386E43F8E709F10109B2FBE2
:10754400F5F2E8E79B070ED5B8F1000F0CBF302623
:107554002026A145E9D2013C31465046FFF7C0FF41
:10756400002CF6D1E0E72026F3E7B7FBF6F39D42C3
:10757400E1D9DFF83C80B7FBF6F3504618F8031066
:1075840006FB1377FFF7ACFF3346AB42B6FBF5F6C9
:10759400F1D2BBF1000F02D00CB1A14501D3BDE87B
:1075A400F88F20215046013CFFF79AFFF4E700BF13
:1075B40006B102002DE9F74F054617468846002913
:1075C40000F03E8118F8011B49B92B7B002B00F019
:1075D4003781284603B0BDE8F04FFFF768BF25297F
:1075E40040F0B780002698F800302D2B424608F171
:1075F400010823D0302B24D02B2B25D000242A2B78
:1076040002F1010123D13B681A1D1B683A601C4436
:107614000A4613782E2B26D101324FF0000A104669
:1076240010F8011BA1F1300CBCF1090F1DD80A237D
:1076340003FB0A13A3F1300A0246F0E746F0010601
:10764400D1E746F00206CEE746F00406CBE711F890
:10765400013CA3F130000928DBD80A2202FB0434E0
:10766400303C0A46CBE74FF0000A12F8011B01F048
:10767400FB0068289046F8D0782909D86F290CD8DF
:10768400632962D022D8252963D0582900F0888044
:1076940098F80030002B95D197E770390829F7D86E
:1076A40001A353F821F000BF1F7802009576020071
:1076B40095760200B5770200957602009377020072
:1076C4009576020095760200A5770200642901D020
:1076D4006929DDD13A68D2F80090111D89EAE9726E
:1076E4003960A2EBE9724FF0010B092A35DCD3456E
:1076F40038BFD3462CB1B9F1000F01DB720700D5B6
:10770400013CB30702D5BAF1000F03D0F00701D44E
:107714004CBB0024B9F1000F2DDAC9F100092D2169
:107724002846FFF7DDFE06F00302022A04D1BAF16F
:10773400000F01D11CBB0024CDE9004653460A22A8
:1077440049462846FFF7DCFEA2E73B681A1D197874
:107754003A602846FFF7C4FE9AE70A230BF1010BAF
:10776400B2FBF3F2C1E7A345D4D220212846013C61
:10777400FFF7B6FECCE77107D5D52B21D0E7A3459B
:10778400DAD230212846013CFFF7AAFED2E7396855
:10779400CDE900460A1D3A6053460A220968D0E73B
:1077A40039680A1D3A60CDE9004653461022F5E7D0
:1077B4003B681A1D3A6016F00106D3F8009024D1F4
:1077C400B9F1000F03D0484603F052FB0646B44219
:1077D4001DD809F1FF3919F8011F00293FF458AFEA
:1077E4002846FFF77DFEF6E728460136FFF778FEC8
:1077F40019F806100029F7D1A642BFF449AF202199
:107804002846013CFFF76CFEF6E70026F0E720214E
:107814002846013CFFF764FED9E73B681A1D3A602D
:10782400302128461C68FFF75BFE78212846FFF7C5
:1078340057FE00220823CDE900322146102280E7BA
:1078440003B0BDE8F08F00BF2DE9F84FB0F806A0F3
:107854004579D2F800B09DF828900AFB05F5043D5F
:1078640088460BEB0301A94203F1040488BFA5EB8E
:10787400030BB4FBFAF607460AFB1644C2F800B041
:107884004EB9AAEB04055D4528BF5D46BBF1000F68
:1078940004D1BDE8F88F3F68013EF1E7043408EBFA
:1078A40006003C442A46B9F1000F0DD02146ABEB4B
:1078B400050B03F081FADA452E443F6855464FF034
:1078C400000428BF5D46E1E701462046EFE7F8B52E
:1078D40046790146721E0546002393422D6803D360
:1078E4000024A64202D8F8BD0133F6E70F68284603
:1078F400FFF7C3FD01343946F3E72DE9F843068A5F
:10790400CD1C0746FFF795FD043E35440446B5FB00
:10791400F6F5F0B14FF48073EDB28380C680013D7B
:10792400076081464FF00008A84512D23846FFF799
:1079340080FD064648B163790133637108F101089B
:10794400C9F8000007608146EEE72046FFF7BFFF55
:1079540034462046BDE8F88301210430FFF74BBDCF
:1079640010B5012104460430FFF751FDC0B220B91F
:107974002046BDE81040FFF7AABF10BD1FB5039213
:107984000022009203AAFFF75FFF05B05DF804FB35
:107994001FB503920122009203AAFFF755FF05B019
:1079A4005DF804FB41DF7047064B10B500241C70E2
:1079B400054B1C60BFF35F8F0449054800F032F8A3
:1079C400204610BD7C3100208031002020B102000F
:1079D4007431002007B500230DF107008DF807303E
:1079E400FFF784FCF1EE103A23F09F03E1EE103A26
:1079F400BFF35F8F0A4B4022C3F884219DF8070030
:107A0400FFF798FC03F000F820B103B05DF804EB35
:107A1400FFF7C8BF20BF40BF20BF03B05DF804FB21
:107A240000E100E00B684A684360934208BF00230A
:107A3400016008BF43607047436843B102689168BE
:107A440052680B449342436004BF00234360704771
:107A540010B50D49A1F59472914201D800200FE0B0
:107A64008C1AE30F03EBE4035B1002EBC30452F83C
:107A74003330834205D802D204F10802ECE760688F
:107A840010BD2146E8E700BF24B6020008B5FFF7A1
:107A9400DFFF024B002808BF184608BDE6B4020009
:107AA4004FF0704393F8E02F062A10D1D3F8E42F57
:107AB40012070CD1D3F8E80F00F0F003302B08D0F4
:107AC40000F0E000A0F14003584258417047002004
:107AD4007047012070474FF0704393F8E02F062A57
:107AE4000CD1D3F8E42F120708D1D3F8E80F00F033
:107AF400F000A0F13003584258417047002070470D
:107B040008B5FFF7CDFF40B14FF08053884AD3F852
:107B14002433C3F30423C2F84035FFF7DCFF10B16C
:107B2400844B854A5A67FFF7BBFF48B14FF0805337
:107B34004FF08042D3F84432C3F34233C2F83C35A9
:107B4400FFF7C9FF30B17D4AD2F8FC3023F08073CF
:107B5400C2F8FC30FFF7A4FF40B14FF0804300228D
:107B6400C3F80C21C3F81021C3F83825FFF7B3FF7D
:107B740020B14FF080430322C3F8A025FFF7ABFFE9
:107B840060B16F4B0522C3F810260122C3F8882682
:107B94000022C3F818263F22C3F814264FF070437E
:107BA40093F8E02F062A50D1D3F8E42F11074CD1D3
:107BB400D3F8E83F03F0F003502B46D14FF0805246
:107BC400604BD2F80414C3F82015D2F80814C3F893
:107BD4002415D2F80C14C3F82815D2F81014C3F8DD
:107BE4002C15D2F81414C3F83015D2F81814C3F8AD
:107BF4003415D2F81C14C3F84015D2F82014C3F875
:107C04004415D2F82414C3F84815D2F82814C3F83C
:107C14004C15D2F82C14C3F85015D2F83014C3F80C
:107C24005415D2F83414C3F86015D2F83814C3F8D4
:107C34006415D2F83C14C3F86815D2F84014C3F89C
:107C44006C15D2F84424C3F87025FFF729FF48B116
:107C54004FF080534FF08042D3F8583203F04F0373
:107C6400C2F8E43EFFF71CFF48B14FF08043D3F85D
:107C74000024D20744BF6FF00102C3F800244FF080
:107C84008053D3F83021062A0AD1D3F83431062B95
:107C940001BF2D4AD2F83C3743F48063C2F83C3725
:107CA400264AD2F8883043F47003C2F88830BFF310
:107CB4004F8FBFF36F8F4FF01023D3F80022002AA9
:107CC40003DBD3F80432002B2EDA204B0122C3F855
:107CD4000425D3F80024002AFBD04FF010221521EC
:107CE400C2F80012D3F80024002AFBD04FF010236E
:107CF4001522C3F80422154BD3F80024002AFBD024
:107D04000022C3F80425D3F80024002AFBD0BFF3D3
:107D14004F8F0A490E4BCA6802F4E0621343CB60EA
:107D2400BFF34F8F00BFFDE70A4B0B4A1A6008BD33
:107D34000030014000C007400DF0ADBA00ED00E096
:107D44000050004000C000400010004000E001402E
:107D54000400FA05B42A00200090D00338B5074C7B
:107D6400051E04F1080318BF1C4623682BB11A68CA
:107D740022605B6828469847F7E738BD8C310020BD
:107D840020B9054B01225A70FFF7E8BF012802D140
:107D9400014A9070F8E770478431002020B9034B02
:107DA40001225A70FFF7DABF704700BF8431002008
:107DB40038B50B4C237883B90A486360A360236108
:107DC400E36000F063F8054602F01EFE08B900F017
:107DD40069F801232370284638BD8525FBE700BFD9
:107DE40084310020857D020037B50B4C00230DF152
:107DF40007008DF80730FFF779FAE368013BE36089
:107E0400E56815B900F062F8A5709DF80700FFF762
:107E140091FA03B030BD00BF84310020012813B5AE
:107E240008D003281CD018B9114B0122C3F88020B4
:107E340002B010BD0F4C00230DF107008DF8073080
:107E4400FFF754FA23780BB9FFF7B2FFE3689DF804
:107E540007000133E3600123A370FFF76BFAE7E740
:107E640000F020F802B0BDE81040FFF7BDBF00BF2E
:107E740000E100E08431002000F18040002382B062
:107E8400036003680193019B02B07047044A1379AD
:107E940023B90121106091801846704785207047EE
:107EA4009C310020084B1A68D20706D4C02283F8FC
:107EB40000230122C3F880211A604FF0804301227D
:107EC400C3F81825704700BF00E100E04FF080437D
:107ED4000122DA60D3F81824D203FBD470470000DF
:107EE4004FF0804110B5D1F8003163B14FF4807088
:107EF400FFF7C2FF0D4B58790122C1F8082310B9CE
:107F04005A711B6898474FF08042D2F8043163B12C
:107F14004FF48270FFF7B0FF0223C2F80833034B1B
:107F2400BDE810401B680120184710BD9C3100209B
:107F340000F1804000F5C040002382B00360036874
:107F44000193019B02B07047800000F1A040D0F87B
:107F5400002722F44032C0F80027D0F8003743EA63
:107F64000141C0F800177047C208012300F0070060
:107F740003FA00F08B5C1843885470472DE9F04FE6
:107F840087B00024584D03944FF48072012102F10C
:107F9400804303F5C04390B21B68012B06D1D5F88A
:107FA40004330B4202D0FFF7C3FF0C430432B2F593
:107FB400907F4FEA4101EAD14B4BD3F87C31012B3E
:107FC4000AD14FF4BE70FFF7B3FF4FF0A04344F063
:107FD4000044D3F810350393E3B2D3B1434F0025E3
:107FE4000126344210D0AB0003F1804303F5C043B3
:107FF400D3F81005D3F8101557F8253023B1C1F381
:108004000141C0F3042098470135082D4FEA460684
:10801400E7D1002C61DA00224FF0FF33CDE90423CD
:10802400DFF8C880DFF8C89000273E464FF0A04B29
:1080340019F9014B631C45D0C4F3C20318336B44D4
:108044000122E5B204F03F0004F0070402FA04F44C
:1080540013F8042C224235D008EB0002AD0992F942
:10806400302058F822A0BAF1000F09D1032D29D1EC
:1080740004A901930090FFF777FFDDE9000301E015
:10808400032DF5D000F5E07113F80C3C5BF82110DA
:108094002342C1F3014105D0022913D1032D0CD190
:1080A400294604E003290DD1032D06D102210090B5
:1080B4000136FFF749FF0098F6B2BAF1000F01D07C
:1080C4002946D0470137042FB2D136B14FF0A0432F
:1080D400039AD3F81035934202D107B0BDE8F08F6C
:1080E4000393049B05939DE700600040A4310020A6
:1080F400F4310020014B1B68184700BF00320020F8
:108104000E4B984237B50C4602D0002003B030BD68
:1081140000230DF107008DF80730FFF7E7F8084B4F
:108124001D7915B901221C601A719DF80700FFF72B
:1081340001F9002DE9D01120E8E700BF002000403C
:10814400003200200023435082B043580193019B26
:1081540002B070470A4610B54FF48E71FFF7F2FF74
:10816400136A9168C95C136A01331362C0F81C1561
:1081740010BD00000279044B2C2101FB0233586925
:10818400003818BF01207047083200202DE9F84F4D
:10819400064689469246FFF7EDFF044600283DD186
:1081A40096F804801F4F2C2508FB057B4FF48E7135
:1081B400CBF82000CBF814A08BF82800CBF808905B
:1081C4003068FFF7BFFF3068012383605946FFF72B
:1081D400C1FFDBF804305D4613BB30682A6A6B6963
:1081E4009A4211D33368D3F81C21002AFBD0012210
:1081F400DA6000202C2303FB087700237B61BDE8B1
:10820400F88F95F828303BB9D0F81C31002BF8D002
:108214005946FFF79FFFE1E70F20EBE71120EEE758
:108224002046ECE7083200200023435082B0435834
:108234000193019B02B070470279044B242101FB96
:1082440002335869003818BF0120704734320020C7
:108254002DE9F84301F06043B3F1005F0646884618
:10826400914634D1FFF7E8FF044690BB32791B4FA7
:108274003068242505FB02754FF49071C5F81490FD
:10828400C5F80880FFF7D0FF30684FF4AC71FFF7F2
:10829400CBFF33686969A868C3F84405C3F8481577
:1082A400012199606968B1B9D3F82011D3F8580154
:1082B40049B90028F8D00F20242303FB02770023B8
:1082C4007B61BDE8F883002818BF0F20F4E7102075
:1082D400F7E71120F5E72046F3E700BF343200202A
:1082E4000023435082B043580193019B02B070476E
:1082F4002DE9F0470E78089F9DF824A004460D460A
:108304009846002E5BD1D0F82431D2F800903BB1CE
:108314004FF49271FFF7E4FF012363612B7014E0C3
:10832400D0F81C313BB34FF48E71FFF7D9FFD0F86E
:108334002431002BECD113689F4212D918F8033072
:10834400C0F81C35136801331360B94535D1D4F82E
:10835400043193B34FF482712046FFF7C1FF002626
:1083640004E00123BAF1000F03D0C3613046BDE835
:10837400F0874361E9E7D0F80831002BE5D04FF4EA
:108384008471FFF7ADFFD0F82431002BC0D11368FE
:108394009F42DAD9D0F8181508F80310136801338E
:1083A40013607A1E934205D10223C0F800320123E0
:1083B4002362CAE79F42FAD1C7E70126D6E74FF402
:1083C4009271FFF78DFF4FF48E71FFF789FF4FF421
:1083D4008471FFF785FFBAE72DE9FF470C46054690
:1083E4001F4620463B4B03934FF482719DF8308027
:1083F400FFF776FF4FF49271FFF772FF4FF48E711F
:10840400FFF76EFF4FF48471FFF76AFF0023C4F88F
:1084140000326B6385F82E3001232362A360164675
:108424006A6B97421DD9B35CC4F81C356B6B01337E
:108434006B632B68E3B905F1340A05F12E09039B3C
:10844400002B1FDC95F82E3053BB0020039B002B20
:1084540015DC0023C4F800350523C4F800350320D7
:108464000DE0B8F1000F01D0E361E2E76361E0E7FA
:1084740040F28623AB60AB68C4F80433002004B038
:10848400BDE8F087CDE90078334652464946204698
:10849400FFF72EFF0028D5D0039B013B0393CEE7C3
:1084A400D4F8C434C4F8C434002BCED013F0010F74
:1084B40014BF4FF40240032048F2012213F0020FCC
:1084C40018BF104613F0040F48F2022318BF1846D1
:1084D400BCE700BFA08601002DE9FF470C46054616
:1084E4001E462046364B03934FF48271FFF7F8FE85
:1084F4004FF49271FFF7F4FE4FF48E71FFF7F0FE24
:108504004FF48471FFF7ECFE0023012ED5F80080B0
:108514006B6385F82E3017464FF0010306BF022225
:10852400C4F80022C4F8003223622360B8F1000FBB
:1085340015D105F1340A05F12E09039B002B18DC33
:1085440095F82E301BBB0020039B002B0EDC002370
:10855400C4F800350523C4F80035032006E040F2D2
:108564008623AB60AB68C4F80433002004B0BDE8D4
:10857400F087CDE900683B46524649462046FFF75E
:10858400B7FE0028DCD0039B013B0393D5E7D4F866
:10859400C434C4F8C434002BD5D013F0010F14BF75
:1085A4004FF40240032048F2012213F0020F18BFD7
:1085B400104613F0040F48F2022318BF1846C3E70D
:1085C400A0860100F0B52D4C2D4894F82C3089B0CC
:1085D40004F134020193A36A009304F12E01636A47
:1085E400FFF786FEE0B994F82EC0276ABCF1000FAD
:1085F4001FD1217B8B1E012B1BD8626AA3699A426F
:1086040017D1E26963696262C7F340170329A36261
:1086140084F82C7006D11A4900972046FFF7DCFE37
:1086240009B0F0BD1649204609B0BDE8F040FFF797
:1086340053BF144E0FCE03AD0FC533682B60BCF18E
:10864400000F17D00E4AD2F8C434C2F8C4349907C4
:108654000CD501238DF80830002384F82F307B07D4
:10866400DED4D4E9003102A89847D9E75A07F3D5F4
:108674000223EFE78DF808C0EEE700BF5832002070
:1086840000300040643200202DE9F84F0679374D60
:108694004FF03C0A0AFB06FA05EB0A049B4694F8E1
:1086A4002D3080460F469146002B5AD13049006840
:1086B400FFF726FD002856D13A687B7B84F83830D2
:1086C4004FF0A04102F5E073A060C4F804B084F850
:1086D4002F0084F8300040F20C6445F80A9041F809
:1086E40023407B6803F5E07C41F82C40D8F8004037
:1086F400C4F80825C4F80C35BB68C4F82435B9F1AE
:10870400000F26D044F30733002B3A7BB4BF19493A
:1087140003F16041C4F307344FEA5313B8BF04F0C4
:108724000F074FEA4212A8BF01F561414FEA8303E4
:10873400D2B203F16043B4BFCA5581F8002303F5F4
:10874400614304F01F04012202FA04F4C3F88041D7
:108754001C603C2303FB0655012385F82D30BDE83E
:10876400F88F0820FBE71120F9E700BF58320020FA
:10877400C985020014ED00E0036802790521C3F8FD
:108784000015044B3C2101FB0233022283F82D2007
:10879400704700BF583200202DE9F74F2D4F06795E
:1087A400D0F800902C4BC9F808333C2505FB06751E
:1087B400C6EB061C95F82F308E46144607EB8C0C3E
:1087C40003F0FF0B33B1AB68C9F80433112003B0D5
:1087D400BDE8F08F82F00403C3F3800385F82F30E3
:1087E4002A628A46BAE80F0005F10C08A8E80F00CF
:1087F400DAF80030C8F80030DEF80430AB62DEF896
:108804000C206A629EF80110C9F888159EF80010C1
:10881400012917D0A1B9C4F340143C2101FB06710E
:10882400604681F82C4000944946FFF7D5FD3C236F
:108834005E43BA19BB59002BC9D182F82F30C6E761
:108844000124EAE785F82CB049466046FFF744FE68
:10885400EDE700BF5832002086420400F0B587B02F
:1088640004460F4615460021142201A81E4602F0B4
:10887400CCFA9DF830308DF80570002B14BF2022FF
:10888400002201A9204602960495FFF785FF07B050
:10889400F0BDF0B587B004460F46154600211422FA
:1088A40001A81E4602F0B1FA0123002201A92046C4
:1088B4008DF804308DF8057002960495FFF76CFF6F
:1088C40007B0F0BD1FB503788DF800308388ADF88C
:1088D400043083688DF80630C3688DF80730036967
:1088E40002934369054A0393054B684653F82130C4
:1088F40052F82110984705B05DF804FB943200202B
:108904009C320020024B4FF4807043F0010318475F
:1089140050B602002DE9F047154690F80090324A0F
:1089240042F82950314A42F829304B7B07460C461D
:108934006BB30868496882008B0002F1A04203F11E
:10894400A04340F20C66C2F800674FF0010AC3F876
:1089540000674FF0A0460AFA00F00AFA01F1C6F8DF
:108964000805C6F8081540F20D61C2F80017C3F8EF
:108974000017FFF7C7FF4FF00008D6F8102563680B
:1089840022FA03F3DB070DD5B8F1000F1DD1002D3A
:10899400174A4B4608BF2A462146381DBDE8F04712
:1089A400FFF772BE23680AFA03F3C6F80C35FFF723
:1089B400A9FF23680AFA03F3C6F8083508F1010889
:1089C400FFF7A0FFB8F1090FD7D1636801264FF074
:1089D400A04806FA03F3C8F80C35FFF793FF636861
:1089E4009E40C8F80865D2E79C32002094320020EB
:1089F400C98802002DE9F743002406460F4600F516
:108A0400A0754FF48038A146A30003F5A07398B273
:108A14002B686BB1D6F8043308FA04F21A4207D073
:108A2400C5F800902B680193019BD7E90031984762
:108A34000134042C05F10405E6D103B0BDE8F0834C
:108A4400F7B50679334D0C2474432F193B7A002B68
:108A54005ED12A514A687A60447902681F46D8B2C6
:108A640084424CD842F30733CC78002BA8BF03F1DF
:108A74006047C2F307304FEA5313BCBF00F00F0C3A
:108A8400254F4FEA4414A8BF07F561474FEA830313
:108A9400E4B203F16043B4BF07F80C4087F8004325
:108AA40003F56143012400F01F0004FA00F0C3F849
:108AB40080011860D2F804054B7820F0030003F01D
:108AC40003030343C2F804358B78D2F8080503F096
:108AD400030320F003000343C2F808350B78D2F8EF
:108AE400100503F00F0320F00F010B43C2F81035FB
:108AF4000C2303FB065500202C7203B0F0BD980034
:108B040000F5A07001331750105801900198A6E7A2
:108B14000820F2E7A432002014ED00E003680122EB
:108B24001A600279034B0C2101FB023302221A72F0
:108B3400704700BFA432002037B54FF4803400687A
:108B44008C407BB101F150039B000025C550C358F4
:108B54000193019BC0F8044301F5A87140F821205A
:108B640003B030BDC0F80843F6E770B4046840F2BF
:108B74000116D4F800528E4025EA0605C4F80052C6
:108B8400D4F800522B43C4F800329DF80C3070BC6A
:108B9400FFF7D2BF01490248FFF72CBFA4320020DF
:108BA4000080004001490248FFF724BFB032002092
:108BB40000900040037813B9014B01221A707047EA
:108BC400BC3200201FB54FF0CD620623CDE9000171
:108BD400CDE902230748084A00236946FFF79AFEB5
:108BE40008B1FEF733F80548FFF7C6FD05B05DF898
:108BF40004FB00BF5CB60200B98B020060B6020041
:108C040013B5094C00230A4623700093014602233E
:108C14000648FFF723FE08B1FEF718F82378002B67
:108C2400FCD002B010BD00BFBC32002060B6020010
:108C34002DE9F041541CE4B2E51D82B005F4FC7545
:108C440002AFADEB050D06468DF808100C4D194624
:108C54000DF1090002F0B0F80DF1080800232B70A3
:108C640008480093424623463146FFF7F7FD08B112
:108C7400FDF7ECFF2B78002BFCD0BD46BDE8F0815E
:108C8400BC32002060B60200F0B5134C85B01E461D
:108C94000023054617468DF80F10237000930146F4
:108CA40001230E480DF10F02FFF7D8FD08B1FDF7BF
:108CB400CDFF2378002BFCD00023237007483B46CC
:108CC40032462946FFF7E5FD08B1FDF7BFFF2378DB
:108CD400002BFCD005B0F0BDBC32002060B6020011
:108CE40070B588B00023CDE905330193ADF80830A1
:108CF40007930393ADF81030062203AB13216920C8
:108D04002D4DFFF795FFC82445F0010501AB062260
:108D140043216920FFF7B8FF9DF805309DF9042031
:108D240043EA0222059B134405939DF906209DF80E
:108D3400073043EA0222069B134406939DF9082058
:108D44009DF8093043EA0222079B13440793052642
:108D54004FF47A40A847013EFAD1013CA4B2002C5A
:108D6400D4D105AB0321C8201A680139524289B213
:108D740092FBF0F2520043F8042B0029F4D1059B36
:108D84008DF80D3043F30722069B8DF80C208DF8E7
:108D94000F3043F30722079B8DF80E2043F307227D
:108DA4008DF810208DF81130062203AB13216920B1
:108DB400FFF73EFF08B070BD70B60200032811D85B
:108DC400012A0AD101290FD100F10E02D2B20D4BB2
:108DD40000EB40001A54002070470129F7D0022903
:108DE40004D049B1072070470022F8E7054B00EB97
:108DF400400018444270EEE7024B00EB4000184478
:108E04008270E8E7BD32002008B50122022100206B
:108E1400FFF7D4FF08B1072810D10722022101204F
:108E2400FFF7CCFF08B1072808D100210A22084621
:108E3400FFF7C4FF10B1072808BF002008BD0000D9
:108E44000388102B10B502D0112B1ED010BD1A4C64
:108E54002168B1B901220846FFF7B0FF08B107281D
:108E640024D1072202210120FFF7A8FF08B1072817
:108E74001CD1042202210020FFF7A0FF08B107281B
:108E840014D1236801332360E0E70B4A1368013BE4
:108E94001360002BDAD1FFF7B7FF0028D6D0074BB9
:108EA4001B68002BD2D0BDE810401847034B1B6849
:108EB400002BE6D09847E4E7D0320020CC320020E3
:108EC40076DF70477ADF70477CDF70477FDF70475B
:108ED4008FDF7047B1DF704733DF704708B5FFF7A6
:108EE400FBFF18B1BDE80840FDF7B0BE08BDFDF7B3
:108EF400ADBE08B9FFF7F2BF704700000388212B0D
:108F040013B5044643D007D8112B2CD0132B4CD0C7
:108F1400102B0CD002B010BD522B4ED0562B01D0CA
:108F24003B2BF7D1A0881321FFF7CAFF14E0274B8E
:108F340027482849C01AC008000440F00300FDF780
:108F44003BFD4FF0A0432022C3F80C25224BA188FF
:108F54002248198001F032FB0028DBD002B0BDE8C2
:108F64001040FDF773BE194B19481D49C01AC008BB
:108F7400000440F00300FDF71FFD4FF0A043202242
:108F8400C3F80825144B4FF6FF721A80C2E700237A
:108F940080888DF8043001A98DF80530FFF798FF1B
:108FA4000028B7D0FDF752FEB4E70B4800231A4659
:108FB40085210088FFF78AFFCEE7074800231A4679
:108FC40019460088FFF786FFC6E700BF50AF0200CE
:108FD40088AF020076B60200BE2A00204835002081
:108FE40080B6020008B503784BB9054B3B211888BD
:108FF400FFF766FF18B1BDE80840FDF727BE08BDBE
:10900400BE2A00202DE9F0410578064645BB154CE3
:10901400154BDFF85880E41AE408240444F00104F2
:10902400B28A95420AD33369134413F8013C0D2BD9
:1090340016D10A20FEF732F91128F9E73369585D91
:10904400FEF72CF9074648B11128F7D002464146ED
:109054002046FDF7B5FC3846FDF7F8FD0135DFE79E
:10906400BDE8F08188AF020050AF02008DB6020067
:109074000D4B4A881B889A4214D10A8840F67723FC
:109084009A420FD18B88094A09480A49033B9BB28B
:109094001380094A801AC00800041A4640F00300ED
:1090A400FDF797BC704700BFBE2A0020BC2A0020F1
:1090B40088AF0200B8B6020050AF0200FDF7C6BD8B
:1090C40008B50849084801F059F908B1FDF7BEFD93
:1090D4000548F72101F066F918B1BDE80840FDF72D
:1090E400B5BD08BD75900200303500207FB541F64E
:1090F4001B03ADF8043041F61C03ADF8083040F210
:109104001943ADF80C3040F26B13ADF8103004A9DC
:109114006C236920ADF81430FFF772FD05A96920AE
:10912400FFF76EFD03A96920FFF76AFD01A9692015
:10913400FFF766FD02A96920FFF762FD07B05DF83D
:1091440004FB000038B50D4C0D4D237803EB4303AD
:1091540005EB830306223B216920FFF795FD217867
:1091640006220C2313FB01232B4443216920FFF720
:109174008BFD23780133237038BD00BFD432002027
:1091840054350020B0F5A27F01D1FFF7DBBF704753
:109194001FB5104A92E8030002AB83E803000E4AAD
:1091A4000E481946FFF74CFC08B1FDF74FFD0C4B78
:1091B4000C48D3F810250121D2B220FA02F2009112
:1091C40002230648FFF7D1FC0448FFF7A7FC05B0CB
:1091D4005DF804FBE4B6020089910200ECB60200DB
:1091E40000900040803801004FF0A043032210217A
:1091F400C3F81027C3F80C15C3F814272022C3F8AA
:1092040008257047F0B5AFB07823674EADF8063047
:10921400FFF7EAFF0C244FF0A04546F00106D5F80D
:109224000435DA4302F0100203F01003C5F80825F0
:109234006427C5F80C354FF47A40B047013FFAD1A2
:10924400013CECD11C211B20FFF7BCFCFFF74EFFB7
:10925400FFF746FDFFF79CFFFDF772FF08B1FDF72E
:10926400F5FCFEF7A1FB08B1FDF7F0FC01F08EFB65
:1092740008B1FDF7EBFC002303A90120039301F0DF
:1092840017FC08B1FDF7E2FC03A801F0D1FC08B11A
:10929400FDF7DCFC112345498DF808300E2202A8A5
:1092A400FFF712FE08B1FDF7D1FC0023ADF8103032
:1092B4000623ADF80C301823ADF80E3003A84FF494
:1092C400C873ADF81230FFF7FDFD08B1FDF7BEFC21
:1092D400FFF7F6FE364B3748039303A901F05CF918
:1092E40008B1FDF7B3FC344B3448029302A901F0F2
:1092F40057FA08B1FDF7AAFCAC22002103A801F03B
:1093040084FD02238DF80C3005238DF80F300123E2
:109314004021ADF858308DF8883042F6E063CDE94D
:109324002513274A274B2848179203A92C9300F0AA
:1093340062FB08B1FDF78AFC2348012100F058FBC9
:109344001422002103A801F060FD4FF470234FF4B0
:109354002032CDE9042303238DF818301B4B0893E6
:1093640003A81B4B099300F005FE08B1FDF76EFC42
:109374001548032100F0BCFB08B1FDF767FC154C50
:10938400154E164DFDF7B6F9FEF724FB23780A2B8C
:10939400F8D1338809480DF10602294601F07AFA1A
:1093A40000232370EEE700BF00B70200D4B602002A
:1093B400F38E02004835002009900200C02A0020E4
:1093C400B82A0020F78E0200D8320020E98F02006C
:1093D400C1900200D4320020BE2A0020543500205F
:1093E4000369C26893429CBF80681B18013B981AAA
:1093F40070472DE9F843D0E902940546A9EB040827
:109404004068904520440F46144404D901F0D4FC2C
:10941400EC60BDE8F8834246A4EB090401F0CCFCFF
:109424006868224607EB0801F0E72DE9F843C568B0
:109434000646894617464FF000083469B3687068D9
:10944400A54228BFE418013C621B5C1BBC4228BF38
:109454003C46944228BF144649462844224601F01B
:10946400ABFCB3682544AB4208BF00253F1BA044B6
:10947400A144F560E1D14046BDE8F88370B5164BD0
:10948400182400FB04451D4404FB00331646DC6A23
:10949400012C0ED0022C18D0E4B92846FFF7A0FF07
:1094A400864204D832462846FFF7A3FF34462046B6
:1094B40070BD2846FFF794FF8642344628BF044611
:1094C40022462846FFF795FFF1E72846BDE870409D
:1094D400FFF7ABBF0024EAE7CC3500206DDF70470F
:1094E40079DF70477DDF704764DF70472DE9F04F07
:1094F40085B000250E9CBDF83CB0B4F800A00191E5
:10950400074690461E46A9463A884A450DDC45B1B1
:109514002388013BA3EB0A039BB2FF2B3AD806F83E
:109524000A30002005B0BDE8F08F7A6852F82900AF
:10953400039000220DF10B0103A8FFF7D5FF0028CB
:10954400F0D19DF80B20424521D12288002D14BF73
:109554000020022002EB0801014459451ADC3DB900
:10956400013292B2019B2280B354228801322280BC
:1095740022880DF10B01324403A8FFF7B5FF002840
:10958400D0D121889DF80B200A442280012509F1BD
:109594000109B9E70C20C5E72DE9F341089FBDF89F
:1095A40024801546CDE90078022204461E46FFF7C2
:1095B4009DFF50B93346102229462046CDE908784C
:1095C40002B0BDE8F041FFF791BF02B0BDE8F08101
:1095D4002DE9F04F00231788138090F82D3085B0C3
:1095E40006460D4614465BB3082F01D80C2028E12B
:1095F40002A8FFF773FF002840F023812388DDF8D9
:1096040009100822EA54238801339BB21B222380C9
:10961400EA54238801339BB2EA182380E950BDF849
:109624000D30938023889DF8082006339BB212F0F6
:10963400FE0218BF01222380EA54238801332380C9
:10964400B378FBB123880433BB42CFD802A8FFF719
:1096540047FF002840F0F58023880322EA5423883A
:1096640001339BB219222380EA542388BDF80820D1
:1096740001339BB2E9182380EA54120A4A70238802
:1096840002332380F2789AB12388D91CB942ADD829
:109694000221E954238801339BB201212380E95438
:1096A40023880B449BB22380EA5423880B442380F1
:1096B4007268AAB12388D91CB94297D8022192F9B9
:1096C4000020E954238801339BB20A212380E95402
:1096D400238801339BB22380EA54238801332380F7
:1096E4003389002B40F0A180338A5BB1CDE9004778
:1096F4002B460722032106F11000FFF74DFF002837
:1097040040F09F80338B5BB1CDE900472B46152297
:10971400142106F11800FFF73FFF002840F0918064
:10972400326A002A40F09080D6F82480B8F1000F05
:1097340030D0B8F804302188981C8A1C0244BA42FC
:109744003FF654AFFE283FF651AF03336B542388E2
:1097540001339BB2FF222380EA54238801339BB256
:109764002380B8F80020EA54E918120A4A702088C5
:10977400023080B22080B8F804205AB1D8F808101A
:1097840000296BD0284401F017FB2388B8F8042083
:109794001344238096F82C30002B40F098803078C6
:1097A40000284ED03388012B58D0228802F1020CB5
:1097B400BC453FF61BAF012805D17378023313442F
:1097C4009F42FFF413AF023FBF1ABFB202A905EBD9
:1097D4000C00ADF80870FFF785FE90BB3178BDF83A
:1097E4000830022900F0B98072789A4202D39F426D
:1097F40080F0B180012940F0B280974293B2C0F06A
:10980400AE80ADF808300821BDF80830FE2B3FF6D5
:10981400EDAE22880133AB542288013292B2228009
:10982400A9542288134423800BE0CDE900472B463A
:109834000622022106F10800FFF7AEFE00283FF4DD
:1098440053AF05B0BDE8F08FB4F800C00CF10603C7
:10985400BB423FF6CBAE1188052901D80720F0E7BB
:109864006FF4486E01EB0E039BB24FF27D3E7345DD
:10987400F4D95388052BF1D96FF44860181880B2D5
:109884007045EBD94FF6FF70814201D09942E5D87B
:10989400052305F80C30238801339BB21221238061
:1098A400E954238801339BB223801188E954E818D2
:1098B400090A4170238802339BB223805288EA54F8
:1098C400E918120A4A702388023323802CE7B36A0A
:1098D400002BC3D04FF000084FF00C0A4FF0160BCA
:1098E400B16A5FFA88F20AFB02F201EB0209B9F8E5
:1098F4000430981CFE283FF679AE208803332B549D
:10990400238801339BB2238005F803B023880133F5
:109914009BB223808A5AEA54E918120A4A702088B2
:10992400023080B22080B9F804205AB1D9F8081066
:10993400002993D0284401F03FFA2388B9F8042081
:109944001344238096F82C2008F101085FFA88F369
:109954009A42C5D823E7092156E79F42FBD2ADF8C6
:10996400087050E770B5C0B14AB116880024B442FB
:1099740003D305196D789D4208D0A14201D8002077
:109984000BE0055D01352C44A4B2F0E7A142F6D901
:10999400A31C1380005D013880B270BD13B513465B
:1099A4000022ADF806200DF106020446FFF7DAFFA7
:1099B40010B1BDF80630E01802B010BD72DF704778
:1099C40073DF704738B5012204460D46B0F83812EB
:1099D400D0F83402FFF7E2FF00B1057004F13C0255
:1099E40004F50D7104F15400BDE83840FFF7E6BFFB
:1099F40080F830107047F8B504460F46002973D03C
:109A0400002871D091F87A301BB191F89830002B6E
:109A14006CD1D7F8A030042B68D0D7F89C30042B35
:109A240064D04FF0000C84F802C007F178060FCE22
:109A3400251D0FC50FCE0FC596E8070085E8070062
:109A440084F830C0D7F8A4306363D7F8A830A36390
:109A540004F50D724FF6FF73C4F84AC2A4F84832F5
:109A6400C4F84422C4F84DC222780AB984F85430A8
:109A740094F82430002B14BFEE231F2304F1550166
:109A8400C4F83412A4F8383204F50E723846FFF7DD
:109A94009FFD40BB94F82430002B14BFEE231F23FA
:109AA40004F24311C4F83C12A4F8403204F51072D5
:109AB40007F13C00FFF78CFDA8B9A369A4F848306E
:109AC4004FF480730125A4F8503063692064014683
:109AD40084F83C50636404F13C0204F15400FFF741
:109AE4006DFF00B92570F8BD0E20FCE70720FAE7EA
:109AF400F8B5067804460D46002E00F003810023D5
:109B0400C0F84A32C0F84D32C388817000F24A2747
:109B14000BB1012903D0E37943B1022D06D1636B64
:109B2400A3B1012284F851220820984704F24B2261
:109B340004F2512112F8013B5BB99142FAD16A1E39
:109B4400032A4FD8DFE802F0070D111484F85132CC
:109B5400ECE73346F3E7A2791AB194F8242002B96A
:109B64005BB9E2790AB1002B3ED1237A002B3DD1B7
:109B7400637A002B0CBF00250425636BA570002BB2
:109B840036D0033D012D33D862798AB394F852223A
:109B940072BB84F85422012284F853220720984788
:109BA40004F13C0518220021284601F02EF9E26A4E
:109BB4000123511E994284F83C3098BFD3B284F8F3
:109BC400513094F8243088BF00261BB1A6B1A26A94
:109BD40084F85220A278042A1ED8DFE802F07A0F13
:109BE40025385C000025C8E70225C6E70325C4E73D
:109BF400002384F85332D3E70122E9E7012384F8F0
:109C040031300023C4E91073C4F84432022384F8C9
:109C14003C308023A4F84830A378002B5DD1636BDB
:109C2400002B6BD1002068E0002B14BF0723032313
:109C340084F83C302369A4F8483000230222C4F895
:109C44004432E36884F8312027646364E4E762699A
:109C54006264A269A4F8482013B1062384F83C3056
:109C64006379B3B194F852329BB994F8543283B106
:109C7400022384F8503004212046FFF7A3FE002875
:109C8400CAD1052384F8313004F50D73C4F8443285
:109C9400C2E70323F6E7E2696264226AA4F8482073
:109CA40013B1062384F83C30637983B194F85232BB
:109CB4006BB994F8543253B1022384F85030042120
:109CC4002046FFF77FFE0028A6D10623DAE7042307
:109CD400D8E7002384F831309EE7D4F844122A46AA
:109CE40004F15400FFF76AFE38B994F8301094F880
:109CF4005400FFF765FE002891D0F8BD94F83100B8
:109D040098478FE70820F8E70388112B10B50C4615
:109D14000AD0262B1FD0102B05D1C37B012B02D1D7
:109D24008388A1F8483210BD0022838881F852222A
:109D3400B1F848229A42F6D10B79002BF3D10121D4
:109D44002046FFF7D5FE0028EDD0A36B002BEAD008
:109D5400BDE810401847037A013B012BE3D889780A
:109D640005230131B1FBF3F303EB8303C91AC9B231
:109D7400E6E7704775DF704776DF70477ADF704734
:109D84007BDF7047034B1A8882420CBF18460020C1
:109D9400704700BF60360020024B9B6903B118472F
:109DA400704700BF4436002073B585B22846FFF7DC
:109DB400E9FF044638B3174E027A337B9A420CD239
:109DC40000F10A012846FFF7D5FFF0B111281AD097
:109DD40002B0BDE87040FFF7DFBF00230372337C9D
:109DE40043B13B212846FFF7C7FF30F0080301D0F9
:109DF400FFF7D2FF736933B100228DF80420ADF868
:109E0400065001A8984702B070BD237A013323722B
:109E1400F9E700BF4436002037B50B46497A0F4AAC
:109E240079B9D2E901141D7A0246002D18BF2146E2
:109E34005868FDF7C7F978B103B0BDE83040FFF7C3
:109E4400ABBF00211972536933B10122ADF806008A
:109E54008DF8042001A8984703B030BD4436002093
:109E64004B8802889A4212D842889A420FD380883B
:109E74008B8840F2F311884294BF021A421A9A4224
:109E840005D80844984234BF0020012070470020C0
:109E9400704700000388122B70B5014659D004D8CE
:109EA400102B1ED0112B44D070BD502BFCD12F4B46
:109EB400C288DB899A42F7D1038A022BF4D18688BF
:109EC4003046FFF75FFF05460028EDD001F1120090
:109ED40000F063F938BB6868FDF7BCF90028E3D0EB
:109EE40009E0C37B012BDFD14FF6FF70FFF74AFF78
:109EF400054620B90420BDE87040FFF74DBF1C4A59
:109F04008E880680002303721368C0F80A305368F1
:109F1400C0F80E3010310A30FFF7A2FF134B6872FD
:109F2400DB89002BC0D129463046BDE87040FFF7DD
:109F340073BF8088FFF726FF04460028B4D040682A
:109F4400FDF788F908B1FFF727FF4FF6FF73238069
:109F5400AAE786883046FFF715FF05460028A3D0F8
:109F640008310A30FFF77CFF6872DCE744360020D2
:109F740074360020F8B5064648B305460FCD154F94
:109F84003C460FC495E8070084E807003068124C8B
:109F94003C60B0B1FFF7F2FEC0B9326813682360C9
:109FA400536863600D480E4A4FF6FF7303800D4BF0
:109FB40040F8043F0021FDF7F3F8002818BF032000
:109FC40004E02046FFF7DCFE0028EBD0F8BD0E20AD
:109FD400FCE700BF443600207436002060360020C1
:109FE400AD9D02007C36002073B50191019C0646AC
:109FF4006CB100252C46294601A8FDF7C4F918B117
:10A0040006EB440301349D800135142DF3D1304611
:10A01400346002B070BD00002DE9F04703888488E5
:10A02400112B8CB005463DD01A2B42D0102B19D1E0
:10A03400DFF8C080D8F80830DB430093D8F8041068
:10A044006846FDF7CCF9009901A8FFF7CDFF0DF1A3
:10A0540008090027019B9F4207D3132C12D904201F
:10A06400FCF7F4FD0CB0BDE8F08739F802AB00262C
:10A074000136514608EB8600FDF77BF91D2EF7D11A
:10A084000137E7E716482146FDF76AF915482146E6
:10A09400FDF766F9EB7B012BE4D013482146FDF76D
:10A0A4005FF9DFE70E4821460CB0BDE8F047FDF745
:10A0B40060B9037A0D481F2B4FEA131521460AD9BC
:10A0C400FDF74EF9022D0A482146EDD00CB0BDE84B
:10A0D400F047FDF745B9FDF74CF905482146E3E79C
:10A0E400A4360020A0360020A8360020AC3600207C
:10A0F400B03600209C3600201328014602D80248BE
:10A10400FDF741B900207047A036002010B5044681
:10A11400FFF7F2FF002814BF2046142010BD70B5CD
:10A124000546164608460AB90E2070BD0023136082
:10A13400002DF9D02B68002BF6D0EB8813F0030424
:10A144000ED1FFF7E3FFC0B214280BD02B79834262
:10A154000AD9EA882B6800FB023030602046E4E725
:10A164000720E2E70520E0E70420DEE7AADF7047E6
:10A17400002301380B70042806D8DFE800F003063A
:10A18400080A0C0011230B7070472123FBE73123CD
:10A19400F9E71223F7E72223F5E7008800F001002E
:10A1A4007047F0B58B7891B00C46012B38BF012372
:10A1B40000278DF80E3005460B88607CADF80C3016
:10A1C4006946ADF800708DF80270FFF7D1FFA07CEE
:10A1D4000DF10101FFF7CCFF1646237BE27B217DC5
:10A1E40043EAC203227C43EA02139DF80220B942E7
:10A1F40022F0190203F0190314BF022101211343B1
:10A2040061F342031C22394609A88DF8023000F09C
:10A21400FCFD637B13F0300F14D00DF10901E07CD9
:10A22400ADF808708DF80A70FFF7A2FF11238DF8BE
:10A2340008309DF80A30012102AA61F342038DF827
:10A244000A300E92637B8DF82430A37B8DF8253081
:10A254000023CDE90633089303AB0493A388ADF838
:10A264001C30A368CDF814D01BB1E288ADF81820D7
:10A274000893A36973B301A90022ADF804208A707E
:10A284001A88ADF82C205A88ADF82E205A680D9102
:10A29400187B0A92FFF76CFFA3690DF10501587B47
:10A2A400FFF766FFA3699A7A197A41EAC201DA7A5A
:10A2B4009B7B41EA02119DF80620002B01F0190155
:10A2C40022F0190214BF02230123114363F3420154
:10A2D4008DF80610E36903B10C93334604AA09A967
:10A2E4002846FFF743FF11B0F0BD90DF7047A5DFAC
:10A2F4007047B5DF704700007FB50023ADF8081044
:10A30400ADF80A106A4602A90646ADF80C30ADF85D
:10A314000E300093ADF80430FFF7E7FF054600B3B5
:10A32400114B124CE41AE408FDF7B0FB240444F08A
:10A33400010403460E4932462046FCF74AFBBDF8A9
:10A344000020BDF8023052EA030103D00949204637
:10A35400FCF73FFBBDF804201AB107492046FCF77F
:10A364002FFB284604B070BD50AF0200A0AF02001E
:10A3740006B7020050B702008FB7020080B14FF059
:10A38400F7130360FB230371F723C38017230381AF
:10A3940041F6FB32002301614381828118467047F4
:10A3A4000E20704730B1A1F11703E02B04D80180CF
:10A3B400002070470E2070470720704713B50346EE
:10A3C40080880C46B8B91A88242A00F09C8014D8D6
:10A3D400112A74D0232A00F0A780102A3ED0A37A31
:10A3E4004BB1E1880020FFF782FF002840F0A280F3
:10A3F4004FF48073638102B010BD3A2A68D0552AA5
:10A40400EDD1DB88C988A072172B38BF17238B4284
:10A4140028BF0B462381FFF76CFF60B1FDF736FBC5
:10A424004E4B4F4902464F481B1ADB081B0443F0AE
:10A434000100FCF7C5FAE27A002AD0D12369002B87
:10A44400CDD040F67721ADF802202289ADF8001076
:10A45400ADF80420694620469847C0E7DB7B0A79BB
:10A464000A73012B13D0022B14D0E18823898B4269
:10A4740005D20020FFF73BFF70B90123E372217B73
:10A48400637B8B42ABD20020FFF736FFA7E70B8834
:10A49400E380EAE74B88FBE7112802D10123A3728A
:10A4A400EDE7FDF7F3FA2D4B2F4902462D481B1A11
:10A4B400DB081B0443F00100FCF782FADFE7F72313
:10A4C400CB8017230B8141F6FB3348818B8186E7D0
:10A4D4005B89CA88934228BF1346172B0A6938BF81
:10A4E40017230B8162B1C97A51B140F67721ADF8D7
:10A4F4000010ADF80200ADF80430694620469047DC
:10A50400002363816BE71A7A0B694A73002B3FF4CB
:10A5140066AF4DF67A218DF80500ADF80010ADF860
:10A5240002008DF8042095E7197A237B994228BF0D
:10A534001946A9E711283FF45EAFFDF7A7FA074BC8
:10A544000949024607481B1ADB081B0443F00100B3
:10A5540002B0BDE81040FCF733BA00BFA0AF020060
:10A5640016B8020050AF0200E5B70200B0DF704732
:10A5740066DF704710B5002104464088FFF7F8FFF6
:10A58400034608B9237210BD112801D10123F9E74C
:10A594006368BDE81040184760B159B10378DE2BF9
:10A5A4000AD00B684360DE2303704FF6FF734380C9
:10A5B400002070470E2070470820704728B10378A8
:10A5C400DE2B04D14180002070470E207047082004
:10A5D4007047F0B5054685B00C46002942D00028E6
:10A5E40040D00B78DE2B3DD182884B889A4204D12F
:10A5F4000B7A13B10846FFF7BDFF2B88112B33D01C
:10A60400512B0FD0012B2DD12B7A012B2AD1A988C4
:10A614006288914226D12046237205B0BDE8F040FD
:10A62400FFF7A8BFAE886388B3421BD1AF79022F6E
:10A6340018D1AD7B2B1F022B14D8002110226846A1
:10A6440000F0E3FB052D18BF4FF4C0736946304694
:10A6540018BFADF804308DF80070FFF787FF08B11C
:10A664006368984705B0F0BD6388AA889A4204BF1E
:10A674004FF6FF736380F5E7A8DF7047ADDF7047DF
:10A68400AEDF704762DF704770B505468AB00C468E
:10A6940000295ED000285CD00388502B33D0572B80
:10A6A4006BD0102B55D181886069002601AA0196D0
:10A6B400FFF735FD0223218AA888ADF80A6002AAB3
:10A6C400CDF80CD0ADF80830FFF7D8FF002840D102
:10A6D400A369002B3DD00398FFF75FFD002838D015
:10A6E400019E0EB1012333701822002104A800F04A
:10A6F4008CFB02238DF81030AB88ADF8183005942C
:10A70400A369079623E08188606902AAFFF707FD21
:10A714001822002104A800F078FBAB882189ADF849
:10A724001830EB88029A05949942079218D12E8A20
:10A73400022E15D16AB105F11200FFF72EFD029B1E
:10A7440048B101221A708DF81060A3690BB104A8F6
:10A7540098470AB070BD187003238DF81030F4E7E1
:10A76400A2899A42F5D1A369002BF2D005F1120215
:10A7740008922A8AADF82420E9E78188606902AA50
:10A78400FFF7CDFC01460028E3D1029E3378002B6D
:10A79400DFD0182204A800F038FB0123AAE7000048
:10A7A400F0B53A4B8FB002AD04460A4603F1100CE3
:10A7B4002F46186859682E4603C608336345354644
:10A7C400F7D1002C5FD0002A5DD01368A361214625
:10A7D4003846FFF757FF002853D12246012512F8C7
:10A7E400023B8DF8063001A92846ADF80450FFF766
:10A7F40043FF002845D10146202206A800F005FBAE
:10A8040022460223ADF8183012F80C3B8DF81A30AA
:10A81400BDF824301E4E6088079623F44F6323F05E
:10A824000F0343F440632B4306A9ADF824308DF89D
:10A8340029508DF82A50FFF7B4FC10BB01462022A2
:10A8440006A800F0E2FA22460323ADF8183012F805
:10A85400043B8DF81A30BDF824306088079623F441
:10A86400875323F01F0343F480532B43ADF8243064
:10A8740006A940F201138DF82950ADF82A30FFF7EC
:10A8840090FC0FB0F0BD0E20FBE700BF5AB80200E9
:10A89400F4000100F0B50F4687B016461C46054685
:10A8A40010B3406901AA1946FFF739FCD0B94FF635
:10A8B400FF739C421AD0019BC3B11B78C3B1338888
:10A8C400F42B17D8AB88CDF80B008DF80F00ADF83A
:10A8D400083002A901232046CDE904678DF80A3027
:10A8E400FFF7CEFE07B0F0BD0E20FBE70520F9E729
:10A8F4000820F7E70720F5E710DF704713B5044693
:10A9040009496846FDF78EF8019808B902B010BDF0
:10A91400D0E900212046904718B16846FDF78CF82D
:10A92400F2E71120F2E700BF78B8020013B504463D
:10A9340007496846FDF776F8019B0BB902B010BDD4
:10A944002046D3E9002190476846FDF775F8F3E700
:10A9540090B802000B4991F816335A09EC231341BD
:10A96400DB0706D5084B9A683AB94FF480030B60AD
:10A97400704742F20200FCF769B91A6842F4800297
:10A984001A60704700E100E068310020F7B5194F04
:10A994003C7864BB184E012520463570FFF7AEFFA6
:10A9A400112821D02046FFF7C1FF144B8DF8034036
:10A9B400186801900DF10300FCF798FC104901A8F8
:10A9C400FFF79AFF0446B0FA80F0400938709DF80A
:10A9D4000300FCF7AFFC3CB90A4B34701C70FFF762
:10A9E400B9FF2846FFF7A2FF204603B0F0BD0824B4
:10A9F400FAE700BF153700201437002072B80200B0
:10AA04006D6C020016370020014B1878704700BFA8
:10AA14001537002007B508496846FDF703F8019B80
:10AA240013B903B05DF804FBD3E9002090476846EE
:10AA3400FDF702F8F3E700BF84B80200FFF7EABFAE
:10AA440060DF704769DF704761DF704730B5134DD1
:10AA5400ADF5017D4FF4FA740DF1020103A8ADF8D0
:10AA64000240FFF7F1FF70B9294601A8FCF7DAFFAD
:10AA7400029B002BF0D003A8D3E90021904701A842
:10AA8400FCF7DAFFF4E7052805D00DF5017DBDE8F4
:10AA94003040FCF7DBB80DF5017D30BD18BB02007A
:10AAA400024B1B780BB1FFF7D1BF7047173700205B
:10AAB40030B5054685B00C46002900F0A48000237B
:10AAC400CDE90133514A039301230A608DF8040050
:10AAD4008DF8063001A906232020ADF80830FFF7D1
:10AAE400B1FF60B1FCF7D2FF494B4A4902464A48DC
:10AAF4001B1ADB081B0443F00100FBF761FF002372
:10AB0400CDE9013303932268012301A940208DF884
:10AB14000530FFF797FF60B1FCF7B8FF3C4B3F49A6
:10AB240002463D481B1ADB081B0443F00100FBF7F7
:10AB340047FF0023CDE90133039322688DF80450C5
:10AB4400F72301A92320ADF80630FFF77BFF60B19E
:10AB5400FCF79CFF2E4B324902462F481B1ADB0898
:10AB64001B0443F00100FBF72BFF002301202268A4
:10AB7400039301A9CDE901338DF80400FFF762FFC7
:10AB840060B1FCF783FF224B2649024622481B1A78
:10AB9400DB081B0443F00100FBF712FF0023CDE99F
:10ABA400023322684FF4B06301A9A1200193FFF797
:10ABB40049FF60B1FCF76AFF154B1B490246164872
:10ABC4001B1ADB081B0443F00100FBF7F9FE002508
:10ABD4002268039501A9A020CDE90155FFF732FFB2
:10ABE400034668B1FCF752FF094B104902460A4874
:10ABF4001B1ADB081B0443F00100FBF7E1FE2B46A4
:10AC0400184605B030BD0E23FAE700BF982A00208D
:10AC1400B0AF02009CB8020050AF0200E2B80200DC
:10AC24002EB9020075B90200C1B9020012BA0200BD
:10AC340073B505460668FFF703FF2B68B342044665
:10AC44001DD91A481A4B1B491B1ADB081B0443F075
:10AC540002000190FBF7B0FE2B68174901983246B9
:10AC6400FBF7B7FE4FF080532A68D3F80C31134931
:10AC740001989B0203F100539A1AFBF7A1FE2CB929
:10AC84000F4B01221A70204602B070BD2046FCF71B
:10AC9400FDFE074B0B49024604481B1ADB081B0444
:10ACA40043F00100FBF78CFEEDE700BF50AF02005C
:10ACB400B0AF020065BA020094BA0200C5BA02003D
:10ACC40017370020EFBA02004BDF70471FB50E4C58
:10ACD40001A8FFF7F9FF70B9214602A8FCF7A2FE0C
:10ACE400039B002BF4D00198D3E90021904702A8DC
:10ACF400FCF7A2FEF4E7052804D004B0BDE8104038
:10AD0400FBF7A4BF04B010BD30BB02007F2805D8F8
:10AD1400034A044B105C5B5C18407047002070478A
:10AD240048BB0200C8BB0200A0F16103192B98BF05
:10AD340020387047A0F14103192B98BF2030704789
:10AD44007F299ABF017001206FF02E00704700BF69
:10AD54005AB10A787F2A0AD800B102600021501A39
:10AD6400C3E9001118BF01207047104670476FF007
:10AD74002E007047A0F16103192B98BF203870474B
:10AD8400A0F14103192B98BF203070477F2805D8C4
:10AD9400034A044B105C5B5C18407047002070470A
:10ADA40048BB0200C8BB0200024B5B689B680921D8
:10ADB4001B681847E42A0020844640EA010313F084
:10ADC400030F18D18446202A0BD32DE9F007B1E8EC
:10ADD400F807A0E8F807A2F12002202AF7D2BDE87C
:10ADE400F007042A07D351F8043B40F8043BA2F1CE
:10ADF4000402042AF7D2002A05D011F8013B00F816
:10AE0400013B013AF9D1604670478446002A2DD0AF
:10AE140010F0030F04D000F8011B013A26D0F7E725
:10AE2400C9B241EA012141EA0141202A12D3A2F127
:10AE340020022DE9F0030B460C460D460E460F4644
:10AE440088468946A0E8FA03203AFBD2BDE8F0031D
:10AE540020320BD0042A05D340F8041B043A05D051
:10AE6400042AF9D200F8011B013AFBD1604670476D
:10AE740000F1010110F0030F11D010F8012B002A8A
:10AE840023D010F0030F0AD010F8012B002A1CD095
:10AE940010F0030F03D010F8012B002A15D02DE970
:10AEA40070004FF001324FF0803350F8044BA4EBA4
:10AEB400020525EA04051D4000D1F6E7A0F10400CF
:10AEC40070BC10F8012B002AFBD1A0EB01007047E5
:10AED400A17D020000000000779D0200D83200200E
:10AEE4001DA0020000000000458E020000000000CA
:10AEF4000D9D0200D8320020C1A30200303500208D
:10AF0400999E020000000000D7A5020048350020E9
:10AF14008DA60200C02A0020018F0200000000005C
:10AF2400A5AA020000000000D1AC0200000000004D
:08AF3400217E02000000000074
:10AF3C003C2B0020042C00200C2C0020442B002047
:04AF4C0018000000E9
:10AF50002AB602000000000030B602000000000027
:10AF600037B602000000000056B6020000000000E4
:10AF700046B60200000000003BB6020000000000E0
:10AF800040B602000000000015B0020000000303FC
:10AF900052B802000000000024B6020000000000C9
:10AFA00045B80200000003036AB802000000030372
:10AFB0000CBB02000000030324BB020000000303DB
:08AFC00016B1020000000000C0
:10AFC800E8AF020000000000F4AF0200982A002059
:10AFD80000000000000000000338FDD870470000A2
:10AFE800D963020045640200D56302007274745F7D
:10AFF8006C6F675F6261636B656E64004261636B6F
:10B00800656E647320666C75736865640061707042
:10B01800001B5B313B33316D0025734C6F67732028
:10B0280064726F70706564202825642925730D0A81
:10B03800001B5B306D002573003C25733E20257393
:10B048003A2000202530327800202020007C00257E
:10B0580063001B5B313B33306D001B5B313B33328C
:10B068006D001B5B313B33336D001B5B313B33346D
:10B078006D001B5B313B33356D001B5B313B333659
:10B088006D001B5B313B33376D007761726E696E03
:10B098006700696E666F006465627567000000008E
:10B0A80039B002005AB0020019B0020062B00200C2
:10B0B8006AB0020072B002007AB0020082B00200E8
:10B0C8008AB0020000000000E6B0020092B0020060
:10B0D8009AB002009FB00200466174616C206572EC
:10B0E800726F720053797374656D2072657365743D
:10B0F80000000000000000000338FDD87047303120
:10B10800323334353637383941424344454670770F
:10B11800725F6D676D74000024AF020024AF0200F7
:10B12800040000004E52465F5355434345535300B5
:10B138004E52465F4552524F525F5356435F484105
:10B148004E444C45525F4D495353494E47004E5269
:10B15800465F4552524F525F534F465444455649F5
:10B1680043455F4E4F545F454E41424C4544004E67
:10B1780052465F4552524F525F494E5445524E41D6
:10B188004C004E52465F4552524F525F4E4F5F4DF4
:10B19800454D004E52465F4552524F525F4E4F54F6
:10B1A8005F464F554E44004E52465F4552524F52ED
:10B1B8005F4E4F545F535550504F52544544004EC4
:10B1C80052465F4552524F525F494E56414C494490
:10B1D8005F504152414D004E52465F4552524F52C8
:10B1E8005F494E56414C49445F5354415445004EC3
:10B1F80052465F4552524F525F494E56414C494460
:10B208005F4C454E475448004E52465F4552524F98
:10B21800525F494E56414C49445F464C41475300A2
:10B228004E52465F4552524F525F494E56414C4925
:10B23800445F44415441004E52465F4552524F527A
:10B248005F444154415F53495A45004E52465F4559
:10B2580052524F525F54494D454F5554004E524635
:10B268005F4552524F525F4E554C4C004E52465F0E
:10B278004552524F525F464F5242494444454E0050
:10B288004E52465F4552524F525F494E56414C49C5
:10B29800445F41444452004E52465F4552524F5219
:10B2A8005F42555359004E52465F4552524F525FC6
:10B2B800434F4E4E5F434F554E54004E52465F45E6
:10B2C80052524F525F5245534F5552434553004EC9
:10B2D80052465F4552524F525F4D4F44554C455F61
:10B2E8004E4F545F494E495449414C495A454400D0
:10B2F8004E52465F4552524F525F4D555445585F26
:10B30800494E49545F4641494C4544004E52465FB8
:10B318004552524F525F4D555445585F4C4F434B21
:10B328005F4641494C4544004E52465F4552524F94
:10B33800525F4D555445585F554E4C4F434B5F46F1
:10B3480041494C4544004E52465F4552524F525F68
:10B358004D555445585F434F4E445F494E49545FDD
:10B368004641494C4544004E52465F4552524F5261
:10B378005F4D4F44554C455F414C52454144595FE0
:10B38800494E495449414C495A4544004E52465F3A
:10B398004552524F525F53544F524147455F4655AD
:10B3A8004C4C004E52465F4552524F525F415049F5
:10B3B8005F4E4F545F494D504C454D454E544544A2
:10B3C800004E52465F4552524F525F4645415455D2
:10B3D80052455F4E4F545F454E41424C4544004EE6
:10B3E80052465F4552524F525F494F5F50454E4457
:10B3F800494E47004E52465F4552524F525F4452A3
:10B40800565F5457495F4552525F4F564552525501
:10B418004E004E52465F4552524F525F4452565F5D
:10B428005457495F4552525F414E41434B004E527B
:10B43800465F4552524F525F4452565F5457495FD8
:10B448004552525F444E41434B004E52465F45526F
:10B45800524F525F424C455F495053505F52585FBC
:10B46800504B545F5452554E4341544544004E523C
:10B47800465F4552524F525F424C455F49505350C8
:10B488005F4348414E4E454C5F414C5245414459FB
:10B498005F455849535453004E52465F4552524FE8
:10B4A800525F424C455F495053505F4C494E4B5F89
:10B4B800444953434F4E4E4543544544004E52462B
:10B4C8005F4552524F525F424C455F495053505F5F
:10B4D800504545525F52454A454354454400556ED0
:10B4E8006B6E6F776E206572726F7220636F646522
:10B4F80000000000000000002CB102000100000064
:10B5080038B102000200000056B10200030000003A
:10B5180077B10200040000008AB1020005000000B3
:10B528009BB1020006000000AFB102000700000056
:10B53800C7B1020008000000DFB1020009000000E6
:10B54800F7B102000A00000010B202000B00000070
:10B5580028B202000C0000003FB202000D000000FB
:10B5680053B202000E00000065B202000F00000096
:10B5780074B202001000000088B20200110000003E
:10B588009FB2020012000000AEB2020013000000D9
:10B59800C3B2020080000000D7B2020081000000A0
:10B5A800F8B202008200000014B302008300000019
:10B5B80030B30200840000004EB302008500000092
:10B5C8006FB302008600000094B3020090000000F0
:10B5D800ABB3020091000000C9B302009200000062
:10B5E800E7B3020000820000FCB302000182000001
:10B5F8001AB402000282000036B40200008400007F
:10B6080052B402000184000076B4020002840000F3
:10B61800A0B4020003840000C5B40200636C6F6329
:10B628006B00434C4F434B004750494F5445005023
:10B6380052530055415254005541525445005457F5
:10B6480049000000000000000338FDD87047544945
:10B658004D4552000000000000300040000000008E
:10B6680000000000000000000338FDD87047436F59
:10B678006E6E656374656400446973636F6E6E65AE
:10B6880063746564004661696C656420726563650E
:10B698006976696E67204E5553206D6573736167CF
:10B6A800652E204572726F7220307825782E200022
:10B6B80044617461206C656E206973207365742021
:10B6C800746F203078255828256429006B656E35FD
:10B6D80031386368656E5F424C450000040003061C
:10B6E800000000000090004001040000000000007D
:10B6F80000000000000000000338FDD870477364A4
:10B708005F626C655F6761705F646174615F6C65DF
:10B718006E6774685F757064617465282920287283
:10B7280065717565737429206F6E20636F6E6E6521
:10B738006374696F6E20307825782072657475722D
:10B748006E65642025732E005468652072657175D6
:10B7580065737465642054582F5258207061636B68
:10B768006574206C656E67746820697320746F6FE8
:10B77800206C6F6E672062792025752F2575206FE4
:10B7880063746574732E00546865207265717565FD
:10B798007374656420636F6D62696E6174696F6E3E
:10B7A800206F6620545820616E64205258207061C2
:10B7B800636B6574206C656E6774687320697320A9
:10B7C800746F6F206C6F6E67206279202575206D0D
:10B7D8006963726F7365636F6E64732E0073645F61
:10B7E800626C655F67617474635F65786368616ED6
:10B7F80067655F6D74755F72657175657374282907
:10B808002072657475726E65642025732E007364EA
:10B818005F626C655F67617474735F6578636861A4
:10B828006E67655F6D74755F7265706C7928292025
:10B8380072657475726E65642025732E006E72666B
:10B848005F626C655F6761747400626C655F6E75DA
:10B8580073009ECADC240EE5A9E093F3A3B50000AB
:10B86800406E6E72665F736468000010000100002D
:10B8780034AF020034AF02000800000024AF020019
:10B8880034AF02000800000034AF02003CAF0200F1
:10B898000800000073645F626C655F6366675F73CE
:10B8A800657428292072657475726E656420257325
:10B8B800207768656E20617474656D7074696E6751
:10B8C80020746F2073657420424C455F434F4E4E81
:10B8D8005F4346475F4741502E0073645F626C6563
:10B8E8005F6366675F736574282920726574757273
:10B8F8006E6564202573207768656E2061747465B1
:10B908006D7074696E6720746F2073657420424C83
:10B91800455F4741505F4346475F524F4C455F4341
:10B928004F554E542E0073645F626C655F636667A3
:10B938005F73657428292072657475726E6564205A
:10B948002573207768656E20617474656D707469FD
:10B958006E6720746F2073657420424C455F434FB7
:10B968004E4E5F4346475F474154542E0073645F11
:10B97800626C655F6366675F73657428292072650A
:10B988007475726E6564202573207768656E206112
:10B998007474656D7074696E6720746F2073657454
:10B9A80020424C455F434F4D4D4F4E5F4346475FE6
:10B9B80056535F555549442E0073645F626C655F4A
:10B9C8006366675F73657428292072657475726E83
:10B9D8006564202573207768656E20617474656DD1
:10B9E8007074696E6720746F2073657420424C45CB
:10B9F8005F47415454535F4346475F415454525F35
:10BA08005441425F53495A452E0073645F626C6526
:10BA18005F6366675F736574282920726574757241
:10BA28006E6564202573207768656E20617474657F
:10BA38006D7074696E6720746F2073657420424C52
:10BA4800455F47415454535F4346475F53455256F9
:10BA58004943455F4348414E4745442E00496E736C
:10BA6800756666696369656E742052414D20616C24
:10BA78006C6F636174656420666F722074686520FA
:10BA8800536F66744465766963652E004368616E1A
:10BA98006765207468652052414D20737461727423
:10BAA800206C6F636174696F6E2066726F6D2030F1
:10BAB80078257820746F20307825782E004D6178AD
:10BAC800696D756D2052414D2073697A6520666FE6
