:020000040002F8
:10600000B8980020FD6202000563020007630200E9
:10601000096302000B6302000D6302000000000030
:106020000000000000000000000000000F630200FC
:1060300011630200000000001363020015630200F8
:1060400015C402001763020021C802001763020092
:10605000EDC40200176302004DC202001763020084
:106060001763020017630200176302001763020040
:106070001763020017630200176302001763020030
:10608000176302006DC40200176302001763020069
:10609000FDC402001763020001C50200176302007D
:1060A0001763020017630200176302001763020000
:1060B00017630200176302000000000000000000E8
:1060C00017630200176302001763020017630200E0
:1060D000176302001763020017630200000000004C
:1060E00000000000000000000000000000000000B0
:1060F00000000000000000000000000000000000A0
:10610000000000000000000000000000000000008F
:10611000000000000000000000000000000000007F
:10612000000000000000000000000000000000006F
:10613000000000000000000000000000000000005F
:10614000000000000000000000000000000000004F
:10615000000000000000000000000000000000003F
:10616000000000000000000000000000000000002F
:10617000000000000000000000000000000000001F
:10618000000000000000000000000000000000000F
:1061900000000000000000000000000000000000FF
:1061A00000000000000000000000000000000000EF
:1061B00000000000000000000000000000000000DF
:1061C00000000000000000000000000000000000CF
:1061D00000000000000000000000000000000000BF
:1061E00000000000000000000000000000000000AF
:1061F000000000000000000000000000000000009F
:10620000DFF810D005F0E4FF00480047ED2D030053
:10621000AFF30080B898002030B4044654E8000F73
:106220000D4644E80053002BF8D1156030BC704790
:1062300030B4044654E8000F40EA010544E8005336
:10624000002BF7D1156030BC704730B4044654E8D9
:10625000000F00EA010544E80053002BF7D1156058
:1062600030BC704730B4044654E8000F80EA0105A2
:1062700044E80053002BF7D1156030BC704730B4B0
:10628000044654E8000F00EB010544E80053002BDE
:10629000F7D1156030BC704730B4044654E8000FA5
:1062A000A0EB010544E80053002BF7D1156030BC8A
:1062B000704770B404464FF0000054E8006F0D685A
:1062C000AE4207BF44E80023012044E800630E60AB
:1062D000002B1CBF0020F0E770BC704730B40446B0
:1062E00054E8000F88422CBF451A054644E8005385
:1062F000002BF5D1156030BC704700000648804780
:1063000006480047FEE7FEE7FEE7FEE7FEE7FEE79A
:10631000FEE7FEE7FEE7FEE705C5020001620200B8
:10632000FE4880ED3A0A70472DE9F047DFF8EC931C
:1063300000262DED0A8B0446B0EE408AF0EE608A0E
:10634000884635463746D9F8AC0005F05FFD53EC7A
:10635000182B05F0CDFD6FD3D9F8B00005F056FD30
:1063600053EC182B05F0DCFDF5D3B4F90000B4F9BB
:106370000610401A05F04AFD53EC182B05F0B8FD45
:1063800000D20126B4F90E00B4F91410401A05F039
:106390003DFD53EC182B05F0ABFD00D2761CB4F993
:1063A0001C00B4F92210401A05F030FD53EC182BF4
:1063B00005F09EFD00D2761C9FEDD90B012E3BDC33
:1063C00053EC102B51EC180B05F029FC89460646BE
:1063D00049EC180BB4F90000B4F90610401A05F0A6
:1063E00015FD53EC182B05F09BFD00D20125B4F9E7
:1063F0000E00B4F9141049EC186B401A05F006FDB4
:1064000053EC182B05F08CFD00D26D1CB4F91C0068
:10641000B4F9221049EC186B401A05F0F7FC53EC64
:10642000182B05F07DFD00D26D1C002D05DD02202E
:10643000BDEC0A8BBDE8F08765E000269FEDBACB86
:1064400006EB460904EB8905B5F90A0005F0DEFC08
:1064500098ED048B53EC182B05F0DBFB41EC190B8A
:10646000B5F9040005F0D2FC53EC182B05F0D1FB74
:1064700053EC192B05F0D3FB41EC190BB5F90800CF
:1064800005F0C4FC98ED028B53EC182B05F0C1FB12
:1064900041EC1A0BB5F9020005F0B8FC53EC182BCF
:1064A00005F0B7FB53EC1A2B05F0B9FB41EC1A0BC6
:1064B000B5F9060005F0AAFC98ED008B53EC182BFB
:1064C00005F0A7FB41EC1B0B34F9290005F09EFCFD
:1064D00053EC182B05F09DFB53EC1B2B05F09FFB99
:1064E00053EC1A2B05F0F4FA53EC192B05F0F0FAE3
:1064F00053EC1C2B05F0FCFC00D27F1C761C032EF9
:106500009EDB022F01DA012092E7002090E7884904
:106510000A684B68D00180EAD20080EA0310486024
:106520008B68520380EAC30382EA5312520282EA62
:10653000D0208B600860704710B52DED048BF0EE15
:10654000408AFFF7E4FF00EE100AB8EE400ADFEDE4
:10655000790A20EE200A9FED789A20EE090A06F0CB
:1065600047FCB0EE408AFFF7D2FF00EE100AB8EE0B
:10657000400A20EE090AB5EEC00AF1EE10FA01D188
:10658000B7EE000A10EE100A05F09EFC41EC100B6D
:1065900006F0E2FC9FED691B51EC100B53EC112B44
:1065A00005F03DFB05F0D4FC00EE100A06F0BBFF41
:1065B00020EE280A20EE080ABDEC048B10BD2DE960
:1065C000F04105462DED048BB0EE608AF0EE408A76
:1065D0000F4618EE100A05F077FC97ED301B53ECD0
:1065E000112B05F01CFB41EC190B18EE900A05F07D
:1065F0006BFC95ED301B53EC112B05F010FB53ECAD
:10660000192B05F065FA0024C5E9300118EE100ACF
:1066100005F05AFC07EBC40898ED001B53EC112B56
:1066200005F0FDFA41EC190B18EE900A05F04CFC50
:1066300005EBC40696ED001B53EC112B05F0EFFAA9
:1066400053EC192B05F044FAC6E9000118EE100AC4
:1066500005F03AFC98ED241B53EC112B05F0DFFA02
:1066600041EC190B18EE900A05F02EFC96ED241B58
:1066700053EC112B05F0D3FA53EC192B05F028FA43
:10668000641CC6E92401062CC0DB002418EE100AA5
:1066900005F01AFC41EC100B07EBC40090ED121B47
:1066A00051EC100B53EC112B05F0B9FA41EC190B1E
:1066B00018EE900A05F008FC05EBC40696ED121BD7
:1066C00053EC112B05F0ABFA53EC192B05F000FA43
:1066D000641CC6E91201092CD8DB002418EE100A4C
:1066E00005F0F2FB41EC100B07EBC40090ED0C1B26
:1066F00051EC100B53EC112B05F091FA41EC190BF6
:1067000018EE900A05F0E0FB05EBC40696ED0C1BB5
:1067100053EC112B05F083FA14E00000984B002095
:106720000000000000000440000000000000000025
:10673000B8310020DB0FC9400000802F00000000AE
:10674000000000C053EC192B05F0C2F9641CC6E927
:106750000C01032CC2DBBDEC048BBDE8F0812DE9FC
:10676000F04F04462DED068B83B00D46086805F00A
:106770004DFB41EC1A0B686805F048FB41EC190B26
:10678000A86805F043FB41EC180B94ED300B9FED2E
:10679000FE1B51EC100B53EC112B05F099F9C4E9D9
:1067A000300194ED0C0B53EC1A2B51EC100B05F04F
:1067B0008FF9C4E90C0194ED0E0B53EC192B51EC3D
:1067C000100B05F085F9C4E90E0194ED100B53ECA4
:1067D000182B51EC100B05F07BF9C4E9100153ECB8
:1067E0001A2B51EC1A0B05F01AFA029194ED001BCA
:1067F000064653EC112B05F06BF9C4E9000153EC8C
:10680000192B51EC1A0B05F00AFA894649EC100BCA
:1068100094ED021B054653EC112B51EC100B05F0C7
:1068200057F9C4E9020153EC182B51EC1A0B05F08F
:10683000F6F98B464BEC100B94ED041B804653ECA1
:10684000112B51EC100B05F043F9C4E9040153EC92
:10685000192B51EC190B05F0E2F9019194ED061B8F
:10686000074653EC112B05F033F9C4E9060153EC4C
:10687000182B51EC190B05F0D2F9009194ED081B7F
:10688000824653EC112B05F023F9C4E9080153ECBF
:10689000182B51EC180B05F0C2F994ED0A1B53ECC0
:1068A000112B05F015F9C4E90A01029953EC1A2BD2
:1068B00041EC106B51EC100B05F0B1F994ED121B8B
:1068C00053EC112B05F004F949EC105BC4E91201FB
:1068D00053EC192B51EC100B05F0A1F994ED141B9E
:1068E00053EC112B05F0F4F84BEC108BC4E91401B8
:1068F00053EC182B51EC100B05F091F994ED161B8D
:1069000053EC112B05F0E4F849EC105BC4E91601D7
:1069100053EC1A2B51EC100B05F081F994ED181B78
:1069200053EC112B05F0D4F8C4E91801019953EC8C
:10693000192B41EC107B51EC100B05F070F994ED24
:106940001A1B53EC112B05F0C3F8C4E91A01009986
:10695000554641EC10AB0E4653EC182B51EC100B86
:1069600005F05DF994ED1C1B53EC112B05F0B0F80C
:10697000C4E91C0153EC1A2B51EC180B05F04FF92C
:1069800053EC1A2B05F04BF994ED1E1B53EC112B15
:1069900005F09EF846EC105BC4E91E0153EC192B80
:1069A00051EC100B05F03BF994ED201B53EC112B2F
:1069B00005F08EF8C4E9200153EC182B51EC180BAC
:1069C00005F02DF9894649EC100B074653EC182BBE
:1069D00051EC100B05F023F994ED221B53EC112B15
:1069E00005F076F8C4E9220153EC1A2B51EC1A0B8E
:1069F00005F015F9884648EC100B054653EC1A2BA8
:106A000051EC100B05F00BF953EC1A2B05F007F9BC
:106A100094ED241B53EC112B05F05AF8C4E9240122
:106A200053EC192B51EC190B05F0F9F88A464AEC96
:106A3000100B064653EC192B51EC100B05F0EFF838
:106A400053EC192B05F0EBF894ED261B53EC112BAE
:106A500005F03EF849EC107BC4E9260153EC182BF5
:106A600051EC100B05F0DBF853EC182B05F0D7F8C0
:106A700094ED281B53EC112B05F02AF848EC105B21
:106A8000C4E9280153EC192B51EC100B05F0C7F8A1
:106A900053EC192B05F0C3F894ED2A1B53EC112B82
:106AA00005F016F848EC105BC4E92A0153EC182BEA
:106AB00051EC100B05F0B3F853EC182B05F0AFF8C0
:106AC00094ED2C1B53EC112B05F002F84AEC106BE3
:106AD000C4E92C0153EC182B51EC100B05F09FF876
:106AE00053EC182B05F09BF894ED2E1B53EC112B57
:106AF00004F0EEFFC4E92E0103B0BDEC068BBDE847
:106B0000F08F2DE9F04F93462DED108B0D46044686
:106B100093B090ED0CEB53EC1E2B51EC1E0B05F0DB
:106B20007EF894ED000B41EC190B8DED080B94ED04
:106B3000308B53EC102B51EC180B05F070F853EC24
:106B4000192B05F066F894ED0EDB41EC1F0B53ECAE
:106B50001D2B51EC1D0B05F062F894ED060B41EC7A
:106B6000190B8DED060B53EC102B51EC180B05F0A7
:106B700056F853EC192B05F04CF841EC100B8DED49
:106B8000040B94ED10CB03E0000000000000F03F88
:106B900053EC1C2B51EC1C0B05F041F894ED0A0B47
:106BA00041EC190B8DED020B53EC102B51EC180B33
:106BB00005F035F853EC192B05F02BF841EC110BCF
:106BC00053EC1D2B8DED001B51EC1E0B05F027F82F
:106BD00094ED020B41EC190B53EC102B51EC180BFC
:106BE00005F01DF853EC192B05F013F841EC1B0BC5
:106BF00053EC1C2B51EC1E0B05F011F894ED040B1B
:106C000041EC190B53EC102B51EC180B05F007F865
:106C100053EC192B04F0FDFF41EC1A0B53EC1C2B29
:106C200051EC1D0B04F0FBFF94ED080B41EC190B2C
:106C300053EC102B51EC180B04F0F1FF53EC192B13
:106C400004F0E7FF9DED020B41EC190B53EC102B08
:106C500051EC1E0B04F0E3FF41EC110B51EC180B4F
:106C60008DED101B94ED160B53EC102B04F0D7FF99
:106C700041EC110B51EC1E0B8DED0E1B9DED060B27
:106C800053EC102B04F0CBFF41EC110B51EC180B23
:106C90008DED0C1B94ED140B53EC102B04F0BFFF87
:106CA00041EC110B51EC1E0B8DED0A1B9DED080BF9
:106CB00053EC102B04F0B3FF94ED120B41EC1E0BC0
:106CC00053EC102B51EC180B04F0A9FF53EC1E2BC6
:106CD00004F09FFF9DED0A1B53EC112B04F0F8FE0E
:106CE0009DED0C1B53EC112B04F093FF9DED0E1B3F
:106CF00053EC112B04F0ECFE9DED101B53EC112B0B
:106D000004F087FF9FEDFE1B53EC112B04F087FF6F
:106D10009DED020B41EC1E0B53EC102B51EC1D0BA7
:106D200004F07DFF41EC110B51EC180B8DED101BA5
:106D300094ED1C0B53EC102B04F071FF41EC110B84
:106D400051EC1D0B8DED0E1B9DED060B53EC102B26
:106D500004F065FF41EC110B51EC180B8DED0C1B91
:106D600094ED1A0B53EC102B04F059FF41EC110B6E
:106D700051EC1D0B8DED0A1B9DED080B53EC102BF8
:106D800004F04DFF94ED180B41EC1D0B53EC102B50
:106D900051EC180B04F043FF53EC1D2B04F039FFAA
:106DA0009DED0A1B53EC112B04F092FE9DED0C1B84
:106DB00053EC112B04F02DFF9DED0E1B53EC112B0A
:106DC00004F086FE9DED101B53EC112B04F021FF07
:106DD0009FEDCB1B53EC112B04F021FF9DED020B1B
:106DE00041EC1D0B53EC102B51EC1C0B04F017FF66
:106DF00041EC110B51EC180B8DED021B94ED220BA5
:106E000053EC102B04F00BFF41EC110B51EC1C0B5D
:106E10008DED0A1B9DED060B53EC102B04F0FFFECD
:106E200041EC110B51EC180B8DED0C1B94ED200B6C
:106E300053EC102B04F0F3FE41EC110B51EC1C0B46
:106E40008DED061B9DED080B53EC102B04F0E7FEB7
:106E500094ED1E0B41EC1C0B53EC102B51EC180B5A
:106E600004F0DDFE53EC1C2B04F0D3FE9DED061B5D
:106E700053EC112B04F02CFE9DED0C1B53EC112B4D
:106E800004F0C7FE9DED0A1B53EC112B04F020FE0D
:106E90009DED021B53EC112B04F0BBFE9FED981BE4
:106EA00053EC112B04F0BBFE9DED040B41EC180BD1
:106EB00053EC102B51EC1F0B04F0B1FE10919DED23
:106EC000001B824653EC112B04F0A9FE41EC110B80
:106ED00053EC192B8DED0A1B51EC1F0B04F09FFE98
:106EE00053EC192B04F09BFE41EC110B53EC1A2BC5
:106EF0008DED081B9DED040B51EC100B04F08FFE83
:106F0000814653EC1A2B119104F089FE41EC110BD0
:106F10008DED061B9FED7C0B51EC1B0B53EC102BE6
:106F200004F07DFE53EC1A2B04F079FE53EC192B80
:106F300004F075FE9DED001B41EC1C0B53EC1B2B6C
:106F400051EC110B04F06BFE074653EC1B2B029126
:106F500004F065FE53EC1C2B04F05BFE9DED061B5C
:106F600053EC112B04F0B4FD9DED081B53EC112BD9
:106F700004F0AEFD9DED0A1B53EC112B04F049FE0D
:106F800041EC1C0B9FED620B53EC102B04F0B0FF97
:106F90007DD053EC192B51EC1B0B04F040FE53EC4D
:106FA000182B04F03CFE41EC110B53EC1D2B8DED26
:106FB0000E1B029941EC107B51EC100B04F02FFEDC
:106FC00041EC110B8DED0C1B9DED000B53EC102BC8
:106FD0009DED040B51EC100B04F021FE53EC1E2B25
:106FE00004F01DFE41EC110B53EC192B8DED081B29
:106FF00051EC190B04F013FE53EC1E2B04F00FFEA2
:1070000041EC110B53EC1D2B8DED0A1B51EC190BB0
:1070100004F005FE41EC110B53EC182B8DED061B13
:107020009DED040B51EC100B04F0F9FD9DED061BDA
:1070300053EC112B04F0EDFD53EC1A2B04F0EFFD93
:107040009DED0A1B53EC112B04F042FD9DED081B36
:1070500053EC112B04F0DDFD9DED0C1B53EC112BBB
:1070600004F036FD9DED0E1B53EC112B04F0D1FD09
:1070700041EC100B53EC1A2B8DED060B51EC1B0B56
:1070800004F0CDFD8846064648EC100B00E065E1B3
:1070900053EC182B51EC100B04F0C1FD41EC110B1B
:1070A00053EC1E2B8DED041B029941EC107B51EC2F
:1070B000100B04F0B4FD41EC110B51EC1F0B8DEDE6
:1070C000021B9DED000B53EC102B04F0A8FD53ECBC
:1070D0001D2B04F0A4FD41EC110B53EC1A2B8DED8C
:1070E000081B51EC1A0B04F09AFD53EC1D2B04F015
:1070F00096FD41EC110B53EC1E2B8DED001B0BE0AC
:10710000000000000000E03F000000000000004020
:10711000000000000000000051EC1A0B04F07FFD9D
:1071200041EC1A0B53EC182B51EC1F0B04F077FDBC
:1071300053EC1A2B04F06DFD53EC192B04F06FFD8A
:107140009DED001B53EC112B04F0C2FC9DED081BC0
:1071500053EC112B04F05DFD9DED021B53EC112B44
:1071600004F0B6FC9DED041B53EC112B04F051FD13
:1071700041EC100B53EC1D2B8DED040B48EC106B08
:1071800051EC100B04F04BFD41EC110B53EC1E2B9A
:107190008DED001B119941EC109B51EC100B04F08C
:1071A0003EFD41EC110B53EC182B8DED021B109999
:1071B00041EC10AB51EC100B04F031FD41EC1A0B1B
:1071C00053EC1B2B51EC1B0B04F029FD53EC182B3B
:1071D00004F025FD41EC180B53EC1E2B51EC1B0B5E
:1071E00004F01DFD41EC1B0B53EC1D2B51EC1F0B50
:1071F00004F015FD53EC1B2B04F00BFD53EC192B85
:1072000004F00DFD53EC182B04F062FC53EC1A2B28
:1072100004F0FFFC9DED021B53EC112B04F058FC15
:107220009DED001B53EC112B04F0F3FC9DED060BC0
:1072300041EC190B53EC1C2B51EC100B04F061FDCD
:1072400041EC180B53EC1C2B85ED008B9DED040BD2
:1072500051EC100B04F055FD41EC1A0B53EC1C2BB8
:1072600085ED02AB51EC190B04F04BFD41EC190B11
:1072700085ED049B94ED100B53EC102B04F0CFFC28
:1072800094ED0E0B41EC1B0B53EC102B51EC1A0B35
:1072900004F0C5FC94ED0C0B41EC1C0B53EC102BD3
:1072A00051EC180B04F0BBFC53EC1C2B04F010FC4D
:1072B00053EC1B2B04F00CFC1FED6D1B53EC112B3E
:1072C00004F0ADFC94ED061B94ED000B41EC1B0BA0
:1072D00053EC112B51EC100B04F0FAFB94ED0A1B4C
:1072E00053EC112B04F0F4FB53EC1B2B04F091FC3A
:1072F00094ED301B53EC112B04F003FD41EC1B0B00
:1073000053EC192B51EC190B04F089FC41EC190BCF
:1073100053EC1A2B51EC1A0B04F081FC41EC1A0BC4
:1073200053EC182B51EC180B04F079FC53EC1A2B8E
:1073300004F0CEFB53EC192B04F0CAFB53EC1B2BCF
:1073400004F0C6FB41EC100B06F0B0F88BED000B1F
:10735000012013B0BDEC108BBDE8F08F0020F8E7E2
:107360002DE9F04F0D462DED108B04468BB091EDBD
:1073700000AB53EC1A2B51EC1A0B04F050FC94EDBB
:107380000CCB53EC1C2B04F04AFC53EC1C2B04F0EC
:1073900046FC94ED30FB41EC180B53EC1A2B51ECEE
:1073A0001F0B04F03CFC8B464BEC100B074653ECD8
:1073B0001A2B51EC100B04F032FC94ED00EB53EC63
:1073C0001E2B04F02CFC53EC182B04F022FC41EC97
:1073D000190B53EC1E2B51EC1A0B04F020FC53EC50
:1073E0001C2B04F01CFC4BEC107B94ED121B41ECAD
:1073F000180B53EC112B51EC100B04F010FC53EC58
:10740000192B04F009FC53EC182B04F061FB41EC40
:107410001B0B1FEDC30B51EC1A0B53EC102B04F09C
:10742000FEFB894649EC100B95ED029B064653EC9A
:10743000192B51EC100B04F0F2FB53EC1C2B04F055
:10744000EEFB94ED0EDB53EC1D2B04F0E8FB41EC5E
:10745000180B1FEDD30B51EC1F0B53EC102B04F04A
:10746000DEFB824653EC1A2B069104F0D8FB53EC5A
:10747000192B04F0D4FB94ED021B53EC112B04F0F8
:10748000CEFB53EC1B2B04F023FB53EC182B04F026
:10749000C0FB41EC180B53EC1C2B51EC1A0B04F005
:1074A000BEFB049194ED06BB804653EC1B2B04F00D
:1074B000B6FB41EC110B4BEC107B8DED001B94EDFA
:1074C000141B51EC100B53EC112B04F0A8FB53ECE4
:1074D000182B04F0A1FB9DED001B53EC112B04F0C5
:1074E000F7FA41EC110B49EC106B8DED001B95ED9B
:1074F000048B51EC100B53EC182B04F090FB53EC65
:107500001C2B04F08CFB94ED10CB53EC1C2B04F0E3
:1075100086FB41EC110B53EC1A2B8DED021B0699E7
:1075200041EC10AB51EC100B04F079FB53EC182B31
:1075300004F075FB94ED041B53EC112B04F06FFB6E
:107540009DED001B53EC112B04F0C2FA9DED021BC4
:1075500053EC112B04F05DFB41EC100B8DED000B97
:10756000049994ED0AAB41EC108B53EC1A2B51ECBF
:10757000100B04F054FB41EC110B4BEC107B8DED28
:10758000021B94ED161B51EC100B53EC112B04F065
:1075900046FB9DED001B53EC112B04F03DFB9DEDD4
:1075A000021B53EC112B04F093FA41EC110B8DEDFF
:1075B000001B9FEDFE0B51EC1E0B53EC102B04F047
:1075C0002EFB53EC1E2B04F02AFB41EC110B8DED2E
:1075D000021B9FEDF60B51EC1F0B53EC102B04F02C
:1075E0001EFB059194ED241B814653EC112B04F0F6
:1075F00016FB9DED001B53EC112B04F069FA9DED79
:10760000021B53EC112B04F004FB41EC110B53EC67
:107610001E2B8DED001B51EC190B04F000FB53ECFD
:107620001D2B04F0FCFA41EC110B53EC192B8DEDE2
:10763000081B51EC1F0B04F0F2FA039194ED181B98
:10764000064653EC112B04F0EAFA9DED001B53ECB7
:10765000112B04F0E1FA9DED081B53EC112B04F003
:1076600037FA41EC110B8DED001B9FEDD20B51EC65
:107670001E0B53EC102B04F0D2FA8B464BEC100B84
:10768000054653EC1B2B51EC100B04F0C8FA41ECEF
:10769000110B8DED081B9FEDC70B51EC1F0B53EC2D
:1076A000102B04F0BCFA049194ED2A1B804653EC95
:1076B000112B04F0B4FA9DED001B53EC112B04F0D8
:1076C00007FA9DED081B53EC112B04F0A2FA41ECD4
:1076D000110B53EC1E2B8DED001B51EC180B04F01D
:1076E0009EFA53EC1C2B04F09AFA41EC1E0B53EC5F
:1076F000182B51EC1F0B04F092FA029194ED1E1B13
:10770000074653EC112B04F08AFA9DED001B53EC55
:10771000112B04F081FA53EC1E2B04F0D9F94BEC39
:10772000105B41EC1F0B53EC1A2B51EC100B04F0C7
:1077300076FA41EC1E0B049994ED2C1B41EC108B56
:1077400053EC112B51EC100B04F069FA53EC1F2B86
:1077500004F0BEF953EC1E2B04F05BFA41EC1F0B56
:1077600053EC192B51EC190B04F059FA53EC1D2B67
:1077700004F055FA53EC1D2B04F051FA41EC1E0BAA
:10778000039953EC192B41EC106B51EC100B04F0E6
:1077900046FA53EC1B2B04F042FA53EC1F2B04F077
:1077A00097F953EC1E2B04F034FA41EC1F0B53EC09
:1077B0001B2B51EC190B04F032FA53EC1D2B04F087
:1077C0002EFA41EC1E0B039994ED1A1B41EC106B41
:1077D00053EC112B51EC100B04F021FA53EC1F2B3E
:1077E00004F01AFA53EC1E2B04F072F941EC1F0B53
:1077F0009FED720B51EC190B53EC102B04F00FFAA8
:1078000053EC182B04F00BFA53EC1D2B04F007FA81
:1078100053EC1C2B04F003FA41EC1E0B069953ECBD
:10782000192B41EC10AB51EC100B04F0F8F953ECB0
:10783000182B04F0F4F994ED081B53EC112B04F011
:10784000EEF953EC1F2B04F043F953EC1E2B04F01C
:10785000E0F941EC1E0B53EC1D2B51EC190B04F01D
:10786000DEF953EC1A2B04F0DAF941EC190B039909
:1078700094ED1C1B41EC106B53EC112B51EC100BD5
:1078800004F0CDF953EC1E2B04F0C6F953EC192B80
:1078900004F01EF941EC1D0B9FED44EB51EC1B0B6A
:1078A00053EC1E2B04F0BBF953EC1B2B04F0B7F97F
:1078B00041EC190B059994ED261B41EC109B53EC00
:1078C000112B51EC100B04F0AAF953EC1D2B04F012
:1078D000FFF853EC192B04F09CF941EC1D0B53EC11
:1078E0001B2B51EC180B04F09AF953EC1C2B04F0F1
:1078F00096F941EC190B029994ED201B41EC107B99
:1079000053EC112B51EC100B04F089F953EC1D2BA7
:1079100004F082F953EC192B04F0DAF89FED250BF3
:1079200041EC190B53EC102B51EC1B0B04F077F9C5
:1079300053EC1A2B04F073F941EC1B0B049994EDF2
:107940002E1B41EC108B53EC112B51EC100B04F05F
:1079500066F953EC192B04F0BBF853EC1B2B04F025
:1079600058F941EC1B0B53EC182B51EC180B04F09D
:1079700056F953EC1C2B04F052F953EC1C2B04F079
:107980004EF941EC190B029953EC182B41EC107B8A
:1079900051EC100B04F043F953EC1A2B04F03FF9AF
:1079A00053EC1B2B04F094F80CE0000000000000E6
:1079B0000000D03F000000000000E03F0000000099
:1079C0000000004053EC192B04F023F941EC190B93
:1079D00053EC1A2B51EC180B04F021F953EC1C2B2F
:1079E00004F01DF941EC180B029994ED221B41ECB7
:1079F000107B53EC112B51EC100B04F010F953ECED
:107A0000192B04F009F953EC182B04F061F841EC40
:107A1000180B53EC1E2B51EC1A0B04F000F953EC2D
:107A20001A2B04F0FCF841EC190B059994ED281B76
:107A300041EC109B53EC112B51EC100B04F0EFF8C0
:107A400053EC182B04F044F853EC192B04F0E1F834
:107A500041EC100B0BB07DE430B50446B0F88C005F
:107A600089B000040690B4F88E000D46000407901B
:107A7000B4F8900088340004089002A80AF05CF87A
:107A8000029906982B46401A06900399079806AA71
:107A9000401A079004990898401A08902088616A53
:107AA00080B209F0F5FE09B030BDF0B50D462DED00
:107AB000048B87B06946FFF7CFFF9FEDFE8B002454
:107AC0006F469FEDFE9A03AE57F8240000EE100AB1
:107AD00006EB8400B8EEC00A20EE090A80ED000A29
:107AE00020EE000A10EE100A04F0EEF953EC182B09
:107AF00003F0EEFF41EC180B641C032CE4DBB0EE4A
:107B0000480AF0EE680A05F0D1FCB0EE408AF0EECB
:107B1000608A002456F8240004F0D6F953EC182BA0
:107B200004F0EFF804F014FA00EE100A05EB8400FC
:107B3000641CD0ED000A032C30EE200A80ED000A10
:107B4000E8DB686D401C68650AF060FAE86707B01A
:107B5000BDEC048BF0BD2DE9F04104460AF08AF833
:107B600040BB0AF015F8042824D0D54920460E461B
:107B7000FFF79BFFD34DD5E95C01814205DB304621
:107B800003F0E5FB0020C5F87401208E4FF00406D9
:107B9000C00515D504F118000AF05EF88009B0F5AB
:107BA000C87F0AD2D5F8B800002850DD401EC5F8BD
:107BB000B8004AE00120BDE8F081C5F8B86044E0B3
:107BC000D4F8A010D5F81401081A01D4034600E037
:107BD0004342BB4A4FF4A02C583A634505DDD4E933
:107BE00029035365C2E913102FE00312D4F8A470DF
:107BF000D5F818015B43381A01D4864601E0C0F17C
:107C0000000EE64505DDD4F8A800D164C2E9147081
:107C10001BE0001200FB0033D4F8A800D5F81C11BB
:107C2000401A01D4014600E0414261450DDC0012DA
:107C300000FB0030B0F5403FB4DBA034C5F8B860BD
:107C400094E80B004C3282E80B000020B3E70220DE
:107C5000B1E72DE9F04F9B4C2DED028B93B0D4F89A
:107C6000A81090ED000B04EBC10181ED000BD4F8DE
:107C7000A810491CC4F8A81090ED020B04EBC10138
:107C800081ED000BD4F8A810491CC4F8A81090EDA1
:107C9000040B04EBC10080ED000BD4F8A800401CDD
:107CA000C4F8A800152802DB0020C4F8A800182298
:107CB00084490CA803F0C6FE1822824904A803F0E8
:107CC000C1FE01260DF1300A0DF1100BA146002472
:107CD00006EB460808EB040109EBC1050AEBC407F3
:107CE00095ED001B97ED000B53EC112B51EC100B95
:107CF00004F016F903D295ED000B87ED000B0BEBAA
:107D0000C40795ED001B97ED000B53EC112B51ECC4
:107D1000100B04F0EDF803D295ED000B87ED000B8E
:107D2000641C032CD6DB761C072ED0DB9DED0C1BD0
:107D30009DED040B53EC112B51EC100B03F069FF7C
:107D40009DED0E1B9DED060B41EC180B53EC112B1A
:107D500051EC100B03F05DFF53EC182B04F0C8F846
:107D60000BD39DED0E1B9DED060B53EC112B51EC2F
:107D7000100B03F04EFF41EC180B9DED101B9DED19
:107D8000080B53EC112B51EC100B03F042FF53EC9A
:107D9000182B04F0ADF80BD39DED101B9DED080BD7
:107DA00053EC112B51EC100B03F033FF41EC180B8B
:107DB00013B0B0EE480AF0EE680ABDEC028BBDE8E5
:107DC000F08F10B504462DED068B9CB00021552098
:107DD0000E91CDE90F1011909FED3B8B0AA809F091
:107DE00079FE12A90AA80AF0D3F916AA0EA912A8B8
:107DF0000AF0F1F96A460AA916A80AF0ECF9019806
:107E0000B2EE059A00F5967001900298B0EE490A1C
:107E100000F596700290039800F596700390FEF7B7
:107E20008BFBBDEEC00A019910EE100AB0EE490AB4
:107E300008440190FEF780FBBDEEC00A029810EEE8
:107E4000101AB0EE490A08440290FEF775FBBDEE29
:107E5000C00A039910EE100A08440390204601A9B5
:107E6000FEF77DFC94ED300B9FED191B51EC100BD0
:107E700053EC112B04F054F85DD21AAA04A9204641
:107E8000FEF73FFE60B39DED080B9FED138B51ECA9
:107E9000100B53EC182B03F0BCFE41EC100B53EC11
:107EA000102B03F0BCFE41EC190B9DED060B53ECBF
:107EB000182B16E0000000000000000000008037D2
:107EC000B84C0020984B00200000000000408F407C
:107ED00000000000000034400000000000C07240BC
:107EE00029E051EC100B03F094FE41EC100B53EC25
:107EF000102B03F094FE9DED040B41EC1A0B53EC98
:107F0000182B51EC100B03F084FE41EC100B53ECDA
:107F1000102B03F084FE53EC1A2B03F0D9FD53EC25
:107F2000192B03F0D5FD41EC100B05F0BFFAB0EEB4
:107F3000408AF0EE608A9FEDFD0B51EC180B53EC7C
:107F4000102B03F0DEFE1CB041EC100BBDEC068BD9
:107F500010BD10B5E821F74803F09BFDF648F7493E
:107F600020F8BC1F4A0CC280C18182828183428476
:107F7000F048E821E83003F08CFDEF490020C1F81B
:107F8000B40010BD2DE9F043EB4D04462DED108BF0
:107F9000C3B0006BC5F8A0012046FFF7DCFD002848
:107FA0007ED1D5F8941105F1BC08012911D1B4F99D
:107FB0008C003D90B4F98E003E90B4F990003F9053
:107FC0003DA9DC48FEF7CBFB04F18C01404600F0F4
:107FD000A4FB1FED48DB9FEDDABB9FEDDBCB9FEDF4
:107FE000DCAB9FEDDDEBD34ED5F80801E83E002871
:107FF00002DD401EC5F8080196ED300B53EC1D2B39
:1080000051EC100B03F08CFF7DD2CA49E822E8390D
:10801000684603F017FDC7483DA9E838FEF79FFB07
:10802000C44940AA20390F46A1F1C800FEF769FDF6
:1080300000287BD0BF483946E838FFF791F9B0EE09
:10804000408AF0EE608A95ED400B51EC180B53EC32
:10805000102B03F0DEFD96ED300B41EC190B53ECC9
:108060001B2B51EC100B03F0D4FD41EC100B51EC29
:10807000190B53EC102B03F044FE41EC100B05F0F0
:1080800015FA96ED30FBB0EE409AF0EE609A53ECA4
:108090001B2B51EC1F0B03F0BCFD53EC1F2B00E01E
:1080A000E9E003F0BCFD41EC1F0B53EC1C2B51EC41
:1080B000180B03F0B4FD53EC1F2B03F022FE41EC30
:1080C000100B05F0F3F9D5F8E80003F0FDFE95ED8F
:1080D000381B53EC112B03F0A2FD53EC192B03F0CA
:1080E00007FF03D3D5F80801002826DD9148E822D0
:1080F0006946E83803F0A6FCD5F8E80003F0E4FE92
:1081000095ED381B01E010E010E053EC112B03F06B
:1081100086FD53EC192B03F0EBFE5CD24FF4FA70A2
:1081200001F03CFE0A20C5F8080154E08148E8222D
:108130006946E83803F086FC4DE0D5F8980101283F
:1081400049D1D5F8B400401CC5F8B40000200AF0AD
:108150000FFC96ED320B53EC1A2B51EC100B03F085
:108160005EFD03F092FE3A9096ED340B53EC1A2B21
:1081700051EC100B03F053FD03F087FE3B9096ED9E
:10818000360B53EC1A2B51EC100B03F048FD03F0A7
:108190007CFE3C9003213AA80AF05CFB96ED300B84
:1081A00053EC1E2B51EC100B03F0BAFE11D29FEDD5
:1081B0006C0A6049E839F0EE400A0846FEF7FFF91C
:1081C0005C483946E838FFF7CBF8B0EE408AF0EE6D
:1081D000608A85ED408B208E564FC0050CD5B4F8D3
:1081E0007400C00508D507F1E800FFF7EAFDB0EE1E
:1081F000408AF0EE608A01E09FED4C8B97ED300BEA
:108200001FEDCD1B51EC100B53EC112B03F070FE46
:1082100031D3484940AAC83189464648FEF771FC27
:1082200000287CD0D4F8AC0003F0F0FD41EC100B3A
:1082300053EC102B9FED4B0B51EC100B03F061FD39
:1082400041EC1F0B4846FFF704FDB0EE409AF0EEFC
:10825000609A53EC1F2B51EC190B03F061FE0BD20B
:108260009FED420B51EC180B53EC102B03F040FE2A
:1082700002D2FFF76EFEDBE153EC1F2B51EC190B22
:1082800003F036FE51D251EC180B9FED3A9B53ECA4
:10829000192B03F02DFEF5D297ED300B9FED371B18
:1082A00051EC100B53EC112B03F03AFEEAD296ED91
:1082B000300B53EC1D2B51EC100B03F019FE7CD14D
:1082C00049461C48FFF74CF8B0EE408AF0EE608A51
:1082D00085ED408B97ED309B53EC1B2B51EC190B2C
:1082E00003F097FC53EC192B03F099FC41EC190BAC
:1082F00053EC1C2B51EC180B03F091FC53EC192B95
:1083000003F0FFFC41EC100B05F0D0F8B0EE408A12
:10831000F0EE608AD5F8E80003F0D6FD00E088E1D1
:1083200095ED381B53EC112B2CE078E10000000098
:1083300000000840C8490020984B00200080FFFF43
:10834000000000000000F03F0000000000000040BE
:10835000000000000000F0400000000000409F40CE
:108360006666E63E9A9999999999A941000000009C
:108370000000F83F00000000000010400000000076
:1083800000003E4003F04BFC53EC182B03F0B0FD13
:10839000FFF46FAF9DED400B49464046FDF7C4FF2B
:1083A00002283FF466AF00287ED1D5F89801012855
:1083B000FAD100200AF0DCFA00E02FE097ED320B52
:1083C00053EC1A2B51EC100B03F029FC03F05DFD6C
:1083D0003A9097ED340B53EC1A2B51EC100B03F041
:1083E0001EFC03F052FD3B9097ED360B53EC1A2B1D
:1083F00051EC100B03F013FC03F047FD3C900321FC
:108400003AA80AF027FA01200AF050FA1920009041
:108410000190029068460AF041FAF6E0D5F8B400FF
:1084200003F0F4FC97ED301B53EC112B03F069FCC7
:108430009FEDE71B53EC112B03F072FDA8D34946C7
:10844000E548FEF78DFF97ED30DBB0EE408AF0EEA9
:10845000608A53EC1B2B51EC1D0B03F0DAFB53EC41
:108460001D2B03F0DCFB41EC1B0B53EC1C2B51ECE4
:10847000180B03F0D4FB53EC1B2B03F042FC41EC34
:10848000100B05F013F8B0EE40BAF0EE60BAD5F874
:10849000E80003F019FD95ED381B53EC112B03F0A8
:1084A000BEFB53EC1B2B00E087E003F021FDC5D39E
:1084B0009DED400B49464046FDF736FF00287CD134
:1084C00096ED361B97ED360B53EC112B51EC100B40
:1084D00003F09FFB41EC100B53EC102B03F09FFBC0
:1084E00096ED341B97ED340B41EC1B0B53EC112B29
:1084F00051EC100B03F08DFB41EC100B53EC102BE7
:1085000003F08DFB96ED321B97ED320B41EC1C0B0B
:1085100053EC112B51EC100B03F07BFB41EC100BD7
:1085200053EC102B03F07BFB53EC1C2B03F0D0FA25
:1085300053EC1B2B03F0CCFA41EC100B04F0B6FF0C
:10854000B0EE40BAF0EE60BAD4F8AC0003F05EFCD6
:1085500053EC1B2B03F063FB9FEDA01B53EC112B83
:1085600003F05DFB41EC1B0B53EC192B03F0D8FC23
:108570001AD39FED9C0B51EC1B0B53EC102B03F00B
:10858000CFFCBFF476AED5F8B40003F03FFC97ED16
:10859000301B53EC112B03F0B4FB9FED941B53ECF9
:1085A000112B03F0A5FCECD2D5F8980101287FF43B
:1085B00060AE00200AF0DCF900E039E085ED408B88
:1085C00097ED320B53EC1A2B51EC100B03F027FBF9
:1085D00003F05BFC3A9097ED340B53EC1A2B51EC03
:1085E000100B03F01CFB03F050FC3B9097ED360B97
:1085F00053EC1A2B51EC100B03F011FB03F045FC6C
:108600003C9003213AA80AF025F9F7EE000A9FED05
:10861000790A7149A1F1E800FDF7D1FF29E697ED4C
:10862000300B53EC1E2B51EC100B03F079FCF5D3FF
:10863000002043B0BDEC108BBDE8F08370B56E4CEC
:108640000546D4F80C0110B9284600F091F8D5F889
:10865000B01044F6206081420ADAD4F810211144A7
:108660008142C4F810114FF0000005DBC4F810017E
:108670002846BDE8704085E470BD04224FF4C871FF
:10868000AFF2470009F08EBFAFF24F000AF052BAC6
:10869000514810B5E821E83803F0FBF9FFF759FC21
:1086A0004FF4D471544803F0F4F9534CB7EE000A78
:1086B00004F5907084ED3A0A02F095FD0A20C4F8A2
:1086C0007001B2EE000A84ED570A1E209FED4B0A9E
:1086D000C4F87C0184ED620A9FED490A84ED610AC9
:1086E0009FED480A002084ED630A10BD10B5FFF726
:1086F000CFFF002805D1AFF27D00BDE8104009F0A2
:10870000CFBF10BD10B5AFF2CB000AF013FAAFF235
:108710009500BDE810400AF033BA30B50022C2EB34
:10872000C20331F9124030F91350AC420ADD02EBBA
:1087300042040D8820F8245000EB84044D886580A5
:108740008D88A58000EB430331F91240B3F9063060
:108750009C4209DA02EB420300EB83030C88DC80C5
:108760004C881C818C885C81521C032AD7DB30BD6D
:1087700070B5214DD0F8AC200446EAB1D3170020E3
:10878000192103F008F945F8AC0F54F8AC2F00207C
:10879000D317052103F0FFF8686022680020D31783
:1087A000962103F0F8F803F031FBC5E90D01AC3D6B
:1087B0000120C5F80C0170BD6FF00040C5F8AC0099
:1087C0009FED110BC5F8B00085ED380BF0E7000008
:1087D0000AD7A3703D0AE73FC84900200000000007
:1087E0000000103E0000000000000440333333332B
:1087F0003333C33F00000000984B0020CDCCCC3E6B
:108800003333333F9A99193F0000C0FFFFFFDF4128
:1088100010B5FF49C4074FF040434FF0804205D0E8
:108820008B66CB66C1E91C328A67CA67840709D5A3
:10883000C1F80031C1F80431C1E94232C1F8102158
:10884000C1F81421400709D5C1F89831C1F89C310D
:10885000C1E96832C1F8A821C1F8AC2110BD2DE9E9
:10886000F14F002082B0824681460298806F002836
:108870007ED000220020401C0428FCDB029800EB84
:10888000C203D3E90010A1FB0167D3E9065400FB42
:10889000017701FB0077AB46AD1BCDE900670326EE
:1088A000A5FB06C8A64664EB070404FB0684002764
:1088B00005FB0745DDE900671CEB06047D41A4FBD1
:1088C000016705FB017504FB0055D3E90C47341B18
:1088D00065EB0705CDE900455D46A5FB056703246B
:1088E000A6FB04580EFB0B770BFB0E7707FB0484EB
:1088F0004FF0000C06FB0C44D3E91263761B63EBCC
:1089000004034C18A4FB017C40EB000505FB01C5EA
:1089100004FB0055A7FB014C05FB01C507FB0055F7
:10892000A4FB017C05FB01C504FB0054F61963415F
:10893000DDE90045AD0045EA9475A400A4FB017C87
:1089400005FB01C104FB0014F01B73EB040103D50C
:108950000023404263EB0101BAEB000479EB010311
:1089600001DA82468946521C032A83DB504600E026
:1089700016E0494603F034FA00EE900AA54890ED5F
:108980000E1A80EE810A10EE100A03F05DFAA04A7A
:10899000D2F80C2203B09200BDE8F04F03F03BB8D0
:1089A000002003B00146BDE8F08F2DE9F14F002013
:1089B000009A0146926FE2B300240022521C042A5E
:1089C000FCDB009A02EBC405AA46D5E90029A2FB0C
:1089D000023CD5E906769E46FB1A0325A3FB0578E3
:1089E00009FB02CC02FB09CB66EB0B0606FB0585F7
:1089F0004FF0000C03FB0C5617EB0E03A3FB027C9D
:108A000046EB0B0606FB02C203FB0923DAE90C2541
:108A1000BA1AAB4103D50025524265EB0303851A10
:108A200071EB030501DA10461946641C032CC4DB04
:108A300000E015E003F0D4F900EE900A754890EDDF
:108A40000E1A80EE810A10EE100A03F0FDF9704A4A
:108A5000D2F80C22BDE8F84F02EB420202F0DBBF75
:108A600000200146BDE8F88F2DE9FE43684D8046A1
:108A70000024D5F810626F4605EBC4013246D1E9F7
:108A8000020102F0B9FF05EB8401B1F8841009047A
:108A9000401847F8240004F10104032CECDB5C4887
:108AA0009821083002F0F5FF0120FFF7B1FE95F89C
:108AB000E8010199042807D1D5F81802B0F5201F64
:108AC00002DD052085F8E801524C0098636AC11A5E
:108AD00001D40E4600E01E1A0198A26A801A01D441
:108AE000074601E0019FD71BBE4206DD002901D4E5
:108AF000084606E00098181A03E0002801D50198FE
:108B0000101A029AE16A521A01D4134601E0029B3C
:108B1000CB1A834205DB002A01D4104601E00298FB
:108B2000081AD8F8241009F0FAFAD5F81812814278
:108B300006DD0321684609F061FF022009F0B0FF5D
:108B4000009860620198A0620298E062BDE8FE832E
:108B5000304AC2E9020170472E4AC2E90601704755
:108B60002C4AC2E904017047294AD2F8E031036077
:108B7000D2E97402C1E900027047254AD2F8E03117
:108B80000360D2E97602C1E9000270472DE9FE4791
:108B900081460020EA468A6F22B901EB800339F949
:108BA0001020DA6701EB800239F91030D46F1D1BF9
:108BB0004AF82050136E9D4200DD1566D36E9D422B
:108BC00000DAD5660123002422464FEAE578A3FBAC
:108BD000056704FB057403FB0844334602EB4206B9
:108BE00001EBC60606EBC00CDCE90076FF18664117
:108BF000CCE90076521C042AE9DB401C0328CADBBE
:108C0000886F401C88670120C1F89000BDE8FE878E
:108C1000404D0020A04F002030B5002302EB83051B
:108C200050F823405B1CEC66032BF7DBC2F888107E
:108C3000916F79B1002102EB810450F82130E56F8A
:108C40005B1B00D55B42256E9D4200DA2366491C02
:108C50000329F0DB906F401C90670120C2F8900060
:108C600030BD10B500210B4600EB8102491CD46ECB
:108C7000D46713660329F7DBD0F8881040F8783FF3
:108C8000C0E9051310BDD0E92210081A704701464B
:108C9000D1E91802824200DB1046896E814200DB76
:108CA000084670472DE9F0478046501E0126864051
:108CB0008946C2F12007404602F0ADFE04460D464B
:108CC000404649463A4602F097FE3A4602F0A3FE75
:108CD000B04203DD641C45F1000505E071428842A5
:108CE00002DA641E45F1FF3520462946BDE8F087CB
:108CF000F7490020086248628862C86208644864D4
:108D00008864C864086348638863C8630865486505
:108D10008865C865704730B5EE4AD2F8483223B14D
:108D2000D2E990542D1A8C4101DAC2E990015B1C02
:108D3000C2F8483230BD30B5E64AD2F8583223B1D5
:108D4000D2E994542D1A8C4101DAC2E994015B1CDA
:108D5000C2F8583230BD30B5DE4AD2F828322BB1D5
:108D6000D2E98845041B71EB050401DAC2E98801E8
:108D70005B1CC2F8283230BD30B5D64AD2F8383242
:108D80002BB1D2E98C45041B71EB050401DAC2E971
:108D90008C015B1CC2F8383230BD2DE9F047024629
:108DA000CC48012508308046C36E016E046FC91A95
:108DB000436E1B1B8B4200DB1946836ED8F8740090
:108DC000181A884200DB0146C14F6037F86B8842B1
:108DD00004DA002400F010FA204687E7108E012400
:108DE000BC4EC0054FF000010ED5D6F8803030687B
:108DF000834209DBB2F87420D20506D5D6F8B0213B
:108E0000824201DB052400E00C4674B3600719D5EB
:108E1000AF48C8388146FFF722FD000D40EA013017
:108E20000915C6E97601D7E904321B1A8A4102DA2C
:108E30000025FFF7A1FF9821484602F02AFE0420F2
:108E4000FFF7E6FCE0070ED04046FFF708FDC6E955
:108E50007C01D7E906340246181A8C4103DA002552
:108E60001046FFF778FF284640E7FFE702203DE77E
:108E70001EB5044690F83000C0F38110032804D1D9
:108E80009449201D0831FFF781FE94F87400C0F367
:108E90008110032805D18E4904F14800C839FFF735
:108EA00075FED4F8B8008B4AC0F38113A03269462E
:108EB000032B0FD0C0F3411003281AD1002004EB7C
:108EC0008003D3F8A0309B1341F82030401C0328C6
:108ED000F5DB09E0002004EB4003B3F98C3041F8E6
:108EE0002030401C0328F6DB6846D4F8C010FFF79A
:108EF00093FE1EBD2DE9F04705460020296BCA05EB
:108F00006AD501F05001402900D1012095F8741074
:108F100001F05001402900D1012095F8B8106D4CA6
:108F200001F05001402900D030B100F065F9002077
:108F3000C4F8E00184F8E801654ED4F80812E86A44
:108F40006036814228D0C4F808020A28306B0CDA57
:108F500040002060716B00EE100A491CC4F80C122E
:108F6000B8EEC00A04F0DFFA05E02060706BC4F8C8
:108F70000C0296ED0E0A84ED850AD4F80C02C0F1BD
:108F80001000C4F810024FF48040C4F8180296F89C
:108F9000341019208840F0632846FFF769FF94F8E1
:108FA000E811DFF8309105274FF0020809F1A00918
:108FB000072911D2DFE801F0041127305E7E850019
:108FC000D4F8E001411CC4F8E0110A2804DB00F0E9
:108FD00013F9012084F8E80186E0D4F8980001280C
:108FE00010D12846FFF7D9FE10B1012803D004E0C4
:108FF00084F8E87101E084F8E8814846FFF731FE23
:10900000FFF776FE70E0032084F8E8012846FFF7BA
:109010002BFD00F0F1F867E02846FFF7BEFEE8B34D
:10902000012861D1B5F8B8004FF00403C00515D58B
:109030004846FFF72CFE0146C017C4E97410D6E974
:1090400002C2BCEB0101824102DA84F8E87108E057
:109050004846FFF718FE316A884202D384F8E831A7
:1090600024E0F4E97601FFF766FED4E90601FFF794
:1090700052FE39E0B5F8B800C0050BD54846FFF7F9
:1090800006FE0146C017C4E97410D6E90232591A27
:10909000824108DB2846FFF780FE00E003E010B1C4
:1090A000012803D020E084F8E8711DE02846FFF78E
:1090B000DBFCD6E7062084F8E801012009F0F0FC8B
:1090C0000DE02846FFF769FE012805D038B10BE016
:1090D000404F0020404D002084F8E88104E000F07B
:1090E0008BF84846FFF7BDFD0020FFE510B50021D5
:1090F0004010002802D001F10101F9DC4FF001001D
:1091000001F1010100FA01F0434C00EE100AC4E93C
:109110000C01B8EEC00A04F006FA84ED0E0A94F8C9
:10912000341019208840E06310BD10B54FF4187159
:109130003A4802F0AEFC4021374802F0AAFC072072
:10914000FFF766FB344840F2DC510022C0E906120A
:109150001421C0E902124FF41671C0E9041230491B
:109160002E4C01620120C4F8E4011920FFF7BEFF74
:109170000020C4F8080210BD10B54FF4187127483C
:1091800002F087FC0720FFF743FB2448012100225F
:10919000C0F8E41180F8E8110321012009F076FC01
:1091A00007226421AFF2B320BDE8104009F0FAB9FC
:1091B00010B5012009F074FCAFF2C720BDE81040E3
:1091C00009F0B8BC10B5FFF7B0FF002805D1AFF229
:1091D0005700BDE8104009F063BA10BD10B5FFF7A5
:1091E000E7FFAFF26B00BDE8104009F0C9BC0B49C6
:1091F000D1E97C0170477047084810B598210830C4
:1092000002F047FC9821074802F043FCBDE81040FB
:109210000520FFF7FDBA0000A04F0020404D0020C0
:109220000008AF2F784E0020F0B516462DED028BCA
:1092300085B01F460C4605463C22FE49A1F10C00B4
:1092400002F000FCFB4950224C31A1F1100002F069
:10925000F9FBF84996E80D000C3901F13C0C8CE85B
:109260000D005CCC01F1980080E85C009FEDF28A73
:10927000D1F82401401CC1F82401062802DD062093
:10928000C1F82401C0F106060C46A0351AE004EB33
:1092900006116A463846483108F09DFF06EB460045
:1092A00004EB80016A46284608F09CFAF0EEC00AFA
:1092B000B0EEC81AF4EEC10AF1EE10FA01D2B0EE27
:1092C000408A761C062EE2DB05B0B0EE480ABDEC03
:1092D000028BF0BD70B514462DED048B0E46B0EE3A
:1092E000408A00259FEDD59A416BF0EE498A00290E
:1092F00004DBD0F8BC00032800D10125CD4924228D
:10930000B431081F02F09EFBCA480C38002380EDE0
:10931000388A00EB83015B1C91ED2F0A0A2B70EE5B
:10932000288AF6DBB2EE040AC822C8EE800AC0ED35
:10933000390A9FEDC31A322E1DDB9FEDC20AC0F819
:109340001C21B6F57A7FC8EE001A00EE104AB8EE7E
:10935000C00A61EE801A81EE810A2FDB9FEDBA0A06
:10936000C8EE001A00EE104AB8EEC00A61EE801A8C
:1093700081EE810A22E041F2883194FBF1F1494209
:10938000D0F81C3101EB8101C918C0F81C1102D5BD
:109390000021C0F81C119FEDAD0AC8EE001A00EEC6
:1093A000104AB8EEC00A61EE801A81EE810A29B92E
:1093B000D0F82811012901D1B0EE490AD0F82011C6
:1093C00009B1B0EE480AA2498C4201D1B0EE480A78
:1093D000B5EEC00AF1EE10FA01D0C0ED3A0A90EDF8
:1093E0003A1A9C4B71EE600AF0EEE00A10EE901A09
:1093F000994227DDD0ED2E0AF5EEC00AF1EE10FA03
:1094000020D1002D1ED0C0F81C21204602F0FEFC09
:1094100041EC190B18EE100A02F056FD9FED8E1B61
:1094200053EC112B02F06DFC53EC192B02F0F7FBFF
:109430009FED8B1B53EC112B02F063FC02F088FDB7
:1094400000EE100ABDEC048B70BD2DE9F04F044610
:109450002DED048BA9B09FED799A4FF0000A754E5F
:10946000CDF810A00C3ECDF814A0CDF818A0D6F879
:109470002011022003297DD000209FED7B8A20ADA2
:1094800006EB800191ED2A0A05EB8001401CB8EE45
:10949000C00A042820EE080A81ED000AF0DB0FA8BC
:1094A00008F018FB24A808F079FB624B24AA9C332F
:1094B0000FA920462793FFF7B7FEF0EE408A04F18C
:1094C000180008F0C9FB81096148D6F830218242B2
:1094D00000DB0246B0EE680A2046FFF7FBFED6ED41
:1094E0003B0AB3460BA820EE200A86ED2E0A08F0B0
:1094F000F1FA13A90BA808F0E8FF4E480FAAF030C4
:109500000BA9064608F067FE31460BA808F040FE9E
:1095100000210DF13C080DF14C090DF1100E002257
:109520001346104601EB410C0CEB000759F827607D
:1095300008EB8007401C7F680328C6FB0723F3DB8A
:10954000900F40EA83004EF82100491C0329E6DB16
:10955000DBF820015E4600286AD05046CDF818A0FE
:10956000404200EE100AB8EEC00A20EE080A03F0EE
:109570003FFC00E0A2E08DED000A8DED019A8DED3B
:10958000029A0698404200EE100AB8EEC00A20EE99
:10959000080A03F0C3FE8DED030A9DED060ADFED18
:1095A000330AD6F83001B8EEC00A41F2883190FB98
:1095B000F1F080EE201A00EE100AF8EEC01A81EEEB
:1095C000210AB0EE001AC0EE011ABDEEE10A10EE5B
:1095D000101A490000EE101A0691B8EEC00A60EEAB
:1095E000200A00EE100AB8EEC00A20EE800ABDEE96
:1095F000C00A8DED060AB8EEC00A20EE080A03F094
:10960000F7FB8DED070A8DED089A8DED099A9DED1A
:10961000060AB8EEC00A20EE080A03F07FFE8DEDC0
:109620000A0A1CAA694620A808F02DFE6A461FE017
:109630004BE00000EC4F00200024744900000000C3
:1096400000409C4500004843000048420000C843D9
:1096500040420F000E2DB23D000000000000794096
:10966000000000000088B34000008030E10237476E
:1096700007A91CA808F007FE6F46DFED958AD4F80D
:10968000BC00002813DD002007EB800191ED000AEB
:1096900005EB800181ED000A20EE280A06EB80012F
:1096A000401C0428BDEEC00A81ED2A0AECDBD4F888
:1096B000BC00F6EE009A03280CD108E0C6F82001A1
:1096C00029B0BDEC048BBDE8F08F069848E700F0A8
:1096D0003DFEE0B396ED2A0AB8EEC00A20EE080A75
:1096E0008DED1C0A96ED2B0AB8EEC00A20EE080A92
:1096F0008DED1D0A96ED2C0AB8EEC00A20EE080A80
:109700008DED1E0A96ED2D0AB8EEC00A20EE080A6D
:109710008DED1F0AD6F820010028D1D096ED2E0A33
:1097200020EE290A03F064FB20EE280ABDEEC00AF1
:1097300086ED2A0AC6F8ACA0C6F8B0A096ED2E0AAF
:1097400020EE290A03F0EAFD20EE280A00E004E0FA
:10975000BDEEC00A86ED2D0A2BE096ED2E0A20EE16
:10976000290A03F045FB8DED070A8DED089A8DED72
:10977000099A96ED2E0A20EE290A03F0CFFD8DED11
:109780000A0A6A4607A920A808F07DFD684608F085
:1097900025FE002007EB800191ED000A06EB800119
:1097A000401C20EE280A0428BDEEC00A81ED2A0ADA
:1097B000F0DBD4F8C010279809F07EF8D6F8200125
:1097C0000028AAD0401E79E770B590F8B810414A39
:1097D000CC064FF000034FF0030101D4C2E9481357
:1097E000B0F82041E40509D4048EE40503D5B0F8AF
:1097F0007440E40502D4C2E948131AE0D2F83411E7
:1098000039B1D0E93013C91A4FF47A73B1FBF3F1CF
:1098100005E0D0F8B01044F62064A14202DBC2F8A3
:1098200030110AE0D2F82C512944C2F82C11A1427F
:1098300001DA002070BDC2E94B31FFF706FEF8E700
:1098400010B54FF49C71234802F023F9214C4FF0DE
:1098500080400021C4F8FC0044F8A80F1D48A8303F
:1098600009F02AF84FF47A70B7EE000A606784EDC9
:10987000110A10BD174880ED3B0A002070471549BA
:10988000C1F82801002070471249C1F834010020B6
:10989000704704224FF41671AFF2D30008F082BE75
:1098A000AFF2DB0009F046B910B5FFF7C9FF09496F
:1098B0000020C1F82801C1F83401AFF22900BDE849
:1098C000104008F0EDBEAFF2350009F059B90000C4
:1098D0000000804EE04F00201FB501461022684670
:1098E00002F0B0F8F7489DE80E0080E80E00F64957
:1098F0009DF80C0081F8B001002004B010BD1FB528
:10990000F0490EC98DE80E00EF49102291F8B01110
:109910008DF80C10694602F095F80020EDE72DE96E
:10992000F04F91B000251821684602F0B2F80024EB
:10993000182106A802F0ADF8E348A046C14690F809
:10994000C01101297ED1D0F8B8B1D0F8B4A100225D
:10995000C2EBC20000EB4001DB4800EB810E9EF839
:1099600050000F90002864D000215FE0DDE900077F
:109970006D1C5EF821300E93181847EBE376CDE9A5
:1099800000060EEB8100EDB243690D93DDE9027C28
:109990004FEAE376DB1946EB0C06CDE90236836A23
:1099A000DDE9047CDE170C93DB1946EB0C06CDE9F0
:1099B0000436C06B0E9BDDE9067C83FB0063360C2E
:1099C00046EA0346F6194CEB2343CDE906630D9BAB
:1099D000DDE9087C83FB00634FEA164646EA03464E
:1099E000F6194CEB2343CDE908630C9BDDE90A7CB7
:1099F00083FB00634FEA164646EA0346F6194CEB32
:109A00002343CDE90A6380FB00634FEA164646EA2A
:109A1000034616EB080849EB23490444584501DA8C
:109A2000834602E0504500DD8246491C0F9888427B
:109A30009CDC521C052A8BDBA348AAEB0B01D0F857
:109A4000BC0100E056E0814254DBA5FB0823E0178F
:109A50000026109006FB083005FB0900CDE90C201C
:109A600084FB0420110C41EA00410014CDE90E01F1
:109A700006A800EBC601D1E90003A0FB05B203FB79
:109A80000522002100FB012C684600EBC601D1E94C
:109A90000001A0FB043701FB0471109A00FB0210C7
:109AA000190C41EA00490CAA4FEA204A92E88900C1
:109AB0000F9983EA070880EA010252EA080212D0ED
:109AC000421A63EB0703BBEB09006CEB0A0C4FEA8D
:109AD0000C4141EA1041000401F05DFF7A4901EBBD
:109AE0008601C1F8A401761C032EC1DB7648012152
:109AF00080F8B01111B00020BDE8F08FF8B5724DBC
:109B00000E460446D5E96D01091A052291FBF2F1D2
:109B1000301A90FBF1F0C0B28DF80000042801D992
:109B20002020F8BDC0EBC00000EB400005EB800139
:109B300091F85000052816D0421C81F850209DF85D
:109B40000010C1EBC10101EB410105EB810202EB09
:109B50008001CE63236842F8203060684861A068C5
:109B600088620020F8BD01F14003181F1022194639
:109B700001F068FF9DF800001022C0EBC00000EB70
:109B8000400005EB8000011D01F05CFF9DF8000026
:109B90001022C0EBC00000EB400005EB800000F19C
:109BA0001801143001F04EFF9DF800001022C0EBA8
:109BB000C00000EB400005EB800000F12C012830D4
:109BC00001F040FF0420BAE730B585B0044603A990
:109BD000684608F01BF804A808F0CCF802282BD03F
:109BE000D4F8E4000399401A374991F8B02112B330
:109BF00008B3D1F8A421009C80FB0232150445EA89
:109C0000134222440092D1F8A821019C80FB023229
:109C1000150445EA134222440192D1F8AC11029A8C
:109C200080FB0110030443EA114010440290032119
:109C3000684608F0E3FE0CE0606B032809D107F0EA
:109C4000F7FF30B168460399FFF758FF08B9FFF7EF
:109C500066FE05B0002030BD10B54FF4E2711A4821
:109C600001F017FF18481949C0F8B4114FF4AA01C0
:109C7000C0F8B8114FF4A021C0F8BC11012180F840
:109C8000C011002010BD1049C1F8B8010020704774
:109C90000D49C1F8B401002070470B49C1F8BC015F
:109CA0000020704758B10849D1F8A4210260D1F8CA
:109CB000A8214260D1F8AC118160002070470520D6
:109CC00070470000BC520020185100200000D8FF4F
:109CD0002420F5E720B12D4981F8C0010020EFE7ED
:109CE0002420EDE7294B93F8B1010028E8D0D3E90F
:109CF0006D10401A052190FBF1F00020C0EBC0016F
:109D000001EB410103EB810191F8502022B10021C8
:109D100000E0491C8A42FCDC401C0528EEDB0020E8
:109D2000CEE7082296211A4808F03CBC184808F0F3
:109D300001BF10B5FFF790FF4FF49A731022154939
:109D4000154808F077FC20B9AFF2290008F0A8FC0C
:109D500008B1012010BD0D49012081F8B10100209A
:109D600010BD10B5094C94F8B101002808D008487E
:109D700008F0E0FEAFF2550008F002FF08B1012044
:109D800010BD002084F8B10110BD00001851002062
:109D9000C99B0200FF980200D9980200002803DD49
:109DA000FE490122C1E920020020704710B5B82108
:109DB000FA4801F06EFE9FEDFA0AF84880ED030ABA
:109DC0009FEDF80A80ED020A9FEDF70A4FF08041FF
:109DD00080ED000AB3EE0E0A80ED010A41664FF4F1
:109DE000FA619FEDF20AC16780ED270A002010BDDD
:109DF00070B5EA4C002594ED001AB4EEC01AF1EEED
:109E000010FA17D394ED011AB4EEC01AF1EE10FA5D
:109E100010DC2069012817D194ED030AB4EEE00AA2
:109E2000F1EE10FA06D394ED020AB4EEE00AF1EE78
:109E300010FA09DD606F20B9D848A16D183008F01C
:109E40003BFD0120C4E91D05D4E91E01884204DB65
:109E5000606F012800D1E565656770BD10B50446E7
:109E60002DED028BB0EE408A07F03EFECB4900227A
:109E700020B918EE100ACE4B984202DD0A614A6101
:109E800002E00869002808D1486920444861B0F51B
:109E9000FA7F02DD0120C1E90402BDEC028B10BD96
:109EA000F0B58DB00D4614460646694608F00DFB28
:109EB00009AA3146284608F08EF92946304608F0AE
:109EC00067F90021EC460DF1240E00231A461846CE
:109ED00001EB41073D180EEB80065CF825507668D3
:109EE000401CC5FB06320328F4DB980F40EA8200D1
:109EF00044F82100491C0329E7DB0DB0F0BDA74958
:109F00000020C1F88C00704710B590ED000AD0ED2C
:109F1000010AB8EEC00AB8EEE01AF8EEE00A20EE48
:109F2000000A01EE200AD0ED020AB8EEE01AF8EEBF
:109F3000E00A01EE200A03F0F6FADFED9E0A20EEB9
:109F4000200A10BD00229549012330B1012810D00C
:109F5000C1F8983041F88C2F31E081ED280A81ED6D
:109F6000290A9FED950A81ED2A0AE1E924328A60E7
:109F70007047D1ED280A91ED271A70EE600AF0EED5
:109F8000E00AF4EEC10AF1EE10FA16D2D1F894000C
:109F9000401CC1F89400D1ED290A312830EE800A26
:109FA00081ED290AE4DD0220DFED840AC1F890008A
:109FB00080EE201A81ED2A1A704741F8902F4A60EE
:109FC00070472DE9F04798462DED088B8AB017466B
:109FD0008A4604469FED788A0025704E03950495C5
:109FE0000595D6F8880000287DD007F02DFE10B129
:109FF00003A807F0FDFDD6F880004FF00109002806
:10A0000017DDC6F8849007F01FFE48B103A807F0DB
:10A0100023FE8009B0F5C87F02D2D6F8800004E0A4
:10A02000D6F88000001BC6F88000002801DCC6F8C6
:10A03000845007F0EBFF002855D000209FED5D9A7B
:10A0400057F8201000EE101A58F82010401CB8EEF7
:10A05000C00A032860EE090A00EE101AB8EEC00A22
:10A0600020EE800A00EE098AEADB3846FFF74CFF53
:10A07000F0EE408A4FF07E5788EE280AF7EE00AAED
:10A0800010EE100AB84201DDB0EE6A0A10EE100AB6
:10A09000DFF82C81BFEE00BA404501D9B0EE4B0A83
:10A0A00002F05EFCD6F88C00B0EE40AA98B196EDB6
:10A0B000000AB4EEE80AF1EE10FA0CDD96ED010AA2
:10A0C000B4EEE80AF1EE10FA05D2B0EE4A0AD6F87C
:10A0D0009000FFF737FF684607F036FE2F490C2245
:10A0E000AC31684600E0E2E001F0E5FC18B9D6F8D2
:10A0F000980001286BD129489DE80E00AC3080E81B
:10A100000E00009818B9019808B90298F0B3684693
:10A11000FFF7FAFEB0EE408AB5EEC08AF1EE10FA13
:10A1200055D0F2EE049A38EE690A20EE000A03F0E8
:10A13000FAF986ED010A38EE290A20EE000A03F04A
:10A14000F2F986ED000A9DED020AB8EEC00A60EE53
:10A15000090AB0EE480A80EE808A18EE100AB8426A
:10A1600001DDB0EE6A8A18EE100A404501D9B0EE62
:10A170004B8AB0EE480A02F0F3FBD6ED270A30EE28
:10A18000600A86ED020AB0EE480A00E024E002F020
:10A19000E7FBD6ED270A30EE200A14E0DC5200205F
:10A1A0000000B4420000B4C2000070427B142E3E96
:10A1B00000401C46000080370000000000004842BC
:10A1C000000080BF03E086ED030AC6F88C50DFF87C
:10A1D0008481F16D21B32FE01FED0D0A86ED000A99
:10A1E000B3EE0E0A86ED010AD6F89800012808D0D1
:10A1F0001FED140A86ED020A1FED170A86ED030A09
:10A20000E5E796ED2A0A96ED271A70EE410A30EE40
:10A21000010AC6ED020A86ED030AC6F89850D6E791
:10A220000027C6F85C9006EB07104146183007F08F
:10A230008DFC7F1C042FF6DB464906AA0C310F4625
:10A240005046FFF72DFE3946504607F0A1FF03A800
:10A2500007F002FD00EE100ADFED3F0A2046B8EEDF
:10A26000400A20EE200AFFF7F9FDF0EE4A0AB0EEB0
:10A27000680AFFF7BDFDD6E91E01884201DA2044D5
:10A28000B067706F90B9306E20443066B0F57A7F59
:10A290000CDD304930223039A1F11000356601F073
:10A2A000D1FB2C484146103807F050FC706F0AB0C3
:10A2B000BDEC088BBDE8F08770B588B0044604A8F3
:10A2C00007F06CFCD4E93001451A684607F002FC3F
:10A2D000064604AB04F1A00269462846FFF771FE6A
:10A2E00008F0FAFA08B0304670BD04224FF49671B7
:10A2F000AFF23B0008F056B9AFF2430008F01ABCC9
:10A3000010B5FFF753FD00280DD112480021583831
:10A31000C0F88C100121C0F88810AFF23100BDE800
:10A32000104008F0BDB910BD10B5AFF2730008F0D1
:10A3300001FCAFF27B00BDE8104008F0FBBB054913
:10A3400001205839C1F88C00002070470148583866
:10A35000406F7047345300200000803CF0B51D462C
:10A360002DED028B99B090ED000AD0ED010A174651
:10A37000B8EEC00AB8EEE01AF8EEE00A0E4620EE9B
:10A38000000A044601EE200AD0ED020AB8EEE01AF7
:10A39000F8EEE00A01EE200A03F0C5F8F0EEC00A7C
:10A3A00010EE900AB0F18D4F7EDDD6ED000AB8EECA
:10A3B000E01ADFEDFE0A21EE201A8DED041A96ED6B
:10A3C000011AB8EEC11A21EE201A8DED051A96ED8C
:10A3D000021AB8EEC11A21EE201A8DED061A96ED7A
:10A3E000031AB8EEC11A61EE200ACDED070A9FEDFF
:10A3F000F08A10AA8DED0C8AD4ED000A0CA904A8ED
:10A40000F8EEE00A80EE801A8DED0D1AD4ED010A07
:10A41000F8EEE00A80EE801A8DED0E1AD4ED020AF5
:10A42000F8EEE00A80EE801A8DED0F1A07F02BFF90
:10A4300014A904A807F0B8FE6A4614A910A807F0EA
:10A4400022FF9DED021ADDED010ADA4921EE010A33
:10A4500000EEA00A10EE100A884202DA9FEDD60A3A
:10A4600011E010EE100AD549884202DA9FEDD40AB5
:10A4700009E010EE100AD349884202DAB5EE000A6C
:10A4800001E09FEDD10A01EE907AB8EEE12ADFED0E
:10A49000CF2A8DED088AC2EE221A21EE800A21EE23
:10A4A000001A8DED091A00E038E020EEC00A6A4675
:10A4B00004A98DED0A0A8DED0B8A08A807F0E3FECA
:10A4C0006A4604A9104607F042FE684607F044FFBA
:10A4D000DDED000A9FEDBE0A60EE800AFDEEE00AA7
:10A4E000C5ED000ADDED010A60EE800AFDEEE00A2E
:10A4F000C5ED010ADDED020A60EE800AFDEEE00A1C
:10A50000C5ED020ADDED030A20EE800ABDEEC00AA9
:10A5100085ED030A19B0BDEC028BF0BD96E80F0083
:10A5200085E80F00F6E72DE9F0410C462DED068B8E
:10A53000054690ED000AD0ED010AB8EEC00AB8EE6B
:10A54000E01AF8EEE00A20EE000A01EE200AD0ED53
:10A55000020AB8EEE01AF8EEE00A01EE200A02F074
:10A56000E2FF10EE100A4FF07E5800264FF08047B1
:10A5700040453FDDD5ED020AB7EE009AF8EEE00A5D
:10A58000C0EE808A39EE680A9FED89AAB5EEC00A4E
:10A59000F1EE10FA01DCB0EE4A0AF6EE009A20EE77
:10A5A000290A02F0C0FFB0EE408A38EE890AB5EE03
:10A5B000C00AF1EE10FA01DCB0EE4A0A20EE290AD8
:10A5C00002F0B1FFF0EE408A95ED000AB8EEC00A45
:10A5D00060EE000A95ED010AB8EEC01AB8EEC00AA6
:10A5E00041EE000AB0EE600A02F09DFF10EE100A84
:10A5F000404503DCC4E90076A66025E0DFED740A7F
:10A6000028EEA01ABDEEC11A84ED001A95ED011ACC
:10A61000F8EEC11A81EE801A21EE081A61EE200AC6
:10A62000FDEEE00AC4ED010AD5ED000AF8EEE00AFD
:10A6300080EE801A21EE080ADFED660A20EE200A7D
:10A64000BDEEC00A84ED020AE660BDEC068BBDE8F3
:10A65000F08170B590ED000AD0ED010A0546B8EE24
:10A66000C00AB8EEE01AF8EEE00A0C4620EE000A46
:10A6700001EE200AD0ED020AB8EEE01AF8EEE00A88
:10A6800001EE200AD0ED030AB8EEE01AF8EEE00A77
:10A6900001EE200AB5EEC00AF1EE10FA07D84FF02D
:10A6A0008040206000206060A060C86070BD02F043
:10A6B0003AFFB7EE001AC1EE000A9FED450A20EE00
:10A6C000800AD5ED000AF8EEE00A60EE800AFDEEA1
:10A6D000E00AC4ED000AD5ED010AF8EEE00A60EEEA
:10A6E000800AFDEEE00AC4ED010AD5ED020AF8EE9B
:10A6F000E00A60EE800AFDEEE00AC4ED020AD5ED44
:10A70000030AF8EEE00A20EE800ABDEEC00A84EDEE
:10A71000030A70BD70B5044690F8300088B040065A
:10A720007ED5A069002801DB014600E041424FF4DC
:10A7300080320026284D91420BDAE169002900DAC7
:10A740004942914205DA216A002900DA49429142E0
:10A7500067DB002800DA40424FF4C80188420BDC76
:10A76000E069002800DA4042884205DC206A0028BF
:10A7700000DA4042884201DD032000E00220A863A5
:10A78000696BA06A814242D0686394ED0A0A9FED2A
:10A79000131AF8EEC00A80EE810ADFED110A20EEEE
:10A7A000200A10EE100A01F08FFB1BE00000803041
:10A7B0000000000017B75139A69BC43B0AD7233CC1
:10A7C0008FC2753DCDCC4C3ECDCCCC3E0014CD4798
:10A7D0000000804E000080CE945300200024744975
:10A7E0000000004E9FEDFA1B53EC112B01F017FAFD
:10A7F0009FEDF91B53EC112B01F011FA9FEDF81BA3
:10A8000053EC112B01F07DFA01F03FFB2863049615
:10A81000296BA06907F083FC0590296BE06901E0D2
:10A8200022E023E007F07BFC0690296B206A07F00A
:10A8300076FC07906A4604A9EB4807F0CCFC009828
:10A84000E94A8001009001986946800101900298D0
:10A8500080010290039880010390104607F065FC88
:10A86000E1490846FFF7F5FE08B070BDAE63FBE7AF
:10A8700070B504462DED048B8EB0D0F82001410652
:10A8800076D5D94DD4F81011D84B2A68891AD4F846
:10A890002C215A438A4201DA032100E00221A963F4
:10A8A000800504F5887602D5CF493046B5E0002111
:10A8B00007A807F0ABF9CC490C223C3107A801F0FE
:10A8C000FAF820B9D4F82801A96D88427ED02088F2
:10A8D0006B4680B207AA616A06F0DAFF9DED000AB6
:10A8E000DDED010AB8EEC00AB8EEE01AF8EEE00AB3
:10A8F00020EE000A01EE200ADDED020AB8EEE01AB1
:10A90000F8EEE00A01EE200A02F00DFEB0EE408AF9
:10A910009FEDB70A68EE000A9FEDB61A80EE810A35
:10A92000DFEDB50A20EE200AD4ED4A0AF8EEE00A7F
:10A9300060EE800A1FED571A80EE810AF6EE000ADB
:10A9400020EE209AB0EE490A02F052FAF0EE408A68
:10A95000B0EE490A02F0E2FC18EE100A4FF0804116
:10A96000884206DA0020C5E912102865686532E0E1
:10A9700055E05FED690A68EEA00AFDEEE00AC5ED5C
:10A98000120A5FED6C0A20EE200ADDED000AF8EEF7
:10A99000E00A60EE200A80EE881AFDEEC10AC5EDDD
:10A9A000130ADDED010AF8EEE00A60EE200A80EEFF
:10A9B000881AFDEEC10AC5ED140ADDED020AF8EEB3
:10A9C000E00A20EE200AC0EE080A00E00DE0BDEE2D
:10A9D000E00A85ED150A07AB93E8070005F13C0393
:10A9E00083E80700D4F82801A8657F4903AA483105
:10A9F000304607F0F0FB7C480AAA5C3003A9044605
:10AA000007F0E9FB2146304607F0C2FB03AA0AA97A
:10AA1000754807F0E0FB744903A8FFF71AFE0EB073
:10AA2000BDEC048B70BD1FB5044669466E4807F047
:10AA3000AFFB6D4A69462032204607F0CCFB6A49DD
:10AA40001DCC103181E81D001FBD2DE9F0470446E3
:10AA5000654E90F8740006F15C0A06F120080125A5
:10AA600000F05001103692B004F5887904F15C07CB
:10AA7000402906D094F8200100F0500040280DD065
:10AA80001DE031463846FFF74EFDB4F82001C00501
:10AA90000CD55146484607F07BFB07E05146484637
:10AAA00007F076FBB4F87400C00508D569464E4837
:10AAB00007F06EFB42466946304607F08CFBB4F85F
:10AAC0002001C005204602D5FFF7D2FE01E0FFF7C6
:10AAD00021FE32464449404607F07DFB94F874005D
:10AAE00040066FD5208EB4F820110843C0056DD5FF
:10AAF0000FAA3946304607F0C9FCD4E9172080FB7D
:10AB00000001C2FB0201626E374FC2FB02014FF02F
:10AB10008042801A71F1020014DB04A807F0D4F817
:10AB2000DDE9042080FB0001C2FB0201069AC2FBA2
:10AB300002014FF08042801A71F1020002DB042012
:10AB4000B8630BE0B86B042808D041F288320228C1
:10AB500006D0032804D0012852D009E0002507E0E0
:10AB6000E16E91FBF2F5012D00DA0125032800D0FA
:10AB7000AD002248002445431098079480022946DE
:10AB800007F0CDFA08900F9829464042800207F05E
:10AB9000C6FACDE909040BAA314607A807F01BFB4A
:10ABA00032460BA9104607F0C0FA31460846FFF7B7
:10ABB00050FD69460C4807F0EBFA424669463046BC
:10ABC00007F009FB12B00020BDE8F08720E000008C
:10ABD000112D4454FB21094000000000000070408A
:10ABE00000000000008066409453002071981C0013
:10ABF000DB0F49400000344300008037A69BC400AF
:10AC0000E06E90FBF2F0012800DA01204500AFE78A
:10AC1000334619463846E26EFFF7A0FBC9E770B528
:10AC20000446008EC105D4F8200107D4B4F874108E
:10AC3000C90503D4C10501D4002070BDC0F30120B3
:10AC4000032807D02046FFF700FF2348A16B07F039
:10AC500061FFF1E704F588711F482EC980E82E00D6
:10AC6000F3E71E4807F066BF1B4810B56C2110388B
:10AC700000F00FFF18484FF080411038016101606B
:10AC80000162C163C165002010BD184810B50822DB
:10AC900013A1006800F00FFF08B1322010BD13228D
:10ACA000BDE81040C8210D4807F07CBC10B5FFF787
:10ACB000DBFF002805D1AFF22D00BDE8104007F002
:10ACC000EFBC10BD10B5054807F034FFAFF24500EA
:10ACD000BDE8104007F054BFA45300201FAC020091
:10ACE000654D504C20352E310000000040300020D2
:10ACF00000209FEDFE0AFE4ADFEDFE0A02EB800116
:10AD0000401C81ED080AC0B2C1ED0B0A0328F5D33F
:10AD10007047F74A002002EB8001D1ED080A91ED5F
:10AD20002D0AF4EEC00AF1EE10FA01D281ED080A04
:10AD3000D1ED0B0AF4EEC00AF1EE10FA01DD81ED5F
:10AD40000B0A401CC0B20328E5D370473EB50B4642
:10AD5000B0F8481009040091B0F84A10009A0904AC
:10AD60000191B0F84C1009040291E1494C6E121B9C
:10AD70000092019A8C6E121B0192029AC96E511AAE
:10AD80000291816EB0F844006A4680B206F080FD00
:10AD90003EBDF0B5D64F00242546D7F894208DB09F
:10ADA0002E46012A01D1C7F8946009A9FFF7CEFF0A
:10ADB00005A806F0F3FE059909986022A0EBA130E2
:10ADC000099006990A98A0EBA1300A9007990B9870
:10ADD000A0EBA130C8490B90081F00F033FE0DF125
:10ADE000240CC5489CE80E00143080E80E0068462C
:10ADF00006F06AFFC04960226C31081F00F022FE95
:10AE0000BD489DE80E00803080E80E000021092238
:10AE1000D7F82C04401CC7F82C0401EB410007EBC9
:10AE20008000DDF800C0D0F84C33491C93FBF2F3EE
:10AE30001C44D0F85033092993FBF2F31D44D0F899
:10AE4000543393FBF2F31E44D0F8B83393FBF2F380
:10AE500063440093D0F8BC33DDF804C093FBF2F3F5
:10AE600063440193D0F8C003029B90FBF2F01844B6
:10AE70000290CDDB002C00DA6442002D00DA6D4236
:10AE8000002E00DA76420098002800DA4042009056
:10AE90000198002800DA404201900298002800DA68
:10AEA00040420290009900208C4200DA0120019972
:10AEB0008D4200DA401C02998E4200DA401CD7F81D
:10AEC0002C14092900DB401C04280DD197F8240418
:10AED00002280BD901468648D7F82824643007F0A9
:10AEE00075FC012007F06CFC0DB0F0BD07F036FCDE
:10AEF000FAE72DE9F0417E4D00272DED048B064643
:10AF00003C4685F824749FED7D9B9FED7E8BC5F8B4
:10AF1000287405EB8400D5ED0F0A90ED330AB4EEEA
:10AF2000E00AF1EE10FA1EDB95ED140B53EC182B32
:10AF300051EC100B00F06DFE41EC100B02F000F82C
:10AF400053EC192B51EC100B00F0D2FF0BD295F8FB
:10AF500024040121401C85F82404D5F82804A140CC
:10AF60000843C5F82804641CE4B2032CD1D395F837
:10AF70002404B8B3002406EBC40090ED000B51ECA0
:10AF8000100B00F082FF05EB8401641CE4B24866FC
:10AF9000032CF0D3C5F82C74A868042802DA95F8BD
:10AFA0002404A86095F8240403281BD15749E868B5
:10AFB000884217DC95ED140B53EC182B51EC100B59
:10AFC00000F027FE41EC100B01F0BAFF53EC192BF7
:10AFD00051EC100B00F08CFF04D2A868032801D1BB
:10AFE0000420A8604A49286988421DDA4949E8686E
:10AFF000884219DC95ED140B53EC182B51EC100B17
:10B0000000F007FE41EC100B01F09AFF9FED421B90
:10B0100051EC100B53EC112B00F06AFF04D2A8681E
:10B02000042801D10520A860BDEC048BBDE8F081A7
:10B030002DE9F0412E4C0746D4F8A404012802D093
:10B0400000252846F2E73649F7EE000AA1F1E800AC
:10B05000B7EE000A0646FBF7B2FA254A30465032F0
:10B0600002F5AC71FBF74DFD0500EAD06068401CAD
:10B07000606094ED140B51EC100B00F006FFB96EFC
:10B0800007F04DF800EE100ADFED260AB8EEC00A10
:10B0900020EE200A10EE100A00F016FFC4E9140199
:10B0A00094ED6A0B51EC100B00F0EFFEA06594EDEF
:10B0B0006C0B51EC100B00F0E8FEE06594ED6E0BAC
:10B0C00051EC100B00F0E1FE206694ED680B9FED53
:10B0D000161B51EC100B53EC112B00F021FFB0D2DA
:10B0E00031469FED130AF0EE400A23E000401CC6F3
:10B0F0000054002000401C46505700209A9999990E
:10B100009999B93F000000000000F03FAE47E13DD3
:10B1100000007A43BC74933C9CC420B07268913F99
:10B12000C855002000008037000000000070A740D4
:10B13000CDCCCC3E0846FBF742FA82E7D0ED030ABD
:10B1400090ED040A00210122F4EEC00A0223F1EE80
:10B1500010FA12DD90ED051AF4EEC10AF1EE10FAC4
:10B160000BDDB4EEC10A0164F1EE10FA02DBC0E9B6
:10B1700011237047C0E911327047B4EEE00AF1EED6
:10B1800010FA12DD90ED051AB4EEC10AF1EE10FAD4
:10B190000BDDF4EEC10A0264F1EE10FA02DBC0E945
:10B1A00011137047C0E911317047F4EEC00A03640F
:10B1B000F1EE10FA02DBC0E911127047C0E911216B
:10B1C0007047002319469FEDFE0AC36400EB81021D
:10B1D000491C82ED000A82ED090A0329F6DB0121F0
:10B1E000C0E91D13704730B504461420A0650A203D
:10B1F0002066002584F870502046FFF7E2FF656561
:10B2000030BD70B52DED048B86B06946FFF79EFD0D
:10B210009FEDEC8B1FED3D9A00246E4603AD56F872
:10B22000240000EE100A05EB8400B8EEC00A20EE00
:10B23000090A80ED000A20EE000A10EE100A00F064
:10B2400043FE53EC182B00F043FC41EC180B641C3C
:10B25000032CE4DBB0EE480AF0EE680A02F026F9AF
:10B26000DA4EB0EE408AF0EE608A002455F82400F1
:10B2700000F02AFE53EC182B00F043FD00F068FEAE
:10B2800000EE100A06EB840000F58060641CD0ED2F
:10B290000C0A032C30EE200A80ED0C0AE6DBD6F80F
:10B2A0008404401CC6F884040120C6F8AC0406B02F
:10B2B000BDEC048B70BD70B505462DED028B86B0DC
:10B2C00004AA03A9684606F071FE9FEDBE8B002418
:10B2D0006E4606EB840090ED000A20EE000A10EEA8
:10B2E000100A00F0F1FD53EC182B00F0F1FB41ECDB
:10B2F000180B641C032CECDBB0EE480AF0EE680A75
:10B3000002F0D4F8B0EE408AF0EE608A002456F8DD
:10B31000240000F0D9FD53EC182B00F0F2FC00F0F3
:10B3200017FE00EE100A05EB8400641CD0ED000A45
:10B33000032C30EE200A80ED000AE8DB686D401C2B
:10B3400068650120E86706B0BDEC028B70BDF0B502
:10B3500004460021F7EE001A9FED992A94ED140A95
:10B3600004EB8100B8EEC01AD0ED000A80EE810A2D
:10B37000B5EEC00AF1EE10FA02DBB0EE401A01E0C1
:10B38000B1EE401AD0ED060AF5EEC00AF1EE10FA61
:10B3900001DAF1EE600A71EE600AC0ED0C0A80ED90
:10B3A000060A94ED0F1AD0ED092A71EE610A00EE3B
:10B3B000A20AC0EE010AC0ED090AF5EEC00AF1EEDC
:10B3C00010FA01DAF1EE600AC0ED030A491C80EDC3
:10B3D000002A0329C2DB2046FFF7B0FEE06CB0F57F
:10B3E0007A7F01DA401CE06494F870700021052631
:10B3F000042303250122206C062F09D2DFE807F081
:10B400000309102B52376267A267E16484F8702049
:10B41000F0BDE06F0128FBD1022084F870000DE040
:10B4200004EB8000D4ED190A90ED030AB4EEE00AB3
:10B43000F1EE10FA04DB84F8703031E0A167F0BD62
:10B44000D4ED1A0AB4EEE00AF1EE10FA22D934E093
:10B450006267A267F0BD04EB8000D4ED190A90ED9D
:10B46000030AB4EEE00AF1EE10FAE4DAF0BD04EB00
:10B470008000D4ED1A0A90ED030AB4EEE00AF1EE72
:10B4800010FA07D9006B524EB04206D9216EE06C1B
:10B490008842EBDB84F87050DAE784F87030E164BE
:10B4A0006167CBE704EB8000D4ED1B0A90ED030A43
:10B4B000B4EEE00AF1EE10FAD8D884F87060E164D6
:10B4C000C6E710B5044600EE104AB8EEC00ADFED3C
:10B4D000410A20EE200A9FED401AC0EE010AB6EEA6
:10B4E000000A20EE800A10EE100A00F0EDFC41EC9C
:10B4F000100B01F019FC9FED391B51EC100B53ECB4
:10B50000112B00F08CFB00F0C0FC01462F48C0E975
:10B51000204110BD2DE9F04F00242DED028B91B09C
:10B520000546049405940694C06E44F62061274EA7
:10B53000884206DBD6F88010884210D0FFF7C1FFA2
:10B540000DE0D6F848231044C6F8480388427DDB56
:10B55000E96E814201D0FFF7B4FFC6F84843286B7B
:10B56000C6F8B0042846FFF74CFE06F5906003C805
:10B57000814204DB1B48FFF7EAFEC6F88444D6F894
:10B58000A804012802D12846FFF703FCD6F8A4043A
:10B5900001285BD104A806F0B5FB9DED040ADDEDA2
:10B5A000050A20EE000A00EEA00ADDED060A00EE14
:10B5B000A00A01F0B8FF86ED030ADFED0B0A15E0E3
:10B5C0000000000000000000000000000054002007
:10B5D000CDCC4CBD368D27400024744900000000BE
:10B5E0000000D041305800200000804620EE200AA4
:10B5F000C149A146ADF82040BDEEC00A099110EE48
:10B60000100AADF81C00ADF81E4007A8FDF7BEFA01
:10B61000684606F0B7FB316F009806F080FD0446DF
:10B62000716F019806F07BFD0444B16F029806F03B
:10B6300076FD0444F16F039806F071FD04EB0008F9
:10B640009DE80F0000240DF1340A00E0A2E006F1AD
:10B6500070079FEDAA8A87E80F000DF1280B05EB14
:10B660004407A96E37F8480F000406F058FD00EEB5
:10B67000100A4AF8240006EB8400B8EEC00A20EE57
:10B68000080A80ED050A388801044BF82410641C70
:10B69000E4B2032CE3D398480AA9E8380446FBF740
:10B6A0005EF83168D6F82803884273DB95ED390AD5
:10B6B000D6ED360AB8EEC00AF5EEC00A20EE080A4A
:10B6C000F1EE10FA05D070EE600AF0EEE00AC6ED79
:10B6D000370A86ED360AB068062818D2DFE800F08F
:10B6E000030303030D249FED860AC82086ED0E0A8E
:10B6F000B7EE000A86ED0F0A08E09FED820A86ED9C
:10B700000E0A9FED810A642086ED0F0A3064288EB0
:10B71000C005099812D4FDF748F900F061FB00EE6E
:10B72000100A5FED530A11E09FED780A86ED0E0ACC
:10B730009FED770A322086ED0F0AE7E7FDF78FF8D5
:10B7400000F04EFB00EE100ADFED720A982180EE49
:10B75000201A86ED041A099800F09BF9D6F8841097
:10B76000414543DA96ED040AB5EEC00AF1EE10FA4F
:10B770003CDDD6ED0E0AB4EEE00AF1EE10FA35D259
:10B78000316C7068884206DA2846FFF751FC0028C1
:10B7900059D00CE056E06049D6F8B000884206DB8C
:10B7A0002846FFF745FC00284DD0C6F8049000203D
:10B7B00006EB8001401C91ED050AC0B281ED2D0A17
:10B7C0000328F5D3FFF7A5FA002006EB8001401C03
:10B7D00091ED080AD1ED0B0AC0B2032830EE600AE1
:10B7E00081ED330AF1D34D48FFF783FB002006EBD0
:10B7F0008001401C91ED260AD1ED050AC0B2032854
:10B8000030EE600AB0EEC00A81ED290AEFD396ED62
:10B81000290AD6ED2A0A002030EE200AD6ED2B0A9E
:10B8200030EE200A86ED2C0A06EB8001401C91EDDB
:10B83000050AC0B281ED260A0328F5D3E821204687
:10B8400000F027F9002011B0BDEC028BBDE8F08FAD
:10B8500010B54FF49761324800F01BF9304C0A20C4
:10B86000206040072067FFF743FA04F58660FFF782
:10B87000BAFC2068C4F880049FED2A0A04F58060B1
:10B880001E2180ED1B0A9FED280AC4F88C1480ED60
:10B89000260A9FED260A80ED250A9FED250A80EDF8
:10B8A000270A1920FDF722FC002010BD012240F2DA
:10B8B0005231AFF29F3006F075BEAFF2A73007F0FD
:10B8C00039B910B5FFF7C4FF002805D1AFF2230046
:10B8D000BDE8104006F0E4BE10BD10B5AFF2CB30AD
:10B8E00007F028F9AFF23B00BDE8104007F048B977
:10B8F0000B48806870470000B05600200000803779
:10B900000080BB44000096439A99993F0000704222
:10B910003333B33F0050C347CDCC4C3DA855002036
:10B920000054002000000042CDCCCC3ECDCC4C3F9A
:10B930003333333F2DE9F05F0546002092469B46A6
:10B9400088460646814640241BE028464146474635
:10B95000224600F02FFB53465A46C01A914110D39D
:10B9600011461846224600F047F82D1A67EB0108E9
:10B970004F4622460120002100F03EF817EB000957
:10B980004E41201EA4F10104DFDC484631462A4620
:10B990004346BDE8F09F2DE9F0410024061B2546F3
:10B9A00071F1000605DA01240027D0EB070067EBF0
:10B9B0000101161E73F1000605DA0027D2EB07021B
:10B9C000012567EB0303FFF7B5FF86460E461746D2
:10B9D0009C46AC4204D00025D0EB050E65EB010679
:10B9E00024B10020D2EB000760EB030C7046314617
:10B9F0003A466346BDE8F081202A04DB203A00FA8B
:10BA000002F1002070479140C2F1200320FA03F3B5
:10BA1000194390407047202A06DBCB17203A41FAA1
:10BA200002F043EAE07306E041FA02F3D040C2F1CB
:10BA300020029140084319467047000000487047B3
:10BA4000EC8C030010B5431A934209D2831888186E
:10BA500003E010F8011D03F8011D521EF9D210BDBC
:10BA600040EA01039B0703D009E008C9121F08C080
:10BA7000042AFAD203E011F8013B00F8013B521E00
:10BA8000F9D210BDD2B201E000F8012B491EFBD261
:10BA900070470022F6E710B513460A4604461946D9
:10BAA000FFF7F0FF204610BD421C10F8011B0029D3
:10BAB000FBD1801A704730B504460020034600E0F1
:10BAC0005B1C934203D2E05CCD5C401BF8D030BDE0
:10BAD0002DE9FE4F804681EA0300C00F0C4600901E
