:020000022000DC
:1060000000000120756302005D6302005F6302000F
:106010006163020063630200656302000000000028
:1060200000000000000000000000000067630200A4
:1060300069630200000000006B6302006D630200F0
:10604000997802006F630200AD7A02006F6302006C
:106050006F6302006F630200357902006F63020014
:106060006F6302006F6302006F6302006F630200E0
:106070006F6302006F6302006F6302006F630200D0
:106080006F630200E16902006F6302006F63020048
:106090007D6A02006F630200559902006F6302007F
:1060A0006F6302006F6302006F6302006F630200A0
:1060B0006F6302006F630200000000000000000038
:1060C0006F6302006F6302006F6302006F63020080
:1060D0006F6302006F6302006F6302000000000044
:1060E00000000000000000000000000000000000B0
:1060F00000000000000000000000000000000000A0
:10610000000000000000000000000000000000008F
:10611000000000000000000000000000000000007F
:10612000000000000000000000000000000000006F
:10613000000000000000000000000000000000005F
:10614000000000000000000000000000000000004F
:10615000000000000000000000000000000000003F
:10616000000000000000000000000000000000002F
:10617000000000000000000000000000000000001F
:10618000000000000000000000000000000000000F
:1061900000000000000000000000000000000000FF
:1061A00000000000000000000000000000000000EF
:1061B00000000000000000000000000000000000DF
:1061C00000000000000000000000000000000000CF
:1061D00000000000000000000000000000000000BF
:1061E00000000000000000000000000000000000AF
:1061F000000000000000000000000000000000009F
:10620000354936480A1A02D0072291438D4634494F
:1062100034480A1A06D00722914381F309880222E2
:1062200082F3148830483149314A00F044F831484B
:106230003149324A00F03FF831483249324A00F0E1
:106240003AF832483249334A00F035F83248334997
:10625000334A00F030F833483349344A00F02BF821
:1062600033483449344A00F026F83448344900228F
:1062700000F02CF833483449002200F027F8334866
:106280003349091A082902DB002202604160314AC1
:1062900090471F481F49884205D00268043003B464
:1062A000904703BCF7E700208646EC46002000211B
:1062B000294A9047FEE7884207D0521A05D0037852
:1062C00001300B700131013AF9D17047884202D098
:1062D00002700130FAE770470000012000E0002062
:1062E000000001200000012014B202000030002054
:1062F000E6320020D4630200D463020020A502002D
:1063000014B20200003000200030002000A602007D
:1063100000A6020000A6020000A6020000A60200DD
:1063200000A6020000A6020000A6020013B20200AE
:10633000FCB40200E8320020E8320020E8320020FD
:10634000EC420020EC420020EC420020EC42002015
:10635000EC6200209D63020041880200FEE7FEE738
:10636000FEE7FEE7FEE7FEE7FEE7FEE7FEE7FEE705
:10637000704700BF1048804710484FF0070188431E
:1063800085460F4880470F48016841F4700101605D
:10639000BFF34F8FBFF36F8FFFF732BF0A480B4930
:1063A0000B4A884207D0521A05D0037801300B708F
:1063B0000131013AF9D170477163020000000120F8
:1063C000D573020088ED00E000A602000030002036
:0463D0000030002079
:1063D400037813F0040216D003F00303012B03D057
:1063E400022B09D0012070470A6800880232C0F3EA
:1063F400831002440A60F5E70B684288023303EB1A
:1064040092130B60EEE71046704700002DE9F04F41
:10641400DFF830A187B00F4600230446861C0DF137
:10642400070015468DF8073000F0BEFDDAF80010BD
:106434003960DAE90132134401335B1A0AF21C476A
:106444000AF583690AF21448B3421CD30020002DD4
:1064540073D004F00F039B0143F0050363F30F00B3
:10646400DAF80020DAF808301340033332444AF8EB
:1064740023009DF80700CAF8002000F0B9FD0120B0
:1064840007B0BDE8F08F0121384600F0EAFD484628
:1064940000F0FFFD404600F0FCFDDAF80400DAF8F5
:1064A40008B0029000EA0B0003300AEB800002A956
:1064B400FFF78EFF029B50BB0BEA03020AEB82023A
:1064C40003F1020CD2680392013303EA0B0B0AEBCB
:1064D4008B0B02F00302012ADBF80C10CDF808C084
:1064E40023D0022A16D08346404600F0D5FD10B1D1
:1064F400029BCAF804305946384600F0B2FDDAE986
:1065040001231344DAF8002001339B1A9CE70BEAB9
:106514000300C9E7BDF80E30C3F3891303334FEA10
:10652400114B0CEB93030293DEE7BDF80C30C3F37D
:1065340083134FEA114B6344F5E7A40544F00600C6
:106544008EE700BFB8330020034BD3E90030C31AF1
:1065540058425841704700BFB83300202DE9F0433A
:1065640087B0FFF7F1FF0646002840F0FE80804C1C
:10657400C4F81804BFF34F8F6368A56802932B40D7
:10658400033304EB830002A9FFF722FF029B18B137
:10659400D4F81824002A62D005EA0302991C0133B6
:1065A40004EB82022B4004EB8303D268DB68049380
:1065B40002F00303022B0392029163D1BDF80E3063
:1065C4006C48C3F38917502FB84628BF4FF05008C2
:1065D40008F1080168F38F13C1F30901ADF80E3017
:1065E40000F0F4FD0646002800F0AA8000F01DFE2D
:1065F4000023082203A9304600F029FE029925EA67
:1066040001020132B8EB820F4FEA820333D95FFAF9
:1066140088F863B32940DDB2A8EB050803315FFABB
:1066240088F9A846544D04EB8101082342463046BC
:1066340000F00DFE3DB108F10803DBB24A462946DD
:10664400304600F004FE029B033703EB97070297E2
:10665400D4F81834002B4BD1D4F810545BE02268E2
:106664009A428CD86260304607B0BDE8F083424954
:106674001D469946D9E7294003310823424604EBD5
:106684008101DDE7012B5BD1BDF80C303948C3F340
:106694008311062928BF062161F38913023101F011
:1066A4000F018900ADF80C3000F090FD064600287B
:1066B40046D000F0BAFD0023082203A9304600F0BA
:1066C400C6FD0027BDF80C20C2F38312BB0097421D
:1066D40003F10803BCD202994A1C294003310292F7
:1066E40004EB81010422304600F0B1FD0137E9E7F3
:1066F400304600F09EFDFFF727FF80F00100C6B290
:10670400B1E7EB685B7923B12B6831461B682846F7
:106714009847EB681D68002DF3D1304600F089FDE1
:106724000DF107008DF8075000F03EFCD4F8183442
:106734000BB9029B63609DF8070000F059FCDAE78F
:10674400D4F8104454B90D4B0D480E49C01AC00872
:10675400000440F0020000F063F8CCE72368204610
:106764009B689847E3681C68ECE700267BE700BF5A
:10677400B8330020A4A50200C43300202CA50200D5
:1067840054A5020000A602002DE9F74F224E04464C
:106794000F46924601A901221846D6F808909B4656
:1067A400FFF734FE20B3019D4FF00008AA1CD84522
:1067B40008EB020126D11948002100F02FFC80F3D8
:1067C4001000000440EA1440E4006B1C04F0380498
:1067D40003EA090305EA090544F0010406EB83030F
:1067E400033544EA881444EA8724D86046F82540EF
:1067F40096F820341BB1FFF7B1FE0028FBD103B09B
:10680400BDE8F08F09EA010106EB81015AF828304E
:10681400CB6008F10108CAE7B8330020D437002060
:1068240000231A46FFF7B0BF07B50123019201AA5E
:10683400FFF7AAFF03B05DF804FB07B5CDE9002319
:1068440002236A46FFF7A0FF03B05DF804FB7FB59F
:10685400CDE90023089B0293099B03930A9B0493AD
:106864000B9B05936A460623FFF78EFF07B05DF87E
:1068740004FB000038B5084B0125D3F8104483F815
:10688400205404B938BDE3685D71236820465B6811
:106894009847E3681C68F4E7B83300201FB500216B
:1068A400039001AA44F20100CDE9011100F004F8BB
:1068B40005B05DF804FB000038B572B6FFF7DAFFE7
:1068C400FFF74CFE0028FBD1104B114C114D12491F
:1068D400E41AE408240444F00100FFF7A1FFD5F80A
:1068E400F030DB0700D500BE0C4944F00200FFF78E
:1068F40097FFBFF34F8FEA68094B02F4E06213433A
:10690400EB60BFF34F8F00BFFDE700BF2CA5020073
:1069140054A5020000ED00E015A6020021A6020025
:106924000400FA0549B152B1531E1A4007D18260DE
:1069340001608380C260104670470E2070470920B2
:10694400704710B58468C2688388121B934208D3C9
:10695400C26813400268D154C3680133C360002085
:1069640010BD0420FCE78268C3689A420AD082689A
:10697400838813400268D35C0B708368013383609F
:106984000020704705207047024B4FF43C6043F0F1
:106994000103184730A6020038B50C4B0C4C4FF4D9
:1069A4000032C3F8802001254FF48033C4F8483303
:1069B400C4F808336560FFF7E7FF064BA5600024C1
:1069C4001C60FFF7E1FF044B1C7038BD00E100E0E0
:1069D40000100140F8380020E9380020F8B51F4BBA
:1069E4001F491B680025C1F84051C1F84451C1F842
:1069F4004851C1F84C51C1F80051C1F804514BB38E
:106A0400D1F8044517490968641A24F07F442F46D5
:106A14001A68A24209D8A41A15441A7CDE691AB16C
:106A2400D3E905201F749047AEB90F4A0F4B117874
:106A34001B788B4205D10133DBB2022B08BF002344
:106A4400137012780A4B43F822500A4B4FF4801209
:106A5400C3F80021F8BD3346DAE700BFFC38002054
:106A640000100140F8380020F5380020F4380020E8
:106A7400EC38002000E100E02DE9F04FA14AA249E2
:106A840013780978A14D994285B03CD00133DBB22B
:106A9400022B08BF002313709D4912789D4B0F6889
:106AA40053F822003B1823F07F4300220B602B682D
:106AB40016461446944613B942B12B6006E0196891
:106AC40081420ED902B12B60091A196001272B6883
:106AD400DFF848A201934FF00008BEB9DFF844B2D2
:106AE40060E0401A0C44D968D3F81CE0C3F800C035
:106AF40031B13A1922F07F42C3E90121DE611E4619
:106B040073460122D7E700263746E0E73446F669A4
:106B14007F4B60681B68DFF810C2A168C21A22F0BC
:106B24007F42624500F2A6800A4422600122227458
:106B34002A680023C4E90133E361002A40F0A380FA
:106B44002C60CAE79BF802105A1CD2B291428BF80F
:106B5400002004BF00228BF80020182202FB03B39C
:106B64002A6819799C68022975D003297FD00129E4
:106B740018D1207CB0B9D3E90312A2605A69E2604B
:106B84009A69654BA2611A78002A18BF01466160B0
:106B9400BEE78C4200F094808946C9690029F8D187
:106BA400002323749BF800309BF801209A42C9D13A
:106BB4002B68B8F1000F04D1019A9A4201D1002F39
:106BC40043D0002B79D0D3F800A0544D504BD5F8C6
:106BD40004751C68DFF854813E1B98F8003026F0D9
:106BE4007F4603369BB94FF48033C5F84433C5F868
:106BF40004334B4B4FF400324FF00109C3F88021AA
:106C04001A60C5F80090FFF7BFFE88F80090B245FF
:106C14002CBF5444A41924F07F44C5F84045D5F84A
:106C24000435DB1B23F07F43E41B033324F07F4450
:106C3400A3420AD9D5F80435C5F84035FFF7A4FEB8
:106C4400374B4FF40032C3F80021334B00221A7043
:106C540005B0BDE8F08F114691469FE71174D269E3
:106C64000123002AFAD1002B9CD02A609AE7002342
:106C74001946F6E71B1A23F07F438B4234BFCB1A25
:106C84000023236052E721681368994213D85B1AE2
:106C94001360E26154E7091AD8691A4638B1034609
:106CA40018688842F7D3401A1860184613462160C2
:106CB400E061DC6111E71346F2E7FFF76DFEC4E71C
:106CC4004C4511D1D3692B6073B9DFF844E001203E
:106CD400CDE90212CAF80800CEF800300E4B187045
:106CE400FFF752FEDDE902120B68C969C9F81C10EE
:106CF40011B1086803440B602B68934218BF4FF02E
:106D040001084DE7F4380020F5380020FC38002055
:106D1400F8380020EC380020E8380020001001404A
:106D240000E100E0DC370020FEFF7F00E9380020AE
:106D340008B5FFF731FE104B00200B2218809A7023
:106D44000E4B18600E4B18700E4B18700E4B4FF410
:106D54008012C021C3F8802183F814131A6002F151
:106D64008042A2F56F22C2F8080583F81113074B7D
:106D7400D2F804251A6008BDDC370020FC38002056
:106D8400F4380020F538002000E100E0F838002055
:106D94000648074A03780749D35C012213B104303B
:106DA40001F0D2BA0C3001F0ADB800BF00300020C1
:106DB40064390020283900200648074A0378074927
:106DC400D35C012213B1043001F076BA0C3001F027
:106DD4004BB800BF0030002064390020293900205E
:106DE40037B50578012D0DD0022D2ED005BB1E49D7
:106DF4001E48FFF7B8FD002832D103B0BDE830408B
:106E0400FFF7DABF43681A4C19782046FFF799FD5B
:106E140080B18DF800500190164B68461B68984766
:106E2400A168E368A2885B1A9A420AD3FFF7B0FF0D
:106E340003B030BDA268E3689A42F1D08DF8000037
:106E4400EAE70D4B01221A70F2E7C3688DF800508F
:106E54000193FFF79DFF074B68461B689847E7E7D8
:106E640003238DF80030F6E7293900201839002073
:106E7400043900200039002014390020F0B51F46E1
:106E8400234B89B004461A600D4600293DD08A88F8
:106E940020480968FFF746FD002834D1AA89A9686B
:106EA4001D48FFF73FFD00282DD11C4E0FCE6D4627
:106EB4000FC596E80F0085E80F0063690693237CED
:106EC400174A18488DF81C70003B18BF01238DF831
:106ED4001430637C002B14BF0E2300238DF815306F
:106EE400E3680293A3680393236801936946636884
:106EF400009300F05DFC30B90B4B1870236801332C
:106F040001D0FFF745FF09B0F0BD0720FBE700BF44
:106F140000390020043900201839002038A6020066
:106F2400E56D0200003000201439002070B5084DD2
:106F3400014608482E78FFF716FD044636B10023B3
:106F44002B70FFF725FF08B1FFF7A8FC204670BDA2
:106F5400143900200439002010B501460E48FFF70B
:106F6400F0FC0446A8B90D480D4A0378D35C63B11C
:106F7400043001F095F960B90A490748FFF7F3FCBA
:106F840038B9BDE81040FFF717BF0C3000F060FFC0
:106F9400F1E7204610BD00BF183900200030002062
:106FA400643900202939002070B5EFF3108672B6D9
:106FB4000C4A946801239CB993600B4B0B4DD3F896
:106FC400801029401160C3F88050D3F884105160B8
:106FD4004FF0FF32C3F88420047006B962B670BD66
:106FE4000370FAE72C39002000E100E0FC06FFBD45
:106FF400084B9A6810B55AB150B9EFF3108172B6C4
:10700400054A1C6814605C685460986001B962B6F3
:1070140010BD00BF2C39002000E100E010B503468C
:1070240053E8000F0A4643E8002494F0000FF7D118
:1070340010BD10B5034653E8002F42EA010043E8AF
:10704400000494F0000FF6D110BD10B5034653E8C8
:10705400000F00EA010243E8002494F0000FF6D187
:1070640010BD10B5034653E8002F02EB010043E8BE
:10707400000494F0000FF6D110BD10B5034653E898
:10708400002FA2EB010043E8000494F0000FF6D1B6
:1070940010BD0121FFF7CDBF0021FFF7D6BF37B5E3
:1070A400054600240DF107008DF80740FFF77CFF2B
:1070B4002A686B68116899420ED9481E106011F84D
:1070C400013CEC68298A01FB0344AB6811791B1A63
:1070D400DBB2994238BF13719DF80700FFF788FFB0
:1070E400204603B030BD37B5054600230DF1070037
:1070F4000C468DF80730FFF757FF2A681368591CB0
:107104001160E968641A298AB4FBF1F41C709DF8D3
:107114000700FFF76DFF03B030BD2DE9F84FB0F85D
:1071240006A04579D2F800B09DF828900AFB05F531
:10713400043D88460BEB0301A94203F1040488BF14
:10714400A5EB030BB4FBFAF607460AFB1644C2F898
:1071540000B04EB9AAEB04055D4528BF5D46BBF1FE
:10716400000F04D1BDE8F88F3F68013EF1E7043415
:1071740008EB06003C442A46B9F1000F0DD0214625
:10718400ABEB050B02F0F8FDDA452E443F6855469B
:107194004FF0000428BF5D46E1E701462046EFE7D3
:1071A400F8B546790146721E0546002393422D68C0
:1071B40003D30024A64202D8F8BD0133F6E70F68D2
:1071C4002846FFF790FF01343946F3E72DE9F843E9
:1071D400068ACD1C0746FFF762FF043E3544044689
:1071E400B5FBF6F5F0B14FF48073EDB28380C68041
:1071F400013D076081464FF00008A84512D2384689
:10720400FFF74DFF064648B163790133637108F116
:107214000108C9F8000007608146EEE72046FFF741
:10722400BFFF34462046BDE8F88301210430FFF750
:1072340018BF10B5012104460430FFF71EFFC0B289
:1072440020B92046BDE81040FFF7AABF10BD1FB506
:1072540003920022009203AAFFF75FFF05B05DF8D6
:1072640004FB41DF70470000064B10B500241C707E
:10727400054B1C60BFF35F8F0449054800F032F8EA
:10728400204610BD403900204439002064A6020085
:107294003839002007B500230DF107008DF80730B9
:1072A400FFF782FEF1EE103A23F09F03E1EE103A6D
:1072B400BFF35F8F0A4B4022C3F884219DF8070077
:1072C400FFF796FE02F02AFB20B103B05DF804EB51
:1072D400FFF7C7BF20BF40BF20BF03B05DF804FB6A
:1072E40000E100E00B684A684360934208BF002352
:1072F400016008BF43607047436843B10268916806
:1073040052680B449342436004BF002343607047B8
:1073140010B50D49A1F59472914201D800200FE0F7
:107324008C1AE30F03EBE4035B1002EBC30452F883
:107334003330834205D802D204F10802ECE76068D6
:1073440010BD2146E8E700BF68AB020008B5FFF7AF
:10735400DFFF024B002808BF184608BD2AAA020016
:1073640010B50446C0B2FFF7F7FD204610BD4FF03C
:10737400704393F8E02F062A10D1D3F8E42F1207B4
:107384000CD1D3F8E80F00F0F003302B08D000F054
:10739400E000A0F140035842584170470020704774
:1073A400012070474FF0704393F8E02F062A0CD168
:1073B400D3F8E42F120708D1D3F8E80F00F0F00057
:1073C400A0F1300358425841704700207047000034
:1073D40008B5FFF7CCFF40B14FF08053884AD3F88B
:1073E4002433C3F30423C2F84035FFF7DBFF10B1A5
:1073F400844B854A5A67FFF7BAFF48B14FF0805370
:107404004FF08042D3F84432C3F34233C2F83C35E0
:10741400FFF7C8FF30B17D4AD2F8FC3023F0807307
:10742400C2F8FC30FFF7A3FF40B14FF080430022C5
:10743400C3F80C21C3F81021C3F83825FFF7B2FFB5
:1074440020B14FF080430322C3F8A025FFF7AAFF21
:1074540060B16F4B0522C3F810260122C3F88826B9
:107464000022C3F818263F22C3F814264FF07043B5
:1074740093F8E02F062A50D1D3F8E42F11074CD10A
:10748400D3F8E83F03F0F003502B46D14FF080527D
:10749400604BD2F80414C3F82015D2F80814C3F8CA
:1074A4002415D2F80C14C3F82815D2F81014C3F814
:1074B4002C15D2F81414C3F83015D2F81814C3F8E4
:1074C4003415D2F81C14C3F84015D2F82014C3F8AC
:1074D4004415D2F82414C3F84815D2F82814C3F874
:1074E4004C15D2F82C14C3F85015D2F83014C3F844
:1074F4005415D2F83414C3F86015D2F83814C3F80C
:107504006415D2F83C14C3F86815D2F84014C3F8D3
:107514006C15D2F84424C3F87025FFF728FF48B14E
:107524004FF080534FF08042D3F8583203F04F03AA
:10753400C2F8E43EFFF71BFF48B14FF08043D3F895
:107544000024D20744BF6FF00102C3F800244FF0B7
:107554008053D3F83021062A0AD1D3F83431062BCC
:1075640001BF2D4AD2F83C3743F48063C2F83C375C
:10757400264AD2F8883043F47003C2F88830BFF347
:107584004F8FBFF36F8F4FF01023D3F80022002AE0
:1075940003DBD3F80432002B2EDA204B0122C3F88C
:1075A4000425D3F80024002AFBD04FF01022152123
:1075B400C2F80012D3F80024002AFBD04FF01023A5
:1075C4001522C3F80422154BD3F80024002AFBD05B
:1075D4000022C3F80425D3F80024002AFBD0BFF30B
:1075E4004F8F0A490E4BCA6802F4E0621343CB6022
:1075F400BFF34F8F00BFFDE70A4B0B4A1A6008BD6B
:107604000030014000C007400DF0ADBA00ED00E0CD
:107614000050004000C000400010004000E0014065
:107624000400FA05143000200090D00338B5074C4C
:10763400051E04F1080318BF1C4623682BB11A6801
:1076440022605B6828469847F7E738BD5039002028
:1076540020B9054B01225A70FFF7E8BF012802D177
:10766400014A9070F8E770474839002020B9034B6D
:1076740001225A70FFF7DABF704700BF4839002073
:1076840038B50B4C237883B90A486360A36023613F
:10769400E36000F0D5F8054602F040F908B900F0BF
:1076A400DBF801232370284638BD8525FBE700BF9E
:1076B400483900205576020037B50B4C00230DF1F4
:1076C40007008DF80730FFF76FFCE368013BE360C8
:1076D400E56815B900F0D4F8A5709DF80700FFF728
:1076E40087FC03B030BD00BF48390020012813B522
:1076F40008D003281CD018B9114B0122C3F88020EC
:1077040002B010BD0F4C00230DF107008DF80730B7
:10771400FFF74AFC23780BB9FFF7B2FFE3689DF843
:1077240007000133E3600123A370FFF761FCE7E77F
:1077340000F092F802B0BDE81040FFF7BDBF00BFF3
:1077440000E100E0483900201FB503788DF80030CF
:1077540043680193037A8DF80830C368054A03939C
:10776400054B684653F8213052F82110984705B06C
:107774005DF804FB5C390020603900201FB50378F4
:107784008DF800304368019383688DF80830C3682E
:10779400054A0393054B684653F8213052F82110EB
:1077A400984705B05DF804FB5C390020603900207F
:1077B400F0B5194B90F800C091F81DE043F82C2067
:1077C400164B16460A6943F82C20154B03F80CE0B7
:1077D4000C4607460FCC89B06D460FC594E80F00E0
:1077E40085E80F00CDF810C0BEF1000F09D0002EBF
:1077F4000C4A694608BF3246381D00F08BFC09B0BC
:10780400F0BD002E084A694608BF324607F10C0055
:1078140000F060FAF3E700BF603900205C39002013
:10782400643900204D7702008177020000F1804026
:10783400002382B0036003680193019B02B0704788
:10784400044A137923B901211060918018467047C6
:107854008520704768390020084B1A68D20706D47F
:10786400C02283F800230122C3F880211A604FF05C
:1078740080430122C3F81825704700BF00E100E0EF
:107884004FF080430122DA60D3F81824D203FBD4EA
:10789400704700004FF0804110B5D1F8003163B15A
:1078A4004FF48070FFF7C2FF0D4B58790122C1F8E5
:1078B400082310B95A711B6898474FF08042D2F8D8
:1078C400043163B14FF48270FFF7B0FF0223C2F8B2
:1078D4000833034BBDE810401B680120184710BD56
:1078E4006839002000F1804000F5C040002382B0D8
:1078F400036003680193019B02B07047800000F1AC
:10790400A040D0F8002722F44032C0F80027D0F875
:10791400003743EA0141C0F800177047C208012349
:1079240000F0070003FA00F08B5C1843885470479A
:107934002DE9F04F87B00024584D03944FF4807222
:10794400012102F1804303F5C04390B21B68012B6F
:1079540006D1D5F804330B4202D0FFF7C3FF0C4322
:107964000432B2F5907F4FEA4101EAD14B4BD3F890
:107974007C31012B0AD14FF4BE70FFF7B3FF4FF0F7
:10798400A04344F00044D3F810350393E3B2D3B1D9
:10799400434F00250126344210D0AB0003F180434D
:1079A40003F5C043D3F81005D3F8101557F8253064
:1079B40023B1C1F30141C0F3042098470135082DD8
:1079C4004FEA4606E7D1002C61DA00224FF0FF337C
:1079D400CDE90423DFF8C880DFF8C89000273E46CD
:1079E4004FF0A04B19F9014B631C45D0C4F3C203FB
:1079F4000122E5B204F03F0004F0070402FA04F4A3
:107A040006AA134413F8042C224235D008EB0002D2
:107A1400AD0992F9302058F822A0BAF1000F09D12B
:107A2400032D29D104A901930090FFF777FFDDE925
:107A3400000301E0032DF5D000F5E07113F80C3CD0
:107A44005BF821102342C1F3014105D0022913D16F
:107A5400032D0CD1294604E003290DD1032D06D1B1
:107A6400022100900136FFF749FF0098F6B2BAF1FF
:107A7400000F01D02946D0470137042FB2D136B1C7
:107A84004FF0A043039AD3F81035934202D107B0C4
:107A9400BDE8F08F0393049B05939DE700600040CD
:107AA40070390020C0390020014B1B68184700BF03
:107AB400CC3900200E4B984237B50C4602D000203A
:107AC40003B030BD00230DF107008DF80730FFF738
:107AD4006BFA084B1D7915B901221C601A719DF8C7
:107AE4000700FFF785FA002DE9D01120E8E700BF71
:107AF40000200040CC3900200023435082B043587A
:107B04000193019B02B070470A4610B54FF48E7181
:107B1400FFF7F2FF136A9168C95C136A01331362B9
:107B2400C0F81C1510BD024608B500684FF49271E8
:107B3400FFF7E2FF10684FF48471FFF7DDFF13686D
:107B440001221A6008BD8B690A4610B54FF484718E
:107B540023B9FFF7D1FFD0F8183510BDFFF7CCFFDC
:107B6400536AD168D0F81805C854536A0133536274
:107B7400F3E700001FB501238DF80030044BCDE975
:107B84000110D3E900126846904705B05DF804FB84
:107B9400D439002030B54D4DD5F804339A0585B05D
:107BA40051D5D5F82431002B4DD04FF4927128468D
:107BB400FFF7A2FF4FF40173C5F80833444B93F861
:107BC40029200AB901226A60404902228DF8002066
:107BD400D1F88024C1F8802403929A690292DA6869
:107BE40001920022C3E906226846D3E900129047B5
:107BF4003648D0F81C315BB1354A116A5369994251
:107C04004DD292F82830002B49D11146FFF77CFF62
:107C14002E48D0F84431002B55D04FF4A271FFF711
:107C24006BFF2B4B93F829200AB1012202609A6959
:107C3400002A48D0586AD96800229A6105B0BDE884
:107C44003040FFF797BFD5F804335B07D0D5D5F89C
:107C54000831002BCCD01E4C1C482146FFF773FF83
:107C6400636AA2699A42C3D1E369E1684BB1A36133
:107C74002369E3600023606AE3616362FFF77AFFCC
:107C8400B6E794F829300BB901236B600F4B4FF41E
:107C94000172C3F808230023606AA361EEE74FF47E
:107CA4008E710A48FFF728FF51690029B0D00023DC
:107CB400029191688DF80030019153616846D2E9D0
:107CC40000139847A4E705B030BD00BF0020004072
:107CD400D43900202DE9F843594D90F804802C2321
:107CE40003FB0853064693F82A300C469146002BB2
:107CF40040F0A28053490068FFF7DCFE07460028E5
:107D040040F09C8022683068511C0BD04FF0A04199
:107D140001239340C1F8083502F5E0734FF0030CDA
:107D240041F823C061684B1C1FBF01F5E0734FF09D
:107D3400A04C4FF0000E4CF823E0A369C0F82435A2
:107D440094F814C0637DBCF1010F4CEA0303C0F83E
:107D54006C35C0F81415C0F80C251DD1A268531C4D
:107D64001FBF02F5E0734FF0A0414FF0000C41F843
:107D740023C0E368591C0BD04FF0A04C012199405B
:107D8400CCF8081503F5E0714FF0030E4CF821E030
:107D9400C0F80835C0F810252C2202FB08F2AB18F5
:107DA400C3F804902369AB50B9F1000F31D04FF4FC
:107DB4008E71227FFFF7A0FE30684FF4A271FFF7A7
:107DC4009BFE33682049C3F80413190B43F30733AC
:107DD400002BA8BF03F160404FEA5313BCBF01F06E
:107DE4000F041A484FEA4212A8BF00F561404FEA57
:107DF4008303D2B203F16043B4BF025580F8002379
:107E040003F5614301F01F0101228A40C3F8802178
:107E14001A6033680422C3F800252C2303FB08539B
:107E24000022C3E9062283F829205A61012283F83B
:107E34002A203846BDE8F8830827FAE71127F8E72F
:107E4400D4390020997B02008000020014ED00E088
:107E54000279044B2C2101FB02335869003818BF06
:107E640001207047D43900202DE9F84F0646894691
:107E74009246FFF7EDFF044600283DD196F80480B2
:107E84001F4F2C2508FB057B4FF48E71CBF8200087
:107E9400CBF814A08BF82800CBF808903068FFF7D3
:107EA4002BFE3068012383605946FFF72DFEDBF873
:107EB40004305D4613BB30682A6A6B699A4211D359
:107EC4003368D3F81C21002AFBD00122DA60002099
:107ED4002C2303FB087700237B61BDE8F88F95F81A
:107EE40028303BB9D0F81C31002BF8D05946FFF7A5
:107EF4000BFEE1E70F20EBE71120EEE72046ECE76D
:107F0400D43900202DE9F0473A4D07792C2303FB9F
:107F1400075306465C6824B103684FF40170C3F844
:107F240008032C2303FB0753986950B1D869002830
:107F340041D024B133684FF40172C3F804231124EF
:107F440036E09A61D9605862D8612C2303FB075349
:107F540093F829301BB910B93046FFF7E4FD4FF010
:107F64002C0808FB075A3068DAF80430002B37D1A4
:107F74004FF4A271D046FFF7BFFD3068D0F82491CA
:107F8400D0F80831D0F84441CBB914B9B9F1000F95
:107F9400F3D02C2303FB07550023AB61B9F1000F89
:107FA40024D12CBB95F8291033680122B1B11A6091
:107FB4002046BDE8F0871961DA610120C5E7B9F10F
:107FC400000FE6D1002CE4D14146FFF7BCFDDAF8FE
:107FD4002430DAF818209A42CFD8DAE75A60E7E773
:107FE4004FF40173C0F804330024E1E70324DFE70E
:107FF4000F24DDE7D43900200023435082B04358D6
:108004000193019B02B070471FB501238DF8003026
:10801400054B8DF8080001916846D3E9001290479A
:1080240005B05DF804FB00BF003A00207FB5374A75
:10803400D2F82461002E47D010464FF49271FFF716
:10804400DBFF02238DF80030D2F88034C2F880348C
:108054000393D2F83C358DF808302D4BDA68019241
:108064000022C3E906226846D3E900129047274854
:10807400D0F844316BB14FF4A271FFF7BDFF244B2C
:108084009A6932B100229A61D0F83C05D968FFF7A9
:10809400BBFF1E48D0F82031A3B14FF49071FFF715
:1080A400ABFF1B4B5A696AB1D0F84C158DF8081018
:1080B400002299688DF8002001915A616846D3E93D
:1080C4000012904704B070BDD2F81031002BCED00E
:1080D4004FF488711046FFF78FFF0D4BD2F83C0523
:1080E40099698842C3D1DC69D96864B1D2F8005275
:1080F40025F02005C2F800521A699C61DA60DE613D
:10810400FFF782FFB3E79C61FAE700BF002000405D
:10811400003A00202DE9F8435D4E90F804802423B2
:1081240003FB0863054693F820300C469146002B68
:1081340040F0AA8057490068FFF7BCFC07460028B6
:1081440040F0A48022682868511C0BD04FF0A04155
:1081540001239340C1F8083502F5E0734FF0030C96
:1081640041F823C061684B1C1FBF01F5E0734FF059
:10817400A04C4FF0000E4CF823E0A369C0F824355E
:1081840094F814C0637DBCF1010F4CEA0303C0F8FA
:108194006C35C0F80C25C0F814151DD1A268531C09
:1081A4001FBF02F5E0734FF0A0414FF0000C41F8FF
:1081B40023C0E368591C0BD04FF0A04C0121994017
:1081C400CCF8081503F5E0714FF0030E4CF821E0EC
:1081D400C0F80835C0F81025242202FB08F2B318B1
:1081E400C3F804902369B350B9F1000F3BD04FF4A6
:1081F4008871227FFFF700FF28684FF49071FFF722
:10820400FBFE28684FF49271FFF7F6FE28684FF4DE
:10821400A271FFF7F1FE2B681F49C3F80413190B71
:1082240043F30733002BA8BF03F160404FEA531315
:10823400BCBF01F00F0419484FEA4212A8BF00F571
:1082440061404FEA8303D2B203F16043B4BF0255E5
:1082540080F8002303F5614301F01F0101228A40E5
:10826400C3F880211A602B680822C3F80025242350
:1082740003FB08660023C6E906337361012386F80D
:1082840020303846BDE8F8830827FAE71127F8E7D5
:10829400003A0020318002001003020014ED00E0D7
:1082A4000279044B242101FB02335869003818BFBA
:1082B40001207047003A00202DE9F84301F06043A3
:1082C400B3F1005F06468846914634D1FFF7E8FFD4
:1082D400044690BB32791B4F3068242505FB027598
:1082E4004FF49071C5F81490C5F80880FFF784FE28
:1082F40030684FF4AC71FFF77FFE33686969A86892
:10830400C3F84405C3F84815012199606968B1B9F7
:10831400D3F82011D3F8580149B90028F8D00F2018
:10832400242303FB027700237B61BDE8F883002844
:1083340018BF0F20F4E71020F7E71120F5E72046D7
:10834400F3E700BF003A0020F8B501F06043B3F151
:10835400005F04460F465ED10379304D242101FBB2
:108364000351496821B100684FF40476C0F80863EA
:10837400242000FB03539E6956B1D869002839D0E4
:1083840021B123684FF40472C3F80423112030E0B0
:108394009A61DF60DE6120684FF48871FFF72CFE7C
:1083A40020684FF4A271FFF727FE2368C3F83475E1
:1083B400C3F8382516BB01221A602479242202FB53
:1083C400045252680ABBD3F81011D3F84421D3F8ED
:1083D4002401114302D10028F5D00A46242303FBCB
:1083E40004550023984218BF03209A42AB6118BF7A
:1083F4000F20F8BD1F61DA610126CCE7D3F8002213
:1084040042F02002C3F80022D7E74FF40472C3F805
:1084140004230020EDE71020EBE700BF003A002022
:10842400032811D8012A0AD101290FD100F10E0223
:10843400D2B20D4B00EB40001A54002070470129C2
:10844400F7D0022904D049B1072070470022F8E789
:10845400054B00EB400018444270EEE7024B00EB82
:10846400400018448270E8E7243A002008B501224D
:1084740002210020FFF7D4FF08B1072810D10722FA
:1084840002210120FFF7CCFF08B1072808D1002101
:108494000A220846FFF7C4FF10B1072808BF0020CE
:1084A40008BD00000388102B10B502D0112B1ED07C
:1084B40010BD1A4C2168B1B901220846FFF7B0FF7C
:1084C40008B1072824D1072202210120FFF7A8FFC1
:1084D40008B107281CD1042202210020FFF7A0FFC5
:1084E40008B1072814D1236801332360E0E70B4A5D
:1084F4001368013B1360002BDAD1FFF7B7FF0028A4
:10850400D6D0074B1B68002BD2D0BDE810401847CB
:10851400034B1B68002BE6D09847E4E7343A00206D
:10852400303A002075DF704776DF70477FDF704791
:108534008FDF7047012070470A8840F677239A42FC
:1085440001BF8B88014A033B138070471830002019
:1085540070B50378012B044636D0022B25D01BBB03
:108564001D4C1E4D20882844FEF7E0FC2288531C35
:108574009BB21D44238015F8011C0A2903D0184915
:108584000988994210D8154D164E22802288294612
:10859400304601F0EFF8082804D01328F6D008B1CB
:1085A400FEF77CF90023238070BD0F4B0F48104960
:1085B4001B1ADB081B0443F00100FEF731F9606865
:1085C400BDE87040FEF76AB9074B084809491B1A11
:1085D400DB081B04EFE700BF2C3B0020383A0020E7
:1085E40018300020303B002054A502002CA50200C6
:1085F4008AAB0200BCAB02000146014800F0EBBFAD
:10860400303B002003881F2B13B5044643D007D802
:10861400112B32D0132B37D0102B15D002B010BD34
:108624003B2B3ED0562B3CD0212BF7D10023808806
:108634008DF8043001A98DF80530FFF779FF002883
:10864400ECD0FEF72BF9E9E781881848002201F005
:10865400CFF808B1FEF722F94FF0A0434FF40032EF
:10866400A1881348C3F80C2500F060FB0028D5D07E
:1086740002B0BDE81040FEF711B94FF0A0434FF42B
:108684008032C3F80825C9E700231A46852180886B
:10869400FFF74CFFEAE700F108018088FFF742FF8B
:1086A400E4E7A0881321FFF73FFFDFE7303B00201A
:1086B4001A30002008B5064800F09CFE08B1FEF709
:1086C400EDF84FF0A0434FF48032C3F8082508BDFD
:1086D400543B0020F8B50B78012B06460D4623D0F9
:1086E400022B32D0002B3ED11F4B204C2049E41AE0
:1086F400E408240444F003042046FEF791F8698852
:1087040005F10E02304601F073F808B1FEF7C6F821
:10871400304601F009F808B1FEF7C0F820461549C3
:10872400BDE8F840FEF77CB88E680D7B124F00243C
:10873400AC4204D3BDE8F8400A2001F0FFBA315D31
:10874400384601F0DBFA0134F2E7074B07480B49DE
:10875400C01AC008000440F00300FEF761F8BDE849
:10876400F840FFF7A7BFF8BD2CA5020054A50200EE
:10877400E8AB0200FCAB02002AAC02002FAC020002
:108784001FB50378062B12D0072B17D0042B2AD140
:10879400164B17481749C01AC008000440F00300DC
:1087A400FEF73EF804B0BDE81040FFF783BF406811
:1087B400C8B104B0BDE81040FEF770B841680B4C76
:1087C4000B488B784A78001B8C7903944C7902947B
:1087D4000C790194C008C97800910004064940F05E
:1087E4000300FEF734F804B010BD00BF2CA502004E
:1087F40054A502006BAC02003DAC020008B5084968
:10880400084800F043FC08B1FEF748F80548F72192
:1088140000F050FC18B1BDE80840FEF73FB808BDB1
:108824003D850200403B00204FF0A0430322C3F8E3
:1088340044274FF40032C3F80825704700B58BB0C5
:10884400FFF7F2FFFEF774FA08B1FEF727F8374D89
:108854000FCD04AC0FC495E80300354B354A0093A3
:108864004FF4007384E80300CDE902230193324AF4
:108874000723694604A8FEF701FB08B1FEF70EF8CA
:108884002E4800F019FA08B1FEF708F8FEF7ECFCE0
:1088940008B1FEF703F801F003F808B1FDF7FEFF95
:1088A400002304A90120049301F08CF808B1FDF71A
:1088B400F5FF04A801F046F908B1FDF7EFFFFFF753
:1088C4009DFF1F4B1F48049304A900F0C9FE08B183
:1088D400FDF7E4FF102200210DEB020001F075FA10
:1088E4000123194A19488DF8143004A98DF81C3055
:1088F40000F030FD08B1FDF7D1FF154A13480021FF
:1089040000F0E6FC08B1FDF7C9FF10480022012180
:1089140000F008FD08B1FDF7C1FFFFF7CBFEFDF73E
:108924001DFE0028FBD1FEF7B5FCF8E77CAC020085
:10893400BC3B0020BC3D002055850200FD850200A3
:10894400D9860200303B002085870200543B00207A
:1089540094AC020070B5C0B14AB116880024B44288
:1089640003D305196D789D4208D0A14201D8002097
:108974000BE0055D01352C44A4B2F0E7A142F6D921
:10898400A31C1380005D013880B270BDF7B50023CD
:108994000646ADF80630144612B9002003B0F0BD07
:1089A40009230DF10602FFF7D5FFBDF80670054651
:1089B400002FF2D00028F0D0204601F060FAA8423F
:1089C4000246EAD1F119204601F060F9B0FA80F0CC
:1089D4004009E3E79BDF70479DDF70479EDF7047E8
:1089E40030B50B4B19680B4B0022914201D100208A
:1089F40009E09D788478A54206D11D880488A542A3
:108A040002D1054B186830BD01320433EDE700BFD5
:108A1400C43F0020CC420020BC3F002070B590F839
:108A2400C63216467622A0B002FB03000D46FFF7BD
:108A3400D7FF044660B17C22002101A801F0C5F9EA
:108A440001238DF80430ADF80660029501A8A04713
:108A540020B070BD2DE9F74F8A4690F8C6120191F7
:108A640093467622064601FB0200FFF7B9FF07464C
:108A740088B3DFF87080D8F80050052D2BD8174C38
:108A8400019904EBC5197622EB0102FB0161A9F8F7
:108A940002B009F10400009301F06EF9104E009B3E
:108AA400C9F87C70BAF1000F14BF00220222E2540C
:108AB400336801359D42C8F800500CD10025E36F9E
:108AC40020469847336801359D4204F18004F6D36B
:108AD4000023C8F8003003B0BDE8F08FC83F002081
:108AE400C43F0020C842002037B50346084693F827
:108AF400C52293F8C612BAB1013AD4B276224A43D7
:108B0400122505FB04221A44528A013292B2ADF8AE
:108B14000420762202FB013301A91B89ADF806303B
:108B2400FFF75AFF03B030BD762202FB0132D28830
:108B3400EDE7000070B54FF433720D460021044692
:108B440001F043F90E4BA4F8CA5200261E600D4BE7
:108B54001B682360224601212846FFF73BFF1128AA
:108B640006D020B9012384F8C73284F8C80270BD46
:108B7400012384F8C73284F8C8323046F7E700BFCF
:108B8400C8420020CC42002070B5194A90F8C9327E
:108B940012680133DBB2934204460D4680F8C932B1
:108BA4004FF0000621D290F8C63280F8C562013336
:108BB400DBB2762113FB01F180F8C63242180D486E
:108BC40050F823306350284601211671FFF702FF45
:108BD400014648B184F8C7622A462046FFF71EFFC3
:108BE400054B03221A705D8070BD80F8C762F7E7F9
:108BF400C43F0020CC420020C83F00202DE9F347A9
:108C04000546762395F8C66295F8C54216FB03F629
:108C1400AF1910464FF012083A7918FB046304F1B7
:108C2400010C0A3394452B441FD005F11C0C07F1A9
:108C3400220902F1FF3A66445FFA84FC624518D9BE
:108C4400A24527D0B3F808E008FB04F30EF1010EA7
:108C540039F803C0E64528D1334495F8C5C20CF170
:108C6400010C85F8C5C20134E6E71B893A899342B1
:108C740005D101230B70002002B0BDE8F087013359
:108C8400ADF80430ADF8062000230B7001A9FFF7FE
:108C9400A5FEF1E71B89B7F808C063450AD0013384
:108CA400ADF80430ADF806C0EEE7ADF804E00CF121
:108CB400FF3CF7E70023D0E758B1074A00231360CD
:108CC400064A01211170064A1360064A10601846CC
:108CD40070470E20704700BFC43F0020C03F0020F3
:108CE400C8420020BC3F002010B5044680B10C4BA4
:108CF4001B787BB1FFF774FE70B90A4A1368052B21
:108D04000CD80949246841F823400133136010BD8D
:108D14000E20FCE70820FAE70020F8E70420F6E735
:108D2400C03F0020C43F0020CC42002050B1084A7C
:108D340012784AB1074A126832B190F8C7322BB997
:108D4400FFF7F8BE0E2070470820704711207047C7
:108D5400C03F0020C43F00202DE9FF410C460546DA
:108D6400002800F03C81002900F039819D4B1B78DC
:108D7400002B00F034810388322B74D01BD8112BC4
:108D840000F01D81302B3FD094F8C832002B00F046
:108D940026812B88303B9BB21F2B00F22081B4F834
:108DA400CA32A988994240F01A81204604B0BDE82D
:108DB400F041FFF7BFBE332BE6D18288B1F8CA3247
:108DC4009342E1D1C08891F8C6C291F8C5620028E7
:108DD40000F0B880762101FB0C4C731C9CF8041045
:108DE40000278B428DF80F7000F0DD800DF10F012C
:108DF40084F8C5322046FFF701FF0146002800F041
:108E0400D88084F8C7721BE08388B1F8CA229A42DA
:108E1400BAD1C388F3B991F8C632C068762113FB7E
:108E240001F3E118E0502B69C1F8063011462046E1
:108E3400FFF75AFE01460028A6D0002384F8C73263
:108E4400AA882046FFF7EAFD674B03221A70AA8816
:108E54005A8099E700212046FFF7FCFDA9882046A7
:108E6400FFF792FE90E78288B1F8CA329A428BD11A
:108E7400C388002B57D191F8C672762317FB03F7EA
:108E840001EB0708837A98F804603344062B25DC49
:108E940088F80430122212FB0672334605F10C01E5
:108EA4002244002098F80460B34201F10A0102F15F
:108EB400120227D31222013B02FB034394F8C62279
:108EC40076213B4401FB0242598A138999422AD2F2
:108ED400062E28D0A98884F8C562A8E7062388F856
:108EE40004304248424BCA5B4249C01AC0080004DD
:108EF40040F002000190FDF797FC3F490198FDF70F
:108F04008FFCC7E751F80A6C42F8086C51F8066CFC
:108F140042F8046C31F8026C168050809080D08046
:108F240010810133BEE7002684F8C5620DF10F01FC
:108F3400AA882046FFF762FE0146002839D084F84B
:108F4400C7627DE7762303FB0CF3122707FB063386
:108F5400B5F80AE0294623447045BFF43BAFCF89F6
:108F6400A7F52457082F08D8DFE807F014170507DA
:108F7400070707071A008F899F829F8A3FB1DF8AFC
:108F84002FB11F8B1FB15F8B002F7FF423AF0130F4
:108F94000631E1E78F89DF82EFE78F891F83ECE7F2
:108FA4008F895F83E9E701238DF80F30AA880121B7
:108FB40051E79DF80F30002B3FF4E6AEF6E78288C8
:108FC400B1F8CA329A427FF4DFAE002381F8C73287
:108FD40081F8C8324FF6FF73A1F8CA32D4E604B060
:108FE400BDE8F081C03F0020C83F00205CA502001E
:108FF4002CA50200ADAC0200F3AC020090DF704778
:10900400A5DF7047B5DF70477FB50023ADF80810C2
:10901400ADF80A106A4602A90646ADF80C30ADF860
:109024000E300093ADF80430FFF7E8FF054600B3B7
:10903400114B124CE41AE408FEF788F9240444F0B6
:10904400010403460E4932462046FDF7F6FBBDF8FF
:109054000020BDF8023052EA030103D0094920463A
:10906400FDF7EBFBBDF804201AB107492046FDF7D4
:10907400DBFB284604B070BD2CA502007CA50200D1
:1090840059AD0200A3AD0200E2AD020080B14FF081
:10909400F7130360FB230371F723C38017230381B2
:1090A40041F6FB32002301614381828118467047F7
:1090B4000E20704730B1A1F11703E02B04D8418092
:1090C400002070470E2070470720704713B50346F1
:1090D40080880C46B8B91A88242A00F09C8014D8D9
:1090E400112A74D0232A00F0A780102A3ED0A37A34
:1090F4004BB1E1880020FFF783FF002840F0A280F5
:109104004FF48073638102B010BD3A2A68D0552AA7
:10911400EDD1DB88C988A072172B38BF17238B4287
:1091240028BF0B462381FFF76DFF60B1FEF70EF9F0
:109134004E4B4F4902464F481B1ADB081B0443F0B1
:109144000100FDF771FBE27A002AD0D12369002BDC
:10915400CDD040F67721ADF802202289ADF8001079
:10916400ADF80420694620469847C0E7DB7B0A79BE
:109174000A73012B13D0022B14D0E18823898B426C
:1091840005D20020FFF73CFF70B90123E372217B75
:10919400637B8B42ABD20020FFF736FFA7E70B8837
:1091A400E380EAE74B88FBE7112802D10123A3728D
:1091B400EDE7FEF7CBF82D4B2F4902462D481B1A3D
:1091C400DB081B0443F00100FDF72EFBDFE7F72368
:1091D400CB8017230B8141F6FB3348818B8186E7D3
:1091E4005B89CA88934228BF1346172B0A6938BF84
:1091F40017230B8162B1C97A51B140F67721ADF8DA
:109204000010ADF80200ADF80430694620469047DE
:10921400002363816BE71A7A0B694A73002B3FF4CE
:1092240066AF4DF67A218DF80500ADF80010ADF863
:1092340002008DF8042095E7197A237B994228BF10
:109244001946A9E711283FF45EAFFEF77FF8074BF4
:109254000949024607481B1ADB081B0443F00100B6
:1092640002B0BDE81040FDF7DFBA00BF7CA50200E4
:1092740069AE02002CA5020038AE02008ADF7047F6
:109284008BDF70478CDF704730B590F8233089B09E
:1092940004460D46D3B190F82C300193FFF7F0FF4C
:1092A4001422002103A800F090FD019B04F1240284
:1092B40004F12E01A81CFFF7E5FF06238DF80C30FE
:1092C400049018B1E36B0BB103A8984709B030BD03
:1092D40070B515460446E8B1E2B1E9B9104600F0AC
:1092E400CEFD0138C0B21F2818D894F82060BEB94A
:1092F4002946204600F09CFD58B1012384F8203013
:10930400284600F0BCFD29460246204600F034FD04
:10931400304670BD0E20FCE70720FAE70C20F8E782
:109324000420F6E768B1CB060DD011F0010116BF99
:10933400012380F8211080F8213080F822200020B9
:1093440070470E2070470720704790F82E00C0F336
:10935400C000704738B50D460446002843D0C263A8
:109364000021232200F031FD65B32B7984F82330EA
:109374002B7B84F82C302B68D3B104F12E0203F13B
:109384000C0153F8040B42F8040B8B42F9D11B88EF
:109394001380AA680AB31068516804F1240303C354
:1093A40004F1400323661F23A4F86430002038BD71
:1093B400E28DA38602F0E30242F48272E2850B4A54
:1093C4002263E6E7E38DA58603F0E30343F48273A7
:1093D400E385064B236384F82350054A4FF0C87392
:1093E400C4E90923DCE70E20E1E700BFA000500038
:1093F4000600180010B5044686B048B314220021B4
:1094040001A800F0E2FCFFF73BFF2046FFF79DFFB9
:1094140030B1E36B23B101228DF8042001A89847F1
:1094240004F1600104F12E00FFF728FF044630F038
:1094340008000BD00748084B08491B1ADB081B041B
:1094440043F001002246FDF7EFF9204606B010BDB7
:109454000E20FBE72CA502006CA50200A5AE0200BD
:109464002DE9F04F054687B035F8082B1D2A06462E
:109474000C4620D007D8102A00F095801B2A7AD0F9
:1094840007B0BDE8F08F202AFAD11422002101A8E8
:1094940000F09BFCE26B002AF2D0B06869680523F7
:1094A4008DF804302E3402AB059403C3297A197065
:1094B40001A89047E4E71022002101A800F085FCF0
:1094C40004F12E0320460593FFF73FFF04F16008E3
:1094D40078B102238DF8043001A8E36B0295984714
:1094E40041460020FFF7CAFE29462046FFF7CCFE7E
:1094F400C6E794F8210094F8229088B394F820A049
:10950400B6F824B0274604EB4A1A574518D1002070
:10951400034601220295B9F1000F24D09A4226D1C4
:1095240000238DF8043029462046FFF7ADFEE36B97
:109534000BB101A8984741460020FFF79FFE9FE723
:109544003A46306A5946FFF721FA20370028DCD022
:109554009DF80C3043F001038DF80C300123D8E75B
:1095640003460246D6E710B18DF80490DBE70323E7
:109574008DF80430DBE71422002101A800F025FC5B
:10958400327A012A7FF47CAFE36B002B3FF478AF8F
:1095940004212E348DF8041005948DF808200DEB69
:1095A400010098476CE7002101A800F00EFC072396
:1095B4008DF80430B388ADF80C3004F12E03059314
:1095C400E36B0295002B3FF45BAF01A8E9E7A3DF4F
:1095D400704762DF70472DE9F0410C4686B00546BE
:1095E4001422002101A800F0F0FB237813BBA28809
:1095F400012A1FD1A1792A7891421BD194F80880BD
:1096040022461E4618469C461F461946884514D8CD
:10961400BCF1000F01D0ADF816701EB1ADF8120008
:10962400ADF81430EB682BB16288ADF8062001A9BF
:109634002846984706B0BDE8F081B2F80EE0BEF1C6
:10964400020F05D0BEF1030F06D001311232DDE75F
:10965400D78A4FF0010CF8E7D08A138B0126F4E780
:10966400F0B5154B87B002AA04460D4603F1100C61
:10967400174618685968164603C6083363453246C8
:10968400F7D1BCB1B5B121463846FFF7A2FF78B98E
:1096940023788DF806300123ADF804304FF6FF73BC
:1096A40063802B68E360A080208101A8FFF71CFB86
:1096B40007B0F0BD0E20FBE709AF02007FB50346FB
:1096C4000846F9B1F3B14A884FF6FF718A4202D0D5
:1096D4009988914216D11988112916D0392911D1A6
:1096E40082887AB1598991420CD1C26852B1012160
:1096F4008DF8041003F11001DB8903918DF810300B
:1097040001A9904707B05DF804FB9B889342F9D107
:10971400C368002BF6D002228DF804204FF6FF72A6
:10972400428001A99847EDE71FB5F0B143884FF691
:10973400FF7293421BD0C288CAB101218DF8001078
:1097440000218DF8011040F20111ADF80410ADF8BC
:10975400062001A94FF4003218460292CDF80CD02D
:10976400FFF735FF05B05DF804FB0E20FAE708208B
:10977400F8E700001FB588B3F42A0CD9184B194830
:109784001949C01AC008000440F00200FDF748F867
:10979400072004B010BD43884FF6FF74A3420BD1D9
:1097A4000F4B10481149C01AC008000440F00200D1
:1097B400FDF736F80820ECE70089ADF80600002034
:1097C4004FF48174ADF808000391184601A9ADF86F
:1097D4000440ADF80A20FFF7FAFEDAE70E20D8E7D6
:1097E4002CA5020064A50200D2AE0200E4AE020081
:1097F40048B141802AB15388C380138883809388F9
:109804000381002070470E20704710DF704700006E
:1098140013B5044609496846FDF764FD019808B983
:1098240002B010BDD0E900212046904718B1684627
:10983400FDF762FDF2E71120F2E700BF28AF020056
:1098440013B5044607496846FDF74CFD019B0BB967
:1098540002B010BD2046D3E9002190476846FDF7C9
:109864004BFDF3E740AF02000B4991F816335A0958
:10987400EC231341DB0706D5084B9A683AB94FF439
:1098840080030B60704742F20200FDF707B81A68C4
:1098940042F480021A60704700E100E02C39002095
:1098A400F7B5194F3C7864BB184E01252046357036
:1098B400FFF7AEFF112821D02046FFF7C1FF144B5C
:1098C4008DF80340186801900DF10300FDF76CFB5F
:1098D400104901A8FFF799FF0446B0FA80F0400947
:1098E40038709DF80300FDF783FB3CB90A4B3470D4
:1098F4001C70FFF7B9FF2846FFF7A2FF204603B00C
:10990400F0BD0824FAE700BFE5420020E44200204D
:1099140021AF0200BD680200E6420020014B187826
:10992400704700BFE542002007B508496846FDF7C7
:10993400D9FC019B13B903B05DF804FBD3E9002003
:1099440090476846FDF7D8FCF3E700BF34AF020048
:10995400FFF7EABF60DF704769DF704761DF704778
:1099640030B5134DADF5017D4FF4FA740DF10201DC
:1099740003A8ADF80240FFF7F1FF70B9294601A82A
:10998400FDF7B0FC029B002BF0D003A8D3E9002123
:10999400904701A8FDF7B0FCF4E7052805D00DF5C4
:1099A400017DBDE83040FCF779BF0DF5017D30BD88
:1099B400C8B10200024B1B780BB1FFF7D1BF70474F
:1099C400E742002030B5054685B00C46002900F07A
:1099D400A5800023CDE90133514A039301230A6092
:1099E4008DF804008DF8063001A914232020ADF869
:1099F4000830FFF7B1FF60B1FDF7A8FC494B4A49B5
:109A040002464A481B1ADB081B0443F00100FCF71A
:109A14000BFF0023CDE901330393226840F20113C5
:109A240001A94020ADF80630FFF796FF60B1FDF7BD
:109A34008DFC3C4B3E4902463C481B1ADB081B0488
:109A440043F00100FCF7F0FE0023CDE9013303935A
:109A540022688DF80450F72301A92320ADF80630BD
:109A6400FFF77AFF60B1FDF771FC2E4B31490246D6
:109A74002E481B1ADB081B0443F00100FCF7D4FE3C
:109A8400002301202268039301A9CDE901338DF855
:109A94000400FFF761FF60B1FDF758FC214B264934
:109AA400024622481B1ADB081B0443F00100FCF7A2
:109AB400BBFE0023CDE9023322684FF4B06301A951
:109AC400A1200193FFF748FF60B1FDF73FFC154B60
:109AD4001A49024615481B1ADB081B0443F001000F
:109AE400FCF7A2FE00252268039501A9A020CDE978
:109AF4000155FFF731FF034668B1FDF727FC094B19
:109B04000F49024609481B1ADB081B0443F00100F5
:109B1400FCF78AFE2B46184605B030BD0E23FAE743
:109B2400003000208CA502004CAF02002CA50200DE
:109B340092AF0200DEAF020025B0020071B0020055
:109B4400C2B0020073B505460668FFF703FF2B6831
:109B5400B34204461DD91A481A4B1B491B1ADB0889
:109B64001B0443F002000190FCF75AFE2B681749CE
:109B740001983246FCF761FE4FF080532A68D3F80F
:109B84000C31134901989B0203F100539A1AFCF714
:109B94004BFE2CB90F4B01221A70204602B070BD47
:109BA4002046FDF7D3FB074B0B49024604481B1A1A
:109BB400DB081B0443F00100FCF736FEEDE700BFB1
:109BC4002CA502008CA5020015B1020044B10200CC
:109BD40075B10200E74200209FB102004BDF7047DD
:109BE4001FB50E4C01A8FFF7F9FF70B9214602A872
:109BF400FDF778FB039B002BF4D00198D3E90021F7
:109C0400904702A8FDF778FBF4E7052804D004B0D8
:109C1400BDE81040FCF742BE04B010BDE0B1020044
:109C240010B504460846A2684AB12368616803F186
:109C3400010C8C4508BF00208B4208D2D054E36845
:109C44002BB121686268914201D22146984723686A
:109C54000133236010BD70B54C1E09D41646C5B23D
:109C640029463046FFF7DCFF013CB4F1FF3FF7D152
:109C740070BD10F0100F08D108B510F4007F14BFA8
:109C840030202020FFF7E7FF08BD70479AB330B5B6
:109C940094460F2A18D902460B4640EA010414F0F0
:109CA400030F02D00CF1FF3C11E0194610460432B8
:109CB40004330C680568A54206D110461946ACF178
:109CC400040CBCF1040FF0D8BCF1010C0FD00A460F
:109CD400034684441146184601330132047891F84E
:109CE40000E0744503D1184611466345F2D100786B
:109CF4000B78C01A30BD0020704700000FB410B5B7
:109D040086B008AB53F8044B0593002303936FF01C
:109D140000430293084B049300F0FEFB059A21468E
:109D240001A800F0DDF8044600F0F7FB204606B079
:109D3400BDE8104004B070476573020010B50446D6
:109D440000F0EAFB00212046FDF70AFB044600F080
:109D5400E4FB204610BD037853B159B101440346D6
:109D640013F8012F12B18B42FAD10B46181A70471F
:109D74000346FBE70346F9E7844640EA010313F090
:109D8400030F18D18446202A0BD32DE9F007B1E83C
:109D9400F807A0E8F807A2F12002202AF7D2BDE8CC
:109DA400F007042A07D351F8043B40F8043BA2F11E
:109DB4000402042AF7D2002A05D011F8013B00F866
:109DC400013B013AF9D1604670478446002A2DD000
:109DD40010F0030F04D000F8011B013A26D0F7E776
:109DE400C9B241EA012141EA0141202A12D3A2F178
:109DF40020022DE9F0030B460C460D460E460F4695
:109E040088468946A0E8FA03203AFBD2BDE8F0036D
:109E140020320BD0042A05D340F8041B043A05D0A1
:109E2400042AF9D200F8011B013AFBD160467047BD
:109E340010F0030F19D111F0030F16D12DE97000A2
:109E44004FF001364FF0803350F8044B51F8045B67
:109E5400AC4205D1A4EB060525EA04051D40F3D068
:109E6400A0F10400A1F1040170BC10F8012B11F859
:109E7400013BD21A01D1002BF7D11046704700F1F3
:109E8400010110F0030F11D010F8012B002A23D088
:109E940010F0030F0AD010F8012B002A1CD010F088
:109EA400030F03D010F8012B002A15D02DE9700000
:109EB4004FF001324FF0803350F8044BA4EB02050D
:109EC40025EA04051D4000D1F6E7A0F1040070BCAA
:109ED40010F8012B002AFBD1A0EB01007047000011
:109EE4002DE9F04F89B007460392002303600C4626
:109EF40014F8011B002900F0FC82DFF818B5EBE22E
:109F0400002507E05E2868D145F4805501E045F05E
:109F140040051C46234613F8010B3028F2D81F28AD
:109F240037D9A0F12002102A33D801A151F822F028
:109F3400139F0200979F0200979F0200799F0200DF
:109F4400979F0200979F0200979F02007F9F020045
:109F5400979F0200979F0200979F0200859F02002F
:109F6400979F02008B9F0200979F0200979F020019
:109F7400919F020045F08005CBE745F40045C8E712
:109F840045F02005C5E745F01005C2E745F4007526
:109F9400BFE72A2821D1039A111D0391D2F800A00A
:109FA400BAF1000FBCBFCAF1000A45F010051878D9
:109FB400A31C2AEAEA7A2E2826D00021742847D046
:109FC4007A2845D06C2800F0A8804C2800F0AB809B
:109FD400682800F0B8801C463DE0A0F13002D2B2FF
:109FE400092A88BF4FF0000AE3D84FF0000A0AEBB1
:109FF4008A0A303800EB4A0A13F8010BA0F1300248
:10A00400D2B2092AF3D9D4E718782A280AD1039AB4
:10A01400111D03911168587802330029CEDB45F4F1
:10A024008075CBE70133A0F13002D2B2092A88BF90
:10A034000021F4D8002101EB8101303800EB41010B
:10A0440013F8010BA0F13002D2B2092AF3D9E4E7E4
:10A054001C4614F8010B002800F05782A0F12503D8
:10A06400DBB2532B62D8A0F12503532B5ED8DFE873
:10A0740013F076005D005D005D005D005D005D0035
:10A084005D005D005D005D005D005D005D005D00E4
:10A094005D005D005D005D005D005D005D005D00D4
:10A0A4005D005D005D005D005D005D005D005D00C4
:10A0B4005D005D005D005D005D005D005D005D00B4
:10A0C4005D005D005D005D005D005D005D005D00A4
:10A0D4005D005D005D005D00EC005D005D005D0005
:10A0E4005D005D005D005D005D005D005D007B0066
:10A0F40021015D005D005D005D0021015D005D00EA
:10A104005D005D0095000F01D2005D005D00A600BA
:10A114005D001A015D005D00EE001C4614F8010BA1
:10A1240045F0010597E745F001051C46B54B1E684F
:10A13400002E00F0CE8103AB0193009153462A46D2
:10A144003946B047C5E11878682803D05C1C45F04F
:10A15400040580E745F008059C1C58787BE7252119
:10A164003846FFF75DFDB4E1039B1A1D03921E7888
:10A174000AF1FF3A3A4651462846FFF77AFD31463E
:10A184003846FFF74DFDA94619F0100F00F0A181E4
:10A194003A4651462020FFF75EFD9AE115F0080F7C
:10A1A40006D03A68039B191D03911B681A7090E14D
:10A1B400039B1A1D03921B683A681A6089E1039B8A
:10A1C4001A1D0392D3F800808F4BB8F1000F08BF1B
:10A1D4009846464625F4007915F4807F16D040460B
:10A1E400FFF7B9FD0546AAEB050A3A46514648462B
:10A1F400FFF73FFD002DC7D016F8011B3846FFF7C7
:10A204000FFDA8EB0603EB42F6D1BDE74046FFF78E
:10A2140036FE0546E7E7039B1A1D03921B6815F0FB
:10A22400800F0CBF0026232645F4807508211A46AA
:10A23400002B00F02A8105AB4FF0000805F4005C08
:10A24400A64660468C460146D2E045F4005515F01A
:10A25400800F1BD043F2780643F25803782818BFC6
:10A264001E4615F4807F01D025F4007515F4804F47
:10A2740032D0039B1A1D03921B6815F0040F1FD0E4
:10A284001BB2002B20DA5B422D262DE00026E8E7E6
:10A2940015F0800F0CBF0026302615F4807FE5D022
:10A2A40025F40075E2E715F4807F07D025F40075E6
:10A2B4000026DBE745F480450026D7E70026D5E7EE
:10A2C40015F0080FDDD0DBB215F0200F61D115F0C9
:10A2D400400F18BF202607E0039B1A1D03921B683A
:10A2E40015F0040F50D09BB215F4807F14BF25F4F1
:10A2F400007501215838202800F2AF8001A252F8DD
:10A3040020F000BF33A202005FA402005FA4020099
:10A314005FA402005FA402005FA402005FA4020025
:10A324005FA402005FA402005FA402005FA4020015
:10A334005FA40200C3A302005FA402005FA40200A2
:10A344005FA402005FA40200C3A302005FA4020092
:10A354005FA402005FA402005FA402005FA40200E5
:10A364009BA3020033A202005FA402005FA40200C8
:10A374005FA402005FA40200C3A302005FA4020062
:10A384005FA4020033A2020015F0080FACD0DBB2C8
:10A39400AAE72B26A8E71A464FF00008002B5ED048
:10A3A40005A84FF0000803F00703303300F8013B21
:10A3B40008F10108D2081346002AF4D14FE01846E8
:10A3C4004FF00008002B4AD04FF0000805F4004E6F
:10A3D4004FF02C0973468E4619462FE002F00F0009
:10A3E4000A4C205C03F8010B08F10108120906D09D
:10A3F4000029F3D002F00F00054C205CF2E774460C
:10A4040061462CE0E84200200CB20200ECB10200EC
:10A41400FCB10200CDCCCCCC08AB03EB080CABFBFD
:10A424000032D20802EB8203A0EB430330330CF872
:10A434000C3C08F1010809280DD910460029EBD07D
:10A4440008F00303032BE7D108AB434403F80C9C47
:10A4540008F10108E0E7714601E04FF00008A1EBC4
:10A46400080121EAE179AAEB090AAAEB080AFF2EFE
:10A474000ED9AAF1020AC6F307213846FFF7D0FB2A
:10A48400F1B23846FFF7CCFB04E04FF00008E6E7F2
:10A49400002E3DD13A4651462846FFF7EAFB3A469C
:10A4A40049463020FFF7D7FBB8F1000F0EDD0DF160
:10A4B400140908F1FF38C84498F800104646384695
:10A4C400FFF7AEFBC14508F1FF38F5D115F0100FC9
:10A4D40009D114F8011B61B125293FF411AD3846A7
:10A4E400FFF79EFBF5E73A4651462020FFF7B3FB02
:10A4F400EFE7BB682BB13A6879688A423CBF002118
:10A504009954386809B0BDE8F08F4FF0FF30F9E78F
:0CA514000AF1FF3AB4E700BF704770473F
:08A5200071760200000000004A
:04A52800398502006F
:10A52C006EAB02000000000074AB020000000000E3
:10A53C007BAB0200000000007FAB020000000000BB
:10A54C0084AB02000000000011A60200000003030F
:10A55C004DAD020000000303FFAE02000000030338
:10A56C00C9AE02000000030368AB0200000000004B
:10A57C0098AE02000000030319AF020000000303B1
:10A58C00BCB1020000000303D4B1020000000303BD
:08A59C0058A6020000000000B7
:10A5A400E8320020B0330020B8330020F03200201D
:04A5B400180000008B
:10A5B800B999020000000000E59B020000000000BD
:08A5C800F17602000000000022
:10A5D000A98402000000000065940200543B0020A2
:10A5E0005D8D02001A300020D1900200403B002017
:10A5F000C1960200303B00200986020000000000E6
:10A600004261636B656E647320666C757368656424
:10A610000061707000466174616C206572726F72C7
:10A620000053797374656D20726573657400000062
:10A630000338FDD870470000FFFFFFFFFFFFFFFF5B
:10A64000FFFFFFFFFFFFFFFF000000000000000012
:10A650000000D601060100007077725F6D676D74AF
:10A660000000000028A502002CA502000400000044
:10A670004E52465F53554343455353004E52465F37
:10A680004552524F525F5356435F48414E444C45EA
:10A69000525F4D495353494E47004E52465F455213
:10A6A000524F525F534F46544445564943455F4EBF
:10A6B0004F545F454E41424C4544004E52465F4523
:10A6C00052524F525F494E5445524E414C004E52E9
:10A6D000465F4552524F525F4E4F5F4D454D004EC3
:10A6E00052465F4552524F525F4E4F545F464F5550
:10A6F0004E44004E52465F4552524F525F4E4F54A9
:10A700005F535550504F52544544004E52465F459A
:10A7100052524F525F494E56414C49445F5041524C
:10A72000414D004E52465F4552524F525F494E5680
:10A73000414C49445F5354415445004E52465F4595
:10A7400052524F525F494E56414C49445F4C454E20
:10A75000475448004E52465F4552524F525F494E51
:10A7600056414C49445F464C414753004E52465F68
:10A770004552524F525F494E56414C49445F444105
:10A780005441004E52465F4552524F525F4441542D
:10A79000415F53495A45004E52465F4552524F520F
:10A7A0005F54494D454F5554004E52465F455252F5
:10A7B0004F525F4E554C4C004E52465F4552524FE1
:10A7C000525F464F5242494444454E004E52465F06
:10A7D0004552524F525F494E56414C49445F4144A5
:10A7E0004452004E52465F4552524F525F425553BB
:10A7F00059004E52465F4552524F525F434F4E4EA4
:10A800005F434F554E54004E52465F4552524F5291
:10A810005F5245534F5552434553004E52465F4594
:10A8200052524F525F4D4F44554C455F4E4F545F0F
:10A83000494E495449414C495A4544004E52465F9D
:10A840004552524F525F4D555445585F494E4954F9
:10A850005F4641494C4544004E52465F4552524F77
:10A86000525F4D555445585F4C4F434B5F464149ED
:10A870004C4544004E52465F4552524F525F4D5533
:10A880005445585F554E4C4F434B5F4641494C45EC
:10A8900044004E52465F4552524F525F4D5554450B
:10A8A000585F434F4E445F494E49545F4641494CBF
:10A8B0004544004E52465F4552524F525F4D4F4401
:10A8C000554C455F414C52454144595F494E4954AE
:10A8D00049414C495A4544004E52465F4552524FF9
:10A8E000525F53544F524147455F46554C4C004EC2
:10A8F00052465F4552524F525F4150495F4E4F544E
:10A900005F494D504C454D454E544544004E5246CE
:10A910005F4552524F525F464541545552455F4E36
:10A920004F545F454E41424C4544004E52465F45B0
:10A9300052524F525F494F5F50454E44494E470077
:10A940004E52465F4552524F525F4452565F5457E3
:10A95000495F4552525F4F56455252554E004E5236
:10A96000465F4552524F525F4452565F5457495FBB
:10A970004552525F414E41434B004E52465F455255
:10A98000524F525F4452565F5457495F4552525F8F
:10A99000444E41434B004E52465F4552524F525F28
:10A9A000424C455F495053505F52585F504B545F83
:10A9B0005452554E4341544544004E52465F455211
:10A9C000524F525F424C455F495053505F4348419C
:10A9D0004E4E454C5F414C52454144595F455849A4
:10A9E000535453004E52465F4552524F525F424CB1
:10A9F000455F495053505F4C494E4B5F4449534368
:10AA00004F4E4E4543544544004E52465F455252C8
:10AA10004F525F424C455F495053505F504545523D
:10AA20005F52454A454354454400556E6B6E6F77FF
:10AA30006E206572726F7220636F646500000000A3
:10AA40000000000070A60200010000007CA60200C9
:10AA5000020000009AA6020003000000BBA602004C
:10AA600004000000CEA6020005000000DFA60200E0
:10AA700006000000F3A60200070000000BA702007A
:10AA80000800000023A70200090000003BA7020005
:10AA90000A00000054A702000B0000006CA702008F
:10AAA0000C00000083A702000D00000097A7020021
:10AAB0000E000000A9A702000F000000B8A70200C6
:10AAC00010000000CCA7020011000000E3A7020064
:10AAD00012000000F2A702001300000007A8020005
:10AAE000800000001BA80200810000003CA80200BA
:10AAF0008200000058A802008300000074A8020031
:10AB00008400000092A8020085000000B3A80200A3
:10AB100086000000D8A8020090000000EFA8020004
:10AB2000910000000DA90200920000002BA9020074
:10AB30000082000040A90200018200005EA902001C
:10AB4000028200007AA902000084000096A9020097
:10AB500001840000BAA9020002840000E4A90200F6
:10AB60000384000009AA0200636C6F636B00434C0E
:10AB70004F434B004750494F5445005052530055E6
:10AB800041525400554152544500436F6D6D756EEE
:10AB900069636174696F6E206572726F72206F6392
:10ABA000637572726564207768696C652068616E90
:10ABB000646C696E6720554152542E004572726F65
:10ABC00072206F6363757272656420696E204649F6
:10ABD000464F206D6F64756C6520757365642062E7
:10ABE0007920554152542E00446973636F76657223
:10ABF0007920636F6D706C6574652E00436F6E6EA7
:10AC0000656374656420746F20646576696365208C
:10AC100077697468204E6F7264696320554152549D
:10AC200020536572766963652E00252E32780044C4
:10AC30006973636F6E6E65637465642E00436F6E37
:10AC40006E656374696E6720746F207461726765E6
:10AC5000742025303278253032782530327825300E
:10AC600032782530327825303278005363616E2097
:10AC700074696D6564206F75742E00000800000013
:10AC800006000000000000000000000000000000BE
:10AC900000E0D7016B656E3531386368656E5F42E1
:10ACA0004C455F7468726573686F6C64004E6F74B6
:10ACB00020656E6F75676820737061636520666FCD
:10ACC0007220636861726163746572697374696329
:10ACD00073206173736F636961746564207769744D
:10ACE0006820736572766963652030782530345842
:10ACF000202100496E63726561736520424C455F97
:10AD0000474154545F44425F4D41585F434841526C
:10AD10005320746F2062652061626C6520746F201F
:10AD200073746F7265206D6F726520636861726104
:10AD30006374657269737469637320666F722065EA
:10AD400061636820736572766963652100626C6572
:10AD50005F64625F646973630073645F626C655F04
:10AD60006761705F646174615F6C656E6774685F72
:10AD70007570646174652829202872657175657322
:10AD80007429206F6E20636F6E6E656374696F6ED9
:10AD900020307825782072657475726E6564202580
:10ADA000732E0054686520726571756573746564EF
:10ADB0002054582F5258207061636B6574206C6565
:10ADC0006E67746820697320746F6F206C6F6E6794
:10ADD0002062792025752F2575206F637465747343
:10ADE0002E00546865207265717565737465642002
:10ADF000636F6D62696E6174696F6E206F66205457
:10AE00005820616E64205258207061636B65742015
:10AE10006C656E6774687320697320746F6F206C43
:10AE20006F6E67206279202575206D6963726F737C
:10AE300065636F6E64732E0073645F626C655F6739
:10AE4000617474635F65786368616E67655F6D7474
:10AE5000755F7265717565737428292072657475E4
:10AE6000726E65642025732E0073645F626C655F8B
:10AE700067617474735F65786368616E67655F6D41
:10AE800074755F7265706C792829207265747572AB
:10AE90006E65642025732E006E72665F626C655F5E
:10AEA000676174740073645F626C655F6761705F93
:10AEB0007363616E5F73746172742072657475720E
:10AEC0006E6564203078257800626C655F7363611D
:10AED0006E00436F6E74656E7420746F6F206C6FBC
:10AEE0006E672E00436F6E6E656374696F6E2068C7
:10AEF000616E646C6520696E76616C69642E0062B7
:10AF00006C655F6E75735F63009ECADC240EE5A9F5
:10AF1000E093F3A3B50000406E6E72665F736468E1
:10AF20000001000007000000C8A50200C8A502003B
:10AF300008000000B8A50200C8A502000800000033
:10AF4000C8A50200D0A502000800000073645F627B
:10AF50006C655F6366675F7365742829207265742A
:10AF600075726E6564202573207768656E20617444
:10AF700074656D7074696E6720746F2073657420DA
:10AF8000424C455F434F4E4E5F4346475F474150FB
:10AF90002E0073645F626C655F6366675F736574E0
:10AFA00028292072657475726E6564202573207778
:10AFB00068656E20617474656D7074696E67207465
:10AFC0006F2073657420424C455F4741505F434694
:10AFD000475F524F4C455F434F554E542E007364AC
:10AFE0005F626C655F6366675F73657428292072B2
:10AFF000657475726E6564202573207768656E20B0
:10B00000617474656D7074696E6720746F20736508
:10B010007420424C455F434F4E4E5F4346475F4767
:10B020004154542E0073645F626C655F6366675FB2
:10B0300073657428292072657475726E65642025A5
:10B0400073207768656E20617474656D7074696EC5
:10B050006720746F2073657420424C455F434F4DE9
:10B060004D4F4E5F4346475F56535F555549442EFB
:10B070000073645F626C655F6366675F7365742805
:10B08000292072657475726E656420257320776857
:10B09000656E20617474656D7074696E6720746F7D
:10B0A0002073657420424C455F47415454535F43BD
:10B0B00046475F415454525F5441425F53495A4599
:10B0C0002E0073645F626C655F6366675F736574AF
:10B0D00028292072657475726E6564202573207747
:10B0E00068656E20617474656D7074696E67207434
:10B0F0006F2073657420424C455F47415454535F41
:10B100004346475F534552564943455F4348414E86
:10B110004745442E00496E73756666696369656EBE
:10B12000742052414D20616C6C6F636174656420C2
:10B13000666F722074686520536F66744465766923
:10B1400063652E004368616E6765207468652052F0
:10B15000414D207374617274206C6F636174696F08
:10B160006E2066726F6D203078257820746F2030E5
:10B170007825782E004D6178696D756D2052414DAE
:10B180002073697A6520666F72206170706C6963E4
:10B190006174696F6E20697320307825782E007392
:10B1A000645F626C655F656E61626C652829207200
:10B1B000657475726E65642025732E006E72665F0D
:10B1C0007364685F626C6500D0A5020000A602008F
:10B1D000080000006E72665F7364685F736F6300DF
:10B1E00020A5020028A502000800000030313233FB
:10B1F00034353637383961626364656630313233ED
:10B20000343536373839414243444546286E756CEB
:03B210006C2900A6
:10B21400000000000020004000000000002000406A
:10B22400000000000090D0031400000000000000A3
:10B23400000000000000000000000000000000000A
:10B2440000000000000000000000000000000000FA
:10B2540000000000000000000000000000000000EA
:10B2640000000000000000000000000000000000DA
:06B4F40000000000FFFF54
:040000032000637501
:00000001FF
