:020000022000DC
:1060000000000120756302005D6302005F6302000F
:106010006163020063630200656302000000000028
:1060200000000000000000000000000067630200A4
:1060300069630200000000006B6302006D630200F0
:106040009D7F02006F630200AD830200D18B0200CE
:10605000E18B02006F63020035820200B18502000D
:10606000E98F0200F98F02006F6302006F63020084
:106070006F6302006F6302006F6302006F630200D0
:106080006F630200AD6702006F6302006F6302007E
:10609000496802006F63020075CB02006F63020063
:1060A0006F6302006F6302006F6302006F630200A0
:1060B0006F6302006F630200000000000000000038
:1060C0006F6302006F6302006F6302006F63020080
:1060D0006F6302006F6302006F6302000000000044
:1060E00000000000000000000000000000000000B0
:1060F00000000000000000000000000000000000A0
:10610000000000000000000000000000000000008F
:10611000000000000000000000000000000000007F
:10612000000000000000000000000000000000006F
:10613000000000000000000000000000000000005F
:10614000000000000000000000000000000000004F
:10615000000000000000000000000000000000003F
:10616000000000000000000000000000000000002F
:10617000000000000000000000000000000000001F
:10618000000000000000000000000000000000000F
:1061900000000000000000000000000000000000FF
:1061A00000000000000000000000000000000000EF
:1061B00000000000000000000000000000000000DF
:1061C00000000000000000000000000000000000CF
:1061D00000000000000000000000000000000000BF
:1061E00000000000000000000000000000000000AF
:1061F000000000000000000000000000000000009F
:10620000354936480A1A02D0072291438D4634494F
:1062100034480A1A06D00722914381F309880222E2
:1062200082F3148830483149314A00F044F831484B
:106230003149324A00F03FF831483249324A00F0E1
:106240003AF832483249334A00F035F83248334997
:10625000334A00F030F833483349344A00F02BF821
:1062600033483449344A00F026F83448344900228F
:1062700000F02CF833483449002200F027F8334866
:106280003349091A082902DB002202604160314AC1
:1062900090471F481F49884205D00268043003B464
:1062A000904703BCF7E700208646EC46002000211B
:1062B000294A9047FEE7884207D0521A05D0037852
:1062C00001300B700131013AF9D17047884202D098
:1062D00002700130FAE770470000012000E0002062
:1062E0000000012000000120F8D502001430002039
:1062F00060300020D4630200D463020020D4020086
:10630000F8D502001430002014300020CCD4020054
:10631000CCD40200CCD40200CCD40200CCD40200F5
:10632000CCD40200CCD40200CCD40200F8D50200B8
:1063300044D6020060300020603000206030002031
:10634000063A0020083A0020083A0020083A0020C7
:10635000085A00209D63020035940200FEE7FEE724
:10636000FEE7FEE7FEE7FEE7FEE7FEE7FEE7FEE705
:10637000704700BF1048804710484FF0070188431E
:1063800085460F4880470F48016841F4700101605D
:10639000BFF34F8FBFF36F8FFFF732BF0A480B4930
:1063A0000B4A884207D0521A05D0037801300B708F
:1063B0000131013AF9D170477163020000000120F8
:1063C0003564020088ED00E0B8D4020000300020FF
:0463D0001430002065
:1063D4004FF0704393F8E02F062A10D1D3F8E42F3E
:1063E40012070CD1D3F8E80F00F0F003302B08D0DB
:1063F40000F0E000A0F140035842584170470020EB
:106404007047012070474FF0704393F8E02F062A3D
:106414000CD1D3F8E42F120708D1D3F8E80F00F019
:10642400F000A0F1300358425841704700207047F3
:1064340008B5FFF7CDFF40B14FF08053884AD3F839
:106444002433C3F30423C2F84035FFF7DCFF10B153
:10645400844B854A5A67FFF7BBFF48B14FF080531E
:106464004FF08042D3F84432C3F34233C2F83C3590
:10647400FFF7C9FF30B17D4AD2F8FC3023F08073B6
:10648400C2F8FC30FFF7A4FF40B14FF08043002274
:10649400C3F80C21C3F81021C3F83825FFF7B3FF64
:1064A40020B14FF080430322C3F8A025FFF7ABFFD0
:1064B40060B16F4B0522C3F810260122C3F8882669
:1064C4000022C3F818263F22C3F814264FF0704365
:1064D40093F8E02F062A50D1D3F8E42F11074CD1BA
:1064E400D3F8E83F03F0F003502B46D14FF080522D
:1064F400604BD2F80414C3F82015D2F80814C3F87A
:106504002415D2F80C14C3F82815D2F81014C3F8C3
:106514002C15D2F81414C3F83015D2F81814C3F893
:106524003415D2F81C14C3F84015D2F82014C3F85B
:106534004415D2F82414C3F84815D2F82814C3F823
:106544004C15D2F82C14C3F85015D2F83014C3F8F3
:106554005415D2F83414C3F86015D2F83814C3F8BB
:106564006415D2F83C14C3F86815D2F84014C3F883
:106574006C15D2F84424C3F87025FFF729FF48B1FD
:106584004FF080534FF08042D3F8583203F04F035A
:10659400C2F8E43EFFF71CFF48B14FF08043D3F844
:1065A4000024D20744BF6FF00102C3F800244FF067
:1065B4008053D3F83021062A0AD1D3F83431062B7C
:1065C40001BF2D4AD2F83C3743F48063C2F83C370C
:1065D400264AD2F8883043F47003C2F88830BFF3F7
:1065E4004F8FBFF36F8F4FF01023D3F80022002A90
:1065F40003DBD3F80432002B2EDA204B0122C3F83C
:106604000425D3F80024002AFBD04FF010221521D2
:10661400C2F80012D3F80024002AFBD04FF0102354
:106624001522C3F80422154BD3F80024002AFBD00A
:106634000022C3F80425D3F80024002AFBD0BFF3BA
:106644004F8F0A490E4BCA6802F4E0621343CB60D1
:10665400BFF34F8F00BFFDE70A4B0B4A1A6008BD1A
:106664000030014000C007400DF0ADBA00ED00E07D
:106674000050004000C000400010004000E0014015
:106684000400FA05143000200090D0031FB5002147
:10669400039001AA44F20100CDE9011100F004F8CD
:1066A40005B05DF804FB000072B6094BD3F8F02086
:1066B400D20700D500BEBFF34F8FD968054A01F455
:1066C400E0610A43DA60BFF34F8F00BFFDE700BF0C
:1066D40000ED00E00400FA05094B5A78997801327C
:1066E400D2B2914208BF0022197891421FBF0270B2
:1066F4005878182202FB003014BF04300020704781
:106704006030002073B5054600240DF107000E46E5
:106714008DF8074000F08CFA0DF10600FFF7DCFF5E
:1067240090B10670094B9DF8062045605A709DF89B
:10673400070000F0A1FA24B9054B4FF48012C3F806
:106744000021204602B070BD0424F0E76030002030
:1067540000E100E0024B4FF43C6043F001031847B2
:10676400D0D4020038B50C4B0C4C4FF40032C3F8B3
:10677400802001254FF48033C4F84833C4F808332B
:106784006560FFF7E7FF064BA56000241C60FFF778
:10679400E1FF044B1C7038BD00E100E00010014033
:1067A4007C3100206D310020F8B51F4B1F491B6858
:1067B4000025C1F84051C1F84451C1F84851C1F80D
:1067C4004C51C1F80051C1F804514BB3D1F8044500
:1067D40017490968641A24F07F442F461A68A242B4
:1067E40009D8A41A15441A7CDE691AB1D3E9052024
:1067F4001F749047AEB90F4A0F4B11781B788B4228
:1068040005D10133DBB2022B08BF002313701278C9
:106814000A4B43F822500A4B4FF48012C3F800216C
:10682400F8BD3346DAE700BF803100200010014094
:106834007C31002079310020783100207031002033
:1068440000E100E02DE9F04FA14AA249137809784C
:10685400A14D994285B03CD00133DBB2022B08BF75
:10686400002313709D4912789D4B0F6853F8220042
:106874003B1823F07F4300220B602B681646144616
:10688400944613B942B12B6006E0196881420ED9CF
:1068940002B12B60091A196001272B68DFF848A29E
:1068A40001934FF00008BEB9DFF844B260E0401A2B
:1068B4000C44D968D3F81CE0C3F800C031B13A19CC
:1068C40022F07F42C3E90121DE611E4673460122A4
:1068D400D7E700263746E0E73446F6697F4B606821
:1068E4001B68DFF810C2A168C21A22F07F42624519
:1068F40000F2A6800A442260012222742A6800233E
:10690400C4E90133E361002A40F0A3802C60CAE7A4
:106914009BF802105A1CD2B291428BF8002004BF9B
:1069240000228BF80020182202FB03B32A6819798D
:106934009C68022975D003297FD0012918D1207CB5
:10694400B0B9D3E90312A2605A69E2609A69654B4F
:10695400A2611A78002A18BF01466160BEE78C4222
:1069640000F094808946C9690029F8D10023237472
:106974009BF800309BF801209A42C9D12B68B8F1EA
:10698400000F04D1019A9A4201D1002F43D0002B69
:1069940079D0D3F800A0544D504BD5F804751C6839
:1069A400DFF854813E1B98F8003026F07F4603360A
:1069B4009BB94FF48033C5F84433C5F804334B4BCB
:1069C4004FF400324FF00109C3F880211A60C5F872
:1069D4000090FFF7BFFE88F80090B2452CBF5444E6
:1069E400A41924F07F44C5F84045D5F80435DB1BD1
:1069F40023F07F43E41B033324F07F44A3420AD9EA
:106A0400D5F80435C5F84035FFF7A4FE374B4FF4ED
:106A14000032C3F80021334B00221A7005B0BDE8E0
:106A2400F08F114691469FE71174D2690123002A21
:106A3400FAD1002B9CD02A609AE700231946F6E786
:106A44001B1A23F07F438B4234BFCB1A00232360ED
:106A540052E721681368994213D85B1A1360E26104
:106A640054E7091AD8691A4638B1034618688842A7
:106A7400F7D3401A1860184613462160E061DC61C0
:106A840011E71346F2E7FFF76DFEC4E74C4511D159
:106A9400D3692B6073B9DFF844E00120CDE9021219
:106AA400CAF80800CEF800300E4B1870FFF752FEFB
:106AB400DDE902120B68C969C9F81C1011B1086834
:106AC40003440B602B68934218BF4FF001084DE755
:106AD4007831002079310020803100207C31002081
:106AE400703100206C3100200010014000E100E012
:106AF40060300020FEFF7F006D31002008B5FFF7F5
:106B040031FE104B00200B2218809A700E4B186037
:106B14000E4B18700E4B18700E4B4FF48012C021A0
:106B2400C3F8802183F814131A6002F18042A2F59D
:106B34006F22C2F8080583F81113074BD2F8042515
:106B44001A6008BD603000208031002078310020B8
:106B54007931002000E100E07C310020074B9B7874
:106B64004BB132B128B10368187C20B959745A6109
:106B74007047072070470820704700BF603000202E
:106B84002DE9F743DFF8848098F8023005460E4675
:106B94001746ABB3A0B3042930D9436983B3437C0C
:106BA4000024012B0DF107000CBF8946A1468DF886
:106BB400074000F03DF80DF10600FFF78DFDD8B158
:106BC400012303700F4B4560D3F80435C0E90497E3
:106BD400C0E902369DF8063088F801309DF80700B8
:106BE40000F04AF824B9084B4FF48012C3F800218E
:106BF400204603B0BDE8F0830424EFE70724F7E759
:106C04000824F5E70010014000E100E060300020B6
:106C1400064A92783AB130B1426922B10022027434
:106C24000221FFF76FBD0820704700BF60300020CD
:106C340070B5EFF3108672B60C4A946801239CB9C0
:106C440093600B4B0B4DD3F8801029401160C3F8AF
:106C54008050D3F8841051604FF0FF32C3F8842081
:106C6400047006B962B670BD0370FAE7843100207F
:106C740000E100E0FC06FFBD084B9A6810B55AB16C
:106C840050B9EFF3108172B6054A1C6814605C6851
:106C94005460986001B962B610BD00BF8431002011
:106CA40000E100E070B5064D0646002455F8043BAB
:106CB4000BB1304698470134042CF7D170BD00BFA6
:106CC4009C3100204388033300EB8303994209D3AA
:106CD40082884FF6FF739A4206D00088B0FA80F09B
:106CE400400970470220704701207047033080B28A
:106CF40040F2FD33984230B51FD8124B1A783AB996
:106D04001C895D892C440444A4B2B4F5806F0AD371
:106D14001A7DA2B99A8BDC8B2244024492B2B2F55A
:106D2400806F0CD201220A801446142202FB043321
:106D34005A8910445881002030BD0920FCE70720FF
:106D4400FAE700BFD03100200B4A0C4953881420C5
:106D540000FB0311CB6833B9042049681070012289
:106D6400074800F021BE07490523137002238B80D6
:106D7400012209680023F3E7B4310020D031002058
:106D8400003000200C32002007B500230549009391
:106D9400054A09680548082300F0D8FD03B05DF8EA
:106DA40004FB00BF0C320020E4D4020000300020B9
:106DB40007B5002301460093034A0448082300F062
:106DC400C5FD03B05DF804FBDCD4020000300020F4
:106DD40013B500230C4600930146084A08480423CF
:106DE40000F0B4FD38B9074B142101FB0431012331
:106DF4000B7402B010BD0E20FBE700BFD8D4020014
:106E040000300020D031002037B50A480A4B4268D0
:106E14009C88196853880325033305709BB20020AE
:106E240000909B0001EB8401044800F08FFD03B047
:106E340030BD00BFB43100200C32002000300020EF
:106E440010B50146044800F062FC1C2204460021EF
:106E540006F0B1FA204610BDF831002038B5144BC5
:106E640014220D4602FB00302B68446804F580515F
:106E7400A3B15C88033403EB84048C4215D22368E9
:106E8400013312D02046FFF71DFF012808D0022845
:106E94000BD00028F1D12C60012038BD0834ECE778
:106EA4006388033304EB8304E7E70020F5E700BFBE
:106EB400D0310020426873B504460D4662B3234BBB
:106EC400D9688A4228D31B699A4225D812F0030351
:106ED40022D11F490089098988421DD120689168FF
:106EE400884219D11B4841688A4203D901F580516F
:106EF4008A420DD381698A420CD901F580518A42B4
:106F040008D201222A80B3FA83F0400902B070BD8E
:106F14001A46F7E70A23F6E700262E80019628880A
:106F240001A9FFF79BFF30B92B8801339BB2012BDA
:106F34002B80F3D9EAE7019B226899689142EED14C
:106F44006360034B1B892381E0E700BF003000200E
:106F5400B4310020D03100202DE9F8431C461C4BED
:106F64001B7806460F4615466BB372B36CB3DFF855
:106F740068804FF01409A388012B01D90A2020E06E
:106F840009FB03F318F803302BB9A0882146FFF757
:106F940065FF20B92060A3880133A380EBE7236851
:106FA4001EB1998832889142EFD11FB119883A886D
:106FB4009142EAD19A68C5E90023064B1B892B81CB
:106FC4000020BDE8F8830220FBE70520F9E700BFB5
:106FD400AC310020B4310020D031002008B5074B7B
:106FE4005888191DFFF73AFF18B1BDE80840FFF7AC
:106FF4000BBFBDE80840FFF7A7BE00BFB4310020B7
:107004002DE9F0479F4FDFF8A08288B006463B6821
:1070140023B99D48414600F0B4FB38603D682978A7
:107024004B1E052B07D8DFE813F01F00770077000D
:10703400070107015B010F241422002103A806F0B5
:10704400BAF941F61D539C4208BF00243B680494DE
:107054001A78023A042A00F2F981DFE812F0DA0120
:10706400E60108021002170226B1884B00225A607A
:107074000124E1E72B79032B1CD8DFE803F0140289
:107084002934834A1378022B19D0137D022B4FF035
:10709400010316D114214B43D1180020D054486861
:1070A400FFF786FE03E001232B71FFF76DFE002836
:1070B40000F0BD80754B00225A600E24BCE700230B
:1070C400E8E7724A13700023536041F61D54B3E796
:1070D40070497148002302222B718A8009680122B9
:1070E40000F062FCE3E76B4C00262E712068FFF78A
:1070F4005FFE6A4BDFF898C15B882568142253430E
:107104000CEB03020CF8036051685560A5881581E7
:1071140002222160A280CAE7B5F814A0AA7DDFF894
:107124007091AEB1022AEB8806D9142101FB0A91B1
:10713400DA1C088902440A81142202FB0A99C3F565
:107144007F43B9F80A20FD331344A9F80A308FE7C6
:10715400142303FB0A9318895C6804EB8004062A51
:1071640068D8DFE802F0274D35431D59040041F685
:107174001D54AA7DEB88022A06D9142101FB0A9129
:10718400DA1C088902440A81142202FB0A99C3F515
:107194007F43B9F80A20FD331344A9F80A304BE7BA
:1071A4003F48404900234360AB690360FFF782FE18
:1071B400002859D00223AB75002300930423EA1856
:1071C4002146354800F0C2FB002830D00E24D0E719
:1071D4002B69002B14BF03230123AB7500230093F9
:1071E40005F10C02042304F10801EAE70123AB755D
:1071F4000022EB8800922A699B0004F10C01E0E76D
:1072040003290CBF05230623AB7500230093042335
:1072140005F10802E118D4E70623AB75214B198860
:107224001F4B5868FFF7D4FD04460028A1D108B0CD
:10723400BDE8F0870F249CE7002E7FF419AF2B796B
:10724400012B33D0022B3FF440AF002B7FF4F3AE7D
:1072540002232B710DF10A01EB68039303A8CDE916
:107264000466FFF727FE08B90A24E5E60498BDF88A
:107274000A108388EB8003882B81FFF7A9FD04465D
:1072840027E000BFCC310020F8310020AC310020D1
:10729400D03100200C32002000300020B431002016
:1072A4009031002014320020C4310020DFF8F8911E
:1072B40003AA4B463146A81DFFF74EFE044660B9AB
:1072C400B9F804100498FFF783FD04460A2C3FF430
:1072D400FCAE002C7FF4B0AEA9E7C9E90066F5E77F
:1072E400002E7FF4C5AE6B4B1A7BBAB11E731A78AD
:1072F400013A062A3FF69FAE01A151F822F000BFE1
:10730400AB730200D1730200EF730200F573020045
:107314003B700200FB7302000D7402001A78072A06
:10732400E5D801A151F822F04D730200F372020076
:10733400F37202007373020087730200A7730200E2
:10734400A77302006F7302001A89534901321A812C
:1073540000225A801A730A78B2FA82F252099A7297
:107364000A7DB2FA82F25209DA72012207E04B492D
:1073740058688A884088033202448A8002221A703C
:10738400B5E75C88444A4549142505FB042208688E
:10739400546850608888108102228A800C6006221A
:1073A400EDE70722EBE79A7A32B9DA7A8AB9002252
:1073B4001A705A805A6088E6374900229A72CA685D
:1073C400002AF2D1097C0029EFD05A80FFF706FE8B
:1073D40055E70022DA72304A116A0029E7D192F89F
:1073E4002420002AE3D00122EFE7FFF70DFD46E752
:1073F400FFF7AAFC43E75A88274B142101FB023309
:107404005868FFF7D5FC3AE700225A60FFF7BCFC46
:1074140035E701228DF80C201A89ADF818209A88D6
:10742400DB68ADF81A20059310E002228DF80C20D9
:107434001A89ADF818209A88ADF81A20DA689B7D6D
:1074440005929A1F534253418DF81C3003A8FFF74D
:1074540029FC0026414612483E6000F0BDF911485F
:10746400012100F067FA00287FF4D1ADDFE60322A2
:107474008DF80C20DA88ADF818201A89D0E7042298
:107484008DF80C20DB88ADF81830DFE705238DF884
:107494000C30DBE7B4310020D03100200C32002066
:1074A400F831002008320020183200204068FFF72D
:1074B400A7BD000008B50548012100F023FA18B95A
:1074C400BDE80840FFF79CBD08BD00BF083200209E
:1074D4002DE9F3419846354B1B7806460D46002BA3
:1074E4005BD000295BD009884FF6FF73994258D0CE
:1074F4006B88002B55D06B689B0754D14AB92F89F0
:107504000DF102013846FFF7F1FB30B102B0BDE8DE
:10751400F08113885788ADF8023001A8FFF790FC7A
:10752400044658B9BDF80220214B142101FB023353
:1075340058890338C01B58810820E7E780F8008089
:1075440000238375BDF8023083826B6803610121D7
:10755400184800F0E3F92B882381B8F1030F6B88F6
:10756400A38004BF0423A3754FF0000508BF33684C
:10757400E06008BFA3611048E780658101A900F0BD
:10758400F0F836B1E36833600C4B75601B89B57253
:107594003381FFF78FFF0020B8E70220B6E705200C
:1075A400B4E70420B2E70320B0E700BFAC31002009
:1075B400D0310020C8310020F8310020B43100203F
:1075C40073B50D460446C8B1C1B10DF10601FFF70C
:1075D40071FCA8B1BDF806300A486668142202FBA3
:1075E400030001210C3000F099F963682E600C331C
:1075F4006B600123A372002002B070BD0520FBE77D
:107604000A20F9E7D031002013B50446A8B10DF1E2
:107614000601FFF74FFC90B1BDF806200A4B142178
:1076240001FB0233DA6862B1A27A52B1DA6800204F
:10763400013ADA60A07202B010BD0520FBE70A200F
:10764400F9E70620F7E700BFD0310020022300222B
:10765400FFF73EBF18B103230022FFF739BF05200F
:1076640070470000104B1B7813B50446ABB14FF6BE
:10767400FF73984213D001A8FFF7E2FB88B10523FA
:10768400037001230371C48001A9084800F069F85C
:10769400FFF710FF002002B010BD0220FBE704201A
:1076A400F9E70820F7E700BFAC310020F8310020EB
:1076B40007B5ADF80600ADF804100DF1060001A9F8
:1076C400FFF74AFC03B05DF804FB07B51346ADF8B9
:1076D40006000A4600200DF10601FFF73DFC03B049
:1076E4005DF804FB07B51346ADF806000A460DF134
:1076F40006000021FFF730FC03B05DF804FB20B165
:1077040019B103680B60002070470520704737B536
:1077140050E8013F9DB2C48925448489A54228BF0D
:107724002D1B0489A54202BFBFF32F8F002207E05F
:10773400C5EA030540E80154002CE9D14FF00102E9
:107744008DF803200193019A0A609DF8031001F05B
:10775400FF0321B1006810FA82F003B030BD18466F
:10776400FBE70A884B889A4209D150E8012FC2EA04
:10777400024240E80123002BF7D10120704700208A
:10778400704737B550E8023F1FFAA3F5C488A542F5
:1077940002BFBFF32F8F00220DE0C48925448489E2
:1077A400A54228BF2D1BC3EA054540E80254002C1E
:1077B400E8D14FF001028DF803200193019A0A6089
:1077C4009DF8031001F0FF0321B1006800EB1240A3
:1077D40003B030BD1846FBE70A884B889A4209D1AA
:1077E40050E8022FC2EA224240E80223002BF7D1DC
:1077F400012070470020704701F01F024B0901214E
:10780400914000EB830000F065B84B0910B501F01E
:107814001F040121A14000EB830000F04FF8E04079
:1078240000F0010010BD01F01F0301229A404B0932
:1078340000EB8300D14300F059B84B0901F01F015C
:1078440050F82300C84000F0010070472DE9F047CC
:107854004F1E7F0980460E460137002558F8254003
:1078640008EB8509E44394FAA4F4B4FA84F44FEAE7
:10787400451A202C06D10135AF42EFD834462046B4
:10788400BDE8F0875444A642F5D921464046FFF7A7
:10789400BCFF0028F3D0D9F80040E44394FAA4F4E0
:1078A400B4FA84F4E5E710B5034653E8000F0A463A
:1078B40043E8002494F0000FF7D110BD10B503463F
:1078C40053E8000F40EA010243E8002494F0000F5B
:1078D400F6D110BD10B5034653E8002F42EA01006B
:1078E40043E8000494F0000FF6D110BD10B5034630
:1078F40053E8002F02EA010043E8000494F0000F6B
:10790400F6D110BD10B5034653E8000F00EB010299
:1079140043E8002494F0000FF6D110BD10B50346DF
:1079240053E8002F02EB010043E8000494F0000F39
:10793400F6D110BD10B5034653E8002FA2EB0100A9
:1079440043E8000494F0000FF6D110BD2DE9F04394
:1079540008B302B3D0F800E0BEF1000F1ED0FBB1B3
:107964004568D5F80490B3FBF9F509FB1535BDB9A5
:1079740042EA010C1CF0030F14D1C568A94211D3CB
:107984004D1EEC180569AC420CD8DEF80C40A44638
:10799400BDE8F04360470E20BDE8F0830820FBE714
:1079A4000920F9E71020F7E7F0B5D8B1D0F800C006
:1079B400BCF1000F18D0CAB14568D5F800E00EF14B
:1079C400FF350D4214D1C568A94211D34D1E0EFBDB
:1079D40002540569AC420BD8DCF81040A446BDE85B
:1079E400F04060470E20F0BD0820FCE70920FAE7CC
:1079F4001020F8E729DF704728DF704770B5036867
:107A04009E6886B004460D466EB114220021684675
:107A140005F0D1FCA3680593237901952BB1012BC3
:107A24000DD06846B04706B070BD01238DF8003014
:107A340023690293E368039363690493F1E70223E0
:107A44008DF80030E3681B030293F5E7034B187AC3
:107A54000122B0FA80F05A74400970473032002095
:107A640038B5234D234C2B7A3BB923492348FFF7E0
:107A740088FE206008B9686038BD022324682B7230
:107A8400237973B1012B24D020460321FFF7B6FFDD
:107A940000232B726B6018491848BDE83840FFF783
:107AA4009BBED4E90523D21AB2F5805FD4E9031052
:107AB40028BF4FF480529208012A38BF012219448A
:107AC4001844FFF797FF50B11128DDD101232B7221
:107AD400D2E7D4E903031844FFF78EFFF3E72B7CC6
:107AE400002BC9D1BDE83840022000F009B800BF1E
:107AF400303200204832002044320020203200205E
:107B040038B5234C237A002B41D0022B09D103280A
:107B140030D0204B00221B68E2601A793AB1012A66
:107B240022D0637C7BBBBDE83840FFF799BFD3E923
:107B340005128D1AB5F5805F94BF521902F5805273
:107B44009A619142EDD102284FF0000308BF194613
:107B54002372104B18BF0D211868FFF74FFF0E4911
:107B64000E48FFF739FEDCE71A6901321A615B69D6
:107B74009A42E7E7E3680133082B01D8E360D0E7D2
:107B84000023E360DFE7BDE8384004F0C7BF38BD39
:107B940030320020483200204432002020320020BD
:107BA400831E012B01D8FFF7ABBF704700F0FD0324
:107BB400012B08D1044B00225A74421E50425041FA
:107BC4001874FFF74DBF70473032002033DF704721
:107BD40041DF70470D4A08B5002313700C4A136047
:107BE400BFF35F8F0B490C4800F09EF80B4A0C481A
:107BF4000121FEF7B3FF024630B9BDE80840094849
:107C04004FF40041FEF7BCBF08BD00BF783200202E
:107C14007C320020F0D402004C320020197D020096
:107C2400ECD402005832002007B500230DF1070000
:107C34008DF80730FEF7FCFFF1EE103A23F09F03B6
:107C4400E1EE103ABFF35F8F0A4B4022C3F8842160
:107C54009DF80700FFF710F804F070FF20B103B09F
:107C64005DF804EBFFF7B4BF20BF40BF20BF03B0F3
:107C74005DF804FB00E100E070B5204D04460121ED
:107C84002846FFF710FEBFF35F8F38B9042C0AD0E3
:107C94001B4B1A781AB1BFF35F8F286070BD194A65
:107CA400147001221A70184C164E636830787BB930
:107CB4000238012814D8BFF34F8F1449144BCA68F3
:107CC40002F4E0621343CB60BFF34F8F00BFFDE7C4
:107CD4001B6898470028DED0204600F02FF8E4E720
:107CE40004F02CFF08B1FFF771FF4FF0804301222D
:107CF400C3F80025BFF34F8F20BFFDE77C3200207F
:107D040078320020543200204C32002000ED00E094
:107D14000400FA05034B1B7813B10420FFF7ACBF32
:107D2400704700BF783200200B684A684360934272
:107D340008BF0023016008BF43607047436843B134
:107D44000268916852680B449342436004BF002365
:107D5400436070470648074A03780749D35C012209
:107D640013B1043000F0CEBB0C3000F069BB00BF8F
:107D740018300020A83200209032002010B50146AF
:107D84000E4800F023F80446A8B90D480D4A0378BC
:107D9400D35C63B1043000F0A9FB60B90A49074819
:107DA40000F026F838B9BDE81040FFF7D3BF0C3017
:107DB40000F03AFBF1E7204610BD00BF80320020FE
:107DC40018300020A83200209032002010B58468BA
:107DD400C2688388121B934208D3C26813400268A6
:107DE400D154C3680133C360002010BD0420FCE7F4
:107DF4008268C3689A420AD0826883881340026802
:107E0400D35C0B70836801338360002070470520C6
:107E14007047000038B5074C051E04F1080318BF6D
:107E24001C4623682BB11A6822605B682846984771
:107E3400F7E738BD9C32002020B9054B01225A7067
:107E4400FFF7E8BF012802D1014A9070F8E77047B4
:107E54009432002020B9034B01225A70FFF7DABF95
:107E6400704700BF9432002038B50B4C237883B997
:107E74000A486360A3602361E36000F063F8054689
:107E840004F05CFE08B900F069F801232370284669
:107E940038BD8525FBE700BF943200203D7E0200FB
:107EA40037B50B4C00230DF107008DF80730FEF7B2
:107EB400BFFEE368013BE360E56815B900F062F8D2
:107EC400A5709DF80700FEF7D7FE03B030BD00BFD4
:107ED40094320020012813B508D003281CD018B907
:107EE400114B0122C3F8802002B010BD0F4C0023B7
:107EF4000DF107008DF80730FEF79AFE23780BB9D1
:107F0400FFF7B2FFE3689DF807000133E360012344
:107F1400A370FEF7B1FEE7E700F020F802B0BDE879
:107F24001040FFF7BDBF00BF00E100E09432002025
:107F340000F18040002382B0036003680193019B39
:107F440002B07047044A137923B90121106091806B
:107F54001846704785207047AC320020084B1A68D9
:107F6400D20706D4C02283F800230122C3F880215B
:107F74001A604FF080430122C3F81825704700BFF0
:107F840000E100E04FF080430122DA60D3F81824C6
:107F9400D203FBD4704700004FF0804110B5D1F8F4
:107FA400003163B14FF48070FFF7C2FF0D4B587975
:107FB4000122C1F8082310B95A711B6898474FF081
:107FC4008042D2F8043163B14FF48270FFF7B0FFFE
:107FD4000223C2F80833034BBDE810401B6801209C
:107FE400184710BDAC32002000F1804000F5C040BD
:107FF400002382B0036003680193019B02B07047C1
:10800400800000F1A040D0F8002722F44032C0F8EC
:108014000027D0F8003743EA0141C0F80017704741
:10802400C208012300F0070003FA00F08B5C184338
:1080340088547047054B4FF0FF32072843F820203F
:1080440084BFC01880F84820704700BFB4320020B5
:1080540038B5154D95F858401CBB2022FF2105F179
:10806400300005F0A8F9E0B20134FFF7E3FF0C2C6F
:10807400F9D10E4B0022C0216A6583F80613402112
:10808400C3F880114FF4BE701960FFF7ADFF084BC1
:108094004FF00041C3F80413012385F8583010460B
:1080A40038BD0820FCE700BFB432002000E100E046
:1080B400006000402DE9F041DFF8E48008EB0003A4
:1080C400054693F93030002B0F4664DA8B78C3F3FE
:1080D4004003002B0BBF082400240C2108218C42F0
:1080E40002D10420BDE8F08158F8240001303DD1CC
:1080F40008EB050166B248F8242081F830601BB90A
:1081040008EB040383F84850BB785A070ED4D90708
:108114002ED5AB0003F1A043D3F8002722F00202CE
:10812400C3F800271D492846FFF77AFFBB783A7841
:1081340013F0020325D0A40004F1804404F5C044E4
:108144002D02D4F8103523F4473323F44073C4F8D4
:1081540010351204D4F8103505F4F85502F4403201
:1081640015431D43C4F810550020BBE70134B6E79E
:108174007A7805F5E0734FF0A041920041F823208E
:10818400D0E7083E48FA86F696F8505045EA82123F
:1081940086F85020E8E70820A4E700BF0833002051
:1081A400B432002038B5204C251895F93020072A20
:1081B40018DD083A44FA82F494F850309B09032BF2
:1081C4000BD14FF0A043D3F81015C14001F00101C9
:1081D4000231BDE83840FFF713BF012B0CBF022169
:1081E4000321F6E7D3B2072B1DD8930003F1804394
:1081F40003F5C043D3F8100540F00100C3F810059F
:1082040002F1400040B2800080B2FFF7EDFE51B1B0
:1082140095F9303054F823302BB1012303FA02F2DC
:10822400024BC3F8042338BDB43200200060004080
:108234002DE9F04F87B00024584D03944FF4807219
:10824400012102F1804303F5C04390B21B68012B66
:1082540006D1D5F804330B4202D0FFF7C5FE0C4318
:108264000432B2F5907F4FEA4101EAD14B4BD3F887
:108274007C31012B0AD14FF4BE70FFF7B5FE4FF0ED
:10828400A04344F00044D3F810350393E3B2D3B1D0
:10829400434F01260025344210D0AB0003F1804344
:1082A40003F5C043D3F81005D3F8101557F825305B
:1082B40023B1C1F30141C0F3042098470135082DCF
:1082C4004FEA4606E7D1002C61DA00224FF0FF3373
:1082D400CDE90423DFF8C880DFF8C89000263746CC
:1082E4004FF0A04B19F9014B631C45D0C4F3C203F2
:1082F40018336B440122E5B204F03F0004F0070494
:1083040002FA04F413F8042C224235D008EB0002DC
:10831400AD0992F9302058F822A0BAF1000F09D122
:10832400032D29D104A901930090FFF779FEDDE91B
:10833400000301E0032DF5D000F5E07113F80C3CC7
:108344005BF821102342C1F3014105D0022913D166
:10835400032D0CD1294604E003290DD1032D06D1A8
:10836400022100900136FFF74BFE0098F6B2BAF1F5
:10837400000F01D02946D0470137042FB2D136B1BE
:108384004FF0A043039AD3F81035934202D107B0BB
:10839400BDE8F08F0393049B05939DE700600040C4
:1083A400B432002004330020014B1B68184700BF7F
:1083B400103300200E4B984237B50C4602D00020F3
:1083C40003B030BD00230DF107008DF80730FEF730
:1083D4002FFC084B1D7915B901221C601A719DF8F8
:1083E4000700FEF749FC002DE9D01120E8E700BFA3
:1083F40000200040103300200023435082B0435833
:108404000193019B02B070470A4610B54FF48E7178
:10841400FFF7F2FF136A9168C95C136A01331362B0
:10842400C0F81C1510BD00000279044B2C2101FB7F
:1084340002335869003818BF0120704718330020F0
:108444002DE9F84F064689469246FFF7EDFF0446AC
:1084540000283DD196F804801F4F2C2508FB057B8E
:108464004FF48E71CBF82000CBF814A08BF82800C1
:10847400CBF808903068FFF7BFFF306801238360B2
:108484005946FFF7C1FFDBF804305D4613BB306883
:108494002A6A6B699A4211D33368D3F81C21002AE3
:1084A400FBD00122DA6000202C2303FB0877002391
:1084B4007B61BDE8F88F95F828303BB9D0F81C31C2
:1084C400002BF8D05946FFF79FFFE1E70F20EBE7B9
:1084D4001120EEE72046ECE7183300200023435038
:1084E40082B043580193019B02B070470279044B58
:1084F400242101FB02335869003818BF012070475A
:10850400443300202DE9F84301F06043B3F1005FE8
:1085140006468846914634D1FFF7E8FF044690BBEF
:1085240032791B4F3068242505FB02754FF4907196
:10853400C5F81490C5F80880FFF7D0FF30684FF4F1
:10854400AC71FFF7CBFF33686969A868C3F84405C9
:10855400C3F84815012199606968B1B9D3F82011AD
:10856400D3F8580149B90028F8D00F20242303FB7D
:10857400027700237B61BDE8F883002818BF0F2031
:10858400F4E71020F7E71120F5E72046F3E700BFF2
:108594004433002000F1804000F5E040002382B025
:1085A400036003680193019B02B07047F0B5524B1E
:1085B400524CD3F8043185B0002B3DD094F82E20D2
:1085C4004FF48270FFF7E6FF2AB394F82F3013BB01
:1085D400494AD2F80031002B32D04FF48070FFF7B3
:1085E400D9FF638B94F82D00834250D921891B1A3B
:1085F4009BB289B26383CB1A616801EB4303C2F86F
:108604002C36C2F830064FF48270FFF7C3FF3A4BA2
:1086140001225A6014E0636802932389ADF80C3098
:10862400E36800218DF8041033BB2374236801A888
:108634009847002384F82F3094F82E30002BC7D1AC
:108644002D4BD3F810315BB14FF48870FFF7A2FFC4
:108654000023237402238DF8043001A8236898476B
:10866400254BD3F81431EBB14FF48A70FFF792FF26
:108674000023237405B0F0BD208B608363602081E8
:10868400E160002AD2D11C4B01221A60CEE7BAD194
:10869400E368012184F82F1013B100216183AEE750
:1086A4006383B0E766694FF000470125002EE1D0EF
:1086B400B6FA86F227FA02F34632920026EA030655
:1086C40002F1804303F5E0431B68002BEED0104613
:1086D400A2F58C72FFF75EFFD30882F00402C2F3A6
:1086E40080028DF808308DF8045023688DF8092035
:1086F40001A89847DAE700BF007000406833002003
:108704001FB503788DF800308388ADF80430836892
:108714008DF80630C3688DF8073003690293436906
:10872400054A0393054B684653F8213052F821104B
:10873400984705B05DF804FB98330020A03300206F
:10874400024B4FF4807043F00103184700D5020038
:108754002DE9F047154690F80090324A42F8295026
:10876400314A42F829304B7B07460C466BB3086804
:10877400496882008B0002F1A04203F1A04340F259
:108784000C66C2F800674FF0010AC3F800674FF0A7
:10879400A0460AFA00F00AFA01F1C6F80805C6F87C
:1087A400081540F20D61C2F80017C3F80017FFF76F
:1087B400C7FF4FF00008D6F81025636822FA03F3C8
:1087C400DB070DD5B8F1000F1DD1002D174A4B461C
:1087D40008BF2A462146381DBDE8F04700F006BA16
:1087E40023680AFA03F3C6F80C35FFF7A9FF2368D8
:1087F4000AFA03F3C6F8083508F10108FFF7A0FFE9
:10880400B8F1090FD7D1636801264FF0A04806FAE2
:1088140003F3C8F80C35FFF793FF63689E40C8F86C
:108824000865D2E7A03300209833002005870200B2
:108834000023435082B043580193019B02B0704718
:108844002DE9F0470E78089F9DF824A004460D46B4
:108854009846002E5BD1D0F82431D2F800903BB179
:108864004FF49271FFF7E4FF012363612B7014E06E
:10887400D0F81C313BB34FF48E71FFF7D9FFD0F819
:108884002431002BECD113689F4212D918F803301D
:10889400C0F81C35136801331360B94535D1D4F8D9
:1088A400043193B34FF482712046FFF7C1FF0026D1
:1088B40004E00123BAF1000F03D0C3613046BDE8E0
:1088C400F0874361E9E7D0F80831002BE5D04FF495
:1088D4008471FFF7ADFFD0F82431002BC0D11368A9
:1088E4009F42DAD9D0F8181508F803101368013339
:1088F40013607A1E934205D10223C0F8003201238B
:108904002362CAE79F42FAD1C7E70126D6E74FF4AC
:108914009271FFF78DFF4FF48E71FFF789FF4FF4CB
:108924008471FFF785FFBAE72DE9FF470C4605463A
:108934001F4620463B4B03934FF482719DF83080D1
:10894400FFF776FF4FF49271FFF772FF4FF48E71C9
:10895400FFF76EFF4FF48471FFF76AFF0023C4F83A
:1089640000326B6385F82E3001232362A360164620
:108974006A6B97421DD9B35CC4F81C356B6B013329
:108984006B632B68E3B905F1340A05F12E09039BE7
:10899400002B1FDC95F82E3053BB0020039B002BCB
:1089A40015DC0023C4F800350523C4F80035032082
:1089B4000DE0B8F1000F01D0E361E2E76361E0E7A5
:1089C40040F28623AB60AB68C4F80433002004B0E3
:1089D400BDE8F087CDE90078334652464946204643
:1089E400FFF72EFF0028D5D0039B013B0393CEE76E
:1089F400D4F8C434C4F8C434002BCED013F0010F1F
:108A040014BF4FF40240032048F2012213F0020F76
:108A140018BF104613F0040F48F2022318BF18467B
:108A2400BCE700BFA08601002DE9FF470C460546C0
:108A34001E462046364B03934FF48271FFF7F8FE2F
:108A44004FF49271FFF7F4FE4FF48E71FFF7F0FECE
:108A54004FF48471FFF7ECFE0023012ED5F800805B
:108A64006B6385F82E3017464FF0010306BF0222D0
:108A7400C4F80022C4F8003223622360B8F1000F66
:108A840015D105F1340A05F12E09039B002B18DCDE
:108A940095F82E301BBB0020039B002B0EDC00231B
:108AA400C4F800350523C4F80035032006E040F27D
:108AB4008623AB60AB68C4F80433002004B0BDE87F
:108AC400F087CDE900683B46524649462046FFF709
:108AD400B7FE0028DCD0039B013B0393D5E7D4F811
:108AE400C434C4F8C434002BD5D013F0010F14BF20
:108AF4004FF40240032048F2012213F0020F18BF82
:108B0400104613F0040F48F2022318BF1846C3E7B7
:108B1400A0860100F0B589B091F82C3001938B6ADE
:108B240000934B6A0C4601F134022E310746FFF7DD
:108B340087FEE8B994F82EE0D4F820C0BEF1000F07
:108B44001FD1207B831E012B1BD8626AA3699A4222
:108B540017D1E26963696262CCF340110328A3620E
:108B640084F82C1006D1009120463946FFF7DCFE2C
:108B740009B0F0BD3946204609B0BDE8F040FFF722
:108B840053BF04F10C060FCE03AD0FC533682B6041
:108B9400BEF1000F17D0D7F8C434C7F8C4349A070D
:108BA4000DD501238DF8083000231CF0040F84F840
:108BB4002F30DDD1D4E9003102A89847D8E75B070C
:108BC400F2D50223EEE78DF808E0EDE7014902480B
:108BD400FFF7A0BFA83300200030004002494FF047
:108BE4004020FFF797BF00BFE43300202DE9F84F82
:108BF4000679384D4FF03C0A0AFB06FA05EB0A04E5
:108C04009B4694F82D3080460F469146002B5CD14C
:108C1400314B006853F82610FFF7CCFB002856D1DF
:108C24003A687B7B84F838304FF0A04102F5E0735A
:108C3400A060C4F804B084F82F0084F8300040F237
:108C44000C6445F80A9041F823407B6803F5E07C06
:108C540041F82C40D8F80040C4F80825C4F80C3575
:108C6400BB68C4F82435B9F1000F26D044F30733A8
:108C7400002B3A7BB4BF194903F16041C4F30734B4
:108C84004FEA5313B8BF04F00F074FEA4212A8BFCC
:108C940001F561414FEA8303D2B203F16043B4BFEB
:108CA400CA5581F8002303F5614304F01F0401222F
:108CB40002FA04F4C3F880411C603C2303FB06550C
:108CC400012385F82D30BDE8F88F0820FBE711203B
:108CD400F9E700BFA833002008D5020014ED00E036
:108CE400036802790521C3F80015044B3C2101FBFC
:108CF4000233022283F82D20704700BFA8330020DE
:108D04002DE9F74F2D4F0679D0F800902C4BC9F878
:108D140008333C2505FB0675C6EB061C95F82F3079
:108D24008E46144607EB8C0C03F0FF0B33B1AB6893
:108D3400C9F80433112003B0BDE8F08F82F00403B6
:108D4400C3F3800385F82F302A628A46BAE80F00FD
:108D540005F10C08A8E80F00DAF80030C8F8003074
:108D6400DEF80430AB62DEF80C206A629EF8011073
:108D7400C9F888159EF80010012917D0A1B9C4F3C9
:108D840040143C2101FB0671604681F82C4000949C
:108D94004946FFF7C9FD3C235E43BA19BB59002B72
:108DA400C9D182F82F30C6E70124EAE785F82CB050
:108DB40049466046FFF738FEEDE700BFA8330020C0
:108DC40086420400F0B587B004460F4615460021DC
:108DD400142201A81E4604F0EEFA9DF830308DF8F6
:108DE4000570002B14BF2022002201A92046029600
:108DF4000495FFF785FF07B0F0BDF0B587B00446D2
:108E04000F4615460021142201A81E4604F0D3FA89
:108E14000123002201A920468DF804308DF8057045
:108E240002960495FFF76CFF07B0F0BD2DE9F743F8
:108E3400002406460F4600F5A0754FF48038A1467D
:108E4400A30003F5A07398B22B686BB1D6F8043372
:108E540008FA04F21A4207D0C5F800902B6801936F
:108E6400019BD7E9003198470134042C05F104052E
:108E7400E6D103B0BDE8F083F7B50679334D0C2491
:108E840074432F193B7A002B5ED12A514A687A60C9
:108E9400447902681F46D8B284424CD842F307335F
:108EA400CC78002BA8BF03F16047C2F307304FEA28
:108EB4005313BCBF00F00F0C254F4FEA4414A8BF56
:108EC40007F561474FEA8303E4B203F16043B4BF9B
:108ED40007F80C4087F8004303F56143012400F0D0
:108EE4001F0004FA00F0C3F880011860D2F80405EA
:108EF4004B7820F0030003F003030343C2F8043566
:108F04008B78D2F8080503F0030320F00300034331
:108F1400C2F808350B78D2F8100503F00F0320F0DF
:108F24000F010B43C2F810350C2303FB0655002038
:108F34002C7203B0F0BD980000F5A07001331750F7
:108F4400105801900198A6E70820F2E72034002089
:108F540014ED00E0036801221A600279034B0C212E
:108F640001FB023302221A72704700BF2034002032
:108F7400036801221A607047036801225A6070472F
:108F840003680122DA60704737B54FF48034006813
:108F94008C407BB101F150039B000025C550C358A0
:108FA4000193019BC0F8044301F5A87140F8212006
:108FB40003B030BDC0F80843F6E770B4046840F26B
:108FC4000116D4F800528E4025EA0605C4F8005272
:108FD400D4F800522B43C4F800329DF80C3070BC16
:108FE400FFF7D2BF01490248FFF720BF2034002019
:108FF4000080004001490248FFF718BF2C340020CC
:1090040000900040032811D8012A0AD101290FD168
:1090140000F10E02D2B20D4B00EB40001A540020B6
:1090240070470129F7D0022904D049B107207047BD
:109034000022F8E7054B00EB400018444270EEE7CD
:10904400024B00EB400018448270E8E738340020FB
:1090540008B5012202210020FFF7D4FF08B1072838
:1090640010D1072202210120FFF7CCFF08B1072805
:1090740008D100210A220846FFF7C4FF10B10728CF
:1090840008BF002008BD00000388102B10B502D0D3
:10909400112B1ED010BD1A4C2168B1B9012208460B
:1090A400FFF7B0FF08B1072824D1072202210120CD
:1090B400FFF7A8FF08B107281CD1042202210020D1
:1090C400FFF7A0FF08B1072814D1236801332360F8
:1090D400E0E70B4A1368013B1360002BDAD1FFF77A
:1090E400B7FF0028D6D0074B1B68002BD2D0BDE8B1
:1090F40010401847034B1B68002BE6D09847E4E761
:10910400483400204434002076DF70477ADF70470B
:109114007CDF70477FDF70478FDF7047B1DF7047B8
:1091240033DF70471321FFF7EFBF08B5FFF7F8FFF0
:1091340018B1BDE80840FDF7A9BA08BDFDF7A6BA05
:1091440028B1032806D1044B01229A707047024BC0
:109154000122DA70704700BF103700200388212BEA
:1091640007B529D008D8112B21D0132B32D0102BBE
:109174000DD003B05DF804FB522B33D0562B01D035
:109184003B2BF6D113218088FFF7BEFF08E0194B73
:109194008188194801225A70184B198002F010F87E
:1091A4000028E6D003B05DF804EBFDF76FBA134B6B
:1091B4004FF6FF721A80DCE7002380888DF80430B4
:1091C40001A98DF80530FFF7A7FF0028D1D0FDF7DE
:1091D4005DFACEE7094800231A4685210088FFF787
:1091E40099FFDDE7054800231A4619460088FFF772
:1091F40095FFD5E7103700200437002032300020D7
:109204007047000008B503784BB9054B3B2118881B
:10921400FFF77AFF18B1BDE80840FDF737BA08BD7B
:10922400323000200C2808B507D1012905D10348A4
:10923400FFF79EFE024B00221A8008BD34D50200BF
:109244008E34002038B50478054654B138BD2B69F6
:10925400185DFEF793FD18B11128F8D0FDF716FA42
:109264000134AB8A9C42F2D3F0E7000010B5044607
:109274008CB0B0B901462C2201A804F09CF840211E
:1092840042F6E0620123CDE9051207488DF8083063
:1092940001A98DF8043000F05DFE0448214601F078
:1092A400AFF80CB010BD00BF943400202991020027
:1092B400FDF7ECB908B50121052003F0F6FFBDE880
:1092C40008400021072003F0F0BF08B50021052065
:1092D40003F0EBFFBDE808400121072003F0E5BFE0
:1092E40008B50849084801F087FE08B1FDF7CEF932
:1092F4000548F72101F094FE18B1BDE80840FDF7D8
:10930400C5B908BD05920200EC360020024B1A785C
:109314000AB901221A70704710370020B0F5A27FF5
:1093240001D1FFF7F3BF70471FB5104A92E803005D
:1093340002AB83E803000E4A0E481946FFF79CFD72
:1093440008B1FDF7A3F90C4B0C48D3F81025012103
:10935400D2B220FA02F2009102230648FFF72DFE52
:109364000448FFF7F7FD05B05DF804FB2CD50200B7
:109374002193020034D5020000900040803801009F
:10938400F8B5234D234C2B78002B34D0224B224F9D
:10939400A8211920062203F025FE26781F4906EB92
:1093A4004603002001EB4301034697F801C017F878
:1093B400022B02EB0C2242F30B12013013FA82F35C
:1093C400C2F3072C032881F800C04A701BB201F1D4
:1093D4000201EAD1002BB8BF5B429BB2B3F5C07F58
:1093E40006F101020E4B22704FF000022A703CBFBE
:1093F4001A8801321A8023780A2B08D1094B0A4AA9
:109404001B880649094803F07DFD00232370F8BD3D
:1094140010370020903400204C34002052340020B7
:109424008E340020323000202C30002034300020D4
:1094340030B5AFB003F018FA08B1FDF727F90721EA
:10944400082003F099FE4FF0A0430322824CC3F896
:1094540078274FF08042C3F80825052544F001041D
:109464004FF47A40A047013DFAD103F011FF0A25D9
:109474004FF47A40A047013DFAD10E210F2003F0AA
:109484007BFD03F017FE03F0EBFDFFF74DFFFEF746
:10949400DFFD08B1FDF7FAF80023ADF80D30012324
:1094A4008DF80C309DF80E306C4A43F0020303A98A
:1094B4000C208DF80E30FEF7FDFD08B1FDF7E6F83F
:1094C40001210C20FEF76EFEFDF718FB08B1FDF735
:1094D400DDF8FEF77FFB08B1FDF7D8F803F0B0FA2A
:1094E40008B1FDF7D3F8002303A90120039303F087
:1094F40079FB08B1FDF7CAF803A803F0C9FB08B16A
:10950400FDF7C4F8112356498DF80830182202A833
:10951400FFF7FEFD08B1FDF7B9F80623ADF80C30EE
:1095240018230024ADF80E3003A84FF4C873ADF827
:109534001040ADF81230FFF7E9FD08B1FDF7A6F8C9
:10954400FFF7CEFE474B4848029401A9019301F06E
:1095540025FE08B1FDF79AF8444B029302A803F0E4
:1095640007F908B1FDF792F8414B4248039303A968
:1095740003F04EFC08B1FDF789F8AC22002103A8E2
:1095840003F019FF02238DF80C3005238DF80F30FA
:1095940001234021ADF858308DF8883042F6E0635D
:1095A400CDE92513344A354B3548179203A92C933A
:1095B40000F011FB08B1FDF769F83148012100F012
:1095C40007FB1422002103A803F0F5FE4FF47023D7
:1095D4004FF42032CDE9042303238DF81830294BAE
:1095E400089303A8284B099300F0C0FD08B1FDF7C8
:1095F4004DF82348032100F06BFB08B1FDF746F852
:1096040003F058FD0121142003F067FD1F4D204C89
:10961400FEF70AFBFFF7B4FE2B88B3F5966F07D36A
:109624001C48FFF7A9FC1B48FFF7AAFC03F024FD24
:1096340063781BB1FFF749FE00236370A3781BB165
:10964400FFF738FE0023A370E378002BE0D003F08B
:109654001FFEFFF76AFDDBE740D5020029920200F6
:1096640010D50200419102000437002071920200DB
:1096740049920200343000202E300020459102002F
:109684009434002009920200B59202008E34002026
:109694001037002034D5020013DF70474FF0102339
:1096A4005A69013202D05869FFF7F6BF04207047A7
:1096B4000148FFF7F1BF00BF006002006DDF704793
:1096C40079DF70477DDF704764DF70472DE9F04F25
:1096D40085B000250E9CBDF83CB0B4F800A0019103
:1096E400074690461E46A9463A884A450DDC45B1D0
:1096F4002388013BA3EB0A039BB2FF2B3AD806F85D
:109704000A30002005B0BDE8F08F7A6852F82900CD
:10971400039000220DF10B0103A8FFF7D5FF0028E9
:10972400F0D19DF80B20424521D12288002D14BF91
:109734000020022002EB0801014459451ADC3DB91E
:10974400013292B2019B2280B354228801322280DA
:1097540022880DF10B01324403A8FFF7B5FF00285E
:10976400D0D121889DF80B200A442280012509F1DB
:109774000109B9E70C20C5E72DE9F341089FBDF8BD
:1097840024801546CDE90078022204461E46FFF7E0
:109794009DFF50B93346102229462046CDE908786A
:1097A40002B0BDE8F041FFF791BF02B0BDE8F0811F
:1097B4002DE9F04F00231788138090F82D3085B0E1
:1097C40006460D4614465BB3082F01D80C2028E149
:1097D40002A8FFF773FF002840F023812388DDF8F7
:1097E40009100822EA54238801339BB21B222380E8
:1097F400EA54238801339BB2EA182380E950BDF868
:109804000D30938023889DF8082006339BB212F014
:10981400FE0218BF01222380EA54238801332380E7
:10982400B378FBB123880433BB42CFD802A8FFF737
:1098340047FF002840F0F58023880322EA54238858
:1098440001339BB219222380EA542388BDF80820EF
:1098540001339BB2E9182380EA54120A4A70238820
:1098640002332380F2789AB12388D91CB942ADD847
:109874000221E954238801339BB201212380E95456
:1098840023880B449BB22380EA5423880B4423800F
:109894007268AAB12388D91CB94297D8022192F9D7
:1098A4000020E954238801339BB20A212380E95420
:1098B400238801339BB22380EA5423880133238015
:1098C4003389002B40F0A180338A5BB1CDE9004796
:1098D4002B460722032106F11000FFF74DFF002855
:1098E40040F09F80338B5BB1CDE900472B461522B6
:1098F400142106F11800FFF73FFF002840F0918083
:10990400326A002A40F09080D6F82480B8F1000F23
:1099140030D0B8F804302188981C8A1C0244BA421A
:109924003FF654AFFE283FF651AF03336B54238800
:1099340001339BB2FF222380EA54238801339BB274
:109944002380B8F80020EA54E918120A4A702088E3
:10995400023080B22080B8F804205AB1D8F8081038
:1099640000296BD0284403F0FDFC2388B8F80420B8
:109974001344238096F82C30002B40F098803078E4
:1099840000284ED03388012B58D0228802F1020CD3
:10999400BC453FF61BAF012805D17378023313444D
:1099A4009F42FFF413AF023FBF1ABFB202A905EBF7
:1099B4000C00ADF80870FFF785FE90BB3178BDF858
:1099C4000830022900F0B98072789A4202D39F428B
:1099D40080F0B180012940F0B280974293B2C0F088
:1099E400AE80ADF808300821BDF80830FE2B3FF6F4
:1099F400EDAE22880133AB542288013292B2228028
:109A0400A9542288134423800BE0CDE900472B4658
:109A14000622022106F10800FFF7AEFE00283FF4FB
:109A240053AF05B0BDE8F08FB4F800C00CF10603E5
:109A3400BB423FF6CBAE1188052901D80720F0E7D9
:109A44006FF4486E01EB0E039BB24FF27D3E7345FB
:109A5400F4D95388052BF1D96FF44860181880B2F3
:109A64007045EBD94FF6FF70814201D09942E5D899
:109A7400052305F80C30238801339BB2122123807F
:109A8400E954238801339BB223801188E954E818F0
:109A9400090A4170238802339BB223805288EA5416
:109AA400E918120A4A702388023323802CE7B36A28
:109AB400002BC3D04FF000084FF00C0A4FF0160BE8
:109AC400B16A5FFA88F20AFB02F201EB0209B9F803
:109AD4000430981CFE283FF679AE208803332B54BB
:109AE400238801339BB2238005F803B02388013314
:109AF4009BB223808A5AEA54E918120A4A702088D1
:109B0400023080B22080B9F804205AB1D9F8081084
:109B1400002993D0284403F025FC2388B9F80420B5
:109B24001344238096F82C2008F101085FFA88F387
:109B34009A42C5D823E7092156E79F42FBD2ADF8E4
:109B4400087050E770B5C0B14AB116880024B44219
:109B540003D305196D789D4208D0A14201D8002095
:109B64000BE0055D01352C44A4B2F0E7A142F6D91F
:109B7400A31C1380005D013880B270BD13B5134679
:109B84000022ADF806200DF106020446FFF7DAFFC5
:109B940010B1BDF80630E01802B010BD72DF704796
:109BA40073DF704738B5012204460D46B0F8381209
:109BB400D0F83402FFF7E2FF00B1057004F13C0273
:109BC40004F50D7104F15400BDE83840FFF7E6BF19
:109BD40080F830107047F8B504460F46002973D05A
:109BE400002871D091F87A301BB191F89830002B8D
:109BF4006CD1D7F8A030042B68D0D7F89C30042B54
:109C040064D04FF0000C84F802C007F178060FCE40
:109C1400251D0FC50FCE0FC596E8070085E8070080
:109C240084F830C0D7F8A4306363D7F8A830A363AE
:109C340004F50D724FF6FF73C4F84AC2A4F8483213
:109C4400C4F84422C4F84DC222780AB984F85430C6
:109C540094F82430002B14BFEE231F2304F1550184
:109C6400C4F83412A4F8383204F50E723846FFF7FB
:109C74009FFD40BB94F82430002B14BFEE231F2318
:109C840004F24311C4F83C12A4F8403204F51072F3
:109C940007F13C00FFF78CFDA8B9A369A4F848308C
:109CA4004FF480730125A4F85030636920640146A1
:109CB40084F83C50636404F13C0204F15400FFF75F
:109CC4006DFF00B92570F8BD0E20FCE70720FAE708
:109CD400F8B5067804460D46002E00F003810023F3
:109CE400C0F84A32C0F84D32C388817000F24A2766
:109CF4000BB1012903D0E37943B1022D06D1636B83
:109D0400A3B1012284F851220820984704F24B227F
:109D140004F2512112F8013B5BB99142FAD16A1E57
:109D2400032A4FD8DFE802F0070D111484F85132EA
:109D3400ECE73346F3E7A2791AB194F8242002B988
:109D44005BB9E2790AB1002B3ED1237A002B3DD1D5
:109D5400637A002B0CBF00250425636BA570002BD0
:109D640036D0033D012D33D862798AB394F8522258
:109D740072BB84F85422012284F8532207209847A6
:109D840004F13C0518220021284603F014FBE26A82
:109D94000123511E994284F83C3098BFD3B284F811
:109DA400513094F8243088BF00261BB1A6B1A26AB2
:109DB40084F85220A278042A1ED8DFE802F07A0F31
:109DC40025385C000025C8E70225C6E70325C4E75B
:109DD400002384F85332D3E70122E9E7012384F80E
:109DE40031300023C4E91073C4F84432022384F8E8
:109DF4003C308023A4F84830A378002B5DD1636BFA
:109E0400002B6BD1002068E0002B14BF0723032331
:109E140084F83C302369A4F8483000230222C4F8B3
:109E24004432E36884F8312027646364E4E76269B8
:109E34006264A269A4F8482013B1062384F83C3074
:109E44006379B3B194F852329BB994F8543283B124
:109E5400022384F8503004212046FFF7A3FE002893
:109E6400CAD1052384F8313004F50D73C4F84432A3
:109E7400C2E70323F6E7E2696264226AA4F8482091
:109E840013B1062384F83C30637983B194F85232D9
:109E94006BB994F8543253B1022384F8503004213E
:109EA4002046FFF77FFE0028A6D10623DAE7042325
:109EB400D8E7002384F831309EE7D4F844122A46C8
:109EC40004F15400FFF76AFE38B994F8301094F89E
:109ED4005400FFF765FE002891D0F8BD94F83100D6
:109EE40098478FE70820F8E70388112B10B50C4634
:109EF4000AD0262B1FD0102B05D1C37B012B02D1F6
:109F04008388A1F8483210BD0022838881F8522248
:109F1400B1F848229A42F6D10B79002BF3D10121F2
:109F24002046FFF7D5FE0028EDD0A36B002BEAD026
:109F3400BDE810401847037A013B012BE3D8897828
:109F440005230131B1FBF3F303EB8303C91AC9B24F
:109F5400E6E7704730B50D46041D0FCD0FC40FCD95
:109F64000FC495E8070084E8070030BD75DF70472B
:109F740076DF70477ADF70477BDF7047034B1A88C0
:109F840082420CBF18460020704700BF30370020C3
:109F9400024B9B6903B11847704700BF1437002078
:109FA40073B585B22846FFF7E9FF044638B3174E68
:109FB400027A337B9A420CD200F10A012846FFF759
:109FC400D5FFF0B111281AD002B0BDE87040FFF7F8
:109FD400DFBF00230372337C43B13B212846FFF7E4
:109FE400C7FF30F0080301D0FFF7D2FF736933B124
:109FF40000228DF80420ADF8065001A8984702B05D
:10A0040070BD237A01332372F9E700BF14370020AF
:10A0140037B50B46497A0F4A79B9D2E901141D7A4A
:10A024000246002D18BF21465868FCF7A9FD78B1F7
:10A0340003B0BDE83040FFF7ABBF0021197253698C
:10A0440033B10122ADF806008DF8042001A8984729
:10A0540003B030BD143700204B8802889A4212D8CE
:10A0640042889A420FD380888B8840F2F311884249
:10A0740094BF021A421A9A4205D80844984234BF3F
:10A084000020012070470020704700000388122B35
:10A0940070B5014659D004D8102B1ED0112B44D0D2
:10A0A40070BD502BFCD12F4BC288DB899A42F7D16B
:10A0B400038A022BF4D186883046FFF75FFF0546FA
:10A0C4000028EDD001F1120000F0D5F938BB686822
:10A0D400FCF79EFD0028E3D009E0C37B012BDFD110
:10A0E4004FF6FF70FFF74AFF054620B90420BDE88C
:10A0F4007040FFF74DBF1C4A8E8806800023037210
:10A104001368C0F80A305368C0F80E3010310A30B2
:10A11400FFF7A2FF134B6872DB89002BC0D12946DD
:10A124003046BDE87040FFF773BF8088FFF726FF15
:10A1340004460028B4D04068FCF76AFD08B1FFF774
:10A1440027FF4FF6FF732380AAE786883046FFF780
:10A1540015FF05460028A3D008310A30FFF77CFF1D
:10A164006872DCE71437002044370020F8B506464F
:10A1740048B305460FCD154F3C460FC495E807007C
:10A1840084E807003068124C3C60B0B1FFF7F2FE7F
:10A19400C0B9326813682360536863600D480E4A7F
:10A1A4004FF6FF7303800D4B40F8043F0021FCF78A
:10A1B400D5FC002818BF032004E02046FFF7DCFE8E
:10A1C4000028EBD0F8BD0E20FCE700BF14370020B8
:10A1D4004437002030370020A59F02004C37002070
:10A1E400F7B5174601900E4691B1019C6CB100255C
:10A1F4002C46294601A8FDF720FB18B13946A8B220
:10A20400B04701340135142DF3D1204603B0F0BD1D
:10A214000C46FAE773B50191019C06466CB1002522
:10A224002C46294601A8FDF708FB18B106EB4403A8
:10A2340001349D800135142DF3D13046346002B0D1
:10A2440070BD00002DE9F04703888488112B8CB081
:10A2540005463DD01A2B42D0102B19D1DFF8C0800F
:10A26400D8F80830DB430093D8F804106846FDF7AB
:10A274003DFB009901A8FFF7CDFF0DF10809002768
:10A28400019B9F4207D3132C12D90420FCF7FEF93B
:10A294000CB0BDE8F08739F802AB00260136514610
:10A2A40008EB8600FDF7BFFA1D2EF7D10137E7E76B
:10A2B40016482146FDF7A0FA15482146FDF79CFAF9
:10A2C400EB7B012BE4D013482146FDF795FADFE739
:10A2D4000E4821460CB0BDE8F047FDF7A4BA037A56
:10A2E4000D481F2B4FEA131521460AD9FDF784FAAE
:10A2F400022D0A482146EDD00CB0BDE8F047FDF729
:10A304007BBAFDF790FA05482146E3E7743700204D
:10A3140070370020783700207C37002080370020F9
:10A324006C3700201328014602D80248FDF785BA8D
:10A33400002070477037002007B50190FFF7F2FF47
:10A34400019930B10448FDF778FA002814BF0220BF
:10A35400012003B05DF804FB7837002007B50190B5
:10A36400FFF7E0FF019928B1044803B05DF804EB5E
:10A37400FDF763BA03B05DF804FB00BF7C3700202F
:10A3840010B50446FFF7CEFF002814BF2046142062
:10A3940010BD000070B50A4E054630460C46FDF768
:10A3A4004CFA58B12846FFF7BDFF38B106342946A8
:10A3B40006EB8400BDE87040FDF73FBA002070BD95
:10A3C4006C370020F8B50D4C054620460E4617465E
:10A3D400FDF733FA80B12846FFF7A4FF60B1B01D42
:10A3E40004EB800029461FB1BDE8F840FDF704BA2C
:10A3F400BDE8F840FDF717BAF8BD00BF6C37002080
:10A40400034B9B680A4601461846FFF7E9BE00BFA6
:10A414006C37002073B50B4D019204460E4601467D
:10A424002846FDF70AFA50B1043405EB8404019A76
:10A43400A068314602B0BDE87040FFF7D1BE02B05B
:10A4440070BD00BF6C370020AADF704700230138BD
:10A454000B70042806D8DFE800F00306080A0C0095
:10A4640011230B7070472123FBE73123F9E71223F3
:10A47400F7E72223F5E7008800F001007047008821
:10A48400C0F340007047F0B58B7891B00C46012BB7
:10A4940038BF012300278DF80E3005460B88607CF9
:10A4A400ADF80C306946ADF800708DF80270FFF716
:10A4B400CDFFA07C0DF10101FFF7C8FF1646237BF9
:10A4C400E27B217D43EAC203227C43EA02139DF826
:10A4D4000220B94222F0190203F0190314BF022129
:10A4E4000121134361F342031C22394609A88DF864
:10A4F400023002F060FF637B13F0300F14D00DF1D3
:10A504000901E07CADF808708DF80A70FFF79EFF32
:10A5140011238DF808309DF80A30012102AA61F355
:10A5240042038DF80A300E92637B8DF82430A37BAE
:10A534008DF825300023CDE90633089303AB04934B
:10A54400A388ADF81C30A368CDF814D01BB1E28801
:10A55400ADF818200893A36973B301A90022ADF8DC
:10A5640004208A701A88ADF82C205A88ADF82E2061
:10A574005A680D91187B0A92FFF768FFA3690DF1E1
:10A584000501587BFFF762FFA3699A7A197A41EAB9
:10A59400C201DA7A9B7B41EA02119DF80620002B66
:10A5A40001F0190122F0190214BF022301231143FF
:10A5B40063F342018DF80610E36903B10C9333464B
:10A5C40004AA09A92846FFF73FFF11B0F0BDA0DF98
:10A5D400704710B50446408800F08CFBA0802046EC
:10A5E400BDE8104001F010BA30B587B005460C46FE
:10A5F40018220021684602F0DEFE072368468DF823
:10A604000030ADF802500294FFF7E3FF07B030BD0D
:10A6140030B587B0054618220021684602F0CBFE0B
:10A624004FF6FF739D42ADF8025023D0284600F048
:10A6340076FA1128044617D007D860B10B2811D038
:10A6440021462846FFF7D0FF03E043F20203984275
:10A65400F6D1002209E00E2368468DF80030FFF79A
:10A66400B8FFF6E70F23F7E70122034B28461978D2
:10A67400FFF7A8FE07B030BDE9370020FFF7C8BFD9
:10A68400024B034918780022FFF7C4BEEB370020C1
:10A69400C5A6020007B542F6A622ADF800200122A5
:10A6A400ADF80220054A03461068019001AA6946E4
:10A6B4001846FFF78CFF03B05DF804FB46D5020093
:10A6C40070B5254E86B031780446FFF763FE054623
:10A6D40000283ED1204600F075FA1128014623D007
:10A6E40008D8062822D0082820D078B12046FFF7C1
:10A6F4007BFF19E043F20203984215D043F2014371
:10A704009842F3D12046FFF783FF0DE02946182233
:10A71400684602F050FE102368468DF80030ADF80C
:10A724000240FFF756FF0125012205E0204600F014
:10A73400E1FA00F061FA0022084B20461978FFF78D
:10A7440041FE31782A46204606B0BDE87040FFF746
:10A7540039BE06B070BD00BFEC370020EB370020D7
:10A7640013B5044600F0C6FA00236A46092100F036
:10A77400E9FD052805D1044B012219782046FFF78D
:10A7840021FE02B010BD00BFE837002008B5084B19
:10A79400084918780022FFF73DFE024630B9064BFF
:10A7A40006491878BDE80840FFF734BE08BD00BF6D
:10A7B400EA370020C5A70200E837002099A6020066
:10A7C40030B5012187B005461C48FDF76CF80446F6
:10A7D400BFF35F8F70BB284600F05CF98628014602
:10A7E4000ED007D8D0B1112826D02846FFF7FCFE9A
:10A7F400002403E043F202039842F6D122460FE01C
:10A8040018222146684602F0D6FD062368468DF8D4
:10A814000030ADF80250FFF7DCFEEFE701240246FA
:10A82400074B28461978FFF7CDFD1CB9BFF35F8F9E
:10A83400024B1C6007B030BD0122F1E7E437002071
:10A84400EA37002038B503780446A3B94088FFF7F7
:10A85400DFFE6588284600F0A2F928B1064B0122E4
:10A8640019782846FFF7AEFD6088FFF779FFBDE849
:10A874003840FFF78BBF38BDEB37002037B503787E
:10A88400082B044630D1427A72BB057A072D1BD0BF
:10A89400082D2ED0012D27D180886A46294600F044
:10A8A40047FF08BB019B1B78F3B1A08800F050FA66
:10A8B4004FF6FF73984217D0124B2A461978FFF7C8
:10A8C40081FDFFF7DDFE0FE0808800F041FA4FF6CE
:10A8D400FF739842044607D00B4B01221978FFF707
:10A8E40071FD2046FFF73CFF03B0BDE83040FFF7A1
:10A8F4004DBF064B19680129F6D1BFF35F8F1A606B
:10A90400F2E700BFEB370020EA370020E4370020ED
:10A9140007B5084B084A0093084B002908BF1346A3
:10A92400019300F0E7F90022694600F077FD03B0D7
:10A934005DF804FB010009004CD5020050D502006B
:10A9440030B503888588522B87B0044632D00ED8A0
:10A95400352B46D0502B31D02C4B2D491878002262
:10A96400FFF758FD07B0BDE83040FFF789BE542B10
:10A97400F2D118220021684602F01DFD1123284659
:10A984008DF80030ADF8025000F0B4F9ADF80400D1
:10A9940000F032F91F4B284619780022FFF712FD08
:10A9A4001D4B284619780022FFF70CFD6846FFF777
:10A9B40010FED1E72846FFF72BFECDE7037B012BE2
:10A9C400CAD1827A012AC7D1018942F60213994277
:10A9D400C2D1124B28461978FFF7F4FCFFF7D6FED4
:10A9E400BAE70F4B002219782846FFF7EBFCE18801
:10A9F40051B9A389012B03D1A17B003918BF0121CF
:10AA04002846FFF785FFA7E70021F9E7E93700208B
:10AA140081A60200EC370020EB370020EA37002043
:10AA2400E8370020AFDF7047B1DF7047B2DF70470F
:10AA3400B3DF704773B50F4B0F4D93E803006C46BB
:10AA440084E8030000222888214600F0E7FC4FF642
:10AA5400FF762B88B34201D0112801D102B070BD1A
:10AA6400184600F02EFD00222146288000F0D6FC76
:10AA7400EFE700BF54D50200EE370020044B1A88DC
:10AA84004FF6FF739A4201D0FFF7D4BF704700BF5F
:10AA9400EE3700202DE9F743804600F02BF94FF6FE
:10AAA400FF739842064637D001274FF003093A4610
:10AAB4006B460821304600F03FFE0137BFB2054621
:10AAC40028BB01990A46032342F8049B06314046F9
:10AAD400FFF7ACFF044648B932460821304600F07F
:10AAE400B6FE0446204603B0BDE8F0830C280CD023
:10AAF400052800D12C460821304600F07FFE0028AE
:10AB040018BF0324002DD2D1ECE70125F3E7072871
:10AB140014BF04460C24E5E743F20204E2E72DE9FE
:10AB2400F341074600F0E6F84FF6FF73984218D158
:10AB34000024032526464FF001082B4622463146C1
:10AB44003846FFF771FF042821D0082825D00B28A8
:10AB54001ED115F002030FD196B9ACB902B0BDE80D
:10AB6400F0816A46082100F0E3FD0028E0D1019B52
:10AB74009C881D689E1DDEE701254FF00008DCE778
:10AB840003251C461E46F8E703253446F5E7112045
:10AB9400B8F1000F08BF0B20E0E70020F8E71FB56D
:10ABA4000DF10703039300F0A5F802AA012100F0B8
:10ABB400BFFD20B9039B187805B05DF804FB0020A5
:10ABC400FAE7000070B505460A48FFF731FF70B98F
:10ABD400084C43F2030621884FF6FF722846FFF71C
:10ABE40021FFB04204D1238801332380F3E70320FB
:10ABF40070BD00BFF037002013B5074A044692E841
:10AC040003006B4683E8030000221946204600F047
:10AC140005FC02B010BD00BF5CD5020046DF7047E2
:10AC2400421E00F10F0312F8010F10B99A42FAD133
:10AC340070470120704708B570B171B103780A7884
:10AC4400534013F0FE0F08D106220131013002F007
:10AC54004FFBB0FA80F0400908BD0020FCE72DE965
:10AC6400F04700F101084F1C06460D4600F111099A
:10AC740001F1110A10223946404602F039FB04461C
:10AC8400D0B94046FFF7CCFF18B13846FFF7C8FFEC
:10AC9400044651464846FFF7CEFF737C03F0FC039D
:10ACA400042B05D06B7C03F0FC03042B18BF044673
:10ACB40004F00100BDE8F0870024EAE77FB505460B
:10ACC4000E4600F075FB02AA0DF10601072000F004
:10ACD40077FB10B94FF6FF7409E0BDF80640B442A3
:10ACE400F1D003992846FFF7BAFF0028EBD020469D
:10ACF40004B070BD132810B5044602D94FF6FF7096
:10AD040010BDFFF70FFB0028F8D00A20014B444385
:10AD1400185BF5E7F2370020132838B505460C46D2
:10AD240002D943F2020038BDFFF7FCFA0028F8D03C
:10AD3400064B0A2000FB0530D0F802302360C3889C
:10AD4400A380037AA3710020EDE700BFF23700204F
:10AD54004FF6FF7398422DE9F04105460CD00C4F95
:10AD640000244FF00A0808FB04F3A6B2DB5BAB42F5
:10AD740005D00134142CF6D14FF6FF7604E03046AA
:10AD8400FFF7D0FA0028F4D03046BDE8F08100BFC8
:10AD9400F2370020038843B9821C0A3012F8013BC1
:10ADA4001BB98242FAD1184670470120704710B58A
:10ADB4000446FFF7EFFF58B122880B889A4208D166
:10ADC40008220231A01C02F093FAB0FA80F0400984
:10ADD40010BD0020FCE730B585B0044600F0E8FA69
:10ADE40002AA0DF10601072000F0EAFA10B94FF6A5
:10ADF400FF700FE0039D204605F14601FFF7D7FFE2
:10AE040030B905F12A012046FFF7D1FF0028E7D029
:10AE1400BDF8060005B030BD13289FBF0A23584370
:10AE2400014B1952704700BFF237002038B5054670
:10AE3400FFF78EFF0446284600F0EAFC38B9132CCD
:10AE440005D80A235C43024B4FF6FF721A5338BDF0
:10AE5400F237002070B58CB014466A460D4600F1F6
:10AE64001003164613F8011D02F8011B9842F9D18C
:10AE74000D22002104A802F09EFA2B788DF81F30D1
:10AE84006B788DF81E303046AB788DF81D30FFF7A7
:10AE9400C5FE9DF82F3023709DF82E3063709DF809
:10AEA4002D30A3700CB070BD1FB5034608461A7848
:10AEB40002F0FE02042A1BD1DA78B3F801108DF8EF
:10AEC40006209A88ADF804109B79ADF80C2003A9EC
:10AED40002AA8DF80E30FFF7BDFF032202A901A8D4
:10AEE40002F006FAB0FA80F0400905B05DF804FB00
:10AEF4000020FAE730B50388102B93B04ED1041D1F
:10AF04000FCC07AD0FC50FCC0FC594E807009DF813
:10AF1400203003F0FE03062B85E8070009D000F07B
:10AF240047FA9DF82030032B4FEA530204D9022A32
:10AF34003DD04FF6FF7310E001AA0DF10201072086
:10AF440000F03EFA0028F4D0029908A81131FFF766
:10AF540072FE0028F0D0BDF80230BDF81C4018483D
:10AF64000A226243811883529DF8262008980A72A7
:10AF74004FF6FF72C1F802009342BDF82400C88066
:10AF84000CD0ADF8083001A80023ADF806408DF8C8
:10AF9400043000F03BFD01A8FFF754FC13B030BDB2
:10AFA400029908A80131FFF77FFF0028D3D101AA35
:10AFB4000DF10201072000F003FA0028F0D1B8E7F0
:10AFC400F237002090DF7047A5DF7047B5DF704788
:10AFD4001FB50023ADF80810ADF80A106A4602A99F
:10AFE400ADF80C30ADF80E300093ADF80430FFF737
:10AFF400E9FF05B05DF804FB80B14FF0F71303607F
:10B00400FB230371F723C3801723038141F6FB322B
:10B014000023016143818281184670470E207047E6
:10B0240030B1A1F11703E02B04D801800020704750
:10B034000E2070470720704713B5034680880C46DE
:10B04400A0B91A88242A7DD012D8112A56D0232ACE
:10B0540000F08880102A2ED0A37A3BB1E18800202A
:10B06400FFF7B2FF10B94FF48073638102B010BDD3
:10B074003A2A4CD0552AEFD1DB88C988A072172B05
:10B0840038BF17238B4228BF0B462381FFF79EFF4F
:10B09400E27A002AE0D12369002BDDD040F6772143
:10B0A400ADF802202289ADF80010ADF804206946FD
:10B0B40020469847D0E7DB7B0A790A73012B13D02B
:10B0C400022B14D0E18823898B4205D20020FFF79C
:10B0D4007BFF70B90123E372217B637B8B42BBD27C
:10B0E4000020FFF775FFB7E70B88E380EAE74B889A
:10B0F400FBE7112804BF0123A372EDE7F723CB80FC
:10B1040017230B8141F6FB3348818B81A4E75B89CC
:10B11400CA88934228BF1346172B0A6938BF1723DE
:10B124000B8162B1C97A51B140F67721ADF80010B4
:10B13400ADF80200ADF8043069462046904700237C
:10B14400638189E71A7A0B694A73002B84D04DF620
:10B154007A218DF80500ADF80010ADF802008DF8E5
:10B164000420A4E7197A237B994228BF1946B8E73B
:10B17400B0DF704766DF704710B500210446408891
:10B18400FFF7F8FF034608B9237210BD112801D157
:10B194000123F9E76368BDE81040184760B159B16D
:10B1A4000378DE2B0AD00B684360DE2303704FF66E
:10B1B400FF734380002070470E20704708207047BB
:10B1C40028B10378DE2B04D14180002070470E2083
:10B1D400704708207047F0B5054685B00C46002935
:10B1E40042D0002840D00B78DE2B3DD182884B889A
:10B1F4009A4204D10B7A13B10846FFF7BDFF2B889E
:10B20400112B33D0512B0FD0012B2DD12B7A012BA5
:10B214002AD1A9886288914226D12046237205B09A
:10B22400BDE8F040FFF7A8BFAE886388B3421BD1E6
:10B23400AF79022F18D1AD7B2B1F022B14D800211C
:10B244001022684602F0B7F8052D18BF4FF4C073FA
:10B254006946304618BFADF804308DF80070FFF72A
:10B2640087FF08B16368984705B0F0BD6388AA8872
:10B274009A4204BF4FF6FF736380F5E7012804D0B8
:10B28400043805288CBF0020012070474FF6FF7357
:10B29400438000F0D1B907B50023A1F58041A0F5A2
:10B2A4008040CDE9003389B26B4680B2FCF700FAE6
:10B2B400002818BF052003B05DF804FBF0B5204E4C
:10B2C40000238DB04FF6FF70CDE90133337000F0E9
:10B2D4006BFB4FF6FF770446BC4211D0A4F58045C2
:10B2E400ADB201AA03A92846FCF7FCF90A2809D043
:10B2F4002846FCF7B7F9082805460BD1012333701B
:10B304000DB0F0BD204600F0F1FA204600F04CFBF1
:10B314000446E1E7002DF3D0182200210DEB0200D2
:10B3240002F049F807238DF8183006A80123ADF878
:10B334001C4008958DF82430FFF7A8FFE0E700BF14
:10B34400C4380020F0B5FF2887B004460E461546E1
:10B354001F462BD80846FFF791FF38B303AA2046AF
:10B36400FFF799FF18B10524204607B0F0BD01A9E5
:10B3740003A8FCF725F904460028F4D1019BAE701C
:10B384005E8802992E8027B9696003A8FCF73CF90E
:10B39400EAE73F886868B600B74228BF37463A46AE
:10B3A40001F0E0FFBE42F0D90C24DDE70724DBE71F
:10B3B400024B0022C3E90022704700BFBC380020C2
:10B3C400F0B587B00646FFF759FF0F461546044609
:10B3D400F8B1A6F58040104A03A980B2FCF775F9CC
:10B3E40018B10024204607B0F0BD01A903A8FCF75A
:10B3F400E7F80028F5D1019BAE705A889B882A8013
:10B4040003F58043029A6A6003A83B80FCF7FCF8CA
:10B41400E8E70124E6E700BFBC38002030B5FF2888
:10B4240087B003460C46154634D889780846FFF79A
:10B4340025FF78B3A3F58042ADF80020A1F5804242
:10B44400ADF802206268019222880292184603AA8B
:10B45400FFF721FF0528694603A80AD1FCF7F6F88F
:10B464000728044618D007D868B10324204607B03B
:10B4740030BDFCF7EFF8F3E708280FD00E2814BF0F
:10B4840003241124F2E7002DF0D0294603A8FCF789
:10B4940036F9EBE70724E9E78624E7E71124E5E733
:10B4A4004FF6FF7000F00ABAFF2808B505D800F07F
:10B4B4000BFAFFF703FF002008BD0720FCE700F0AC
:10B4C4002BBA00F057BA00F06FBA00000A68084BB4
:10B4D40070B50C25032A01D9002006E005FB02F40F
:10B4E400E65A864202D10A60181970BD0132F1E7AA
:10B4F400D838002037B500230D460446019301A92E
:10B50400FFF7E4FF38B18378AB4206D1837A9B0717
:10B5140003D143680BB903B030BD019B01330193E0
:10B5240001A92046ECE710B5044600F0EBFA2046EA
:10B5340000F0FCFF2046FFF7A1FA2046BDE81040CA
:10B54400FFF79CB970B50E4E04460025237AAB4232
:10B554000DD84FF6FF732380A370002363604FF46C
:10B564007F432381A37A23F00303A37270BD617A1E
:10B574002944C9B2304600F07EFB0135E6E700BF3E
:10B58400C838002013B50023CDE90033417A83780D
:10B594008DF802300446264800F054FB60B3237A49
:10B5A400A2788DF8022003EB83039B00ADF80030F2
:10B5B400531E0190072B08D8DFE803F0160707078E
:10B5C400071604181423ADF800302246694632F8F1
:10B5D400040BFFF723FF112815D00BD870B10728EF
:10B5E40018BF032002B010BD0123ECE783880933A0
:10B5F4009B08E8E7862811D00320F3E7A37A23F019
:10B604000303A372EEE7A37A23F0030343F00203D8
:10B61400A372084B01221A700020E3E7A37A23F0F7
:10B62400030343F00103A372024B01221A70D9E70A
:10B63400C8380020C53800202DE9F0473A4EC168CB
:10B6440086B00546324600233746506881421BD1F6
:10B654000C2000FB03702B78DFF8D080092B1AD064
:10B66400132B55D0082B55D16C7A002C52D10028BD
:10B6740052D0FFF767FF2846FFF755FF98F80030D0
:10B684009BB906B0BDE8F0870133042B02F10C022C
:10B69400DBD10020DFE76C7A002C3BD100283BD0C3
:10B6A400837A446043F002038372002588F80050D3
:10B6B4004FF00C094FF0010A09FB05739B7A9907B7
:10B6C400C3F3400201D4DB0728D588F800A002B9EF
:10B6D40024B33046FFF756FF00B34FF6FF73ADF8BF
:10B6E40002300C235D4386287B5BADF8043017BF22
:10B6F400072306238DF80030029018BF0023684604
:10B704000CBF8DF800308DF80C30FFF70CFFB8E754
:10B714000124B0E70024AEE70446ACE70135042D6C
:10B7240006F10C06C8D1ACE7D8380020C538002093
:10B734000023FFF707BE00002DE9F04180460E46C6
:10B7440014461F46002B4FD0CB1F012B4FD8531E3E
:10B75400032B4CD8FFF7CEFE054610BBFF214FF656
:10B76400FF70FFF7C7FE0546C8B1A0F800808670D9
:10B774006B7AFF2B1AD12048214600F094FAFF2857
:10B7840068722ED14FF6FF732B8000236B604FF449
:10B794007F432B81AB7AA87023F00303AB72112093
:10B7A40023E0037AA342E3D00F201EE04FF0000809
:10B7B400697A11482C7200F045FAD0B104EB840484
:10B7C40024010334C4F38D04BE7078603C80B8F166
:10B7D400000F04D0082E02D1A400063C848000206F
:10B7E40003E04FF00108E3E70E20BDE8F0810720F5
:10B7F400FBE70320F9E700BFC838002008B5FFF7CE
:10B8040079FE18B1FFF79EFE002008BD0520FCE775
:10B8140013B500230446019301A9FFF757FE30B97D
:10B824002046FFF741FE50B1072807D107E0817891
:10B834002046FFF7E3FF20B1052802D0032002B021
:10B8440010BD019B0133019301A92046E5E7CB1FFD
:10B85400012B70B506460C46154601D9072070BD6C
:10B864001046FFF72CFE0028F8D021463046FFF79B
:10B8740041FE28B184700580BDE87040FFF782BEA8
:10B884000520ECE710B54FF6FF7304469C420846CA
:10B894000AD14FF48071FBF7D9FF84B2B4F5807FED
:10B8A40009D14FF6FF7406E0FF2CFAD82146FBF7C6
:10B8B400ACFF0028F5D1204610BD00000149FFF778
:10B8C400E1BF00BF083900204FF6FF73984210B55E
:10B8D400044606D00449FFF7D5FF231A58425841BD
:10B8E40010BD0020FCE700BF28390020FF2807B561
:10B8F40001460AD801900648FBF795FF01990548CF
:10B9040003B05DF804EBFBF78EBF03B05DF804FBF6
:10B914000839002028390020FF28014602D80248AF
:10B92400FBF78BBF0020704708390020FF28014631
:10B9340002D80248FBF781BF002070472839002055
:10B944004FF6FF73984270B518BF441C0E4614BFDF
:10B95400A4B20024A5B2FF2D02D94FF6FF7506E06C
:10B9640021463046FBF769FF01340028F2D028460F
:10B9740070BD000070B50B490A4EFFF7E1FF4FF6AA
:10B98400FF750446AC4201D1204670BD2046FFF746
:10B99400CDFF0028F8D020463146FFF7D1FF0446FA
:10B9A400F0E700BF083900200149FFF7C9BF00BF15
:10B9B40028390020F8B5074D074E07460024337890
:10B9C400A34200DCF8BD55F8043B384698470134DF
:10B9D400F5E700BF503900205F390020074B1B7882
:10B9E40010B504464BB1FFF785FA204600F0BEFDC2
:10B9F4002046BDE81040FEF7A3BF10BD5E3900200D
:10BA040008B1FFF7D7BF7047FFF7D4BFFFF7D2BF26
:10BA14002DE9F04F87B0814601932E4B1B78884661
:10BA24001646002B53D04FF6FF70FFF74AFD042350
:10BA3400ADF80A3003AB0025059304AA0DF10A03FF
:10BA44000621044603950495FFF77CFC07283AD0A9
:10BA54004FF6FF77BB464FF0FF3AF0B1052825D0EB
:10BA64004FF6FF739C4230D1A3452AD0A7420CBFA6
:10BA740005200020B9F1000F01D0A9F800B0B8F1F9
:10BA8400000F01D0C8F8005006B13780019B0BB1FC
:10BA9400C3F800A007B0BDE8F08F039BAB4224BFFE
:10BAA400A3461D4653453CBF27469A462046FFF70A
:10BAB40008FD0DF10A0304AA06210446FFF742FC1F
:10BAC400CBE70520D6E70520E4E70320E2E70820DA
