:020000040002F8
:1060000080620020FD620200056302000763020057
:10601000096302000B6302000D6302000000000030
:106020000000000000000000000000000F630200FC
:1060300011630200000000001363020015630200F8
:106040007566020017630200756A0200176302009A
:106050001763020017630200AD64020017630200B9
:106060001763020017630200176302001763020040
:106070001763020017630200176302001763020030
:1060800017630200CD660200176302001763020067
:106090005167020017630200556702001763020090
:1060A0001763020017630200176302001763020000
:1060B00017630200176302000000000000000000E8
:1060C00017630200176302001763020017630200E0
:1060D000176302001763020017630200000000004C
:1060E00000000000000000000000000000000000B0
:1060F00000000000000000000000000000000000A0
:10610000000000000000000000000000000000008F
:10611000000000000000000000000000000000007F
:10612000000000000000000000000000000000006F
:10613000000000000000000000000000000000005F
:10614000000000000000000000000000000000004F
:10615000000000000000000000000000000000003F
:10616000000000000000000000000000000000002F
:10617000000000000000000000000000000000001F
:10618000000000000000000000000000000000000F
:1061900000000000000000000000000000000000FF
:1061A00000000000000000000000000000000000EF
:1061B00000000000000000000000000000000000DF
:1061C00000000000000000000000000000000000CF
:1061D00000000000000000000000000000000000BF
:1061E00000000000000000000000000000000000AF
:1061F000000000000000000000000000000000009F
:10620000DFF810D000F014F9004800473194020084
:10621000AFF300808062002030B4044654E8000FE1
:106220000D4644E80053002BF8D1156030BC704790
:1062300030B4044654E8000F40EA010544E8005336
:10624000002BF7D1156030BC704730B4044654E8D9
:10625000000F00EA010544E80053002BF7D1156058
:1062600030BC704730B4044654E8000F80EA0105A2
:1062700044E80053002BF7D1156030BC704730B4B0
:10628000044654E8000F00EB010544E80053002BDE
:10629000F7D1156030BC704730B4044654E8000FA5
:1062A000A0EB010544E80053002BF7D1156030BC8A
:1062B000704770B404464FF0000054E8006F0D685A
:1062C000AE4207BF44E80023012044E800630E60AB
:1062D000002B1CBF0020F0E770BC704730B40446B0
:1062E00054E8000F88422CBF451A054644E8005385
:1062F000002BF5D1156030BC704700000648804780
:1063000006480047FEE7FEE7FEE7FEE7FEE7FEE79A
:10631000FEE7FEE7FEE7FEE75967020001620200C2
:106320002DE9F05F0546002092469B4688460646CA
:10633000814640241BE0284641464746224600F05D
:1063400067F853465A46C01A914110D31146184671
:10635000224600F016F82D1A67EB01084F46224638
:106360000120002100F00DF817EB00094E41201E1E
:10637000A4F10104DFDC484631462A464346BDE825
:10638000F09F202A04DB203A00FA02F10020704737
:106390009140C2F1200320FA03F319439040704763
:1063A000004870477CCA020040EA01039B0703D003
:1063B00009E008C9121F08C0042AFAD203E011F844
:1063C000013B00F8013B521EF9D27047D2B201E006
:1063D00000F8012B491EFBD270470022F6E710B5EA
:1063E00013460A4604461946FFF7F0FF204610BD43
:1063F000421C10F8011B0029FBD1801A704703468C
:1064000011F8012B00F8012B002AF9D1184670472A
:10641000202A04DB203A21FA02F00021704721FAF9
:1064200002F3D040C2F12002914008431946704760
:10643000064C074D06E0E06840F0010394E80700D1
:1064400098471034AC42F6D3FFF7DEFEE0D20200EC
:1064500000D3020070B58C1810F8015B15F007032B
:1064600001D110F8013B2A1106D110F8012B03E0ED
:1064700010F8016B01F8016B5B1EF9D12B0705D4F5
:106480000023521E0DD401F8013BFAE710F8013B3E
:10649000CB1A921C03E013F8015B01F8015B521E5A
:1064A000F9D5A142D8D3002070BD00002DE9F047F6
:1064B00000268AB0DFF85091B0464FF48075012471
:1064C00037460696284603F0A9FE38B1D9F80403EA
:1064D000204203D0284603F097FE26432D1D64007A
:1064E0007F1CADB2082FEDD34FF4BE74204603F0ED
:1064F00095FE48B1204603F087FE46F0004606AA06
:106500000121002003F06CFE404D16F0FF0F15D066
:106510000127002437420DD009EB8401D1F8100582
:10652000D1F81015C0F3042055F82420C1F301411F
:1065300002B190477F00641C082CEBD3002E5FDA79
:106540004FF0FF30CDF8108054E0281910F8507F3C
:1065500090F9000027F0C008401C3BD007A9404636
:1065600003F011FA10B34FEA9719404602F0FCF914
:1065700055F820701FB1B9F1030F03D006E0B9F14F
:10658000030F27D104A9404603F005FA4FF0A041BC
:1065900001EB8800D0F8000706A9C0F3014A404685
:1065A00003F0F1F918B1BAF1020F03D012E0BAF119
:1065B000030F0FD1B9F1030F08D1BAF1020F1DD0AB
:1065C0000221404603F0F0FD761CF6B217B14946B1
:1065D0004046B847641C042CB7D3002E10D06A463E
:1065E0000121002003F0FCFD06990098884207D0A5
:1065F00006900498002634460790A6E70321E0E7BA
:106600000AB0BDE8F087000000600040E8370020D5
:1066100000F01F02012191404009800000F1E020BC
:10662000C0F88012704700F01F020121914040091C
:10663000800000F1E020C0F80011704700F01F0258
:10664000012191404009800000F1E020C0F80012D3
:1066500070474907090E002806DA00F00F0000F124
:10666000E02080F8141D704700F1E02080F800144D
:106670007047000070B54FF48076304603F0D2FAD0
:10668000114CB50560B1304603F0D3FA0120C5F8CE
:106690000803607920B901206071216800208847D3
:1066A0004FF48276304603F0BDFA00280AD0304617
:1066B00003F0BFFA0220C5F808032168BDE8704066
:1066C0000120084770BD000060300020074800210D
:1066D000C0F84011C0F84411C0F84811C0F84C117E
:1066E000C0F80011C0F8041105F092BC0010014080
:1066F00000F0C6B970B50E46144900EB400001EB3E
:10670000C0051446E86A183520B101280FD00228C8
:1067100005D113E0284600F0E7F9A04201D2002499
:1067200011E022463146284600F016FA0BE02846D2
:1067300000F0DAF9A042F4D20446F2E731462846E6
:1067400000F0DDF90446204670BD0000B43F002093
:1067500005F0ACBB04F0D2BAF0B5B5480023021D79
:106760000178101D01254FF0805406290BD11678B1
:10677000360708D10678C6F30316032E06D0042E7A
:1067800004D0052E02D0062907D00EE0B4F8246309
:10679000A84FC6F304263E6002E01678360704D1FF
:1067A0000678C6F30316032E02D0062904D00FE0A4
:1067B000A24FA14E7E670EE01678360708D1067804
:1067C000C6F30316032E06D0042E04D0052E02D0E5
:1067D000062907D00EE0D4F84462994FC6F342363A
:1067E0003E6002E01678360704D10678C6F3031639
:1067F000032E02D0062906D011E0924E376827F00A
:10680000807737600EE01678360708D10678C6F331
:106810000316032E06D0042E04D0052E02D006291E
:106820000AD011E04FF08046C6F80C31C6F810319E
:10683000834E361F336002E01678360704D106789F
:10684000C6F30316032E02D0062905D00CE07C4FB8
:10685000032664373E600AE01678360704D10678CE
:10686000C6F30316032E02D006290DD014E0764F8E
:1068700005263E60744E78363560734E08363360B8
:106880003F263F1D3E6002E01678360704D10678A9
:10689000C6F30316052E02D0062957D062E06B4ED0
:1068A00036686B4F3E60694E361D36683F1D3E6050
:1068B000664E083636683F1D3E60644E0C363668BC
:1068C0003F1D3E60614E103636683F1D3E605F4E94
:1068D000143636683F1D3E605C4E183636685C4F95
:1068E00020373E60594E1C3636683F1D3E60574E7D
:1068F000203636683F1D3E60544E243636683F1DB4
:106900003E60524E283636683F1D3E604F4E2C3654
:1069100036683F1D3E604D4E303636684C4F40372E
:106920003E604A4E343636683F1D3E60474E38362C
:1069300036683F1D3E60454E3C3636683F1D3E6022
:10694000424E403636683F1D3E6002E016783607FC
:1069500008D10678C6F30316032E06D0042E04D001
:10696000052E02D0062907D019E0D4F85812394A6A
:1069700001F04F01116002E0117809070FD1007892
:10698000C0F30310032803D0042801D0052806D142
:1069900031480168C90702D06FF001010160D4F8E5
:1069A0003001062808D1D4F83401062804D12B4838
:1069B000016841F48061016022487438016841F443
:1069C00070010160BFF34F8FBFF36F8F4FF0102145
:1069D000D1F80002002803DBD1F80402002822DAF3
:1069E0001F4A15601F480468002CFCD01524C1F80C
:1069F00000420568002DFCD0C1F80442016800295E
:106A0000FCD0136001680029FCD0BFF34F8F0D4804
:106A1000F0380168144A01F4E06111430160BFF3EA
:106A20004F8F00BFFDE7124910480860F0BD00001D
:106A3000E00F00F0403501400DF0ADBA00C0074056
:106A40003C050040FCED00E010560040040400103E
:106A500020C50040E40E0040000400403C17004008
:106A600004E5014000E401400400FA050090D00371
:106A700030310020014800680047000068300020E5
:106A800010B5124C02202061606111A0A06104F1D8
:106A90007800E0614FF4007020620020A062606224
:106AA0000BA1A164E06204F51E71E1641021A065F0
:106AB000C4E91410E06509A1E01DFFF7A0FC08A1DE
:106AC0002046FFF79CFC2020A07110BDB43F0020A1
:106AD0005465726D696E616C000000005254540080
:106AE00053454747455200000269C1688A4203D8AE
:106AF0008068401A104400E0501A401E70472DE98B
:106B0000F047C4681746894606464FF000083069CA
:106B1000A04201D9051B02E0B168201A0D1AB06825
:106B20006D1E001BA84200D80546BD4200D33D465D
:106B300070682A4620444946FFF736FCB0687F1B40
:106B40002C44A844A944A04200D10024F460002FA2
:106B5000DDD14046BDE8F0872DE9F0410446884686
:106B6000D4E90207C51BE168606816460844B542CF
:106B700006D94146FFF718FCB819E060BDE8F0817E
:106B80002A464146FFF710FC761B08EB050132460A
:106B90006068FFF709FCE660F0E70000014A02497F
:106BA00000F026B86F8F0200C830002002E008C84D
:106BB000121F08C1002AFAD170477047002001E077
:106BC00001C1121F002AFBD17047000001212028BB
:106BD00003DA81400548014003E0402802DA20380A
:106BE000814009B10120704700207047FC06FFBDBD
:106BF0002DE9F04116460F460446002503E03946CC
:106C0000B047641C6D1C20780028F8D12846BDE8E8
:106C1000F08110B501220221002001F0ADFC08B185
:106C2000072810D107220221012001F0A5FC08B19C
:106C3000072808D100210A22084601F09DFC08B16E
:106C4000072800D1002010BD022001F09FBB0000EA
:106C500070B50024064D06E06868012110F8340084
:106C600004F02AF9641C28788442F5D3002070BD12
:106C700070300020F8B515460C460646052A01D2AC
:106C80000720F8BD04F014FA18B904F0D9F9002867
:106C9000F7D1124900224E600C708D60C1E90422C8
:106CA000C1E906220E4D0DE006EBC40029680091F3
:106CB00081788DF8011000780A4A694604F04EF98F
:106CC0000028DED1641EE4B2EED2BDE8F8400448EC
:106CD0000021054A001D00F07FB800007030002040
:106CE00070C7020009900200CD8D020010B572B687
:106CF00003F01AFD03F060FB0028FBD11148124994
:106D0000401AC408012000EB044010A103F06CFC01
:106D100011480068C00700D000BE022000EB04400C
:106D20000EA103F061FCBFF34F8F0B48E4380168FC
:106D30000E4A01F4E06111430160BFF34F8F00BFC1
:106D4000FDE7000058D3020010D3020046617461D1
:106D50006C206572726F7200F0ED00E0537973740D
:106D6000656D207265736574000000000400FA050B
:106D70000EB500210091CDE901106A4644F20100F0
:106D8000FFF7B4FF0EBD10B58268C368934203D00D
:106D900002F0AEF8002010BD052010BD29B112B1DF
:106DA000531E134203D0092070470E207047016024
:106DB000838000218160C1600846704710B58268F9
:106DC000C3689A1A83889A4203D802F09BF800207D
:106DD00010BD042010BD0000084B9B7823B12AB1E0
:106DE00020B10068037C1BB1082070470720704762
:106DF000002303744174426118467047B438002080
:106E000070B504F043FE104800240B210470447058
:106E10000E4D817014206C602C706C70FFF7F8FBC5
:106E200006211420FFF715FC1420FFF7FCFB08488F
:106E3000046006211120FFF70CFC0548001F0068C4
:106E4000A860002070BD0000B43800209030002001
:106E5000081501402DE9FC47DFF8789099F80230D9
:106E600073B368B3052902D20720BDE8FC874369E4
:106E700033B3437C012B25D00027044600258846E8
:106E800016468DF80050684600F0CEF801A805F0CF
:106E900093FBC8B1012101700F4944600968C0E942
:106EA0000218C0E904769DF8040089F801009DF8F5
:106EB000000000F0DDF81420FFF7C0FB2846D4E7FF
:106EC0000820D2E70F46D8E704259DF8000000F01F
:106ED000CFF8F3E7B438002004150140064989785B
:106EE00039B130B1416921B100210174022105F0AD
:106EF0006BB8082070470000B438002070B50A4E07
:106F000001460A48B578FFF73EFF04464DB1002020
:106F1000B070711C0122C81D02F0B2FF08B1FFF76A
:106F200027FF204670BD0000A4300020C03900209B
:106F3000F0B5244E89B01F460D00044672603FD064
:106F4000A888296882B22048FFF728FF002835D199
:106F5000A889A96882B21C481030FFF71FFF0028DB
:106F60002CD1202219496846FFF71EFA6069069065
:106F7000207C00B101208DF814008DF81C70607C1D
:106F800000B10E208DF81500E0680290A068039013
:106F900020680190606800900A480D4A69460830F0
:106FA00002F03AFF002809D1B0702068401C05D0DB
:106FB00004490122491CC81D02F062FF09B0F0BD5E
:106FC0000720FBE7A4300020C039002088C702005A
:106FD00039C1020010B501461048FFF7EFFE04006A
:106FE00019D10F480F4A0178515C19B1001D04F006
:106FF000E1FA02E00C3004F0C5F960B9084907482D
:107000000839FFF7C0FE30B90549012208390448A4
:1070100002F046FF0446204610BD0000D039002093
:10702000AC3000205430002030B5EFF3108172B640
:107030000D4A9468012324B10370002900D162B67F
:1070400030BD93604FF0E023D3F88051074C2540CA
:107050001560C3F88041D3F8844154605A17C3F8CF
:10706000842100220270E8E7E0390020FC06FFBD21
:107070000B498A68002A11D000280FD1EFF3108045
:1070800072B60B684FF0E022C2F800314B68C2F8CC
:10709000043100228A60002800D162B670470000E7
:1070A000E03900202DE9F041064608680C46411CF5
:1070B0004FF0A0474FF0010506D005FA00F1C7F8E0
:1070C0000815206803F05CF86068411C02D00021BC
:1070D00003F044F83168A069C1F82405607D227D81
:1070E00031681043C1F86C05D4E900123068C0F86B
:1070F0001425C0F80C15207D012815D1A068411C6D
:1071000002D0002103F02AF8E068411C05D0854038
:10711000C7F80855E06803F033F8D4E90212306884
:10712000C0F80825C0F81015BDE8F0812DE9F04140
:10713000064608680C46411C4FF0A0474FF0010579
:1071400006D005FA00F1C7F80815206803F022F808
:107150006068411C02D0002103F009F83168A06981
:10716000C1F82405607D217D32680843C2F86C05B2
:10717000D4E900123068C0F80C15C0F81425207D41
:10718000012815D1A068411C02D0002102F0EFFFB8
:10719000E068411C05D08540C7F80855E06802F05A
:1071A000F9FFD4E902123068C0F80825C0F81015BC
:1071B000BDE8F08170B51500044609D000202860B4
:1071C00034B1206820B1A079800703D0072070BDBA
:1071D0000E2070BD084600F031FBC0B2142804D068
:1071E0002179814203D8042070BD052070BDE2885A
:1071F000216800FB02102860002070BD2DE9FC47CB
:10720000002517880646158090F82D0014468946FB
:1072100030B13A462146484600F02EFB051E09D102
:10722000B0784FF00C0A18B32088C846001DB84249
:1072300002D95046BDE8FC87684679DF0028F9D1BD
:107240002088032108F8001020881921401C80B2F2
:10725000208008F800102088401C80B2208000EBBD
:107260000801BDF8000005F0F5F8218808442080E9
:10727000F0780222C8B1218896F9033001F1030C9D
:107280004846BC45D5D8425421884FF0010C491CD2
:1072900089B2218000F801C02188491C89B221806F
:1072A00009F801302088401C20807068B8B121881E
:1072B00090F9003001F1030C4846BC45B9D842545E
:1072C00021880A22491C89B2218042542188491C04
:1072D00089B2218009F801302088401C2080308943
:1072E00050B1CDE900474B460622022106F10800C5
:1072F00005F07AF9051E9DD1308A50B1CDE90047DD
:107300004B460722032106F1100005F06DF9051E1A
:1073100090D1308B50B1CDE900474B461522142156
:1073200006F1180005F060F9051E83D1306A30B10E
:107330003B462246494601F07EFC051EDBD1706AC1
:1073400030B13B462246494602F0A6F9051ED2D18D
:1073500096F82C0038B13B4622464946304604F0A8
:1073600079FC051EC7D1307838B13B4622464946E4
:10737000304602F01BFA051EBDD128465AE718B563
:1073800004460020ADF8000013466A46204600F08F
:1073900006F8002802D0BDF80000204418BD70B5E2
:1073A00088B182B10024158803E0065D641C344472
:1073B000A4B2A54203D8061976789E4201D08C4229
:1073C000F3D38C4201D3002070BDA11C1180005D5D
:1073D000401E80B270BD80F8301070472DE9F04734
:1073E0000D00044606D02CB195F87A00002601283D
:1073F00003D006E00E20BDE8F08795F8980001283C
:1074000029D0D5F8A000042825D0D5F89C00042860
:1074100021D04FF00109A6702C2205F17801201D22
:10742000FEF7C2FF84F83060D5F8A4006063D5F899
:10743000A800A0634FF6FF70A4F8480204F50D7091
:10744000C4F84402C4F84A62A4F84E6284F8506258
:10745000207810B104E00720CDE7FF2084F8540025
:1074600004F15501C4F8341294F82400EE274FF0CB
:107470001F0801281FD0A4F8388200BF04F50E723F
:107480002846FFF7BBFE0028B5D115F13C0F18D0F8
:1074900004F24311C4F83C1294F8240001280DD0E2
:1074A000A4F8408204F5107205F13C00FFF7A6FE37
:1074B0000028A0D109E0A4F83872DFE7A4F84072F0
:1074C000F0E7C4F83C62A4F8406284F85190208B45
:1074D000A4F8480084F83C90266484F85060606901
:1074E00060644D4604F13C02002104F1540072DF57
:1074F000002880D125707EE72C22001DFEF754BFA6
:1075000010B50288102A1BD0112A20D0262A1DD19E
:10751000007A0C46012801D0022817D1A078052155
:10752000401CB0FBF1F201FB1201204600F03BF8D9
:1075300000280BD0A16B002908D0BDE810400847F7
:10754000C27B012A02D18088A1F8480210BD0C46F6
:10755000002184F852128088B4F848128842F5D18C
:1075600020790028F2D10121DFE7704710B50446E9
:1075700090F8540074DF012084F85202002084F84F
:10758000540284F850000621204601F0C4FC002873
:1075900008D1A178204600F006F810B1A16B01B126
:1075A0008847002010BD2DE9F05F044600780F46A3
:1075B00098B1A7700025C4F84A52A4F84E5284F836
:1075C0005052A079012608B1012F09D0E07980B18D
:1075D000012F05D0022F03D00BE00820BDE8F09F5B
:1075E000616B21B184F851620820884701E084F87A
:1075F000515204F24B2100200A5C0AB1304603E0EC
:10760000401C0628F8D300204FF002084FF0030B6F
:10761000012F06D0022F0CD0032F0FD0042F15D12D
:1076200010E0A17929B194F8241011B908B13046BD
:107630000DE0E17911B108B1404608E0207A08B1C7
:10764000584604E0607A08B1042000E02846A070A3
:10765000616B41B1032801D0042804D1607910B1D5
:1076600094F85202A0B184F8535204F13C0018215E
:107670000746FEF7B2FE04F12C0084F83C60814618
:1076800004F06CF958B194F82C0084F8510008E02B
:1076900084F8545284F8536207208847E5E784F859
:1076A000516094F8240050B1484604F057F920B1D5
:1076B00094F8280084F8520001E084F8526084F8BD
:1076C0005050A27804F24A2104F50D794FF0060AD1
:1076D000052A62D2DFE802F07A030F22410084F823
:1076E0003160C4F84452C4E9101584F83C8080200D
:1076F000A4F8480053E084F8318094F824203846F8
:1077000012B10722027001E080F800B0228A828163
:10771000C4F844524160E168B96040E06069B86013
:10772000208BB88194F824003D4610B184F83CA029
:1077300001E084F83C60204604F020FF50B185F859
:1077400014800421204601F0E6FB30BB052184F8BB
:10775000311020E084F831B01DE0E069B860208C81
:10776000B88194F824003D4610B184F83CA001E0B3
:1077700084F83C60204604F001FF48B185F814808D
:107780000421204601F0C7FB38B984F831A002E09B
:10779000042084F83100C4F84492A07878B13A46C5
:1077A00004F15400D4F8441272DF00287FF416AFBD
:1077B00094F8301094F8540073DF0028F6D1616B10
:1077C00011B194F831008847002007E784F8315060
:1077D000F5E7000070B5040012D001461C221448E1
:1077E000FEF7E2FD1248134D0560206850B17ADFC4
:1077F000002806D12068016829604068686005E0BB
:107800000E2070BD0B487BDF0028FAD108484FF6E8
:10781000FF711438084A20F8041B05493439016007
:107820000021FFF7D9FA0028EBD0032070BD00003B
:10783000403700204C30002015C5020010B504462A
:1078400000F010F808B1204610BD142010BD000053
:107850000346034880680A46194601F070BB0000E1
:107860005C370020142801D30020704701460148EE
:1078700001F0FABF603700207CB5054608880C4649
:107880000930904201D90C207CBD68466DDF00288C
:10789000FAD121880820685420881B21401C80B21E
:1078A000208029542088401C80B220802844DDF8A4
:1078B00001100160BDF8051081802088801D80B214
:1078C00020809DF80010490800D00121295420880B
:1078D000401C208000207CBD10B502F0B3F90028C8
:1078E00009D105484FF0030C00DF002803D1BDE8A3
:1078F000104002F00DBA10BD5842002018B10349E3
:107900000860002070470E20704700002C310020D6
:1079100010B54FF0FF3100203DDF00280BD1B12121
:107920003CDF002807D10448416901208847022034
:1079300003F010F8002010BD3C420020044810B5B0
:107940000068416900208847BDE81040FFF7E0BFAC
:107950002C31002010B588B0044620216846FEF77F
:107960003CFD0320ADF8000020788DF802009DF862
:107970000D00172140F028008DF80D0001208DF832
:1079800010008DF81300ADF804108DF812008DF87A
:107990000C008DF811006088A21D694600F0ECFF14
:1079A00008B010BD10B5184C86B01ECC8DE81E0076
:1079B00050B1164C4FF6FF71A18000680021606144
:1079C0006176217618B104E00E2006B010BD104893
:1079D00060610E48FFF792FF0028F6D101208DF874
:1079E00012004FF65960ADF81000A21C04A9012046
:1079F000A8DF0028E9D10549684662DF0028E4D104
:107A00000248FFF7A7FFE0E7E8C902003C42002078
:107A1000AD8E020010B500280FD00188214C5029EE
:107A200026D00BDC10291DD0112906D1A188808811
:107A3000814202D14FF6FF70A08010BD512913D0B2
:107A40005329FAD1C088E1888842F6D1607E0028A7
:107A5000F3D0FFF773FF0028EFD06169BDE8104055
:107A6000022008478088E7E7BDE8104003F0FCBE2D
:107A700030F8061F62899142DFD141890229DCD1A9
:107A80000C3000F03AFC0849084A2076891AC908E7
:107A9000032202EB01430246BDE8104004A1184650
:107AA00002F0A6BD3C42002058D3020010D30200D1
:107AB000526563656976656420696E6469636174A3
:107AC000696F6E2073746174652025640000000086
:107AD0002DE9F0410546007B042601272E4C0128A4
:107AE00011D002282CD00226287B314600F08EF8D7
:107AF00018B1206841690320884720684169022045
:107B0000BDE8F041084720684FF00008817E49B188
:107B10000621012000F07AF800283BD02068416956
:107B20000320EDE747760121084600F06FF80028B2
:107B300030D02268112882F81980D5D10626D3E7E3
:107B40006A7B142A22D80AB3DFF8508005F10E01AF
:107B500008F10400FEF728FC697BC8F818102168BA
:107B60004046897E0029BFD1A0F10C010A68011F9F
:107B7000904768B10F28B7D109480A49401AC00890
:107B800007EB0040084902F02FFDADE70526ABE703
:107B900020688776BDE8F0812C3100206442002007
:107BA00058D3020010D302008CD1020070B51549E1
:107BB00000250A68002A24D04A68002A21D008310A
:107BC000904708281DD0104C0028206885760ED0DC
:107BD0000621022000F01AF818B12068416903203C
:107BE0008847206841690220BDE8704008470121AC
:107BF000022000F00BF8002803D020684169032020
:107C0000F2E770BD584200202C31002086B00323DB
:107C1000ADF8003020238DF814308DF815000022C7
:107C20000E48019202928DF81610C188ADF804102A
:107C300002218DF8061005A90491ADF80820CDF8B1
:107C40000CD0808801A9AEDF002804D1BDF8001057
:107C5000032900D00C2006B0704700003C420020F1
:107C600030B52349234B01250322C91AC9088BB01B
:107C700002EB014478B101282DD01D4A1946511A52
:107C8000C908012202EB0142022827D0032810462E
:107C900027D019A126E0204621A102F0A5FC6846C4
:107CA0002C21FEF79AFB4020049044F2506005908E
:107CB0008DF804508DF8005069462548FFF71CFCEC
:107CC00000212448FFF7C4FD0246204622A102F00D
:107CD0008FFC0BB030BD204625A103E010462DA13E
:107CE00000E03BA10BB0BDE8304002F07DBC0000DD
:107CF00058D3020010D30200556E6B6E6F776E2062
:107D00006576656E742066726F6D20626C655F6467
:107D100066755F627574746F6E6C6573732E0000A8
:107D2000446576696365206973207072657061725D
:107D3000696E6720746F20656E74657220626F6F64
:107D4000746C6F61646572206D6F64652E00000055
:107D500048340020658E0200446973636F6E6E655F
:107D600063746564202564206C696E6B732E00005B
:107D70004465766963652077696C6C20656E74650F
:107D80007220626F6F746C6F61646572206D6F64D6
:107D9000652E00005265717565737420746F2065DF
:107DA0006E74657220626F6F746C6F6164657220AF
:107DB0006D6F6465206661696C6564206173796EBE
:107DC0006368726F6E656F75736C792E00000000CA
:107DD0005265717565737420746F2073656E6420CD
:107DE0006120726573706F6E736520746F20636CB1
:107DF00069656E74206661696C65642E0000000020
:107E0000F8B52B4D018804466E8821293BD015DC3E
:107E10002848294A1029A0EB02004FEAD0004FF071
:107E2000030202EB004013D0112925D0132929D1D8
:107E300000231A46852130467FDF17E03B2932D0E8
:107E400052292AD056291DD18088132176DF0DE0D2
:107E50001AA102F0C9FB072000F0B0FB08B1FEF741
:107E600087FFA1886980184801F064FE002809D0C6
:107E7000BDE8F840FEF77CBF14A102F0B5FB4FF659
:107E8000FF706880F8BD00200090A08869468FDFF1
:107E90000028F7D0FEF76CFFF8BD00231A461946FC
:107EA0003046B1DFE2E78088132176DFDEE70000AD
:107EB0000830002058D3020010D30200436F6E6ECA
:107EC00065637465640000003C340020446973639A
:107ED0006F6E6E65637465640000000010B51A4C27
:107EE0000188606810290ED011292BD1401E6060D6
:107EF00028D1FEF78EFE002824D02168002921D049
:107F0000BDE810400847D0B900210122084600F022
:107F100033FB08B107280FD107220221012000F00E
:107F20002BFB08B1072807D104220221002000F012
:107F300023FB20B1072802D0216801B1884760687F
:107F4000401C606010BD0000443000202DE9F04767
:107F500001883B4E40F2F3194FF6FF7510291BD0F4
:107F600011293ED0122954D0502946D1C188F28916
:107F7000841D914241D1618902293ED186883046D3
:107F800001F084F8050038D004F10C0000F0B9F9D4
:107F9000A8B3294630464EE0C17B878804460129B4
:107FA0002BD1A846284601F071F8050017D02F8084
:107FB00000202872234843464A460168C5F80A1043
:107FC0004068C5F80E0004F1100105F10A0001F047
:107FD00015F96872F08900280FD129462AE004209B
:107FE00013E0808801F052F8040006D06068FEF7C4
:107FF00075FF08B103F0FEFD2580BDE8F087FFE7BF
:108000006868FEF76BFF0028F7D0BDE8F04703F083
:10801000F1BD87880646384601F038F80400ECD0F8
:108020002B464A4606F1080104F10A0001F0E6F881
:10803000607221463846BDE8F04700F043BE0000BC
:10804000403700204C3000202DE9F04F074685884E
:1080500002883D48012197B08346102A09D0112A91
:1080600049D01A2A6CD1387AB1EB101F45D20122BF
:1080700044E0354C083CA068C0430B9061680BA8F5
:1080800001F013FC0B990CA800F0B6FD2C220CA9F2
:108090006846FEF789F90026E946A04610E000BFD1
:1080A00009EB46005FF00004B0F804A008EB840080
:1080B0005146001D01F0CDFB641C1D2CF6D3761C2F
:1080C0000098B042ECD8142D05D317B00420BDE8B9
:1080D000F04FFEF74DBE2946584601F0D0FB294629
:1080E00008F1040001F0CBFBF87B012828D01648EA
:1080F0002946001D15E029461AE000220221B1EBB5
:10810000101F01D2012600E000260F49083901F1B5
:108110001000041D294682B101F0B1FB36B1294699
:10812000204617B0BDE8F04F01F0A9BB2946204614
:1081300017B0BDE8F04F01F08CBB01F08AFBF5E70A
:1081400017B0BDE8F08F000064370020F0B585B0AF
:1081500016460F4604001D4614D004AA194660694D
:10816000FFF728F800280BD1A5F57F40FF380BD08A
:10817000049848B1007848B13088F42808D907201D
:1081800005B0F0BD0E20FBE70520F9E70820F7E772
:1081900000200090019002900390A088ADF80000AC
:1081A00001208DF80200CDE9026769462846AEDF5E
:1081B000E6E7000070B5334D04008EB02DCD08AE5B
:1081C00086E82D005BD0E9B30868A061214608A8C5
:1081D00062DF002851D1207801258DF83200ADF8FA
:1081E0003050A21C0CA92846A8DF002845D1202128
:1081F0006846FEF7F2F80220ADF8000020788DF80E
:1082000002008DF80C509DF80D00F426ADF80460C6
:1082100040F00C008DF81150ADF806508DF80D00AF
:108220008DF81250608804F10C02694600F0A4FB3E
:10823000002822D120216846FEF7CFF80320ADF8B0
:10824000000000E01BE020788DF802008DF80C5053
:108250009DF80D008DF81150ADF8046040F010004D
:108260008DF81250ADF806508DF80D008DF81350B2
:108270006088221D694600F07FFB0EB070BD0E20A5
:10828000FBE7000054C7020030B587B00446002960
:1082900025D0002C23D008462188102921D0502930
:1082A00025D057291BD10546A18840696A46FEF7AB
:1082B00081FF002813D10098007800280FD01821E2
:1082C00001A8FEF78AF801208DF804000295A08825
:1082D000ADF80C0000980490A96901A8884707B080
:1082E00030BD07B02146BDE8304003F0DDB907B02E
:1082F0002146BDE8304003F0EFBA0078C0F34000FB
:108300007047007800F00100704700000149085CE8
:10831000704700000CC702000649095C4FF0A040FE
:10832000D0F81005C84010F0010000D0012080F006
:10833000010070470CC702002DE9FC410646C0074A
:108340004FF000050ED0104F00240122385D00953B
:1083500000231146019501F0B9FE641C042CF4D3EE
:1083600000F046F8B0070DD5074E0024361D002258
:10837000305D032300951146019501F0A7FE641CB2
:10838000042CF4D3BDE8FC8108C7020007490B5C4C
:108390004FF0A041D1F804250120984020EA0203C3
:1083A000C1F808351040C1F80C05704708C7020035
:1083B0000249085C012101F008BF000008C7020063
:1083C0000249085C002101F000BF000008C702005C
:1083D0000649095C4FF0A040D0F80405C84010F0F1
:1083E000010000D0012080F00100704708C70200A2
:1083F00010B500242046FFF7DBFF641C042CF9D3E2
:1084000010BD10B500242046FFF7DAFF641C042CD1
:10841000F9D310BD10B50246064B4FF0FF300021D6
:108420005C5C944201D1084610BD491C0429F7D375
:1084300010BD00000CC7020070B50C4E0C004FF0D0
:10844000000530600BD0012000F06AF808B102206E
:1084500004E0002000F064F800B10B202070706888
:1084600010B9FEF7D6FB0546284670BD4430002003
:1084700010B5002000F0DCF908B1062806D1012073
:1084800000F0D6F908B1062800D1002010BD000088
:108490002DE9F0470D468146FFF7BCFF044604284E
:1084A00036D2DFF874801B481C4EA8F10C0725B3A8
:1084B000012D0ED0022D2BD104EB44003044457821
:1084C000002D25D0B968002922D02846BDE8F04704
:1084D000084704EB4401755C0E44717849B10E4ABB
:1084E0004FF40041093A8068FEF7B4FC08B987F8F8
:1084F0000390B17808F80410E2E78068FEF7EEFC1C
:1085000004EB4401314418F804008D78A842D7D018
:10851000BDE8F08710C7020040300020E0360020A0
:10852000042801D2FFF7F8BE00207047014610482A
:1085300010B54088042907D007290ED00A2915D183
:10854000BDE8104003F020BC132176DF0CE00028CA
:108550000CD0BDE81040FEF70BBCA0F57F41FF3901
:1085600004D10448FFF702F80828F0D110BD00003C
:10857000083000204834002070B50023042810D2B1
:108580000D4D00EB4004012A02D101290CD000223C
:10859000094E00EB4000304461B1012906D00229A8
:1085A00006D00723184670BD0E30C2B22A55F9E72F
:1085B0004270F7E78270F5E7E0360020044A014692
:1085C00000201279D20702D0084600F04DB870475B
:1085D0003430002070B506461E480024C0E9016111
:1085E000B00720D50025012211462846FFF7C4FF19
:1085F0006D1C0446042D02D2002CF4D013E094B973
:1086000040F2666204211448FEF734FB04000AD1EC
:10861000FEF71EFB040006D10F48104A0021001F80
:10862000FEF7DAFB0446F00712D00120FFF784FEC4
:1086300074B909480A4A00210C38FEF7CDFB040042
:1086400006D10548074A01210838FEF7C5FB044654
:10865000204670BD343000201CC70200FD88020097
:1086600071920200496C02002DE9F05F6E4C0546E4
:1086700000266078B34618B184F801B000F0E0FD40
:108680006A4F4FF47A694FF4C87A4FF00108182DF9
:1086900069D2DFE805F00C1313384754696E727B1A
:1086A000727BC58484848484B3B6B9BCC5C500F02C
:1086B000C7FD3868FEF712FC06465CE00020FFF7B5
:1086C00087FE00284FF0000008D0FFF771FE022D52
:1086D00002D14FF4E16008E0484606E0FFF770FE83
:1086E000022D01D1C82000E05046410CC0034FF4D8
:1086F000FA72801841F10001257052000023FDF745
:108700000FFE01462AE00020FFF762FE00284FF02E
:10871000000004D0FFF74CFE4FF44870E5E7FFF788
:108720004FFEDFE70020FFF753FE00284FF0000068
:1087300002D0FFF73DFECFE7FFF742FED4E700206F
:10874000FFF746FE00284FF0000002D0FFF730FE92
:1087500001E0FFF735FE257041F69A1100223868D6
:10876000FEF778FB064646E00020FFF70FFE257077
:1087700008E0002051E025703DE084F801800120F0
:10878000FFF704FE002240F6CD41E8E784F80180BF
:108790000120FFF7FBFD00224FF48041DFE77868FE
:1087A000FEF79CFB0646D5F1110000D02EB1022049
:1087B000FFF7FEFD84F802B01DE0012816D980B253
:1087C000C8214843C117C90341EA5041C0034FF4CF
:1087D000FA72801841F1000152000023FDF7A0FD5C
:1087E000014600227868FEF735FB06460220FFF7B7
:1087F000E7FD84F802803046BDE8F09F00F020FDE0
:10880000B9E700F01DFDB4E700F01AFD04E000F048
:1088100017FD0020FFF7D4FD0120FFF7D1FDAAE7E7
:10882000FFF7EFFDA7E700003430002010C702007B
:10883000012103F040BF00002DE9F8430546861CE6
:1088400000208DF8000090460F464FF00109684661
:10885000FEF7EAFB1B4C20683860D4E90001401A9F
:10886000A16804F21C47081A0EE00121384601F005
:1088700016F800F08FFD0146384601F010F8D4E9F3
:108880000001401AA168081A401C8642EDD8B8F1D0
:10889000000F03D0052065F3891002E0062065F380
:1088A0009F50A2682168114004EB8101C8602068D4
:1088B000304420609DF80000FEF7DAFB4846BDE832
:1088C000F8830000903B002030B482680468531C99
:1088D0008360A154D0E901128A4202D330BC01F076
:1088E000FCBA30BC70470000034803C8814201D184
:1088F0000120704700207047903B00200078022143
:10890000FFF7C6BD05494FF0FF32082841F8202087
:1089100002D3084480F8482070470000E837002060
:10892000F0B54FF0FF3512B10023082601E008230F
:108930000C260C4C05E000BF54F823707F1C04D0BB
:108940005B1CB342F8D32846F0BD26185DB286F80A
:10895000305044F82310002AF5D1E11881F848007E
:10896000F1E70000E83700200249084490F93000A0
:1089700070470000E83700202DE9F04381468878F1
:1089800091B090460C4600B901208DF83E00208839
:10899000ADF83C0000250095607C694603F09EF927
:1089A0006E46A07C711C03F099F9E07B00289DF8CD
:1089B000020002D040F0080001E020F008008DF82D
:1089C0000200217C11B140F0100001E020F0100005
:1089D0008DF80200217B11B140F0010001E020F090
:1089E00001008DF80200217D09B1022100E0012182
:1089F00061F342008DF802001C2102A8FDF7EDFC96
:108A0000607BC10601D4800617D50E950EAFE07CC1
:108A1000791C03F063F99DF83800079720F00F00E8
:108A2000401C20F0F00010308DF838009DF83A001E
:108A300020F00600801C8DF83A00607B8DF808005D
:108A4000A07B8DF80900142109A8FDF7C6FC0FA82A
:108A5000CDE90906A088ADF83000A06820B1E08813
:108A6000ADF82C00A0680D90A06998B3019500881E
:108A7000ADF81000A06901AD01A94088ADF8120061
:108A8000A069406806950390A069007B03F026F971
:108A9000A069691C407B03F021F9A069807A002855
:108AA0009DF8060002D040F0080001E020F0080028
:108AB0008DF80600A169C97A11B140F0100001E0FB
:108AC00020F010008DF80600A169097A19B140F074
:108AD000010002E00DE020F001008DF80600A16920
:108AE000897B09B1022100E0012161F342008DF888
:108AF0000600E06900B10590434609AA02A948466C
:108B0000AADF11B0BDE8F08370B5084C050009D0AC
:108B100010342168002907D0086820604968284679
:108B20008847F6E70834F4E770BD0000D43700202A
:108B3000054A012120B1012805D19170FFF7E4BF5A
:108B400051700020FAE77047D43700202DE9F05F1C
:108B500026484168F1B3DFF898B00E688146DBF82B
:108B6000004087688078E11B21F07F45ED1CB0B99B
:108B7000DFF880804FF48030C8F84403C8F804035D
:108B80001120FDF745FD1120FDF74DFD4FF0010AC5
:108B9000C8F800A02F2002F087F989F802A0B5429A
:108BA00000D23546124BE8193C3320F07F40186064
:108BB000DBF800105A46091B21F07F41001B20F012
:108BC0007F40C91C81420FD9106818602F2002F025
:108BD0006BF900E004E0BDE8F05F1120FDF72EBD69
:108BE000BDE8F05F02F052BFBDE8F09F903000207A
:108BF000041501400010014073B58CB006460020FA
:108C000000900D9880B100246D4621460DA800F01B
:108C10002BFE30B1009805EB400084800098401C8A
:108C20000090641C142CF0D32C2269463046FDF7CA
:108C3000BBFB0EB070BD2DE9F04117880646B81D8C
:108C400014460D46984202D90C20BDE8F0813188C7
:108C5000072206290AD34FF4486C4FF6FF7361458B
:108C600001D9994202D17088062801D21046ECE75A
:108C7000604501D99842F9D1994203D0984201D078
:108C80008142F3D80520E85520881221401C80B28B
:108C9000208029542088401C80B2208041193088CF
:108CA00003F0D8FB2188084480B2208041197088E5
:108CB00003F0D0FB2188084420800020C5E7FEF7A0
:108CC00057B8000038B54A7A0F4B62B100220A72D9
:108CD0005969002906D001228DF80020ADF8020064
:108CE0006846884738BD0A7A62B19B684C6802467C
:108CF00019462046FEF7AEF80028F3D0BDE838400C
:108D000002F078BF5B68F1E74037002070B588B0AB
:108D10000646002005900690ADF81410ADF8161028
:108D20000190029001AA05A9304690DF050021D0EC
:108D300002F05EF80346114811493246401AC10854
:108D4000012000EB014004460E4901F058FCBDF83B
:108D5000042012B9BDF8060028B1BDF8063020463F
:108D600009A101F04CFCBDF808201AB120461649B3
:108D700001F03EFC08B0284670BD000010D3020090
:108D800010D30200C4CA0200546865207265717570
:108D900065737465642054582F5258207061636B5A
:108DA0006574206C656E67746820697320746F6FDA
:108DB000206C6F6E672062792025752F2575206FD6
:108DC00063746574732E000010CB02002DE9F04728
:108DD0000025DFF88C803CE06068002100EBC506D0
:108DE000012032789146FDF7CCFAD4E9062300EA57
:108DF000020701EA030C57EA0C0728D082438B4391
:108E00004846C4E9062302F011F9327882469146B9
:108E100001200021FDF7B5FAD4E9042300EA020499
:108E200001EA03074A4650460021FDF7AAFA4440EA
:108E30004F403C430BD17078012801D0012100E064
:108E40000021726881EA0A010AB1484690476D1C08
:108E5000EDB298F8000044468542BDD3BDE8F087E6
:108E60007030002030B40446132176DF03000BD0AD
:108E7000064807492246401AC008022101EB00407B
:108E800030BC044901F0BBBB30BC704758D3020072
:108E900010D3020080CA020010B50021024800F081
:108EA0000FFD80F3100010BDAC3F002070470000A4
:108EB0000E4910B50A784C780023A24212D0521CF9
:108EC000D2B20A70022A00D10B70084A0B780C3219
:108ED00052F8232002608868104420F07F408860A8
:108EE000012010BD0360002010BD00009030002064
:108EF000826883881A4003689A5C0A708168491CFA
:108F000081607047C26883881A4003689954C168B9
:108F1000491CC160704770B50D460446B0F8381260
:108F2000D0F834020122FEF72AFA00B1057004F1EC
:108F30003C0204F50D7104F1540072DF70BDF7B509
:108F400017460E0011D00098002560B1002421467C
:108F5000684600F089FC18B1A0B23946B0476D1CD4
:108F6000641C142CF3D32846FEBD0020FEBD10B5B2
:108F70000446C0B2FEF72EF8204610BD0C484A88C1
:108F800043889A4213D10A88A2F52063773B0ED119
:108F90008988C91E8AB28280064807491346401A4A
:108FA000C008032101EB004004A101F028BB704779
:108FB0000830002058D3020010D3020044617461CD
:108FC000206C656E2069732073657420746F203087
:108FD000782558282564290010B50949094800F06A
:108FE000F0FC08B1FDF7C4FEF721064800F0DDFCF7
:108FF000002803D0BDE81040FDF7BABE10BD000048
:109000007D8F0200283400202DE9F0418046024681
:1090100001200021FDF7B5F91A4F05460E46786884
:10902000FDF75CFF00280CD1174CD4E9062110464F
:109030002A4001EA06031A4305D0A843B143C4E914
:109040000601BDE8F081404601F0F0FF30B1D4E9FF
:10905000040128433143C4E9040105E0D4E90410C4
:10906000A943B043C4E90410D4E9060128433143BD
:10907000C4E90601A1687868BDE8F0410022FDF767
:10908000E9BE000070C702007030002001460348AE
:1090900002888A4200D00020704700002C37002050
:1090A0002DE9FC5F0E008346DDE90C47C6F10000A8
:1090B00098469246814600D40846012503E000BF49
:1090C00090FBFAF06D1C5045FADAA84500D94546E8
:1090D00024B1002E01DB780700D5641EB80702D545
:1090E000B8F1000F0AD0F80708D13CB1A54205D26B
:1090F00020215846641EFFF7E7FBF6E7002E02DA50
:109100004E462D2102E0780703D52B215846FFF764
:10911000DBFB07F0030002280BD1B8F1000F08D1E8
:109120003CB1A54205D230215846641EFFF7CCFB66
:10913000F6E7CDE90047434652463146584603F02C
:109140008FF9BDE8FC9F000070B50D46044600682D
:109150004FF4887101F06CFE4FF49071206801F0BB
:1091600067FE4FF49271206801F062FE4FF4A27125
:10917000206801F05DFE20681249C0F804132068E1
:10918000690740F30730090E002806DA00F00F00E7
:1091900000F1E02080F8141D03E000F1E02080F8E9
:1091A00000142068012140F3073000F01F029140B5
:1091B0004009800000F1E020C0F88012C0F80011E2
:1091C00070BD000010030200024600201268530721
:1091D00013D502F00300012802D002280CD105E0CB
:1091E000C2F383100B68801C184404E00223086853
:1091F00003EB92521044086001207047F0B5848858
:10920000A518944200D82246A41AC288D6189A42B9
:1092100000D81346D21A4B880788BB420CD340882B
:10922000834209D88888A04206D3A84204D8C888B7
:10923000904201D3B04201D90020F0BD0120F0BD21
:109240000A4810B5807860B1002401E0022C06D0F5
:109250002046FFF7ADF8641C042CF7D310BD03249F
:10926000F6E7BDE81040FFF7C3B800003430002037
:1092700003480179C90702D00078FFF7F5B97047B4
:1092800034300020F7210180172141800021017135
:109290004171FB2181711B21C17170472DE9F0479C
:1092A000394E002780463D46DFF8E090D6F804A00E
:1092B00057E003D00446D0F81C8035E099F8002030
:1092C00002EB4201521CD2B289F8002009EBC10125
:1092D00099F80230091D9A4201D189F80050486876
:1092E0000A780446012A12D0022A02D0032A3BD16E
:1092F00008E002F039FE00B10127257434E005745E
:10930000C06900E070680028F9D170602CE0207C12
:1093100050BB88686060C868A0600869E060486900
:10932000A061F07800B165606268B168184B501AAE
:1093300020F07F40984202D2A168084406E0881AD3
:10934000A16820F07F40814202D9081A206000E025
:10935000256065600120A56020742046E56102F06B
:10936000E5FDB8F10000A4D199F8001099F80100CA
:109370008142A3D117B97168514502D00120BDE8DF
:10938000F0870020FBE7000090300020B438002078
:10939000FFFF7F002DE9FF410026234800F07CFA03
:1093A0002148001F074600F077FA204C60680090C3
:1093B000A56800E000986946284004EB80000C3066
:1093C000FFF702FF0028F5D101AA009901EA050381
:1093D00004EB8303491CDB6842F82030401C0091F9
:1093E0000228F2D3019800F0030001280BD00228D4
:1093F00010D10198032101EB90500099BDF80A604B
:1094000001EB900005E00198BDF80A60C0F38310FD
:1094100008440090384600F03CFA08B100986060BB
:1094200004B03046BDE8F081A83F0020903B00200A
:10943000ACB0FEF751FA08B1FDF79AFC1822744956
:109440006846FCF7B1FF7348069073494FF480708B
:10945000CDE9070109900723704A06A96846FDF780
:1094600067FD08B1FDF784FC4FF40041002001F0D6
:1094700025F908B1FDF77CFC00F090FFFDF7C0FC7A
:1094800008B1FDF775FC66490320FFF7A3F808B1A2
:10949000FDF76EFC01A90020FEF7CEFF08B1FDF735
:1094A00067FC01F021FA08B1FDF762FC01F0ECFB6A
:1094B00008B1FDF75DFC002401A90120019401F031
:1094C00081FA08B1FDF754FC01A801F015FB08B1C1
:1094D000FDF74EFC9DF80C0052A120F00F00401C3F
:1094E00020F0F00010308DF80C000B2203A87CDF78
:1094F00008B1FDF73DFC00941020ADF800003C20C1
:109500000194ADF80200ADF804404FF4C870ADF816
:10951000060068467ADF08B1FDF72AFCFFF75CFD1C
:109520004348039003A90194424800F00EFB08B1A0
:10953000FDF71EFC4048029002A94048FEF73AFEA3
:1095400008B1FDF715FC3E48019001A8FEF72AFA84
:1095500008B1FDF70DFCAC216846FCF73EFF022088
:109560008DF800008DF8024005208DF803000120E1
:10957000ADF84C0031498DF87C004020891F2290C5
:10958000149144F2506023902E482990294869464E
:109590000C30FDF723FF08B1FDF7EAFB2548012158
:1095A0000C30FDF718FF1C216846FCF716FF4FF43E
:1095B0002030CDE900404FF4702002902248059001
:1095C000032522488DF80C500690ADF80E408DF81A
:1095D00010406846FEF7FEF808B1FDF7C9FB1CA075
:1095E000FDF7DCFA1F482049401AC00805EB00408F
:1095F0001EA100F0F9FF0F4803210C30FDF7D3FF47
:1096000008B1FDF7B5FB00F0D7FE01F081F9FAE7EC
:10961000F0C602002832002028330020C1C002001A
:109620002D8502004E6F726469635F55415254008C
:1096300091A902003C340020D1B502001430002072
:10964000617C020069B602008DB60200BF8C020088
:109650000D0A5541525420737461727465642E0D65
:109660000A00000058D3020010D30200446562755E
:1096700067206C6F6767696E6720666F722055415F
:109680005254206F76657220525454207374617264
:109690007465642E0000000070B5144682880E4682
:1096A00005462088111D0144921C994201D8FE2ACA
:1096B00001D90C2070BD521C32542088FF21401C5F
:1096C00080B2208031542088401C80B220808119D3
:1096D000288802F0BFFE2188084480B22080AA8832
:1096E00042B1A96841B13044FCF75EFE2088A988E8
:1096F00008442080002070BD072070BD2DE9F04790
:10970000C5881E1DB6FBF5F78946B6FBF5F1044684
:1097100005FB176C407916686843DDF820A0F71840
:10972000001F874200D9C61A166001E02468491E4E
:109730000029FBD1A5EB0C078846B74216D818E0E4
:1097400004EB0C00001D09EB0803BAF1000F3A46C8
:1097500002D00146184600E01946FCF725FE2468B1
:10976000F61B4FF0000CB844B54201D9374600E073
:109770002F46002EE4D1BDE8F087000030B5024648
:1097800051B100F0B9FF0021074C08E034F8213056
:109790001568AB4202D11160002030BD491C8142E6
:1097A000F4D3052030BD000000000000F8B50F46DE
:1097B000017814460546012901D1687830B1208826
:1097C000821C9A4232D8012902D006E00720F8BD57
:1097D00069780144891C994228D8181A801E86B2DB
:1097E000ADF800602188B81C084469467DDF002878
:1097F000EDD12978022904D06878BDF80020904284
:1098000005D3BDF80000B04201D809200AE00820C5
:10981000012905D16978B14202D8ADF8001001E004
:10982000ADF80060BDF80010FE2901D90C20F8BD8C
:109830002288491CB9542188491C89B22180785456
:109840002088401C2080BDF80010084420800020A3
:10985000F8BD01F01F0301229A40D243490900EBF1
:109860008100114600F021B84A0950F8220001F0A9
:109870001F0201219140084000D00120704701F0F3
:109880001F0301229A40490900EB8100114600F0B4
:109890001CB8002100F00FB8012100F016B808B57F
:1098A0006A46FCF7ECFC009808BD08B56A46FCF770
:1098B000CCFC009808BD08B56A46FCF7C6FC08BD9C
:1098C00008B56A46FCF7A8FC08BD08B56A46FCF76F
:1098D000AFFC009808BD08B56A46FCF7DDFC0098AF
:1098E00008BD38B5044600258DF800506846FDF7E0
:1098F0009BFB21686268086890420ED9401E086090
:109900000178238AE26801FB0325227A2168101A74
:10991000C0B20A79824200D208719DF80000FDF7BA
:10992000A7FB284638BD38B5054600208DF8000055
:109930000C466846FDF778FBE868298A201AB0FBD8
:10994000F1F12A681068431C136001709DF8000053
:10995000FDF78EFB38BD10B530B1017A426803685F
:10996000891AC9B21A6006E00E2010BD03681A6891
:10997000541C1C601170491EC9B2F7D20068002146
:109980000171084610BDC20800F007030120895C80
:1099900098400840704710B5C20800F00703885C83
:1099A00001249C402043885410BD28B1A1F1170226
:1099B000E12A03D3072070470E2070470180002062
:1099C000704710B560B10161F72120F8021B20F843
:1099D000021BFB2100F8021BFFF754FC002010BD06
:1099E0000E2010BDF0B5858893B00C46002D39D1FE
:1099F000018800263F4F24293BD006DC102909D0DE
:109A000011290CD0232958D14FE03A290BD05529E0
:109A100053D129E00146204601F07CFE4DE0A01D17
:109A2000FFF730FC49E02246408934F8061F8142A6
:109A300000D808466080172800D21720608010697F
:109A400070B1607960B1D7E90001CDE90301ADF8EB
:109A50000E506088ADF81000136903A910469847AE
:109A60006671267113B0F0BD0146204601F0A6FED6
:109A700023E0011D2C2206A8FCF796FCBDF8180077
:109A8000BDF81C2004EBC0014A732269AAB1D7E9D2
:109A90000423CDE90423ADF81200487B8DF81400AF
:109AA0002269204604A9904707E0017A207B88427A
:109AB00000D201462846FFF729F9A07A0028D1D024
:109AC000E1882846A5DF012580B11128CAD001F020
:109AD0008FF902460848094913B0401AC00805EB3F
:109AE0000040BDE8F04006A100F082BDA672E5721C
:109AF000B8E700003CC7020010D3020010D30200F8
:109B000073645F626C655F67617474635F657863DB
:109B100068616E67655F6D74755F72657175657399
:109B20007428292072657475726E65642025732E01
:109B30000000000020B10278DE2A03D00820704720
:109B40000E20704741800020704760B159B1027803
:109B5000DE2A0AD009684160DE2101704FF6FF71EC
:109B60004180002070470E207047082070477FB565
:109B7000054600294DD0002D4BD008780C46DE2834
:109B800047D1A8886188884202D1204602F002FDB0
:109B90002888012825D002283BD011283AD0512806
:109BA00037D135F8040F6188884232D1A978A81CD2
:109BB00002292ED1017A042903D0062901D00529D2
:109BC00027D10021009102228DF8002001914FF44D
:109BD000C07202910391ADF80420007A05280FD0DD
:109BE00010E0297A2046012913D1A98842889142A0
:109BF0000FD10121017204B0BDE8704002F0CABC6F
:109C0000ADF8041028886946B0DF002801D06168EB
:109C100088477FBDA88861888842FAD14FF6FF70D7
:109C200060807FBD00F180400068002800D00120E6
:109C3000704708B500F18040002101600068009085
:109C400008BD000070B54FF0102569691048114B30
:109C50000122181AC00802EB0044491C12D06A699C
:109C6000032101EB00400CA100F0C2FC686913DF86
:109C7000050005D0204613A100F0B6FC284670BDB3
:109C8000002070BD20461CA100F0AEFC042070BD79
:109C900010D3020058D3020053657474696E6720B4
:109CA000766563746F72207461626C6520746F20D6
:109CB000626F6F746C6F616465723A203078253022
:109CC000387800004661696C65642072756E6E6953
:109CD0006E672073645F736F66746465766963652D
:109CE0005F766563746F725F7461626C655F6261F9
:109CF00073655F73657400004E6F20626F6F746CE4
:109D00006F616465722077617320666F756E6400A1
:109D100070B50C480C490D4A401AC508032000EBE9
:109D200005400BA100F064FC084813DF040007D0D5
:109D3000012000EB054011A100F056FC204670BD4B
:109D4000002070BD58D3020010D302000060020052
:109D500053657474696E6720766563746F722074DE
:109D600061626C6520746F206D61696E2061707036
:109D70003A20307825303878000000004661696C60
:109D800065642072756E6E696E672073645F736FB1
:109D900066746465766963655F766563746F725F28
:109DA0007461626C655F626173655F736574000006
:109DB00070B50B4C207808B185250FE00020A0601D
:109DC00060602061E060074801F050F8054600F04F
:109DD000A7FF08B901F032F801202070284670BDB5
:109DE000D4370020318B020038B500258DF80050A3
:109DF0006846FDF719F9074CE068401EE060E0682E
:109E000010B901F043F8A5709DF80000FDF730F996
:109E100038BD0000D4370020F0B505460478154859
:109E200089B0164640F82420124A0869121DA2F192
:109E3000080742F82400487F385520226846FCF77E
:109E4000B3FA04942878385C48B10EB10A4A00E0AD
:109E500000226946281D01F0ADFA09B0F0BD0EB12F
:109E6000064A00E00022694605F10C0001F058F9AD
:109E7000F3E700005830002031C30200D9C10200CE
:109E800030B40378054CE35C1BB130BC001D01F01D
:109E9000C7BA30BC0C3001F0ADB90000543000201E
:109EA00030B40378054CE35C1BB130BC001D01F0FD
:109EB00039BB30BC0C3001F013BA00005430002024
:109EC0000FB408B50399002904D004AA00926A4689
:109ED00000F00FF801B05DF814FB10B5826804467D
:109EE000002A05D0D4E90403216898470020A06027
:109EF00010BD2DE9FC4791460C00804676D014F841
:109F0000011B39B125290ED04046FEF7DDFC207833
:109F10000028F4D198F80C00002867D04046BDE82E
:109F2000FC47FFF7DABF0020012221782B291BD044
:109F30002D2902D0302908D102E040F0010001E0D3
:109F400040F00200641C002AEFD100252A290ED01F
:109F50002178A1F130020A2A11D205EB850201EB2A
:109F60004205641C303DF1E740F00400EAE7D9F80F
:109F700000100B1DC9F800300968641C0D442178DD
:109F800000232E290BD114F8011FA1F130020A2A57
:109F900005D203EB830201EB4203303BF3E76C296C
:109FA0000DD068290BD0692921D00BDC252918D0C8
:109FB000582931D063290ED0642915D117E014F83F
:109FC000011FECE7702969D0732932D075291BD0A5
:109FD000782909D120E0D9F80000011DC9F8001046
:109FE00001784046FEF770FC641C90E76CE0D9F8FD
:109FF00000100A1DC9F800200968CDE900500A22A6
:10A000004046FFF74DF8EFE7D9F800100A1DC9F8F0
:10A01000002009680A2206E0D9F800100A1DC9F8D4
:10A02000002009681022CDE90050404602F018FADD
:10A03000DAE7D9F8001000270A1DC9F800200E68D9
:10A04000C00705D112E04046761C7F1CFEF73CFCA1
:10A0500031780029F7D104E0202140466D1EFEF73B
:10A0600033FCBD42C0D9002DF6D1BDE74EB130461C
:10A07000FCF7BEF9074604E0202140466D1EFEF7BE
:10A0800023FCBD4206D9002DF6D103E04046761CE4
:10A09000FEF71AFC31780029F8D1A5E7D9F80000BD
:10A0A000011DC9F80010056830214046FEF70CFC80
:10A0B00078214046FEF708FC08200021CDE9000188
:10A0C000034610222946B0E7BDE8FC8770B541EA97
:10A0D0004201DDE904564FF0A04441EA830141EA20
:10A0E000052104EB800041EA0641C0F8001770BD6D
:10A0F00070B541EA4201DDE904564FF0A04441EA5F
:10A10000830141EA052104EB800041EA0641C0F8E1
:10A11000001770BD70B541EA4201DDE904564FF009
:10A12000A04441EA830141EA052104EB800041EAB1
:10A130000641C0F8001770BD70B541EA4201DDE983
:10A1400004564FF0A04441EA830141EA052104EBA3
:10A15000800041EA0641C0F8001770BD1CB500221E
:10A160000B46009211460192FFF7D4FF1CBD1CB5AF
:10A1700000220B46009211460192FFF7DDFF1CBD45
:10A180001CB5002100910B46012201911146FFF7F9
:10A19000C1FF1CBD1CB5002100910B46012201919D
:10A1A0001146FFF7C9FF1CBD4FF0A04202EB800033
:10A1B000D0F8002722F44032C0F80027D0F800275A
:10A1C00042EA0141C0F80017704701224FF0A04356
:10A1D000824011B1C3F808257047C3F80C257047B9
:10A1E00018B5084B6C4601441B68009306E000BF9D
:10A1F00054F82030D3F81035401C08C28142F7D8FB
:10A2000018BD000064C70200034908B508440021D6
:10A2100001600068009008BD00600040024940589D
:10A22000012800D0002070470060004030B5154A7A
:10A2300001460020D2F8104423460AE0DB681D796D
:10A24000854205D1401C0A28F6DB4FF0FF3030BDB7
:10A250001B68002BF2D1431CF9D0CB681871D2F8DF
:10A26000103443B1DB68CC681B682360D2F810243B
:10A27000D268116030BDC2F81014C96800220A60AB
:10A2800030BD0000903B00207047FCF731BA7047AA
:10A2900008B5034A00924023024A00F005F808BDC1
:10A2A00005BC0200F8390020F0B595B01C461546F3
:10A2B0000E4608461A9F00F0F1FA182109A8FCF78B
:10A2C0008CF80E97CDE909540023082203A93046E3
:10A2D00000F0F9FA05980690BDF81000ADF81C00E2
:10A2E000BDF81200ADF81E0000208DF82100039982
:10A2F000082501F00300012802D0022816D02FE023
:10A30000C1F3C200C1F383178C0A8DF82000BA0094
:10A310002B460FA9304600F0D6FA09A8009006ABEC
:10A320003A460FA9204600F015FA19E0C1F3C20021
:10A330008C0D8DF82000082C01D2274600E008275C
:10A340002B463A460FA9304600F0BDFA3D44E41BC7
:10A3500009AB06AA39460FA800F05AF9002CEAD139
:10A36000304600F0A1FA15B0F0BD00000A4A0129FC
:10A3700002EBC00007D0022907D0032907D0042927
:10A3800007D00020704702207047042070470079F2
:10A39000704740797047000010D3020010B5FFF7F6
:10A3A00074FF04210348FFF741FF02490120C968F7
:10A3B000487110BD00D302002DE9F04F8DB0FEF7BB
:10A3C00093FA18B100200DB0BDE8F08F7D4C4FF02E
:10A3D000000BC4F818B4BFF34F8F60680290A568F3
:10A3E000D846284004EB80000CE000BFD4F81804E5
:10A3F00070B921680298814201D86160E2E7284083
:10A4000004EB80000C3002A9FEF7DEFE0028EDD13F
:10A41000002009AA029901EA050304EB8303491C01
:10A42000DB6842F82030401C02910228F2D30998E0
:10A4300000F00301022902D001294DD0A8E0810DCE
:10A4400050228946B2EB905F00D850210F4667F347
:10A450009F50099008315C4800F0D7F9060077D08A
:10A4600000F01CFA4346082209A9304600F033FAEE
:10A47000029908F1080A2940681A8000001D8742E5
:10A4800023D9504D0C3530B1C2B204EB8101381ADA
:10A4900090460C3104E02946FAB200259046284641
:10A4A000C7B25346304600F016FA0AEB08032DB146
:10A4B0003A4629464FEA060000F00DFA029909F1E2
:10A4C000030001EB9000029039E004EB8101534658
:10A4D0003A4630460C31EFE7C0F38311062900D32A
:10A4E000062161F389100990C0F38310801C81005C
:10A4F000354800F08AF906004AD000F0CFF943460B
:10A50000082209A9304600F0E6F908F108080027FA
:10A510000FE00298434600EA0501401C04EB81016C
:10A520000290042230460C3100F0D5F908F10408FD
:10A530007F1C0998C0F38310B842EAD846B1D4F81A
:10A540001054D4F8180478B1304600F0ADF934E076
:10A550001EE0E8684079012804D12A68284631467F
:10A5600012689047E8680568002DF2D1304600F087
:10A570009BF98DF800B06846FCF756FDD4F8180436
:10A5800008B9029860609DF80000FCF771FD14E0C6
:10A59000D4F8104405E02168204689688847E068BF
:10A5A0000468002CF7D109480949401AC008022163
:10A5B00001EB004007A100F017F8FEF795F980F0D5
:10A5C000010000E7903B002078D3020058D302003E
:10A5D00010D302004261636B656E647320666C7514
:10A5E000736865640000000000231A4601F018BC7F
:10A5F00008B5012300926A4601F012FC08BD1CB5A3
:10A60000CDE9002302236A4601F00AFC1CBD0000CC
:10A610002DE9F0470E4680461C46924608293ED852
:10A6200094F80C90002020731946104601F0D6F9DA
:10A630000025B54206D218F805201AA12046FFF7DA
:10A640003FFC03E019A12046FFF73AFC6D1C082DE2
:10A65000EFD317A12046FFF733FC0025B54210D2F7
:10A6600018F80570FBF79CFE0068C05D10F03E0F07
:10A6700001D03A4600E02E220EA12046FFF720FC32
:10A6800003E00DA12046FFF71BFC6D1C082DE5D350
:10A6900001222146504601F083F984F80C90BDE870
:10A6A000F0870000202530327800000020202000B4
:10A6B0007C00000025630000200000000B4810B55E
:10A6C000FF218160002101604160C0F81814C0F8CA
:10A6D000141480F82014064800F0E4F8002803D190
:10A6E000044800F057F9002010BD0000903B002006
:10A6F00078D3020038C9020002480349401AC00852
:10A700007047000078D3020010D3020013B56846EA
:10A71000FFF734F808B100201CBD0248009950F83A
:10A7200031001CBD10D3020070B509480125D0F8D6
:10A73000104480F8205407E0E06845712168204605
:10A7400049688847E0680468002CF5D170BD0000B6
:10A75000903B00202DE9FF4781460C9D00200C46D0
:10A760002F7B2873984616462946184601F036F97D
:10A77000072E42D2DFE806F004090F161F2A360022
:10A7800049462846FFF79CFB37E0494628462268A1
:10A79000FFF796FB31E0D4E9002349462846FFF74E
:10A7A0008FFB2AE0A0680090D4E9002349462846A0
:10A7B000FFF786FB21E0D4E90201CDE90001D4E9ED
:10A7C000002349462846FFF77BFB16E004F108000A
:10A7D00007C88DE80700D4E9002349462846FFF75B
:10A7E0006FFB0AE004F108000FC88DE80F00D4E900
:10A7F000002349462846FFF763FB002229464046CE
:10A8000001F0CEF82F73BDE8FF872DE9F041058AEE
:10A8100080462D1F4819C01CB0FBF5F0C6B240465B
:10A82000FFF75FF8041E19D000202071012060712D
:10A83000E58000272546761EC4F800800BE04046E0
:10A84000FFF74FF860B16179491C617128600546D6
:10A850007F1CC0F80080B742F1D32046BDE8F081EC
:10A86000204600F002F80020F8E72DE9F041457994
:10A8700001466B1E002201E00968521C9A42FBD37C
:10A880000F680146002605E038460C68FFF74BF8D4
:10A890002146761CAE42F7D3BDE8F0810121001DB0
:10A8A000FEF7FDBFFFF757B810B504460121001DA4
:10A8B000FFF711F810F0FF0F04D12046BDE810405B
:10A8C000FFF7D3BF10BD1CB501920122009201AA6F
:10A8D000FEF714FF1CBD1CB501920022009201AAD4
:10A8E000FEF70CFF1CBD0000064910B500204870A3
:10A8F000091D0860BFF35F8F0349044800F034FA74
:10A90000002010BDC0300020D0C70200EC3900206C
:10A9100008B500208DF800006846FCF785FBF1EED5
:10A92000100A20F09F00E1EE100ABFF35F8F084984
:10A930004020C1F880029DF80000FCF799FB00F070
:10A94000EFF908B141DF08BD20BF40BF20BF08BDFF
:10A9500004E000E070B504460C480121FEF7B0FFAA
:10A96000BFF35F8F0025002809D10120074E042C7A
:10A9700008D0311F4A781AB1BFF35F8F356070BDC0
:10A980000C70487001F0C2F9F6E70000C4300020F6
:10A99000FCF7EEB9826800219160826811618268DB
:10A9A00051618268D160826851608068016070473F
:10A9B00020B1034909680160002070470E207047EC
:10A9C000BCC902002DE9FE4307460E460846FFF7C4
:10A9D000EFFF00287DD100240094019406208DF81B
:10A9E00000704FF00108ADF8040002948DF8028069
:10A9F00069462020326869DF3749384A891AC90810
:10AA0000012202EB014530B100F0F2F9024628467E
:10AA10003349FFF7EDFD00948DF801808DF8024079
:10AA2000019402948DF8034069464020326869DF42
:10AA300030B100F0DDF9024628462A49FFF7D8FD7B
:10AA400000948DF80070F720ADF802000194029494
:10AA500069462320326869DF30B100F0C9F9024647
:10AA600028462149FFF7C4FD009402208DF800001C
:10AA70000194029469460120326869DF30B100F028
:10AA8000B7F9024628461949FFF7B2FD4FF4B06006
:10AA90000090019402946946A120326869DF30B1C8
:10AAA00000F0A6F9024628461149FFF7A1FD0094DF
:10AAB000019402948DF800406946A020326869DF55
:10AAC00030B100F095F9024628460A49FFF790FD9B
:10AAD0000020BDE8FE83000068D3020010D302000E
:10AAE000B0D00200F8D0020044D1020010D0020021
:10AAF0005CD00200BCCF02002DE9F041054607689A
:10AB000060DF804619491A482A68081AC608BA42FE
:10AB100019D9022000EB064416A12046FFF764FD78
:10AB200020463A461FA12B68FFF769FD4FF0805081
:10AB3000D0F80C012968800200F10050421A20462A
:10AB400025A1FFF755FDB8F100004FF001040AD030
:10AB500000F04EF9024604EB06402AA1FFF748FD3B
:10AB60004046BDE8F0812F480470F9E768D3020041
:10AB700010D30200496E73756666696369656E7409
:10AB80002052414D20616C6C6F6361746564206676
:10AB90006F722074686520536F66744465766963CC
:10ABA000652E00004368616E6765207468652052F9
:10ABB000414D207374617274206C6F636174696FAE
:10ABC0006E2066726F6D203078257820746F20308B
:10ABD0007825782E000000004D6178696D756D2034
:10ABE00052414D2073697A6520666F7220617070E2
:10ABF0006C69636174696F6E2069732030782578A1
:10AC00002E00000073645F626C655F656E61626C4C
:10AC10006528292072657475726E65642025732E0F
:10AC2000000000002B31002030B51548ADF5017D46
:10AC30000078002821D04FF4FA7500BFADF800521B
:10AC400080A9684661DF38B1052816D00DF5017D71
:10AC5000BDE83040FCF78CB86C460A497DA800F08E
:10AC600083F806E0D0E90021204690477DA800F057
:10AC700092F87F980028E1D0F4E70DF5017D30BD12
:10AC80002B310020C0C902007CB5194C207808B1D6
:10AC900008207CBD0120A070002000F07DFF11285D
:10ACA00019D0002000F090FF1248002600680190A3
:10ACB0008DF800606846FCF7B7F90F4901A810DF6E
:10ACC00005000AD0002020709DF80000FCF7D0F9A4
:10ACD0002DB128467CBD00207CBD0120F3E7A67085
:10ACE000667001F071F8012000F06EFFF3E70000DC
:10ACF0002831002054C90200ED6C02000EB507494E
:10AD0000684600F031F805E0D0E900108847684651
:10AD100000F041F802980028F6D10EBD70C902007B
:10AD20000148007870470000283100201FB56846B0
:10AD30004BDF30B1052814D004B0BDE81040FCF75B
:10AD400017B8084901A800F00FF806E0D0E9002183
:10AD50000098904701A800F01EF803980028E6D05C
:10AD6000F4E71FBDDCC90200016009684160AFF370
:10AD7000008010B5D0E900215368994201D100212B
:10AD800004E0D1E90034A34202D01946816010BD2D
:10AD900008314160F0E7816800290BD002689268B1
:10ADA0000A44826041684B689A4203D1083141608D
:10ADB000FFF7DFBF704700000C4A10B502F594732F
:10ADC0000EE0991AC91001EBD171491002EBC101D3
:10ADD0000C68844201D90B4602E005D201F1080259
:10ADE0009A42EED3002010BD486810BDF0C70200A3
:10ADF00000B5FFF7E1FF002800D1014800BD0000C9
:10AE0000DCC702004058002800D00120704708B578
:10AE1000002242504058009008BDD0F8040308407A
:10AE200000D0012070474058002800D00120704712
:10AE300008B5002242504058009008BD09480068FB
:10AE4000012110F0010F08D14FF0E020C02280F85E
:10AE50000024C0F88012C0F80011034901200860E6
:10AE60007047000000E100E0180500400649024676
:10AE700000200B790BB1852070470A6001220A710E
:10AE800000224A7170470000603000200449012010
:10AE9000086004480168C1F300410029FAD17047F5
:10AEA0000C00004018040040002802D00149800135
:10AEB0000847704781C702002DE9F04188460546E2
:10AEC00000F056FD234E002828461AD0FDF74CFD11
:10AED000304490F848008009032802D001280ED0A1
:10AEE00007E04FF0A040D0F81005E84010F0010F47
:10AEF00005D003212846BDE8F041FFF755B90221EE
:10AF0000F8E700F041FD002822D02846FDF72CFD8F
:10AF100004464FF4807000EB84000F4F81B207EBC2
:10AF20008400D0F8102542F00102C0F81025084630
:10AF3000FFF76AF9B8F1000F0AD02846FDF714FDB3
:10AF400056F82000002803D00120A040C7F80403D1
:10AF5000BDE8F081E8370020006000402DE9FC41A9
:10AF6000DFF8BC80044608EB0400002790F93000AD
:10AF70001346C0170E46401C01D008274CE0B0789D
:10AF80001946C0F340022046FDF7CAFC0546401CA6
:10AF900041D0B078410719D4C0070AD04FF0A04083
:10AFA00000EB8401D1F8000720F00200C1F800078F
:10AFB00007E000217378204600910A460191FFF7CF
:10AFC00097F8174920465431FEF7E5FCB078800722
:10AFD00018D51448317800EB8500D0F81025124BB5
:10AFE0001A40C0F810254FF4F8524FF4403302EAEB
:10AFF000042203EA01410A43D0F810150A43C0F8BD
:10B00000102509E008EB0500327810F8481F41EAE6
:10B010008211017000E004273846BDE8FC81000081
:10B02000E837002000600040FFE0FCFF4FF0A04147
:10B03000D1F81015C14011F0010000D00120704777
:10B0400070B5184D95F8580008B1082070BD002063
:10B05000411E2A18401CC0B282F830102028F8D3B4
:10B0600000242046FDF74EFC641CE4B20C2CF8D3FF
:10B0700000240D49C0206C6581F8000401264020A1
:10B08000891FC1F88002C1F800014FF4BE70FFF7BC
:10B09000BBF80649F007C1F8040385F8586020465C
:10B0A00070BD0000E837002006E000E000600040CE
:10B0B000034890F85800002800D001207047000095
:10B0C000E83700200121B1EB507F01D1012070470A
:10B0D0000020704738B50D4600F0CCFC040014D0B9
:10B0E00000208DF800006846FBF79EFF207928B10C
:10B0F0009DF80000FBF7BCFF112038BD0120256042
:10B1000020719DF80000FBF7B3FF002038BD000060
:10B110000149024801F078B844380020002000407E
:10B120002DE9F0410546007916460F4600EB400137
:10B130002D4A01EBC00102EB810494F82A1011B1F1
:10B140000820BDE8F081294951F820102868FFF750
:10B15000C1FF08B11120F4E739462846FBF7A2FFEA
:10B1600066603869206030004FF001062FD03F7FC5
:10B170004FF48E712868FFF74AFE4FF4A2712868D9
:10B18000FFF745FE28681A49C0F8041328684FEAFB
:10B19000471140F30730002806DA00F00F0000F1F5
:10B1A000E02080F8141D03E000F1E02080F8001496
:10B1B000286840F3073000F01F0206FA02F1400948
:10B1C000800000F1E020C0F88012C0F8001128686B
:10B1D0000421C0F800150020A061E06184F8290076
:10B1E00044F8140FA675ACE74438002068C7020085
:10B1F000800002002DE9F05F054600794FF40176EA
:10B2000000EB400303EBC000344B03EB8004002051
:10B21000636813B12B68C3F80863A3694FF0000992
:10B220006BB1E06938B1606810B12868C0F8046398
:10B230001120BDE8F09FE2610120216105E0C4F822
:10B240002490A261E160C4F81C9094F82910014395
:10B2500002D1284600F068FC60680028286803D006
:10B26000C0F804630020E4E74FF4A2763146FFF70C
:10B27000CEFDB2464FF4927B59462868FFF7C2FDD7
:10B2800006464FF484712868FFF7BCFD804651469E
:10B290002868FFF7B7FD074648EA07003043EBD0C0
:10B2A00056EA070007D12146286800F00DFCA16985
:10B2B000606A8142E0D8C4F818900EB10320B8E764
:10B2C0000FB10F20B5E794F8291001200029296853
:10B2D00001D00860C6E74860C4E700004438002099
:10B2E0002DE9F047054600790B4600EB400101EBE4
:10B2F000C000234901EB8004284600F043F810B158
:10B300001120BDE8F0874FF00008C4F82080A3604A
:10B31000626184F828804FF48E764746314628686B
:10B32000FFF775FD28684FF00109C0F80890214625
:10B33000286800F0A7FE606800BBD5F800A00EE00A
:10B3400094F8280008B10F2716E031465046FFF761
:10B3500059FD0028F4D02146504600F093FE216AA2
:10B3600060698142F1D331462868FFF74BFD002820
:10B37000F9D02868C0F80C90C4F814803846C0E7AB
:10B3800044380020007900EB400101EBC000044983
:10B3900001EB80004069002800D0012070470000C8
:10B3A000443800200149024800F0DABF703800201C
:10B3B000002000402DE9F0410546164600790F4671
:10B3C000154A00EBC00102EB810494F8201011B182
:10B3D0000820BDE8F081114951F820102868FFF7D6
:10B3E00079FE08B11120F4E739462846FBF79EFEA6
:10B3F0006660386920601EB1397F2846FDF7A4FEDB
:10B4000028680821C0F800150020A061E061012132
:10B41000606184F82010DCE7703800206CC70200FF
:10B420002DE9F05F044600790E4600EBC001DFF81D
:10B43000F0A017460AEB81053046FFF743FEB0B196
:10B4400068684FF000084FF4047910B12168C1F822
:10B450000893A8694FF0000B80B1E86948B16868AB
:10B4600010B12068C0F804931120BDE8F09F1020AF
:10B47000FBE7EF614FF001082E6102E0EE60C5E9E5
:10B48000067B00254FF488712068FFF7D1FC4FF44C
:10B49000A2712068FFF7CCFC2068C0F83465C0F8C2
:10B4A00038752068B8F1000F12D0D0F8001241F0C2
:10B4B0002001C0F800122079D04600EBC0010AEB51
:10B4C0008100406838B12068C0F804932846CCE772
:10B4D00001210160EFE74FF4887A4FF4A2795146D9
:10B4E0002068FFF7A0FC074649462068FFF79BFC51
:10B4F00006464FF492712068FFF795FC014647EA33
:10B5000006000843EBD0227902EBC20308EB83026A
:10B51000C2F818B001B10325002ED7D00F25D5E70A
:10B52000703800202DE9F04704460E460079204986
:10B5300000EBC00001EB800517463046FFF7C2FD67
:10B5400030B1204600F036F820B11120BDE8F08778
:10B550001020FBE76F61AE604FF490760027314614
:10B560002068FFF765FC4FF4AC7841462068FFF790
:10B570005FFC2068AA686969C0F84425C0F84815CE
:10B58000206801218160686878B9B1464946206821
:10B59000FFF749FC064641462068FFF744FC064396
:10B5A000F4D000B10F27002068613846CEE70000D4
:10B5B000703800200079054900EBC00001EB8000E5
:10B5C0004069002800D0012070470000703800203A
:10B5D0002DE9F04105460078002828D11548164984
:10B5E0000026401AC008012101EB004710E028693D
:10B5F000805DFBF7EFFC040009D0112CF7D0384632
:10B6000022460EA1FEF7F4FF2046FBF7B1FB761CA5
:10B61000A88AB042EBD8A98A2869084410F8010C1E
:10B620000D2804D10A20FBF7D5FC1128FAD0BDE87B
:10B63000F081000058D3020010D302004661696C0B
:10B64000656420726563656976696E67204E55533F
:10B65000206D6573736167652E204572726F72206D
:10B66000307825782E20000010B550B103280CD179
:10B670000220FCF7A3FF002807D0BDE81040FBF72D
:10B6800077BBBDE8104000F07FBB10BD00780028FC
:10B6900007D104483B21408876DF002801D0FBF722
:10B6A00067BB704708300020F0B58BB000260196CC
:10B6B0000D4604468988406901AAFBF77BFD0AA86C
:10B6C000CDE908600227ADF82070ADF82260218A2C
:10B6D000A88808AAADDF002819D1A069002816D0D3
:10B6E0000998FCF70EFE002811D0019E0EB1012032
:10B6F0003070182102A8FAF770FE8DF808700394D4
:10B70000A888ADF810000596A16902A888470BB07B
:10B71000F0BD000070B58D88027900EBC50422737E
:10B72000C97BA41D012902D0022904D101E00088AF
:10B7300000E04088208021886088814211D9284615
:10B74000A5DF0126B0B1112816D0FFF751FB024644
:10B750000B480C49401AC00806EB00400AA1FEF74E
:10B7600047FFA179E079814208D92846BDE87040B9
:10B77000FDF7CCBA6671F4E72671F2E770BD000000
:10B7800010D3020010D3020073645F626C655F67C0
:10B79000617474635F65786368616E67655F6D741B
:10B7A000755F72657175657374282920726574758B
:10B7B000726E65642025732E000000007CB506467D
:10B7C0008D88C88806EBC504A41D172800D2172051
:10B7D0002188814200D8084660800020207121889D
:10B7E0002846B5DF60B1FFF703FB02460F4810495A
:10B7F000401AC008012101EB00400EA1FEF7F8FE3F
:10B800006079002810D1306900280DD01549D1E9A0
:10B810000201CDE90001ADF802506088ADF80400E6
:10B8200032696946304690477CBD000010D3020063
:10B8300010D3020073645F626C655F676174747338
:10B840005F65786368616E67655F6D74755F72656B
:10B85000706C7928292072657475726E6564202574
:10B86000732E00003CC702007FB51A4D8188AA885C
:10B8700091422DD110F8061F022929D14188EA886A
:10B88000914225D1017A042922D0062920D0052908
:10B890001ED0841C00200090022101900290039091
:10B8A0008DF80010297E19B101218DF8061001E0F4
:10B8B00040F2FD10ADF80400A8886946B0DF1128F9
:10B8C000FAD0BDF80400002802D12046FCF700F9A8
:10B8D0007FBD00003C420020F0B587B00C46054615
:10B8E0008E1D8988406906AAFBF764FC182168460A
:10B8F000FAF773FD0195A088069AADF80800039247
:10B9000031882B89002704F11200994202D17389F2
:10B91000022B0DD0AA8991421ED1A96900291BD002
:10B920008DF8007004907089ADF81400A96911E0D9
:10B93000002A11D0FCF7E5FC20B10699012008701F
:10B94000022002E00698077003208DF80000A96924
:10B95000002901D06846884707B0F0BD006801287B
:10B9600003D0022801D0002070470120704700005A
:10B970000449084490F93000082801DB0120704791
:10B9800000207047E83700200449084490F930004F
:10B99000082801D20120704700207047E8370020B6
:10B9A00010B50C46017A052908D0407A38B108480C
:10B9B00008A102682046FEF783FA00E01AB106A14A
:10B9C0002046FEF77DFA2046BDE81040FEF785BA16
:10B9D00004310020257300000D0A000038B5C3882B
:10B9E0000D46044633B114A0009015A216A12846B6
:10B9F000FEF766FA217A05291CD0607A48B1A08842
:10BA0000FEF7B4FC164951F8202016A12846FEF78F
:10BA100057FAA0880021FEF779FE03461049207AE4
:10BA2000143951F8202001B02846BDE830400EA15D
:10BA3000FEF746BA38BD00001B5B306D0000000009
:10BA40001B5B313B33316D0025734C6F6773206492
:10BA5000726F70706564202825642925730D0A00B3
:10BA600004310020257300003C25733E2025733AE5
:10BA7000200000000349884201D10348704700209C
:10BA800070470000002000406830002070B501269B
:10BA900070044FF0E0210025C1F88001084C4010EF
:10BAA000C4F84803C4F8080366602F20FFF7FCF9C8
:10BAB000A660044C2F20A560FFF7F6F9A57070BDB5
:10BAC000001001409030002070B5054688690C4692
:10BAD00000284FF4847128460AD0FFF798F9D5F86A
